:100000000C944A000C945C000C945C000C945C0012
:100010000C945C000C945C000C945C000C94C10289
:100020000C94F7020C945C000C945C000C945C0043
:100030000C9480050C945C000C945C000C945C00A7
:100040000C945C000C945C000C94C1030C945C0058
:100050000C945C000C945C000C945C000C945C00B0
:100060000C945C000C945C000C945C000C945C00A0
:100070000C945C000C945C000C945C000C945C0090
:100080000C94E7000C9423010C945C000C945C002D
:100090000C945C0011241FBECFEFD0E1DEBFCDBFBA
:1000A00021E0A0E0B1E001C01D92A734B207E1F762
:1000B0000E9425060C94B0060C94000096E0811175
:1000C00001C098E094B993E49CBD882319F08CB5E5
:1000D00080618CBD08958EBD0DB407FEFDCF0895DF
:1000E0000DB407FEFDCF8EB508958EBD0DB407FE8D
:1000F000FDCF8EB50895109200011092010110926B
:10010000040110920301109202019C0150E040E0B2
:1001100060E271EA87E090E00E94770621503109A1
:100120003093CD002093CC0084E08093CA0088EB0C
:100130008093C90008951092C90008959091C90054
:1001400090629093C90090910301292F30E0B9018A
:100150006F5F7F4F6F7077274091010150E0641708
:100160007507E9F39F5F909303012B5E3E4FF90102
:100170008083903118F081E0809303010895CF933C
:10018000DF93EC018991811103C0DF91CF91089534
:100190000E949E00F7CF90910201992391F0E09187
:1001A000000121E02E0F20930001F0E0EB5FFE4FF5
:1001B0008081203110F01092000191509093020143
:1001C000089580E008958091020190E008951F92C3
:1001D0001FB61F9211242F932BB72F933F934F934A
:1001E0005F938F939F93EF93FF9380910401282F48
:1001F00030E0A9014F5F5F4F4F705527909100018C
:100200009417150691F09091CE008F5F80930401B2
:100210002B5F3E4FF9019083909102019F5F909375
:100220000201803110F010920401FF91EF919F9133
:100230008F915F914F913F912F912BBF2F911F90E5
:100240001FBE1F9018958F938FB78F938BB78F9387
:10025000EF93FF93E091010180910301E8130DC03A
:100260008091C9008F7D8093C900FF91EF918F919C
:100270008BBF8F918FBF8F91189581E08E0F8093E8
:100280000101F0E0EB5EFE4F80818093CE00809113
:100290000101803150F381E080930101E6CF739832
:1002A0006B9A6C9A749A809810922A011092290184
:1002B0001092250110922601109227011092280118
:1002C0000E94990210923501109236011092370166
:1002D000109238010E94C105609331017093320180
:1002E00080933301909334010895CF93DF93EC0111
:1002F000C11584E0D807ACF4C1308CEFD807A4F066
:10030000209721F08091390183FD11C070E060E0F9
:1003100083E00E9438058EB188708EB9DF91CF914D
:100320000895CFEFD3E0EECFC1E0DCEFEBCFD7FF06
:1003300011C0749B06C070E060E083E00E94380545
:100340007498D195C195D109BE0183E0DF91CF9119
:100350000C9438057499F8CF70E060E083E00E9457
:100360003805749AF1CF80917C00806C80937C007A
:1003700080E00E94230520917C00207C20937C005B
:100380008431910520F09CEE980F80E0089590E074
:10039000FCCF80E008950F931F9397FD15C0009147
:1003A0002B0110912C0120912D0130912E01061767
:1003B00017072807390744F0609325017093260139
:1003C00080932701909328011F910F910895909396
:1003D0002A018093290108956091250170912601D9
:1003E00080912701909128010895609129017091D1
:1003F0002A01072E000C880B990B08954F925F92EB
:100400006F927F928F929F92AF92BF92CF92DF9224
:10041000EF92FF92CF93DF930E9490026B017C01D9
:100420000E94C1054B015C01809131019091320124
:10043000A0913301B091340124013501481A590AC1
:100440006A0A7B0AD0912F01C091300182E34816DD
:1004500051046104710488F48D2F9C2FDF91CF919A
:10046000FF90EF90DF90CF90BF90AF909F908F90D4
:100470007F906F905F904F9008958091350190919B
:100480003601A0913701B0913801A7019601281BD0
:10049000390B4A0B5B0BA8EEB3E00E949606A30152
:1004A00092010E945506C90137FD019695958795E1
:1004B0002D2F3C2F37FF02C02F5F3F4F35952795DB
:1004C000820F931F9093300180932F01C0923501CA
:1004D000D0923601E0923701F092380180923101DA
:1004E00090923201A0923301B0923401B7CF0895B7
:1004F00080913901886080933901089590E080E00F
:100500000E94750180913901877F80933901089598
:1005100080933901089580913901089580E008950C
:1005200060913A0170913B0180913C0190913D01B5
:100530000895EAE6F0E080818F7080838DB18F733B
:100540008DB98EB1806C8EB910923A0110923B0138
:1005500010923C0110923D01808180658083089556
:10056000EAE6F0E080818F70808310923A01109269
:100570003B0110923C0110923D0180818065808397
:1005800008951F921FB61F9211248F939F93AF93CC
:10059000BF938CB186FF0EC087FF0EC080913A01D9
:1005A00090913B01A0913C01B0913D010196A11DAC
:1005B000B11D0DC087FFF2CF80913A0190913B01B0
:1005C000A0913C01B0913D010197A109B10980932F
:1005D0003A0190933B01A0933C01B0933D01BF9140
:1005E000AF919F918F911F901FBE1F9018951F92E2
:1005F0001FB61F9211248F939F93AF93BF939CB10B
:10060000892F807497FF0EC0882371F080913A0182
:1006100090913B01A0913C01B0913D010197A1094E
:10062000B1090DC0882391F380913A0190913B016B
:10063000A0913C01B0913D010196A11DB11D809397
:100640003A0190933B01A0933C01B0933D01BF91CF
:10065000AF919F918F911F901FBE1F901895CF92C1
:10066000DF92EF92FF923091D80031603093D80042
:100670006C01EE24FF24C092E200C72ED82EE92E92
:10068000FF24C092E3006093E4008AE38093DB00E0
:100690008FEF8093E50080E84F3088F010924001A2
:1006A00020FF05C08091D80082608093D80082E04E
:1006B0008093D800FF90EF90DF90CF900895942F13
:1006C0009295907F9093ED009091EE001092EE0045
:1006D0001092F4001092F5001092F6001092F700BC
:1006E0001092F0001092F1001092F2001092F300BC
:1006F0008093EF004F5FD0CF20E1829FC001112493
:100700008093ED000895282F30E0883068F49091B0
:10071000DE0021E030E001C0220F8A95EAF7209543
:1007200029232093DE0008954091DF0028503109ED
:1007300081E090E001C0880F2A95EAF78095842334
:100740008093DF000895482F50E0883060F4909146
:10075000DE0021E030E001C0220F8A95EAF7922BFB
:100760009093DE0008958091DF004850510921E008
:1007700030E001C0220F4A95EAF7822B8093DF0018
:1007800008951F920F920FB60F9211240BB60F927D
:100790002F933F934F935F936F937F938F939F9389
:1007A000AF93BF93EF93FF938091EC00807F803FE6
:1007B00049F18091EE0086FF1FC08091EC0090917E
:1007C000EE001092EE001092EF0082958F700E9462
:1007D000A303FF91EF91BF91AF919F918F917F9173
:1007E0006F915F914F913F912F910F900BBE0F90A2
:1007F0000FBE0F901F901895809140018F5F8093DE
:100800004001E7CF8091DA008093DA00E2CF282F11
:1008100030E0883058F42091DC0030E002C035959B
:1008200027958A95E2F7822F817008958091DD00E7
:1008300090E02850310902C0959587952A95E2F7F6
:10084000F3CF809140010895FC0180914001811116
:1008500001C0089590E080E09093ED002091EE00BB
:1008600025FF1DC09091EE001092EE004091EF0028
:100870004F7043839091F2002091F30092959695EA
:10088000977058E0259F90011124292B31832083F4
:100890002091F000928122FD08C0917007C08F5F07
:1008A000905F8F30C9F680E008959160928334960E
:1008B00090E0491324C0F894909140019150909396
:1008C000400178941092F0001092F1009091410153
:1008D0009295990F90769093F2002091410130917A
:1008E000420193E0369527959A95E1F72093F3001E
:1008F0000E94A30380E88093EF0081E00895209197
:10090000FA0021939F5FD5CF90E080E09093ED00B7
:100910002091EF00207C29F08F5F905F8F30B1F73E
:100920008FEF0895CF93DF93EC010E9484048F3FF3
:10093000E1F120E1829FC00111248093ED008091BC
:10094000EE001092EE008B818F708093EF0080E0BC
:100950009B81891710F11092F0008A8124E0829F18
:10096000C001112484708093F10088818295880FE2
:1009700080768093F2008881998123E0969587950F
:100980002A95E1F78093F3008091EF0080648093D3
:10099000EF0081E0DF91CF910895FE01E80FF11D96
:1009A00094819093FA008F5FD3CF80E0F3CFFF92D2
:1009B0000F931F93CF93DF93909342018093410154
:1009C00070933F0160933E01062F0295000F007661
:1009D00023E0769567952A95E1F7C62F282F229573
:1009E000220F2076F22E33E0969587953A95E1F71F
:1009F000D82F10E0812F0E940704882389F0812FCF
:100A00008295807F8093ED008091EF0087FF08C082
:100A10000093F200C093F300F092F600D093F70039
:100A20001F5F1F3039F7DF91CF911F910F91FF901A
:100A3000089510927C00EAE7F0E085E080838081F1
:100A400080688083089590917C00907C8770982BBB
:100A500090937C0080917A00806480937A008091EA
:100A60007A0086FDFCCF80917800909179000895FE
:100A7000843071F08530B1F08330E9F480919000DA
:100A8000806280939000709399006093980008951D
:100A90008091900080628093900070939B0060939F
:100AA0009A000895809190008860809390007093E0
:100AB0009D0060939C000895843071F08530B1F002
:100AC0008330E9F4809190008F7D809390001092A4
:100AD0009900109298000895809190008F7D8093E6
:100AE000900010929B0010929A00089580919000BF
:100AF000877F8093900010929D0010929C00089533
:100B00001F921FB61F9211248F939F93AF93BF9391
:100B10008091430190914401A0914501B09146011B
:100B20000196A11DB11D8093430190934401A093B0
:100B30004501B0934601BF91AF919F918F911F9056
:100B40001FBE1F90189583E484BD8BE180938100C4
:100B500080E197E29093890080938800109285004D
:100B60001092840082E080936F008AE48093910069
:100B700010924301109244011092450110924601D7
:100B80000895CF92DF92EF92FF920F931F93E0911F
:100B90008400F091850020914301309144014091FF
:100BA000450150914601AAE0B0E00E9496068B01F3
:100BB0009C01CF0168EE73E00E9441066801790153
:100BC000C60ED71EE11CF11CC701B6011F910F9183
:100BD000FF90EF90DF90CF900895E0918400F09126
:100BE000850020914301309144014091450150918D
:100BF0004601A0E1B7E20E9496066E0F7F1F811D9D
:100C0000911D08958F929F92AF92BF92CF92DF92E3
:100C1000EF92FF926C010E94C1054B015C01F12C27
:100C2000E12C0E94C105681979098A099B096C1594
:100C30007D058E059F05A8F3FF90EF90DF90CF9084
:100C4000BF90AF909F908F90089588E19EE00FB67F
:100C5000F894A895809360000FBE909360000E9466
:100C6000A3050E944F010E94190520E044E067E3BC
:100C70007CE082E090E00E942F030E947702A8951A
:100C8000FCCFAA1BBB1B51E107C0AA1FBB1FA617A5
:100C9000B70710F0A61BB70B881F991F5A95A9F725
:100CA00080959095BC01CD010895A1E21A2EAA1B52
:100CB000BB1BFD010DC0AA1FBB1FEE1FFF1FA2170C
:100CC000B307E407F50720F0A21BB30BE40BF50B09
:100CD000661F771F881F991F1A9469F76095709592
:100CE000809590959B01AC01BD01CF010895052E23
:100CF00097FB1EF400940E948E0657FD07D00E94B9
:100D0000550607FC03D04EF40C948E065095409582
:100D1000309521953F4F4F4F5F4F089590958095A7
:100D2000709561957F4F8F4F9F4F08950E94A10648
:100D3000A59F900DB49F900DA49F800D911D11242F
:100D40000895A29FB001B39FC001A39F700D811DA4
:100D50001124911DB29F700D811D1124911D0895C4
:040D6000F894FFCF35
:00000001FF
