:100000000C944A000C9469000C9469000C946900EB
:100010000C9469000C9469000C9469000C944905D7
:100020000C949B050C9469000C9469000C94690075
:100030000C9469000C9469000C9469000C94C30A38
:100040000C9469000C9487040C943A060C94690093
:100050000C9469000C9469000C9469000C9469007C
:100060000C9469000C9469000C9469000C9469006C
:100070000C9469000C9469000C9469000C9469005C
:100080000C9471010C949D010C9469000C9469000E
:100090000C94690011241FBECFEFD0E1DEBFCDBFAD
:1000A00012E0A0E0B1E0E4E5FBE100E00BBF02C03C
:1000B00007900D92AE31B107D9F722E0AEE1B2E080
:1000C00001C01D92A336B207E1F70E940A0C0C94FE
:1000D000A80D0C940000DF92EF92FF920F931F93F4
:1000E000CF93DF93CDB7DEB72C970FB6F894DEBF72
:1000F0000FBECDBFE82EF62E8A01D22E0E94ED054E
:1001000050E040E0D11002C040E054E020E2829F85
:10011000C0011124807E93702E2D2F71822B842B91
:10012000952B9A8389831B82FC824F2D50E0B80166
:10013000CE0105960E94580DCE0101960E94D3076C
:1001400090E02C960FB6F894DEBF0FBECDBFDF91C6
:10015000CF911F910F91FF90EF90DF900895CF9373
:10016000DF9300D0CDB7DEB720E032E13A832983B8
:1001700020E0AE014F5F5F4F62E00E946B000F9086
:100180000F90DF91CF910895CF93DF93EC018C8195
:10019000823091F0803119F181112DC08D81882339
:1001A00039F00E947E048D7FDF91CF910C947B0407
:1001B0000E947E048260F8CF0E947E0481FD1BC0F5
:1001C0008D8124E0829FC00111242E81222319F009
:1001D000919581959109DF91CF910C94BC03888111
:1001E000998125E0969587952A95E1F78F71DF91A2
:1001F000CF910C94AF00DF91CF910895CF93DF930F
:1002000000D0CDB7DEB7562F5A834983AE014F5F7A
:100210005F4F62E00E946B000F900F90DF91CF91D3
:100220000895CF93DF9300D000D0CDB7DEB7942FE1
:1002300070E0762F66277295707F40E0592F462B2D
:10024000572B70E060E049835A836B837C83AE0157
:100250004F5F5F4F63E00E946B000F900F900F9015
:100260000F90DF91CF9108950F93CF93DF9300D03C
:1002700000D0CDB7DEB769834A833B832C83202F20
:10028000AE014F5F5F4F65E00E946B000F900F90D3
:100290000F900F90DF91CF910F91089596E081110B
:1002A00001C098E094B993E49CBD882319F08CB503
:1002B00080618CBD08958EBD0DB407FEFDCF0895FD
:1002C0000DB407FEFDCF8EB508958EBD0DB407FEAB
:1002D000FDCF8EB50895861797070CF4BC01CB01AE
:1002E00008951F920F920FB60F9211240BB60F9222
:1002F0008F939F93EF93FF9380912F02813174F03E
:1003000080E180932F02FF91EF919F918F910F9049
:100310000BBE0F900FBE0F901F9018958091CE00CE
:10032000E0912F0291E09E0F90932F020E2E000C71
:10033000FF0BE05DFD4F8083E6CF1F920F920FB65B
:100340000F9211240BB60F928F939F93EF93FF930D
:10035000E091400281E08E0F809340020E2E000C4F
:10036000FF0BE25EFD4F80818093CE0090914002B2
:1003700080912E02981724F48091400281314CF034
:100380008091C9008F7D8093C90010922E02109237
:100390004002FF91EF919F918F910F900BBE0F90B4
:1003A0000FBE0F901F901895FF920F931F93CF933E
:1003B000DF93FC01F090C90080912F021816E4F73A
:1003C0009091C9009F779093C90020912F02022E2F
:1003D000000C330BC62FD0E02C173D070CF4E901BD
:1003E0008E011127A80160E372E0CF010E94580D31
:1003F00040E150E0401B510BB801605D7D4F80E350
:1004000092E00E94610D80912F028C1B80932F023D
:10041000F092C9008C2FDF91CF911F910F91FF9027
:100420000895CF92DF92EF92FF921F93CF93DF93C5
:100430001F92CDB7DEB77C01162F80912E02882344
:1004400029F08091C90080628093C90080E1C82EA4
:10045000D12C111109C00F90DF91CF911F91FF9006
:10046000EF90DF90CF90089580912E028F30E4F7C7
:1004700080912E02212F30E0A601481B510987FDF3
:100480005395CA01241735070CF4C90189834981A2
:1004900080912E02082E000C990B50E0B701825E6D
:1004A0009D4F0E94580D998180912E02890F809353
:1004B0002E028981181B8091C90080628093C90037
:1004C000C8CF9B01AC0110922F0210922E02109205
:1004D00040021092C80060E472E48FE090E00E9455
:1004E000E90C215031093093CD002093CC0086E0F7
:1004F0008093CA0088E98093C90008951092C900CA
:100500000895CF93DF931F92CDB7DEB789838A30EA
:1005100019F48DE00E94810261E0CE0101960E94F3
:1005200011020F90DF91CF910895FC0101900020FE
:10053000E9F73197BF01681B790B0C941102CF9337
:10054000DF931F92CDB7DEB761E0CE0101960E9426
:10055000D40189810F90DF91CF91089580912F026E
:10056000082E000C990B08952F923F924F925F92A4
:100570006F927F928F929F92AF92BF92CF92DF92B3
:10058000EF92FF920F931F93CF93DF93CDB7DEB718
:100590002B970FB6F894DEBF0FBECDBFFE01B0960D
:1005A000619071908F01F12CE12C80E1882E87E21F
:1005B000982EA12CB12CF301EE0DFF1DD080D1108F
:1005C00019C02B960FB6F894DEBF0FBECDBFDF91DA
:1005D000CF911F910F91FF90EF90DF90CF90BF9040
:1005E000AF909F908F907F906F905F904F903F90D3
:1005F0002F90089585E2D816C9F08D2D0E948102B2
:100600009CE5D91280C0EFEFEE1AFE0AF301EE0D61
:10061000FF1D80818A3029F08C3529F40E948102E7
:1006200072C08AE0FBCF853209F06DC0FFEFEF1A90
:10063000FF0AF301EE0DFF1D8081843609F47AC0B4
:1006400044F4883509F463C0833609F479C08FE334
:10065000E5CF8C3651F08337D1F76801F2E0CF0E49
:10066000D11CF8018081918161C0C80104969B87EB
:100670008A87F80120803180428053802114F0E87D
:100680003F064104510494F1C201B101A501940156
:100690000E940B0D19016B018C014AE0BE016F5FD6
:1006A0007F4FC1010E94730DCE0101960E949502F9
:1006B0001601280188EE281683E03806410451040B
:1006C000ACF480E30E94810294E6291631044104CF
:1006D000510464F480E30E948102EAE02E163104A2
:1006E000410451041CF480E30E9481024AE0BE01EF
:1006F0006F5F7F4FC1010E94730DCE0101960E9472
:1007000095020A851B85FFEFEF1AFF0A54CF680197
:10071000F4E0CF0ED11C40E1BE016F5F7F4FF801C6
:10072000808191810E94730DCE0101960E949502F5
:100730008601E9CF6801F2E0CF0ED11C4AE0ECCF90
:100740006801F2E0CF0ED11CF80180810E94810285
:10075000EFCF73986B9A6A9A729A809810924602B9
:1007600010924502109241021092420210924302EE
:10077000109244020C94C404CF93DF93EC01C11592
:1007800084E0D80794F4C1308CEFD8078CF01C16A5
:100790001D0684F470E060E083E00E947A0ABE01E6
:1007A00084E0DF91CF910C947A0ACFEFD3E0F2CFBF
:1007B000C1E0DCEF70E060E084E00E947A0A662726
:1007C00077276C1B7D0B83E0ECCF0E94420A80E010
:1007D0000E942D0A8431910520F09CEE980F80E054
:1007E000089590E0FCCF80E008950F931F9397FD4C
:1007F00015C00091470210914802209149023091A2
:100800004A02061717072807390744F06093410288
:100810007093420280934302909344021F910F9180
:100820000895909346028093450208956091410295
:100830007091420280914302909144020895609128
:10084000450270914602072E000C880B990B089503
:100850000C94FA040F931F93CF93DF93CCB1D0E0A5
:1008600086E0D595C7958A95E1F7C0FF06C00E943E
:10087000E10490E080E00E94BC03C1FF27C00E9419
:10088000B2046093470270934802809349029093A8
:100890004A0200914102109142022091430230919C
:1008A0004402601771078207930744F46093410282
:1008B00070934202809343029093440290E080E060
:1008C000DF91CF911F910F910C94BC03DF91CF91D9
:1008D0001F910F91089580914B02816080934B028C
:1008E000089590E080E00E94BC0380914B028E7FCF
:1008F00080934B02089580934B02089580914B02A0
:1009000008958CB1829586958695837008951F927F
:100910000F920FB60F9211248F939F9380914F02E5
:100920008F5F80934F0290914F0280914E029813F7
:1009300012C0809152029091530290935102809381
:100940005002909351028093500210924F021092E5
:100950005302109252029F918F910F900FBE0F90F1
:100960001F90189560915402709155028091560223
:1009700090915702089560935402709355028093AA
:1009800056029093570208958DB38F738DBB8DB12E
:100990008F738DB98EB1806C8EB910925402109203
:1009A0005502109256021092570288E180934E022F
:1009B000EAE6F0E08081806580838DB3806C8DBB3A
:1009C00008958DB38F738DBB10925402109255020F
:1009D0001092560210925702109253021092520235
:1009E000109251021092500210924F028DB3806CFF
:1009F0008DBB0895209150023091510280914E029A
:100A0000883131F180914E028A3709F03FC0C90127
:100A1000805B9F4F813A910518F088E180934E02E8
:100A200080914C0290914D0297FD10C0959587954D
:100A300095958795A901440F551F240F351F820FE7
:100A4000931F90934D0280934C0208950396EECF2E
:100A5000C9010496099718F48AE780934E028091A1
:100A60004C0290914D0297FD03969595879595952B
:100A700087956FE0629FA001639F500D1124840F42
:100A8000951F90934D0280934C0208958FEF9FEF36
:100A900008951F920F920FB60F9211248F939F9378
:100AA000AF93BF938CB186FF1FC087FD1FC080919D
:100AB000540290915502A0915602B09157020197AD
:100AC000A109B1098093540290935502A093560254
:100AD000B0935702809152029091530201979093E4
:100AE0005302809352021EC087FDE1CF80915402D1
:100AF00090915502A0915602B09157020196A11D06
:100B0000B11D8093540290935502A0935602B09366
:100B10005702809152029091530201969093530292
:100B200080935202BF91AF919F918F910F900FBE12
:100B30000F901F9018951F920F920FB60F921124CD
:100B40008F939F93AF93BF938CB187FD27C086FD92
:100B500027C08091540290915502A0915602B09105
:100B600057020197A109B10980935402909355024D
:100B7000A0935602B0935702809152029091530273
:100B800001979093530280935202BF91AF919F912E
:100B90008F910F900FBE0F901F90189586FDD9CFA3
:100BA0008091540290915502A0915602B091570243
:100BB0000196A11DB11D8093540290935502A093FC
:100BC0005602B093570280915202909153020196BF
:100BD0009093530280935202D8CF80B18F7080954A
:100BE000089520E1829FC00111248093ED000895B3
:100BF000282F30E0883080F44091DE0021E030E0A2
:100C0000B90102C0660F771F8A95E2F7CB01809584
:100C100084238093DE0008954091DF00285031093D
:100C200081E090E001C0880F2A95EAF7809584233F
:100C30008093DF000895482F50E0883068F4909149
:100C4000DE0021E030E001C0220F8A95EAF7892F0B
:100C5000822B8093DE0008958091DF004850510977
:100C600021E030E001C0220F4A95EAF7822B809301
:100C7000DF0008951F920F920FB60F9211240BB64A
:100C80000F922F933F934F935F936F937F938F9325
:100C90009F93AF93BF93CF93EF93FF93C091ED00DA
:100CA0008091EC00807F803F09F44AC0E091EC0025
:100CB0008E2F82958F7090E1899F9001112420934F
:100CC000ED009091EE0096FF1EC09091EE00109204
:100CD000EE001092EF000E941B06C093ED00FF9102
:100CE000EF91CF91BF91AF919F918F917F916F9134
:100CF0005F914F913F912F910F900BBE0F900FBEC0
:100D00000F901F90189590915C029F5F90935C02EA
:100D1000EE1FEE27EE1FF0E0E65AFD4F9081482FC0
:100D2000477021E030E001C0220F4A95EAF7922B8C
:100D300090839091EE001092EE000E94F805CDCFC6
:100D40008091DA008093DA00C8CFCF92DF92EF92E1
:100D5000FF920F931F93CF93DF936B017C01042FBE
:100D6000122F8091D80081608093D80084E690E0B3
:100D70000E946E0BC701AA27BB278093E200BB2706
:100D8000AF2D9E2D8D2D8093E300C092E40080EB6B
:100D90008093DB008FEF8093E50010925B0210924E
:100DA0005A02D0E0C0E020E8F22ED093ED0080910E
:100DB000EE001092EE001092F4001092F5001092E6
:100DC000F6001092F7001092F0001092F1001092CD
:100DD000F2001092F3000C17F0F4F092EF008C2F59
:100DE0000E941B06CF5FD05FCF30F9F610925C02F5
:100DF00082E08093D80010FF05C08091D800886001
:100E00008093D800DF91CF911F910F91FF90EF90C9
:100E1000DF90CF9008951092EF00E4CF482F282F55
:100E200030E0883060F49091DE00892F90E002C0BD
:100E3000959587954A95E2F7817099270895809155
:100E4000DF0090E02850310902C0959587952A95DA
:100E5000E2F7F2CF282F30E0883060F42091DC00F8
:100E600030E0A90102C0559547958A95E2F7CA017D
:100E7000817008958091DD0090E02850310902C012
:100E8000959587952A95E2F7F3CF80915C020895B6
:100E90000F931F93CF93DF93FC0180915C0281112C
:100EA00006C080E0DF91CF911F910F91089590E0EF
:100EB00080E09093ED0083FB442740F950E0EA0185
:100EC000C65ADD4F2881682F6770062F30E002C0B8
:100ED000359527956A95E2F720FD05C08F5F905FF5
:100EE0008F3039F7DECF4091EF004F704383909100
:100EF000F2002091F30092959695977058E0259F07
:100F000090011124292B318320832091F0009281BC
:100F100022FF34C091609283349690E0491330C030
:100F2000F89490915C02915090935C0278941092A6
:100F3000F0001092F10090915D029295990F9076D9
:100F40009093F20020915D0230915E0293E036951D
:100F500027959A95E1F72093F3000E941B062881BC
:100F600081E090E001C0880F0A95EAF7809582231E
:100F7000888380E88093EF0081E094CF9170CBCF9D
:100F80002091FA0021939F5FC9CF90E080E0909379
:100F9000ED002091EF00207C29F08F5F905F8F3073
:100FA000B1F78FEF0895CF93DF93EC010E94C5074F
:100FB0008F3FF1F190E1899F900111242093ED0082
:100FC0009091EE001092EE009B819F709093EF0045
:100FD00090E02B81921720F11092F0002A8194E08A
:100FE000299F9001112424702093F10098819295FB
:100FF000990F90769093F2002881398193E036958D
:1010000027959A95E1F72093F3009091EF00906473
:101010009093EF000E941B0681E0DF91CF9108952D
:10102000FE01E90FF11D24812093FA009F5FD1CFCB
:1010300080E0F3CFFF920F931F93CF93DF939093B2
:101040005E0280935D027093590260935802062FEE
:101050000295000F007623E0769567952A95E1F7D3
:10106000C62F282F2295220F2076F22E33E0969558
:1010700087953A95E1F7D82F10E0812F0E942A0733
:10108000882389F0812F8295807F8093ED00809165
:10109000EF0087FF08C00093F200C093F300F092C6
:1010A000F600D093F7001F5F1F3039F7DF91CF9123
:1010B0001F910F91FF9008952F923F924F925F9250
:1010C0006F927F928F929F92AF92BF92CF92DF9258
:1010D000EF92FF920F931F93CF93DF93612CD0E099
:1010E000C0E02C2E6092ED004090EE00842C912CFC
:1010F000B12CA12C7090EF00C72CD12CF12CE12C3D
:10110000272D2F70322E8091F2000091F3008295EE
:101110008695877098E0099F80011124082B8C2FF9
:101120000E940E0734E4532E892B11F025E4522E31
:10113000822D0E942A078111C7C084E41F921F924A
:101140001F924F921F923F921F930F931F925F9295
:101150001F928F93DF93CF9383E291E09F938F93BE
:101160000E94B4028DB79EB740960FB6F8949EBF0A
:101170000FBE8DBF81149104A104B104F1F185E685
:1011800091E09F938F930E94B4020F900F9010E014
:1011900000E081E090E0002E02C0880F991F0A94C1
:1011A000E2F7092E000CAA0BBB0B88219921AA217A
:1011B000BB21892B8A2B8B2B99F0F801EE0FFF1F97
:1011C000E050FF4F81818F9380818F9382E591E082
:1011D0009F938F930E94B4020F900F900F900F90E7
:1011E0000F5F1F4F08301105A1F686E591E09F9330
:1011F0008F930E94B4020F900F901F921F921F9224
:101200007F9288E591E09F938F930E94B4020F90A4
:101210000F900F900F900F900F9075FE08C087E60B
:1012200091E09F938F930E94B4020F900F9074FEF1
:1012300008C08DE691E09F938F930E94B4020F90B7
:101240000F9086E0F694E794D794C7948A95D1F7E7
:1012500082E0C816D104E104F104C1F193E0C9169B
:10126000D104E104F104A9F183E791E0CA94CD2807
:10127000CE28CF2811F487E791E09F938F930E94A7
:10128000B4020F900F9086E891E09F938F930E9495
:10129000B402219680E1680E0F900F9090EF6912D2
:1012A00020CFDF91CF911F910F91FF90EF90DF90B2
:1012B000CF90BF90AF909F908F907F906F905F90F6
:1012C0004F903F902F90089585E438CF8CE791E0C0
:1012D000D4CF81E891E0D1CF8F929F92AF92BF920D
:1012E000CF92DF92EF92FF920F931F93CF93DF93F2
:1012F000CDB7DEB72C970FB6F894DEBF0FBECDBFCB
:10130000E982FA820B831C832D833E834F835887A7
:1013100069877A878B879C8789E891E09F938F9371
:101320000E94B402E12EF12C1F921F938B811F9219
:101330001F921F928F938A818F9389818F9389E95E
:1013400091E09F938F930E94B40287EB91E09F936B
:101350008F930E94B4026E0185E0C80ED11C0FB6B7
:10136000F894DEBF0FBECDBF10E000E04701F1E012
:101370008F1A91089DEBA92E91E0B92E0E151F052D
:101380008CF182EC91E09F938F930E94B402FE0156
:1013900031966F010F900F908F018DECA82E81E098
:1013A000B82EC8018C199D098E159F05BCF180EDE2
:1013B00091E09F938F930E94B4020F900F902C9610
:1013C0000FB6F894DEBF0FBECDBFDF91CF911F9156
:1013D0000F91FF90EF90DF90CF90BF90AF909F90D4
:1013E0008F90089581E791E08016910611F485EEC3
:1013F00091E0F60121916F019F938F931F921F92AD
:101400001F922F93BF92AF920E94B4020F5F1F4FA3
:101410000FB6F894DEBF0FBECDBFB0CFF801848108
:1014200090EE980F903608F08EE21F928F93BF9245
:10143000AF920E94B4020F5F1F4F0F900F900F905A
:101440000F90AFCF80E480937C00EAE7F0E086E085
:101450008083808180688083089590917C00907C57
:101460008770982B90937C0080917A0080648093A1
:101470007A0080917A0086FDFCCF8091780090916F
:101480007900089580917C00807C61F480917C00DB
:10149000806C80937C0085E090E00E946E0B80E081
:1014A0000C942D0A089580917C00807C79F08091C5
:1014B0007C008F7380937C0080E480937C0085E0C7
:1014C00090E00E946E0B80E00C942D0A08950E941B
:1014D000420A81E00E942D0A9C0145E0220F331F41
:1014E0004A95E1F753E0880F991F5A95E1F7820F6B
:1014F000931F08957370843071F08530B1F083309C
:10150000E9F4809190008068809390007093990036
:10151000609398000895809190008062809390007D
:1015200070939B0060939A0008958091900088606A
:101530008093900070939D0060939C000895843088
:1015400071F08530B1F08330E9F4809190008F77AD
:1015500080939000109299001092980008958091C5
:1015600090008F7D8093900010929B0010929A00C3
:10157000089580919000877F8093900010929D0045
:1015800010929C0008951F920F920FB60F92112493
:101590008F939F93AF93BF9380915F02909160026E
:1015A000A0916102B09162020196A11DB11D8093CC
:1015B0005F0290936002A0936102B0936202BF91B8
:1015C000AF919F918F910F900FBE0F901F90189524
:1015D00083E484BD91E090936E008BE18093810061
:1015E00083E08093800020E137E2309389002093EC
:1015F0008800109285001092840090936F00809371
:10160000900082E08093910010925F02109260023D
:1016100010926102109262020895CF92DF92EF92CF
:10162000FF92209184003091850080915F0290911B
:101630006002A0916102B09162026C017D01CC0C4C
:10164000DD1CEE1CFF1CCC0CDD1CEE1CFF1C8C0DED
:101650009D1DAE1DBF1D6C017D01CC0CDD1CEE1C63
:10166000FF1CCC0CDD1CEE1CFF1CCC0CDD1CEE1C8E
:10167000FF1C36952795A3E1B3E80E942A0D0024AC
:10168000880F991F001C880F991F001C892F902D0F
:10169000A7019601280F391F411D511DCA01B9012B
:1016A000FF90EF90DF90CF900895E0918400F0914B
:1016B000850020915F02309160024091610250915B
:1016C0006202A0E4BCE90E94390DEE0FFF1FEE0F8D
:1016D000FF1F6E0F7F1F811D911D08954F925F9216
:1016E0006F927F928F929F92AF92BF92CF92DF9232
:1016F000EF92FF922C01209184003091850080911F
:101700005F0290916002A0916102B09162024C016F
:101710005D01880C991CAA1CBB1C880C991CAA1C76
:10172000BB1C880D991DAA1DBB1D4C015D01880CB9
:10173000991CAA1CBB1C880C991CAA1CBB1C880CDD
:10174000991CAA1CBB1C36952795A3E1B3E80E94FF
:101750002A0D0024880F991F001C880F991F001C58
:10176000892F902D880E991EA11CB11C712C612C03
:10177000209184003091850080915F0290916002F9
:10178000A0916102B09162026C017D01CC0CDD1C64
:10179000EE1CFF1CCC0CDD1CEE1CFF1C8C0D9D1DDB
:1017A000AE1DBF1D6C017D01CC0CDD1CEE1CFF1CB1
:1017B000CC0CDD1CEE1CFF1CCC0CDD1CEE1CFF1C3D
:1017C00036952795A3E1B3E80E942A0D0024880FDF
:1017D000991F001C880F991F001C892F902DC80E7F
:1017E000D91EE11CF11CC818D908EA08FB08C4146A
:1017F000D504E604F70408F4BBCFFF90EF90DF9028
:10180000CF90BF90AF909F908F907F906F905F90A0
:101810004F900895CF93DF9300D000D0CDB7DEB7BF
:1018200088E18DB90E94E80A60E07BE480E090E006
:101830000E9461022FEF44E860E221504040604086
:10184000E1F700C0000078940E94C4041EB81C8216
:101850001B82E12CFF24F39423E0C22ED12C212CF7
:1018600038E0332E812C48EF942E0E94B2042B01D5
:10187000C701841995099A83898329813A812A1994
:101880003B09A980BA8089819A818130944024F0F3
:1018900080E094E09A83898389819A8181159C4FA5
:1018A00024F480E09CEF9A83898349815A818B815B
:1018B0009C816BE0649F8001659F100D1124B6012F
:1018C0000E94D50C060F171F86E0829FB001839FF0
:1018D000700D1124060F171F89819A8105972CF42A
:1018E00089819A818C3F9F4F44F449815A818B8131
:1018F0009C81840F951F9C838B838B819C8181307D
:10190000984014F03C822B828B819C818115984FEA
:1019100014F49C828B8201306CEF160714F401E002
:101920001CEF011584E0180714F00FEF13E08B8112
:101930009C81E981FA811F930F936AE0629FA00165
:10194000639F500D11245F934F936AE070E00E94F3
:10195000D50C7F936F93FF93EF935F924F92FF921B
:10196000EF9280E191E09F938F930E94B402C801AF
:101970000E94BC0384E190E00E946E0B0FB6F894C5
:10198000DEBF0FBECDBF659904C090E4E90EF11C27
:101990006CCF20E2E21AF108E11441E0F4060CF009
:1019A00064CFE12CFF24F39460CF97FB072E16F44D
:1019B000009407D077FD09D00E94440D07FC05D0A4
:1019C0003EF4909581959F4F0895709561957F4F56
:1019D0000895A1E21A2EAA1BBB1BFD010DC0AA1F70
:1019E000BB1FEE1FFF1FA217B307E407F50720F088
:1019F000A21BB30BE40BF50B661F771F881F991F03
:101A00001A9469F760957095809590959B01AC014B
:101A1000BD01CF010895052E97FB1EF400940E948E
:101A2000220D57FD07D00E94E90C07FC03D04EF4AD
:101A30000C94220D50954095309521953F4F4F4F76
:101A40005F4F089590958095709561957F4F8F4F6A
:101A50009F4F0895A29FB001B39FC001A39F700D37
:101A6000811D1124911DB29F700D811D1124911DA6
:101A700008950E942A0DA59F900DB49F900DA49FDC
:101A8000800D911D11240895AA1BBB1B51E107C0B5
:101A9000AA1FBB1FA617B70710F0A61BB70B881FFE
:101AA000991F5A95A9F780959095BC01CD0108958D
:101AB000FB01DC0102C001900D9241505040D8F76B
:101AC00008956817790768F4FB01DC01E40FF51F3E
:101AD000A40FB51F02C002900E9241505040D8F79B
:101AE00008950C94580DBB274A3031F4992322F401
:101AF000BDE2909581959F4F0C947F0DBB27FB0114
:101B00005527AA27880F991FAA1FA41710F0A41BF6
:101B100083955051B9F7A05DAA3308F0A95DA19350
:101B2000009779F7B111B1931192CB010C94980DF4
:101B3000DC01FC01672F71917723E1F7329704C034
:101B40007C916D9370836291AE17BF07C8F30895BF
:041B5000F894FFCF37
:101B5400E601EE01F701FF0107020F021402190268
:101B640025642025642025642025642025642025FF
:101B7400640A006D6F622025643A20282563292CAD
:101B840020493D25632C204944543D25642C2044A0
:101B94004C433D25642C2043414E53543D3078251D
:101BA4005800257320007D002C2043414E43443DC2
:101BB40030782558207B0052504C562000322E306D
:101BC40042200044495300454E545800454E525853
:101BD4000046425258007D0A000A2D43414E204DD2
:101BE4004553534147452D0A0069643D25642C2023
:101BF400666C6167733D307825582C206C656E6780
:101C040074683D25640A004845583D7B00255825E5
:101C140073007D2C2041534349493D7B00256300DB
:101C24007D0A2D454E442043414E204D455353419A
:101C340047452D0A0A0041434B2045525200464F66
:101C4400524D2045525200435243204552520053B4
:101C540054462045525200424954204552520052A3
:0E1C6400584F4B0054584F4B00444C43570010
:00000001FF
