:100000000C944A000C9469000C9469000C946900EB
:100010000C9469000C9469000C9469000C947007AE
:100020000C94C2070C9469000C9469000C9469004C
:100030000C9469000C9469000C9469000C94F60C03
:100040000C9469000C949A060C9465080C94690051
:100050000C9469000C9469000C9469000C9469007C
:100060000C9469000C9469000C9469000C9469006C
:100070000C9469000C9469000C9469000C9469005C
:100080000C946C030C9496030C9469000C94690016
:100090000C94690011241FBECFEFD0E1DEBFCDBFAD
:1000A00012E0A0E0B1E0E8EBFDE100E00BBF02C030
:1000B00007900D92A432B107D9F712E0A4E2B2E0A2
:1000C00001C01D92A936B107E1F70E946E010C94A0
:1000D000DA0E0C9400005F926F927F928F929F9243
:1000E000AF92BF92CF92DF92EF92FF920F931F9346
:1000F000DF93CF93CDB7DEB72C970FB6F894DEBF62
:100100000FBECDBFE982FA82C02E0B83E12F1C8384
:100110002D833E834F83588769877A878B879C8797
:1001200009811A815E2E00D080E091E0ADB7BEB7A4
:1001300012969C938E9311970E946B04A52CBB245E
:10014000EDB7FEB738970FB6F894FEBF0FBEEDBF00
:10015000319680E191E0ADB7BEB712969C938E9335
:10016000119713830283DD24EE24FF24C482D582F9
:10017000E682F782B186A0860E946B04EDB7FEB7D7
:1001800038960FB6F894FEBF0FBEEDBF8EE291E039
:10019000928381830E946B0425E0C22ED12CCC0E69
:1001A000DD1E760100E010E00F900F9045010894ED
:1001B0008108910897E3692E91E0792E31C0D7012B
:1001C0008C910815190519F024E331E002C026E3EB
:1001D00031E0EDB7FEB738970FB6F894FEBF0FBE0B
:1001E000EDBF3196ADB7BEB712967C926E92119765
:1001F00090E0A0E0B0E082839383A483B58337834B
:1002000026830E946B040F5F1F4F0894E11CF11CB2
:10021000EDB7FEB738960FB6F894FEBF0FBEEDBF30
:100220000A151B0564F200D08CE391E0ADB7BEB7B0
:1002300012969C938E9311970E946B040F900F90CF
:100240008E01050D111D0B5F1F4F87E4E82E81E025
:10025000F82E20C0F6019081892F8052803618F048
:100260008EE290E002C0892F90E000D000D0ADB7C0
:10027000BEB71296FC92EE92119714969C938E93B1
:1002800013970E946B040894C11CD11C0F900F900F
:100290000F900F90C016D106E9F600D08AE491E0E5
:1002A000EDB7FEB7928381830E946B040F900F908D
:1002B0002C960FB6F894DEBF0FBECDBFCF91DF9165
:1002C0001F910F91FF90EF90DF90CF90BF90AF9074
:1002D0009F908F907F906F905F9008952F923F92A4
:1002E0004F925F926F927F928F929F92AF92BF9246
:1002F000CF92DF92EF92FF920F931F93DF93CF93F2
:1003000000D000D0CDB7DEB788E18DB90E941B0DBB
:1003100060E07BE480E090E00E94CF0384E09AE11B
:1003200020E931E0F9013197F1F70197D9F7789495
:100330000E94DD061EB81A821982C12CB1E0DB2EA4
:10034000212CA8E03A2E412CF8EF5F2EE0E66E2E2D
:10035000E1E07E2E0E94C9065B01C6018A199B0955
:100360009C838B83EB80FC80E818F9088B809C8051
:100370002B813C8189819A812E0D3F1D890173E07B
:10038000000F111F7A95E1F7220F331F020F131F81
:1003900062E070E00E943E0E060F171F8B819C8169
:1003A00005972CF48B819C818C5F9F4F44F42981AD
:1003B0003A818B819C81820F931F9A8389838981E3
:1003C0009A818150984014F03A82298289819A81D9
:1003D0008050984F14F45A82498284E00030180704
:1003E0001CF00FEF13E006C09CEF0130190714F466
:1003F00001E01CEF2B813C8189819A81ADB7BEB7AA
:100400001E970FB6F894BEBF0FBEADBFEDB7FEB7D7
:10041000319612967C926E921197D382C282B582E7
:10042000A482378326836AE070E00E943E0E7187C3
:100430006087C70153E0880F991F5A95E1F7EE0CCA
:10044000FF1C8E0D9F1D93878287158704870E944E
:100450006B044DB75EB7425F5F4F0FB6F8945EBF57
:100460000FBE4DBFC8010E941A0682E390E00E94B1
:10047000990D659905C080E490E0C80ED91E6ACF39
:10048000A0EEBFEFCA0EDB1EBFEFCB16D10411F0FA
:100490000CF060CFC12C31E0D32E5CCFDF92EF9215
:1004A000FF920F931F93DF93CF93CDB7DEB72C97B7
:1004B0000FB6F894DEBF0FBECDBF082FF62EE42E88
:1004C000D52E122F0E941408112319F040E050E09D
:1004D00002C040E054E090E08F71907025E0880FFA
:1004E000991F2A95E1F7202F30E02F713070822B71
:1004F000932B842B952B9A8389831B82FC829E01EC
:100500002B5F3F4FC9016E2D7D2D4F2D50E00E9476
:100510008E0ECE0101960E94D20990E02C960FB665
:10052000F894DEBF0FBECDBFCF91DF911F910F9129
:10053000FF90EF90DF9008950F93DF93CF9300D05B
:1005400000D00F92CDB7DEB73A83298365E0AE01C4
:100550004F5F5F4F202F0E944E020F900F900F9021
:100560000F900F90CF91DF910F910895EF92FF922E
:100570000F931F93DF93CF9300D000D0CDB7DEB79A
:10058000F62EF29430EFF322EE24742F60E0E62A88
:10059000F72A00E010E0E982FA820B831C8363E013
:1005A000AE014F5F5F4F0E944E020F900F900F9071
:1005B0000F90CF91DF911F910F91FF90EF900895D1
:1005C000DF93CF9300D0CDB7DEB750E0F62FE0E059
:1005D0004E2B5F2B5A83498362E0AE014F5F5F4F22
:1005E0000E944E020F900F90CF91DF910895DF93FC
:1005F000CF9300D0CDB7DEB720E032E13A83298334
:1006000062E0AE014F5F5F4F20E00E944E020F900C
:100610000F90CF91DF910895CF93DF93EC01888104
:1006200099812C81223089F0203121F1222351F54A
:100630008D81882321F00E94FE058D7F03C00E94DA
:10064000FE0582600E94FB051DC00E94FE0581FD23
:1006500019C08D81282F30E0220F331F220F331F46
:100660008E81882319F0309521953F4FC9010E9452
:100670001A0608C045E0969587954A95E1F78F716F
:100680000E94F702DF91CF910895982F882311F0EF
:1006900086E001C088E084B983E48CBD992319F019
:1006A0008CB580618CBD08958EBD0DB407FEFDCF65
:1006B00008950DB407FEFDCF8EB508958EBD0DB41F
:1006C00007FEFDCF8EB50895AC019B014617570775
:1006D0000CF49A01C90108951F920F920FB60F9260
:1006E0000BB60F9211248F939F93EF93FF938091FA
:1006F0003502813114F080E10CC080913502E82F81
:10070000FF27E7FDF0959091CE00EA5CFD4F9083C6
:100710008F5F80933502FF91EF919F918F910F90A2
:100720000BBE0F900FBE0F901F9018951F920F9247
:100730000FB60F920BB60F9211248F939F93EF93E6
:10074000FF9390914602E92FFF27E7FDF095EC5DBE
:10075000FD4F80818093CE009F5F909346029091E1
:10076000460280913402981724F480914602813128
:100770005CF08091C9008F7D8093C9001092340293
:100780008091340280934602FF91EF919F918F9167
:100790000F900BBE0F900FBE0F901F9018959B01EE
:1007A000AC01109235021092340280913402809391
:1007B00046021092C80060E472E48FE090E00E946C
:1007C000510E215030403093CD002093CC0086E074
:1007D0008093CA0088E98093C90008951092C900E7
:1007E000089520913502332727FD3095C9010895DA
:1007F000DF92EF92FF920F931F93DF93CF930F92AD
:10080000CDB7DEB7D82E092F162F8091340288235A
:10081000A9F18091C90080628093C9002FC08091A6
:1008200034028F30E4F780913402212F30E0992791
:1008300087FD9095A701481B590B421753070CF4ED
:100840009A012983209134024981332727FD30956D
:100850002C5D3D4FC9016D2D702F50E00E948E0E12
:10086000809134029981890F809334028981181B09
:100870008091C90080628093C90003C080E1E82EA6
:10088000F12C112361F60F90CF91DF911F910F9101
:10089000FF90EF90DF900895DC010D900020E9F7C4
:1008A0001197A81BB90B6A2F0E94F8030895DF93D4
:1008B000CF930F92CDB7DEB789838A3019F48DE0DC
:1008C0000E945704CE01019661E00E94F8030F9048
:1008D000CF91DF9108956F927F928F929F92AF9206
:1008E000BF92CF92DF92EF92FF920F931F93DF930D
:1008F000CF93CDB7DEB729970FB6F894DEBF0FBE02
:10090000CDBF2AE1E22EF12CEC0EFD1EF701619025
:1009100071907F01CC24DD245E010894A11CB11CE0
:10092000BDC01532C1F0812F0E9457041C3509F05B
:10093000B2C00894C11CD11CF301EC0DFD1DE08177
:10094000EA3021F0EC3521F48CE5A3C08AE0A1C0A7
:10095000E53209F0A0C00894C11CD11CF301EC0DD4
:10096000FD1DE081E43609F474C0E5363CF4E83559
:1009700009F465C0E33609F08BC081C0EC3621F084
:10098000E33709F085C074C094E0892E912C8E0C59
:100990009F1CF701E080F18002811381F0E0EF16E7
:1009A000F0E8FF06F0E00F07F0E01F07ECF1C801E8
:1009B000B70120E137E240E050E00E94730EDA0117
:1009C000C901B5014AE050E00E94A90EC5010E948C
:1009D0004C04C801B70120E137E240E050E00E943A
:1009E000730EAC01CB01DA017C018D0188EEE816B3
:1009F00083E0F80680E0080780E01807ACF480E3A5
:100A00000E945704E4E6EE16F1040105110564F4B2
:100A100080E30E945704FAE0EF16F1040105110586
:100A20001CF480E30E945704C701B5014AE050E07E
:100A30000E94A90EC5010E944C0474012CC08701BC
:100A40000C5F1F4FF70180819181B50140E150E0BB
:100A500009C087010E5F1F4FF70180819181B501A9
:100A60004AE050E00E94A90EC5010E944C040EC04D
:100A700087010E5F1F4FF70180819181F6CF8701BB
:100A80000E5F1F4FF70180810E945704780103C059
:100A90008FE30E9457040894C11CD11CF301EC0D94
:100AA000FD1D1081112309F03CCF29960FB6F89453
:100AB000DEBF0FBECDBFCF91DF911F910F91FF9091
:100AC000EF90DF90CF90BF90AF909F908F907F90EE
:100AD0006F900895CF92DF92EF92FF920F931F9342
:100AE000CF93DF93482FC090C9008091350218162C
:100AF000E4F78091C9008F778093C9008091350217
:100B0000C62FD0E0282F332727FD30952C173D071F
:100B10000CF4E9010C2F10E036E3E32E32E0F32E63
:100B2000842FB7014C2F50E00E948E0E40E150E020
:100B3000401B510BC7010E0D1F1DB8010E94970EDF
:100B4000809135028C1B80933502C092C9008C2F96
:100B5000DF91CF911F910F91FF90EF90DF90CF9099
:100B60000895DF93CF930F92CDB7DEB7CE010196F4
:100B700061E00E946A0589810F90CF91DF9108950D
:100B800080E008959B01AC0197FD15C080914D0256
:100B900090914E02A0914F02B0915002821793079C
:100BA000A407B50744F020934702309348024093CE
:100BB000490250934A02089590934C0280934B024D
:100BC0000895609147027091480280914902909186
:100BD0004A02089520914B0230914C02442737FD80
:100BE0004095542FB901CA01089580915102816046
:100BF000809351020895809351020895809151028B
:100C000008958CB1829586958695837008950E948B
:100C1000130708950E94880C80E00E94590C8431CB
:100C2000910518F420E030E003C04497382F2227C4
:100C3000C9010895CF93DF93EC0184E0C030D80759
:100C40001CF0CFEFD3E007C08CEFC130D8075CF0C9
:100C50001C161D0654F483E060E070E00E94AD0CA9
:100C600084E0BE010CC0C1E0DCEF84E060E070E035
:100C70000E94AD0C662777276C1B7D0B83E00E94DA
:100C8000AD0CDF91CF91089580E090E00E941A06AC
:100C9000809151028E7F8093510208951F938CB1F1
:100CA0008295869586958370182F10FF06C00E9446
:100CB000FA0680E090E00E941A0611FF25C00E940B
:100CC000C9069B01AC0160934D0270934E02809364
:100CD0004F02909350028091470290914802A09158
:100CE0004902B0914A02281739074A075B0744F4C2
:100CF00020934702309348024093490250934A029E
:100D000080E090E00E941A061F91089573986B9AF4
:100D10006A9A729A809810924C0210924B0210922A
:100D20004702109248021092490210924A020E9411
:100D3000DD0608951F920F920FB60F9211248F9324
:100D40009F93809155028F5F809355029091550239
:100D5000809154029817B1F48091580290915902F1
:100D600090935702809356028091560290915702B9
:100D70009093570280935602109255021092590296
:100D8000109258029F918F910F900FBE0F901F905D
:100D9000189520915A0230915B0240915C0250916B
:100DA0005D02B901CA01089560935A0270935B0213
:100DB00080935C0290935D0208958DB38F738DBB19
:100DC0008DB18F738DB98EB1806C8EB910925A022D
:100DD00010925B0210925C0210925D0288E1809397
:100DE0005402EAE6F0E08081806580838DB3806CF8
:100DF0008DBB08958DB38F738DBB10925A021092E4
:100E00005B0210925C0210925D02109259021092E5
:100E100058021092570210925602109255028DB34A
:100E2000806C8DBB0895609156027091570280913D
:100E30005402883151F5CB010496099718F48AE7DA
:100E40008093540280915202909153029C0137FD8D
:100E500019C0A9015595479555954795CB01880F20
:100E6000991F860F971F9C01220F331F220F331FDC
:100E7000820F931F480F591F509353024093520201
:100E8000CA0108952D5F3F4FE4CF809154028A3705
:100E900019F04FEF5FEFF4CFCB01805B9F4F813AAA
:100EA000910518F088E1809354028091520290914C
:100EB00053029C0137FD11C0A901559547955595E1
:100EC0004795CB01880F991F860F971F480F591F11
:100ED0005093530240935202D3CF2D5F3F4FECCF3C
:100EE0001F920F920FB60F9211248F939F93AF937F
:100EF000BF938CB186FF1FC087FD1FC080915A022F
:100F000090915B02A0915C02B0915D020197A109F2
:100F1000B10980935A0290935B02A0935C02B09354
:100F20005D02809158029091590201979093590265
:100F3000809358021EC087FDE1CF80915A029091A4
:100F40005B02A0915C02B0915D020196A11DB11DF2
:100F500080935A0290935B02A0935C02B0935D026F
:100F60008091580290915902019690935902809372
:100F70005802BF91AF919F918F910F900FBE0F902C
:100F80001F9018951F920F920FB60F9211248F93F6
:100F90009F93AF93BF938CB187FD27C086FD27C079
:100FA00080915A0290915B02A0915C02B0915D0227
:100FB0000197A109B10980935A0290935B02A09313
:100FC0005C02B0935D0280915802909159020197A2
:100FD0009093590280935802BF91AF919F918F9146
:100FE0000F900FBE0F901F90189586FDD9CF80915E
:100FF0005A0290915B02A0915C02B0915D02019651
:10100000A11DB11D80935A0290935B02A0935C02D4
:10101000B0935D028091580290915902019690938D
:10102000590280935802D8CF80B18F70809508956F
:1010300090E024E0880F991F2A95E1F78093ED0056
:101040000895382F883070F42091DE0081E090E020
:1010500002C0880F991F3A95E2F78095822380930A
:10106000DE0008954091DF00282F30E02850304006
:1010700081E090E002C0880F991F2A95E2F78095E1
:1010800084238093DF000895382F883068F42091FE
:10109000DE0081E090E002C0880F991F3A95E2F7E8
:1010A000282B2093DE0008954091DF00282F30E0A8
:1010B0002850304081E090E002C0880F991F2A95A7
:1010C000E2F7482B4093DF0008951F920F920FB66E
:1010D0000F920BB60F9211241F932F933F934F93B0
:1010E0005F936F937F938F939F93AF93BF93EF9390
:1010F000FF931091ED008091EC00807F803FE9F13B
:101100003091EC0032953F70432F50E0CA0174E0FB
:10111000880F991F7A95E1F78093ED008091EE009A
:1011200086FF0AC08091EE001092EE001092EF0050
:10113000832F0E94440825C0809162028F5F8093B4
:101140006202FA0163E0F695E7956A95E1F7E05AE5
:10115000FD4F20814770507081E090E002C0880F01
:10116000991F4A95E2F7282B20838091EE00109278
:10117000EE00832F0E94210804C08091DA00809342
:10118000DA001093ED00FF91EF91BF91AF919F9125
:101190008F917F916F915F914F913F912F911F910F
:1011A0000F900BBE0F900FBE0F901F901895982FA9
:1011B000883050F48091DE00282F30E002C0359551
:1011C00027959A95E2F70CC08091DF00282F30E038
:1011D000892F90E0089702C0359527958A95E2F708
:1011E00021703070C9010895482F883050F48091E3
:1011F000DC0090E002C0959587954A95E2F78170F2
:1012000008952091DD0030E090E0089702C0359508
:1012100027958A95E2F7822F817008958091620266
:1012200008951F93DC0180916202882309F4A0C015
:1012300040E050E006C04F5F5F4F4F30510509F46A
:1012400097C0142FCA0174E0880F991F7A95E1F7AF
:101250008093ED00FA0163E0F695E7956A95E1F772
:10126000E170F070E05AFD4F808190E09A012770A4
:10127000307002C0959587952A95E2F780FD04C0ED
:101280001F5F4F305105B9F68091EF008F701396B4
:101290008C9313972091F2008091F30090E033E05B
:1012A000880F991F3A95E1F722952695277030E02F
:1012B000822B932B11969C938E938091F000129623
:1012C0009C91129782FF02C0916001C091701296AA
:1012D0009C93129790E007C08091FA00FD01E90FFE
:1012E000F11D84839F5F13968C9113979817A0F339
:1012F000F8948091620281508093620278941092F7
:10130000F0001092F1008091630290916402282F06
:1013100023702295220F207E2093F200887F977001
:10132000B3E096958795BA95E1F78093F300812F06
:101330000E944408212F30E0F901A3E0F695E795DB
:10134000AA95E1F7E170F070E05AFD4F40812770F7
:10135000307081E090E002C0880F991F2A95E2F773
:1013600080958423808380E88093EF0081E001C032
:1013700080E01F91089520E030E0C901E4E0880F8B
:10138000991FEA95E1F78093ED008091EF00807C52
:1013900011F4822F08952F5F3F4F2F30310569F7E9
:1013A0008FEF0895CF93DF93EC010E94BB09382F94
:1013B0008F3F11F480E041C090E0A4E0880F991FB6
:1013C000AA95E1F78093ED008091EE001092EE0077
:1013D0002B81822F8F708093EF0090E007C0FE0179
:1013E000E90FF11D84818093FA009F5F9217B8F393
:1013F0001092F0008A8180FD02C080E001C084E08C
:101400008093F10088819981282F23702295220FE3
:10141000207E2093F200887F9770F3E09695879561
:10142000FA95E1F78093F3008091EF008064809358
:10143000EF00832F0E94440881E0DF91CF9108954F
:10144000EF92FF920F931F93CF93DF9390936402D9
:101450008093630270935F0260935E02062F0370B5
:101460000295000F007E33E0769567953A95E1F797
:10147000E62E182F13701295110F107E23E096950B
:1014800087952A95E1F7F82EC0E0D0E08C2F0E94D6
:10149000F4088823A1F0CE01B4E0880F991FBA9513
:1014A000E1F78093ED008091EF0087FF08C0009383
:1014B000F200E092F3001093F600F092F70021960C
:1014C000CF30D10519F7DF91CF911F910F91FF9088
:1014D000EF9008952F923F924F925F926F927F927A
:1014E0008F929F92AF92BF92CF92DF92EF92FF9234
:1014F0000F931F93CF93DF9366247724E3ED2E2E73
:10150000E1E03E2E78ED472E71E0572E162DC301F7
:1015100064E0880F991F6A95E1F78093ED00809150
:10152000EE00882E9924AA24BB248091EF00C82EB7
:10153000DD24EE24FF24862D0E94F408882319F46C
:10154000C4E4D0E002C0C5E4D0E0812F0E94D708F7
:10155000892B19F444E450E002C045E450E02091A6
:10156000F2008091F3006DB77EB7605170400FB606
:10157000F8947EBF0FBE6DBFEDB7FEB7319663E73F
:1015800071E0ADB7BEB712967C936E9311977382DC
:101590006282D583C4835783468390E053E0880FEB
:1015A000991F5A95E1F722952695277030E0822BF6
:1015B000932B91878087C6018F7090709387828765
:1015C00084869586A686B7860E946B048DB79EB7E3
:1015D00040960FB6F8949EBF0FBE8DBF8114910444
:1015E000A104B10409F44FC000D0E2EAF1E0ADB7C4
:1015F000BEB71296FC93EE9311970E946B0403E121
:1016000012E0C0E0D0E00F900F9081E090E00C2E4F
:1016100002C0880F991F0A94E2F7AA2797FDA095A8
:10162000BA2F88219921AA21BB210097A105B105D4
:10163000B9F000D000D0E4EAF1E0ADB7BEB7129641
:10164000FC93EE931197D8018D919C91EDB7FEB765
:10165000948383830E946B040F900F900F900F90E0
:1016600021960E5F1F4FC830D10579F600D0E8EA09
:10167000F1E0ADB7BEB71296FC93EE9311970E94BE
:101680006B040F900F9000D000D000D0EAEAF1E098
:10169000ADB7BEB71296FC93EE9311971396CD9209
:1016A000DD92ED92FC9216970E946B04EDB7FEB7A7
:1016B00036960FB6F894FEBF0FBEEDBFC5FE0DC047
:1016C00000D0E9EBF1E0ADB7BEB71296FC93EE9314
:1016D00011970E946B040F900F90C4FE0DC000D0B4
:1016E000EFEBF1E0ADB7BEB71296FC93EE93119716
:1016F0000E946B040F900F90D701C60146E0B6958B
:10170000A795979587954A95D1F781309105A105C1
:10171000B10599F081309105A105B10550F08230F5
:101720009105A105B10569F00397A105B105F1F493
:1017300012C000D0E5ECF1E007C000D0E9ECF1E028
:1017400003C000D0EEECF1E0ADB7BEB71296FC934B
:10175000EE93119707C000D0ADB7BEB712963C927A
:101760002E9211970E946B040F900F9000D0EDB74E
:10177000FEB7528241820E946B040894611C711C66
:101780000F900F90FFE06F16710409F0BFCEDF914C
:10179000CF911F910F91FF90EF90DF90CF90BF906E
:1017A000AF909F908F907F906F905F904F903F9001
:1017B0002F9008957F928F929F92AF92BF92CF9277
:1017C000DF92EF92FF920F931F93CF93DF93962EAA
:1017D000A72EE82E842E722E8091D80081608093EF
:1017E000D80084E690E00E94990DE092E200A09279
:1017F000E3009092E40080EB8093DB008FEF809316
:10180000E500109261028091610280936002C0E065
:10181000D0E010E8CE01F4E0880F991FFA95E1F7C7
:101820008093ED008091EE001092EE001092F40093
:101830001092F5001092F6001092F7001092F0004E
:101840001092F1001092F2001092F3008C1630F416
:101850001093EF008C2F0E94440802C01092EF00FA
:101860002196CF30D105B1F61092620282E08093CA
:10187000D80070FE05C08091D80088608093D800A1
:10188000DF91CF911F910F91FF90EF90DF90CF905C
:10189000BF90AF909F908F907F90089580E4809349
:1018A0007C00EAE7F0E086E08083808180688083C6
:1018B000089590917C008770907C892B80937C00A8
:1018C00080917A00806480937A0080917A0086FD0E
:1018D000FCCF2091780040917900942F80E030E097
:1018E000282B392BC901089580917C00807C79F0E8
:1018F00080917C008F7380937C0080E480937C00D7
:1019000085E090E00E94990D80E00E94590C0895B6
:1019100080917C00807C61F480917C00806C80935D
:101920007C0085E090E00E94990D80E00E94590CB7
:1019300008950E94880C81E00E94590C9C0155E09A
:10194000220F331F5A95E1F743E0880F991F4A95FC
:10195000E1F7280F391FC90108957370843071F0C1
:101960008530B1F08330E9F48091900080688093F5
:101970009000709399006093980008958091900072
:1019800080628093900070939B0060939A0008950A
:101990008091900088608093900070939D00609388
:1019A0009C000895843071F08530B1F08330E9F403
:1019B000809190008F778093900010929900109200
:1019C00098000895809190008F7D809390001092F0
:1019D0009B0010929A00089580919000877F8093D9
:1019E000900010929D0010929C0008951F920F92FB
:1019F0000FB60F9211248F939F93AF93BF93809153
:101A0000650290916602A0916702B091680201960A
:101A1000A11DB11D8093650290936602A093670299
:101A2000B0936802BF91AF919F918F910F900FBEBD
:101A30000F901F90189583E484BD31E030936E00C1
:101A40008BE18093810023E02093800080E197E286
:101A500090938900809388001092850010928400F2
:101A600030936F002093900082E080939100109259
:101A70006502109266021092670210926802089541
:101A8000AF92BF92CF92DF92EF92FF920F931F938C
:101A90008091840090918500A0906502B0906602CC
:101AA000C0906702D09068026AEF70E00E942A0E30
:101AB0007B0100E010E0C601B50128E230E040E023
:101AC00050E00E940B0EE60EF71E081F191FB7010B
:101AD000C8011F910F91FF90EF90DF90CF90BF90C2
:101AE000AF900895EF92FF920F931F93E0908400C0
:101AF000F0908500609165027091660280916702A6
:101B000090916802EE0CFF1CEE0CFF1C00E010E050
:101B100020E43CE940E050E00E940B0EE60EF71E88
:101B2000081F191FB701C8011F910F91FF90EF9077
:101B300008952F923F924F925F926F927F928F9271
:101B40009F92AF92BF92CF92DF92EF92FF920F934C
:101B50001F937C0180918400909185000091650223
:101B60001091660220916702309168026AEF70E07E
:101B70000E942A0E80E090E0662477244301661AD2
:101B8000770A880A990AC901B80128E230E040E0E2
:101B900050E00E940B0E661A770A880A990A17010C
:101BA000442455248091840090918500A090650282
:101BB000B0906602C0906702D09068026AEF70E051
:101BC0000E942A0E7B0100E010E0C601B50128E268
:101BD00030E040E050E00E940B0EE60EF71E081FBA
:101BE000191FE60CF71C081D191DE214F304040567
:101BF0001505C0F21F910F91FF90EF90DF90CF90ED
:101C0000BF90AF909F908F907F906F905F904F901C
:101C10003F902F900895629FD001739FF001829FA3
:101C2000E00DF11D649FE00DF11D929FF00D839F6B
:101C3000F00D749FF00D659FF00D9927729FB00D08
:101C4000E11DF91F639FB00DE11DF91FBD01CF011B
:101C500011240895AA1BBB1B51E107C0AA1FBB1F7B
:101C6000A617B70710F0A61BB70B881F991F5A9528
:101C7000A9F780959095BC01CD01089597FB092E99
:101C800007260AD077FD04D0E5DF06D000201AF43D
:101C9000709561957F4F0895F6F7909581959F4FC8
:101CA0000895A1E21A2EAA1BBB1BFD010DC0AA1F9D
:101CB000BB1FEE1FFF1FA217B307E407F50720F0B5
:101CC000A21BB30BE40BF50B661F771F881F991F30
:101CD0001A9469F760957095809590959B01AC0179
:101CE000BD01CF01089597FB092E05260ED057FDA3
:101CF00004D0D7DF0AD0001C38F4509540953095B9
:101D000021953F4F4F4F5F4F0895F6F7909580957F
:101D1000709561957F4F8F4F9F4F0895FB01DC01B8
:101D200002C001900D9241505040D8F708956817B5
:101D3000790768F4FB01DC01E40FF51FA40FB51F60
:101D400002C002900E9241505040D8F708950C9472
:101D50008E0EFB019F01E8944230C4F04532B4F48A
:101D60004A3029F497FB1EF4909581959F4F642F7C
:101D700077270E942A0E805D8A330CF0895D81935B
:101D8000CB010097A1F716F45DE251931082C901CF
:101D90000C94CA0EDC01FC01672F71917723E1F7E7
:101DA000329704C07C916D9370836291AE17BF0728
:081DB000C8F30895F894FFCF79
:101DB8000A2D43414E204D4553534147452D0A00B6
:101DC80069643D25642C20666C6167733D30782515
:101DD800582C206C656E6774683D25640A00484578
:101DE800583D7B0020000025582573007D2C20419C
:101DF800534349493D7B002563007D0A2D454E44E8
:101E08002043414E204D4553534147452D0A0A0072
:101E18002564202564202564202564202564202548
:101E2800640A006D6F622025643A20282563292CF6
:101E380020493D25632C204944543D25642C2044E9
:101E48004C433D25642C2043414E53543D30782566
:101E580058007B00257320007D002C2043414E4311
:101E6800443D30782558207B0052504C5620003293
:101E78002E3042200044495300454E545800454EE8
:101E880052580046425258007D0A0041434B2045B3
:101E9800525200464F524D20455252004352432061
:101EA800455252005354462045525200424954204C
:101EB8004552520052584F4B0054584F4B00444C17
:101EC800435700DB01E301EC01F401FC01040209C2
:041ED800020E0200F4
:00000001FF
