:100000000C944A000C9469000C9469000C946900EB
:100010000C9469000C9469000C9469000C941C0504
:100020000C946B050C9469000C9469000C946900A5
:100030000C9469000C9469000C9469000C9470098C
:100040000C9469000C94AC040C94B5060C946900F3
:100050000C9469000C9469000C9469000C9469007C
:100060000C9469000C9469000C9469000C9469006C
:100070000C9469000C9469000C9469000C9469005C
:100080000C94FA000C9424010C9469000C946900FF
:100090000C94690011241FBECFEFD0E1DEBFCDBFAD
:1000A00011E0A0E0B1E0EEE0F6E100E00BBF02C03D
:1000B00007900D92AC37B107D9F711E0ACE7B1E08A
:1000C00001C01D92A93CB107E1F70E946B000C949E
:1000D000050B0C940000BF92CF92DF92EF92FF923B
:1000E0000F931F93DF93CF93CDB7DEB72C970FB647
:1000F000F894DEBF0FBECDBF0E94950960EB74E09F
:1001000080E090E00E945D0160E070E080E090E0BF
:1001100043E020E00E945A0680E18DB9789481E0A6
:1001200090E09A8389831B8282E08C8388E48D83AC
:1001300089E68E8390E0C92E91E0D92E7E01089445
:10014000E11CF11C07E111E080E1B82E00D0ADB751
:10015000BEB71296DC92CE9211970E94F9010F90D1
:100160000F90C7010E949D080E94330700D000D065
:10017000EDB7FEB73196ADB7BEB712961C930E938E
:100180001197828313820E94F9010F900F900F90B4
:100190000F900E9420088AEF90E00E94120A8EB110
:1001A0008B258EB9D3CF982F882311F086E001C01C
:1001B00088E084B983E48CBD992319F08CB5806103
:1001C0008CBD08958EBD0DB407FEFDCF08950DB40E
:1001D00007FEFDCF8EB508958EBD0DB407FEFDCF91
:1001E0008EB50895AC019B01461757070CF49A0190
:1001F000C90108951F920F920FB60F920BB60F927E
:1002000011248F939F93EF93FF9380918D01813100
:1002100014F080E10CC080918D01E82FFF27E7FDED
:10022000F0959091CE00E257FE4F90838F5F8093C0
:100230008D01FF91EF919F918F910F900BBE0F90C9
:100240000FBE0F901F9018951F920F920FB60F922E
:100250000BB60F9211248F939F93EF93FF9390917E
:100260009E01E92FFF27E7FDF095E458FE4F8081BE
:100270008093CE009F5F90939E0190919E0180910C
:100280008C01981724F480919E0181315CF080915B
:10029000C9008F7D8093C90010928C0180918C01E0
:1002A00080939E01FF91EF919F918F910F900BBED4
:1002B0000F900FBE0F901F9018959B01AC011092EC
:1002C0008D0110928C0180918C0180939E0110927F
:1002D000C80060E472E48FE090E00E947C0A215044
:1002E00030403093CD002093CC0086E08093CA004C
:1002F00088E98093C90008951092C900089520915B
:100300008D01332727FD3095C9010895DF92EF92C3
:10031000FF920F931F93DF93CF930F92CDB7DEB76A
:10032000D82E092F162F80918C018823A9F1809156
:10033000C90080628093C9002FC080918C018F30EA
:10034000E4F780918C01212F30E0992787FD90956B
:10035000A701481B590B421753070CF49A01298334
:1003600020918C014981332727FD309524583E4F39
:10037000C9016D2D702F50E00E94B90A80918C0147
:100380009981890F80938C018981181B8091C90004
:1003900080628093C90003C080E1E82EF12C112314
:1003A00061F60F90CF91DF911F910F91FF90EF9029
:1003B000DF900895DC010D900020E9F71197A81B4C
:1003C000B90B6A2F0E9486010895DF93CF930F9295
:1003D000CDB7DEB789838A3019F48DE00E94E5013C
:1003E000CE01019661E00E9486010F90CF91DF91CE
:1003F00008956F927F928F929F92AF92BF92CF9209
:10040000DF92EF92FF920F931F93DF93CF93CDB7BD
:10041000DEB729970FB6F894DEBF0FBECDBF2AE135
:10042000E22EF12CEC0EFD1EF701619071907F0120
:10043000CC24DD245E010894A11CB11CBDC0153282
:10044000C1F0812F0E94E5011C3509F0B2C008946B
:10045000C11CD11CF301EC0DFD1DE081EA3021F03F
:10046000EC3521F48CE5A3C08AE0A1C0E53209F0A7
:10047000A0C00894C11CD11CF301EC0DFD1DE0814E
:10048000E43609F474C0E5363CF4E83509F465C097
:10049000E33609F08BC081C0EC3621F0E33709F078
:1004A00085C074C094E0892E912C8E0C9F1CF7019E
:1004B000E080F18002811381F0E0EF16F0E8FF06A2
:1004C000F0E00F07F0E01F07ECF1C801B70120E1F1
:1004D00037E240E050E00E949E0ADA01C901B5010E
:1004E0004AE050E00E94D40AC5010E94DA01C80126
:1004F000B70120E137E240E050E00E949E0AAC01E3
:10050000CB01DA017C018D0188EEE81683E0F80664
:1005100080E0080780E01807ACF480E30E94E50162
:10052000E4E6EE16F1040105110564F480E30E948F
:10053000E501FAE0EF16F104010511051CF480E372
:100540000E94E501C701B5014AE050E00E94D40ACB
:10055000C5010E94DA0174012CC087010C5F1F4F96
:10056000F70180819181B50140E150E009C0870128
:100570000E5F1F4FF70180819181B5014AE050E085
:100580000E94D40AC5010E94DA010EC087010E5FE5
:100590001F4FF70180819181F6CF87010E5F1F4FBA
:1005A000F70180810E94E501780103C08FE30E947A
:1005B000E5010894C11CD11CF301EC0DFD1D108157
:1005C000112309F03CCF29960FB6F894DEBF0FBE79
:1005D000CDBFCF91DF911F910F91FF90EF90DF90F2
:1005E000CF90BF90AF909F908F907F906F90089525
:1005F000CF92DF92EF92FF920F931F93CF93DF93EF
:10060000482FC090C90080918D011816E4F78091A1
:10061000C9008F778093C90080918D01C62FD0E0EB
:10062000282F332727FD30952C173D070CF4E901BF
:100630000C2F10E03EE8E32E31E0F32E842FB701BB
:100640004C2F50E00E94B90A40E150E0401B510B92
:10065000C7010E0D1F1DB8010E94C20A80918D01B5
:100660008C1B80938D01C092C9008C2FDF91CF919C
:100670001F910F91FF90EF90DF90CF900895DF933F
:10068000CF930F92CDB7DEB7CE01019661E00E9405
:10069000F80289810F90CF91DF91089580E008954D
:1006A0009B01AC0197FD15C08091A5019091A60119
:1006B000A091A701B091A80182179307A407B507DD
:1006C00044F020939F013093A0014093A1015093E7
:1006D000A20108959093A4018093A30108956091CD
:1006E0009F017091A0018091A1019091A2010895B4
:1006F0002091A3013091A401442737FD4095542F48
:10070000B901CA01089508958091B301886080936A
:10071000B30108958093B30108958091B3010895C2
:1007200080E008952F923F924F925F926F927F9256
:100730008F929F92AF92BF92CF92DF92EF92FF92F1
:100740000F931F93DF93CF9300D0CDB7DEB70E94F6
:10075000DB04562E472E382E292E0E94B9093B0164
:100760004C018091AB019091AC01A091AD01B09191
:10077000AE0164015301A81AB90ACA0ADB0A209122
:10078000A90129833091AA013A8342E3A416B10456
:10079000C104D10418F4C9019C0141C0E52CF42C1A
:1007A000032D122D8091AF019091B001A091B10164
:1007B000B091B201A8019701281B390B4A0B5B0BC2
:1007C000CA01B90128EE33E040E050E00E94360A49
:1007D000A60195010E947C0ADA01C90162E070E07D
:1007E0000E94690A9B0189819A8162E070E00E94FF
:1007F000690A260F371F3093AA012093A901E092BE
:10080000AF01F092B0010093B1011093B201609278
:10081000AB017092AC018092AD019092AE01C90122
:100820000F900F90CF91DF911F910F91FF90EF905C
:10083000DF90CF90BF90AF909F908F907F906F9000
:100840005F904F903F902F90089580917C00806C36
:1008500080937C0080E00E940C099C0180917C00C8
:10086000807C80937C002431310518F420E030E056
:1008700004C024513040322F2227C9010895CF935C
:10088000DF93EC0184E0C030D8071CF0CFEFD3E059
:1008900009C08CEFC130D8071CF4C1E0DCEF02C006
:1008A000209721F08091B30183FD09C084E060E0CE
:1008B00070E00E9427098EB180718EB91AC0D7FFEF
:1008C0000CC0739B06C084E060E070E00E942709C2
:1008D0007398D095C195DF4F08C0739906C084E026
:1008E00060E070E00E942709739A84E0BE010E94D4
:1008F0002709DF91CF91089580E090E00E943F04A6
:100900008091B301877F8093B301089574986C9AA6
:100910006B9A739A80981092A4011092A30110927E
:100920009F011092A0011092A1011092A2010E94B9
:10093000E6041092AF011092B0011092B101109232
:10094000B2010E94B9096093AB017093AC0180932E
:10095000AD019093AE0108951F920F920FB60F92C2
:1009600011248F939F938091B7018F5F8093B7017C
:100970009091B7018091B6019817B1F48091BA01B6
:100980009091BB019093B9018093B8018091B80117
:100990009091B9019093B9018093B8011092B70179
:1009A0001092BB011092BA019F918F910F900FBED0
:1009B0000F901F9018952091BC013091BD0140917E
:1009C000BE015091BF01B901CA0108958DB38F7363
:1009D0008DBB8DB18F738DB98EB1806C8EB9109235
:1009E000BC011092BD011092BE011092BF0188E1BE
:1009F0008093B601EAE6F0E08081806580838DB364
:100A0000806C8DBB08958DB38F738DBB1092BC012C
:100A10001092BD011092BE011092BF011092BB0155
:100A20001092BA011092B9011092B8011092B70158
:100A30008DB3806C8DBB08951F920F920FB60F92ED
:100A400011248F939F93AF93BF938CB186FF03C004
:100A500087FF03C01BC087FF19C08091BC01909124
:100A6000BD01A091BE01B091BF010197A109B109DB
:100A70008093BC019093BD01A093BE01B093BF01D0
:100A80008091BA019091BB01019718C08091BC017F
:100A90009091BD01A091BE01B091BF010196A11D31
:100AA000B11D8093BC019093BD01A093BE01B09392
:100AB000BF018091BA019091BB0101969093BB0157
:100AC0008093BA01BF91AF919F918F910F900FBE0C
:100AD0000F901F9018951F920F920FB60F9211242E
:100AE0002F938F939F93AF93BF938CB187FF03C0D6
:100AF00086FF03C01BC086FF19C08091BC01909186
:100B0000BD01A091BE01B091BF010196A11DB11D13
:100B10008093BC019093BD01A093BE01B093BF012F
:100B20008091BA019091BB01019618C08091BC01DF
:100B30009091BD01A091BE01B091BF010197A109A3
:100B4000B1098093BC019093BD01A093BE01B09305
:100B5000BF018091BA019091BB0101979093BB01B5
:100B60008093BA01BF91AF919F918F912F910F9078
:100B70000FBE0F901F901895CF93DF93C091B801CF
:100B8000D091B9018091B6018831E1F4CE0104968B
:100B9000099738F48AE78093B6018EE191E00E94CC
:100BA000F9018091B4019091B50164E070E00E9478
:100BB000690ACE0134E0880F991F3A95E1F78C1B42
:100BC0009D0B21C08091B6018A3719F06FEF7FEF3E
:100BD00020C0CE01805B9F4F813A910538F088E1BB
:100BE0008093B60187E291E00E94F9018091B401FF
:100BF0009091B50164E070E00E94690ACE01880F0F
:100C0000991F8C0F9D1F680F791F7093B50160931A
:100C1000B401CB01DF91CF91089590E024E0880FDB
:100C2000991F2A95E1F78093ED000895382F8830B9
:100C300070F42091DE0081E090E002C0880F991FDF
:100C40003A95E2F7809582238093DE0008954091E3
:100C5000DF00282F30E02850304081E090E002C0D3
:100C6000880F991F2A95E2F7809584238093DF00EF
:100C70000895382F883068F42091DE0081E090E0FC
:100C800002C0880F991F3A95E2F7282B2093DE00C7
:100C900008954091DF00282F30E02850304081E057
:100CA00090E002C0880F991F2A95E2F7482B4093E5
:100CB000DF000895FF920F931F93CF93DF93142FBC
:100CC000022F8091D80081608093D80086E28093C3
:100CD000E20084E08093E30083E18093E4008AEB08
:100CE0008093DB008FEF8093E500C0E0D0E040E828
:100CF000F42ECE0134E0880F991F3A95E1F78093E6
:100D0000ED008091EE001092EE001092F40010922F
:100D1000F5001092F6001092F7001092F000109279
:100D2000F1001092F2001092F3001C1730F4F092D0
:100D3000EF008C2F0E94390602C01092EF0021961E
:100D4000CF30D105B1F61092C20182E08093D80075
:100D500000FF05C08091D80088608093D800DF91A3
:100D6000CF911F910F91FF9008951F920F920FB690
:100D70000F920BB60F9211242F933F934F935F93D3
:100D80006F937F938F939F93AF93BF93EF93FF9353
:100D90008091EC00807F803FB9F08091EE0086FF6B
:100DA0000DC08091EC009091EE001092EE00109238
:100DB000EF0082958F700E94390609C08091C201B0
:100DC0008F5F8093C20103C08FEF8093DA00FF91A1
:100DD000EF91BF91AF919F918F917F916F915F91B3
:100DE0004F913F912F910F900BBE0F900FBE0F9020
:100DF0001F901895482F883060F48091DE00282FCE
:100E000030E002C0359527954A95E2F721703070A1
:100E10000EC08091DF00242F30E02850304090E059
:100E2000282339232115310511F021E030E0C901D3
:100E30000895482F883050F48091DC0090E002C083
:100E4000959587954A95E2F7817008952091DD0088
:100E500030E090E0089702C0359527958A95E2F733
:100E6000822F817008958091C2010895DC018091E4
:100E7000C201882309F478C020E030E0422FC90184
:100E800074E0880F991F7A95E1F78093ED008091C7
:100E9000EE0085FF05C08091EE001092EE0006C0C6
:100EA0004F5F2F5F3F4F2F30310541F74F3009F42F
:100EB0005BC08091EF008F7013968C9313972091F5
:100EC000F2008091F30090E063E0880F991F6A952B
:100ED000E1F722952695277030E0822B932B11960F
:100EE0009C938E938091F00012969C91129782FFB2
:100EF00002C0916001C0917012969C93129790E08D
:100F000007C08091FA00FD01E90FF11D84839F5F06
:100F100013968C9113979817A0F3F8948091C201BF
:100F200081508093C20178941092F0001092F100E9
:100F30008091C3019091C401282F23702295220F24
:100F4000207E2093F200887F977053E096958795D6
:100F50005A95E1F78093F300842F0E94390680E8C8
:100F60008093EF0081E0089580E00895CF93DF93B0
:100F7000C0E0D0E0CE01E4E0880F991FEA95E1F7E8
:100F80008093ED008091EF00982F807C11F48C2FDE
:100F90000AC096FF03C08C2F0E9419072196CF30FC
:100FA000D10541F78FEFDF91CF910895EF92FF9236
:100FB0000F931F93CF93DF939093C4018093C3014A
:100FC0007093C1016093C001062F03700295000F5A
:100FD000007EB3E076956795BA95E1F7E62E182F77
:100FE00013701295110F107EA3E096958795AA9520
:100FF000E1F7F82EC0E0D0E08C2F0E94190788237B
:10100000A1F0CE01F4E0880F991FFA95E1F78093E3
:10101000ED008091EF0087FF08C00093F200E0929E
:10102000F3001093F600F092F7002196CF30D1052F
:1010300019F7DF91CF911F910F91FF90EF900895D5
:10104000AF92BF92DF92EF92FF920F931F93CF93D5
:10105000DF93C0E0D0E086E3A82E81E0B82EFC2E1E
:10106000CE0104E0880F991F0A95E1F78093ED0007
:10107000E090EE00D090EF008C2F0E94190788239B
:1010800019F40FE211E002C003E311E08F2D0E947A
:10109000FA064091F2002091F3006DB77EB76251DD
:1010A00070400FB6F8947EBF0FBE6DBFEDB7FEB7B0
:1010B0003196ADB7BEB71296BC92AE921197D3835C
:1010C000C283158304839783868330E013E0220F65
:1010D000331F1A95E1F742954695477050E0242B4F
:1010E000352B318720878E2D90E0A0E0B0E08287FD
:1010F0009387A487B5878D2D90E0A0E0B0E0868728
:101100009787A08BB18B0E94F90121966DB77EB7AE
:101110006E5E7F4F0FB6F8947EBF0FBE6DBFCF30AF
:10112000D10509F09CCFDF91CF911F910F91FF90D6
:10113000EF90DF90BF90AF9008951F93CF93DF9310
:10114000EC010E94B607182F00D000D08FE691E086
:10115000EDB7FEB792838183812F992787FD909504
:10116000948383830E94F9010F900F900F900F904A
:101170001F3F11F480E042C0812F90E034E0880FDF
:10118000991F3A95E1F78093ED008091EE0010925F
:10119000EE002B81822F8F708093EF0090E007C0CC
:1011A000FE01E90FF11D84818093FA009F5F921781
:1011B000B8F31092F0008A8180FD02C080E001C087
:1011C00084E08093F10088819981282F23702295F3
:1011D000220F207E2093F200887F977023E096955F
:1011E00087952A95E1F78093F3008091EF00806462
:1011F0008093EF00812F0E94390681E0DF91CF912B
:101200001F91089510927C00EAE7F0E086E0808369
:10121000808180688083089590917C008770907CA5
:10122000892B80937C0080917A00806480937A007F
:1012300080917A0086FDFCCF209178004091790062
:10124000942F80E030E0282B392BC901089573706A
:10125000843071F08530B1F08330E9F480919000F2
:10126000806880939000709399006093980008952F
:101270008091900080628093900070939B006093B7
:101280009A000895809190008860809390007093F8
:101290009D0060939C000895843071F08530B1F01A
:1012A0008330E9F4809190008F77809390001092C2
:1012B0009900109298000895809190008F7D8093FE
:1012C000900010929B0010929A00089580919000D7
:1012D000877F8093900010929D0010929C0008954B
:1012E0001F920F920FB60F9211248F939F93AF937B
:1012F000BF938091C5019091C601A091C701B091A3
:10130000C8010196A11DB11D8093C5019093C6012E
:10131000A093C701B093C801BF91AF919F918F91E6
:101320000F900FBE0F901F90189583E484BD31E09D
:1013300030936E008BE18093810023E02093800046
:1013400080E197E290938900809388001092850055
:101350001092840030936F002093900020939100AE
:101360001092C5011092C6011092C7011092C801D7
:101370000895AF92BF92CF92DF92EF92FF920F93B8
:101380001F938091840090918500A090C501B0903A
:10139000C601C090C701D090C8016AEF70E00E94FA
:1013A000550A7B0100E010E0C601B50128E230E0FB
:1013B00040E050E00E94360AE60EF71E081F191F93
:1013C000B701C8011F910F91FF90EF90DF90CF9070
:1013D000BF90AF900895EF92FF920F931F93E0900C
:1013E0008400F09085006091C5017091C6018091E4
:1013F000C7019091C801EE0CFF1CEE0CFF1C00E031
:1014000010E020E43CE940E050E00E94360AE60E9D
:10141000F71E081F191FB701C8011F910F91FF90F8
:10142000EF900895AF92BF92CF92DF92EF92FF922A
:101430000F931F938C010E94B9095B016C01780125
:1014400000E010E00E94B9096A197B098C099D0926
:101450006E157F0580079107A8F31F910F91FF90EC
:10146000EF90DF90CF90BF90AF900895629FD00132
:10147000739FF001829FE00DF11D649FE00DF11D4F
:10148000929FF00D839FF00D749FF00D659FF00DFE
:101490009927729FB00DE11DF91F639FB00DE11DEB
:1014A000F91FBD01CF0111240895AA1BBB1B51E1F7
:1014B00007C0AA1FBB1FA617B70710F0A61BB70BC4
:1014C000881F991F5A95A9F780959095BC01CD0169
:1014D000089597FB092E07260AD077FD04D0E5DF93
:1014E00006D000201AF4709561957F4F0895F6F7A5
:1014F000909581959F4F0895A1E21A2EAA1BBB1BC0
:10150000FD010DC0AA1FBB1FEE1FFF1FA217B307CF
:10151000E407F50720F0A21BB30BE40BF50B661FE5
:10152000771F881F991F1A9469F7609570958095A9
:1015300090959B01AC01BD01CF01089597FB092E49
:1015400005260ED057FD04D0D7DF0AD0001C38F492
:1015500050954095309521953F4F4F4F5F4F0895DF
:10156000F6F790958095709561957F4F8F4F9F4FBF
:101570000895FB01DC0102C001900D9241505040E2
:10158000D8F708956817790768F4FB01DC01E40FC8
:10159000F51FA40FB51F02C002900E92415050409B
:1015A000D8F708950C94B90AFB019F01E8944230E2
:1015B000C4F04532B4F44A3029F497FB1EF49095F8
:1015C00081959F4F642F77270E94550A805D8A334B
:1015D0000CF0895D8193CB010097A1F716F45DE2D1
:1015E00051931082C9010C94F50ADC01FC01672FAC
:1015F00071917723E1F7329704C07C916D937083EA
:0E1600006291AE17BF07C8F30895F894FFCFAC
:10160E0053656E64696E672043414E206D6573733A
:10161E006167652E2E2E0061763D25640A004743D4
:10162E00543D3132320A004743543D32340A00648D
:10163E00697300656E006D6F622025643A20257314
:10164E002C2069663D25642C204944543D25642C8C
:10165E002043414E53544D4F423D307825582C2057
:10166E0043414E43444D4F423D307825580A006663
:0C167E00726565206D6F623D25640A00F6
:00000001FF
