:100000000C944A000C9467000C9467000C946700F1
:100010000C9467000C9467000C9467000C944F09D3
:100020000C949F090C9467000C9467000C94670073
:100030000C9467000C947B100C9467000C94050FD3
:100040000C9467000C948B080C94380A0C9467008D
:100050000C9467000C9467000C9467000C94670084
:100060000C9467000C9467000C9467000C94670074
:100070000C9467000C9467000C9467000C94670064
:100080000C941B020C9440020C9467000C946700C3
:100090000C94670011241FBECFEFD8E0DEBFCDBFA8
:1000A00012E0A0E0B1E0E8E6F6E202C005900D92B1
:1000B000AC38B107D9F722E0ACE8B2E001C01D923C
:1000C000A53FB207E1F70E9462110C9432130C9421
:1000D0000000DF92EF92FF920F931F93CF93DF9375
:1000E000CDB7DEB72C970FB6F894DEBF0FBECDBFED
:1000F000E82EF62E8A01D22E0E94EF09806150E090
:1001000040E0D11002C040E054E020E2829FC001F4
:100110001124807E93702E2D2F71822B842B952B92
:100120009A8389831B82FC824F2D50E0B801CE0157
:1001300005960E94E212CE0101960E94E80B90E023
:100140002C960FB6F894DEBF0FBECDBFDF91CF91D6
:100150001F910F91FF90EF90DF900895CF93DF9361
:1001600000D0CDB7DEB722E032E13A83298320E028
:10017000AE014F5F5F4F62E00E9469000F900F90E9
:10018000DF91CF9108950F931F93CF93DF93EC01ED
:100190002D813E814D81642F70E00F8118859C81F7
:1001A0009A3009F47AC0C8F4943009F464C050F469
:1001B0009923D1F1923009F449C0DF91CF911F9179
:1001C0000F910895963009F462C09830B1F7DF912D
:1001D000CF911F910F910C949D059F3009F46DC034
:1001E00068F49C3009F461C09E3039F7B801C90148
:1001F000DF91CF911F910F910C948504963109F4F2
:1002000061C09F3F09F465C09031B9F6888199813A
:1002100025E0969587952A95E1F78F71DF91CF912B
:100220001F910F910C94AE00442331F00E94B3054E
:1002300082600E94B005CBCF0E94B3058D7F0E94E3
:10024000B0050E94B4080E94AE04C1CF0E94B3055D
:1002500081FDB3CF8D8124E0829FC00111242E81C6
:10026000222319F0919581959109DF91CF911F91EA
:100270000F910C94C205B90190E080E00E94AE0499
:10028000C801DF91CF911F910F910C94D304DF919E
:10029000CF911F910F910C948105B801C901DF9195
:1002A000CF911F910F910C947704B801C901DF9190
:1002B000CF911F910F910C947E04309301012093F4
:1002C00000017BCFCB01DF91CF911F910F910C9457
:1002D0008C101F924F938AE191E09F938F930E941D
:1002E0005B030F900F900F900F9067CFCF93DF932A
:1002F00000D0CDB7DEB7562F5A834983AE014F5F8A
:100300005F4F62E00E9469000F900F90DF91CF91E4
:100310000895CF93DF9300D000D0CDB7DEB770E063
:10032000762F66277295707FE0E06E2B742BAB0101
:1003300070E060E049835A836B837C83AE014F5F3A
:100340005F4F63E00E9469000F900F900F900F9035
:10035000DF91CF9108950F93CF93DF9300D000D01A
:100360000F92CDB7DEB7E82F6983CA01B9010E94A9
:10037000C1126A837B838C839D83202FAE014F5FE4
:100380005F4F65E08E2F0E9469000F900F900F90D5
:100390000F900F90DF91CF910F910895582F462F16
:1003A00021E06FEF82E00C9489010F930E94B40862
:1003B0009B01AC0100E064E182E00E94AB010F917F
:1003C00008950F93CF93DF930E94A90EEC010E9432
:1003D0008C049E0150E040E0A90133272227B0E0C1
:1003E000A0E0282B392B4A2B5B2B00E068E182E050
:1003F0000E94AB01DF91CF910F91089596E081119A
:1004000001C098E094B993E49CBD882319F08CB5A1
:1004100080618CBD08958EBD0DB407FEFDCF08959B
:100420000DB407FEFDCF8EB508958EBD0DB407FE49
:10043000FDCF8EB508950F920FB60F928F939F93B5
:10044000EF93FF938091A10281315CF080E1809372
:10045000A102FF91EF919F918F910F900FBE0F908E
:1004600018958091CE00E091A10291E09E0F9093AB
:10047000A1020E2E000CFF0BEE55FD4F8083E9CF3D
:100480000F920FB60F921F9211248F939F93EF93A9
:10049000FF93E091B20281E08E0F8093B2020E2EA4
:1004A000000CFF0BE057FD4F80818093CE009091B0
:1004B000B2028091A002981724F48091B202813197
:1004C0004CF08091C9008F7D8093C9001092A002EA
:1004D0001092B202FF91EF919F918F911F900F9018
:1004E0000FBE0F901895EF92FF920F931F93CF932B
:1004F000DF937C010091C9008091A1021816E4F7F6
:100500008091C9008F778093C9008091A102262F26
:1005100030E050E040E0682F880F770B880B990B94
:100520000E94A010162FC62FD0E0AE0162EA72E042
:10053000C7010E94E21240E150E04C1B5D0BBE017E
:100540006E557D4F82EA92E00E94EB128091A102EB
:10055000811B8093A1020093C900812FDF91CF916D
:100560001F910F91FF90EF900895CF92DF92EF923D
:10057000FF921F93CF93DF930F92CDB7DEB77C012D
:10058000162F8091A002882329F08091C9008062F3
:100590008093C90080E1C82ED12C111109C00F90A1
:1005A000DF91CF911F91FF90EF90DF90CF90089552
:1005B0008091A0028F30E4F78091A002212F30E0DB
:1005C00050E040E0B601681B710987FD7395072E66
:1005D000000C880B990B0E94A010698349818091BF
:1005E000A002082E000C990B50E0B70180579D4FD8
:1005F0000E94E21299818091A002890F8093A0024B
:100600008981181B8091C90080628093C900C5CF81
:100610009B01AC011092A1021092A0021092B202B2
:100620001092C80060E472E48FE090E00E948012B3
:10063000215031093093CD002093CC0086E0809387
:10064000CA0088E98093C90008951092C9000895EE
:10065000CF93DF930F92CDB7DEB789838A3019F439
:100660008DE00E94280361E0CE0101960E94B50250
:100670000F90DF91CF910895FC0101900020E9F7E0
:100680003197BF01681B790B0C94B502CF93DF93B0
:100690000F92CDB7DEB761E0CE0101960E947302E2
:1006A00089810F90DF91CF9108958091A102082E4A
:1006B000000C990B08952F923F924F925F926F9288
:1006C0007F928F929F92AF92BF92CF92DF92EF92E2
:1006D000FF920F931F93CF93DF93CDB7DEB72B9786
:1006E0000FB6F894DEBF0FBECDBFFE01B096C1902D
:1006F000D1908F01F12CE12C80E1482E87E2582E19
:10070000612C712CF601EE0DFF1DB080B11019C0E7
:100710002B960FB6F894DEBF0FBECDBFDF91CF9101
:100720001F910F91FF90EF90DF90CF90BF90AF900F
:100730009F908F907F906F905F904F903F902F9001
:10074000089585E2B816C9F08B2D0E942803ECE5C8
:10075000BE127AC0FFEFEF1AFF0AF601EE0DFF1D81
:1007600080818A3029F08C3529F40E9428036CC0DE
:100770008AE0FBCF853209F067C08FEFE81AF80AEC
:10078000F601EE0DFF1D8081843609F474C044F437
:10079000883509F45DC0833609F476C08FE3E5CF70
:1007A0008C3639F08337D1F7F801819191918F011F
:1007B00049C0F80181909190A190B1908F0181146E
:1007C000F0E89F06A104B104A4F1C501B401A3019E
:1007D00092010E94A21249011B018A879B874AE06D
:1007E000BE016F5F7F4FC4010E94FD12CE010196D2
:1007F0000E943C034101AA84BB8488EE881683E0F2
:100800009806A104B104ACF480E30E942803E4E656
:100810008E169104A104B10464F480E30E942803BD
:10082000FAE08F169104A104B1041CF480E30E9445
:1008300028034AE0BE016F5F7F4FC4010E94FD1292
:10084000CE0101960E943C03FFEFEF1AFF0A5ACF38
:10085000580184E0A80EB11C40E1BE016F5F7F4FDC
:10086000F801808191810E94FD12CE0101960E94C3
:100870003C038501E9CF4AE0BE016F5F7F4FF8017D
:10088000819191918F01DACF5801F2E0AF0EB11C46
:10089000F80180810E942803ECCF811524E09207A3
:1008A0008CF481302CEF920784F0009721F0209196
:1008B000DB0220FD0DC070E060E083E00E94BC0E12
:1008C000739808958FEF93E0F2CF81E09CEFEFCF24
:1008D00097FF09C072997298919581959109BC0111
:1008E00083E00C94BC0E7299FACF729AF8CF0097FD
:1008F00021F09093D4028093D3020895009721F0C1
:100900009093B8028093B7020895009721F09093D6
:10091000D2028093D10208950E94830E80E00E944B
:100920006E0EB0E0A0E084319105A105B10558F04C
:100930004497A109B10926E0880F991FAA1FBB1F80
:100940002A95D1F7089580E090E0DC01089580E0D9
:1009500008959093D6028093D5020895CF92DF92A6
:10096000EF92FF926B017C01FF928F93DF926F9366
:1009700084E291E09F938F930E945B030F900F900E
:100980000F900F900F900F90F7FC08C0C092BD021F
:10099000D092BE02E092BF02F092C002FF90EF90B0
:1009A000DF90CF900895CF93DF93EC01DF93CF9347
:1009B0008CE391E09F938F930E945B03D093C202DC
:1009C000C093C1020F900F900F900F90CD37D105BB
:1009D00078F581E08093CD028DE790E0BE010E9422
:1009E000581221E0AE01569547954817590708F06F
:1009F00020E08DE790E0BE010E945812260F209360
:100A0000D0028091D0021F928F938091CD021F92CD
:100A10008F9384E591E09F938F930E945B030F90E7
:100A20000F900F900F900F900F90DF91CF9108953E
:100A30001092CD02CE0169E170E00E9458126093DD
:100A4000D002DFCF73986B9A6A9A729A8098749AE0
:100A50006D9A83E08BB980E094E0A0E0B0E08093F1
:100A6000C3029093C402A093C502B093C60288E863
:100A700093E19093D6028093D5021092BD0210921A
:100A8000BE021092BF021092C0021092B6021092E3
:100A9000B5021092B4021092B3028CE890E09093E9
:100AA000D4028093D30284E190E09093B8028093C3
:100AB000B70284E690E09093D2028093D102109224
:100AC000C9021092CA021092CB021092CC028AEF95
:100AD00090E00E94D3040C94C6086091BD0270910E
:100AE000BE028091BF029091C00208956091C10240
:100AF0007091C202072E000C880B990B08950C947C
:100B0000FE088091DB0284608093DB028091C10249
:100B10009091C202892B21F48AEF90E00E94D304C5
:100B200080E090E0ACEFBFEF8093BD029093BE02F7
:100B3000A093BF02B093C00208958091DB02816050
:100B40008093DB0260E080E00C94B41090E080E0E1
:100B50000E944D048091DB028E7F8093DB0208951A
:100B60008093DB0208958091DB02089529B186B15C
:100B700090E08095909586958170922F90959270D7
:100B8000892B08952091DB0220FD04C090E080E0D5
:100B90000C944D049093B4028093B3020E94B60566
:100BA00080FF0AC02091B3023091B40237FF04C025
:100BB0001092B4021092B30281FF0BC08091B30275
:100BC0009091B4021816190624F41092B4021092EF
:100BD000B3028091B3029091B402DACF4F925F9248
:100BE0006F927F928F929F92AF92BF92CF92DF923D
:100BF000EF92FF920F931F93CF93DF93CDB7DEB7A2
:100C000028970FB6F894DEBF0FBECDBF8091DB02F0
:100C100081FD2BC01092EF020E94B4086B017C0191
:100C200080918C0290918D02A0918E02B0918F02E2
:100C30008C159D05AE05BF05C1F0FF92EF92DF92C6
:100C4000CF9288E391E09F938F930E945B03C092C1
:100C50008C02D0928D02E0928E02F0928F020F9061
:100C60000F900F900F900F900F9064990EC01092FC
:100C7000B4021092B3020E94A60560E081E00E94D7
:100C8000CE0161E080E00E94B4108091DB0281FF20
:100C900070C18091EF02882309F46BC18091CD026D
:100CA000882309F4EFC16091D00270E08091B50211
:100CB0009091B6020E945812892BD1F58091BD0205
:100CC0009091BE02A091BF02B091C0024091C902B2
:100CD0005091CA026091CB027091CC02481759071B
:100CE0006A077B070CF0ABC16C017D01C41AD50A01
:100CF000E60AF70AA701960165E070E080E090E05F
:100D00000E94A0100091C9021091CA022091CB024A
:100D10003091CC02DC01CB01800F911FA21FB31FC9
:100D20008093C9029093CA02A093CB02B093CC02E5
:100D30000E94B40869837A838B839C838091C90263
:100D40009091CA02A091CB02B091CC02C980DA8006
:100D5000EB80FC80C81AD90AEA0AFB0A8091D70204
:100D60009091D802A091D902B091DA029701860140
:100D7000081B190B2A0B3B0B0D831E832F8338870F
:100D8000C092D702D092D802E092D902F092DA0251
:100D9000D701C6010496A11DB11D0997A105B10592
:100DA000A0F08091B9029091BA02A091BB02B091DB
:100DB000BC028C0D9D1DAE1DBF1D8093B90290938A
:100DC000BA02A093BB02B093BC028091B902909189
:100DD000BA02A091BB02B091BC02813013E091072E
:100DE000A105B1050CF483C180E093E0A0E0B0E080
:100DF0008093B9029093BA02A093BB02B093BC0255
:100E0000A091B702B091B8022091B9023091BA0214
:100E10004091BB025091BC020E94D71224E1822E65
:100E2000912CA12CB12CA50194010E94A2122901A0
:100E30003A01A091D302B091D402A70196010E9479
:100E4000D712A50194010E94A212420E531E641EE5
:100E5000751EA091D102B091D2022D813E814F81A9
:100E600058850E94D712A50194010E94A212420E39
:100E7000531E641E751E41143FEF5306630673062E
:100E80002CF4412C55245A94652C752C41E04416C1
:100E900054066104710424F0412C512C3201539406
:100EA0005092B4024092B3022091C7023091C8021E
:100EB00049E0429FC001439F900D11246AE070E019
:100EC0000E946C128B010E94FE086AE070E00E9492
:100ED0006C12060F171F1093C8020093C7021F93CE
:100EE0000F938091B4028F938091B3028F9380917E
:100EF000BA028F938091B9028F935E815F938D8147
:100F00008F93DF92CF929C819F93CB80CF92DA8098
:100F1000DF92E980EF928091CC028F938091CB0297
:100F20008F938091CA028F938091C9028F93809191
:100F3000C0028F938091BF028F938091BE028F93E6
:100F40008091BD028F938DE691E09F938F930E94D5
:100F50005B038091B5029091B60201969093B60220
:100F60008093B5021092EF020FB6F894DEBF0FBE69
:100F7000CDBF0E94B605898380FF29C00E94E50885
:100F80008091DB0282FF03C08B7F8093DB02809124
:100F9000BD029091BE02A091BF02B091C002B7FF06
:100FA00008C01092BD021092BE021092BF021092B1
:100FB000C0028091B3029091B40297FF08C01092D2
:100FC000B4021092B30290E080E00E944D041981B7
:100FD00011FF16C08091DB0282FF03C08B7F8093DC
:100FE000DB028091B3029091B4021816190644F402
:100FF0001092B4021092B30290E080E00E944D047F
:101000008091B3029091B4029195819591092896AF
:101010000FB6F894DEBF0FBECDBFDF91CF911F9109
:101020000F91FF90EF90DF90CF90BF90AF909F9087
:101030008F907F906F905F904F900C944D04841729
:101040009507A607B7070CF073CE9A01AB01281BD2
:10105000390B4A0B5B0B65E070E080E090E00E948A
:10106000A0100091C9021091CA022091CB023091C8
:10107000CC0268017901C61AD70AE80AF90AD70131
:10108000C6014ECE8091BD029091BE02A091BF02DA
:10109000B091C0024091C9025091CA026091CB0246
:1010A0007091CC02481759076A077B0774F47C01DA
:1010B0008D01E41AF50A060B170BA8019701609140
:1010C000D00270E090E080E01BCE84179507A60761
:1010D000B7070CF02DCE9A01AB01281B390B4A0B38
:1010E0005B0B6091D00270E090E080E0B8CF81159A
:1010F0009D4FAF4FBF4F0CF083CE80E09DEFAFEF21
:10110000BFEF76CE6091C3027091C4028091C50298
:101110009091C60208951F921FB61F9211248F93BB
:101120009F938091DF028F5F8093DF029091DF02B7
:101130008091DE02981312C08091E2029091E30246
:101140009093E1028093E0029093E1028093E002A9
:101150001092DF021092E3021092E2029F918F91AF
:101160001F901FBE1F9018956091E4027091E502D8
:101170008091E6029091E70208956093E4027093F3
:10118000E5028093E6029093E70208958DB38F7392
:101190008DBB8DB18F738DB98EB1806C8EB910926D
:1011A000E4021092E5021092E6021092E70288E152
:1011B0008093DE02EAE6F0E0808180658083109211
:1011C00069008DB3806C8DBB08958DB38F738DBB1B
:1011D0001092E4021092E5021092E6021092E702E9
:1011E0001092E3021092E2021092E1021092E002E9
:1011F0001092DF028DB3806C8DBB08952091E002C8
:101200003091E1028091DE02883131F18091DE027D
:101210008A3709F041C0C901805B9F4F813A91052F
:1012200018F088E18093DE028091DC029091DD026B
:1012300097FD10C09595879595958795A901440FC1
:10124000551F240F351F820F931F9093DD0280934B
:10125000DC0208950396EECFC9010496099718F4AD
:101260008AE78093DE028091DC029091DD0297FD97
:1012700011C095958795959587956FE0629FA00120
:10128000639F500D1124840F951F9093DD0280936E
:10129000DC0208950396EDCF8FEF9FEF08951F9224
:1012A0001FB61F9211248F939F93AF93BF938CB15E
:1012B00086FF26C087FD26C08091E4029091E5025A
:1012C000A091E602B091E7020197A109B1098093CC
:1012D000E4029093E502A093E602B093E7028091C6
:1012E000E2029091E30201979093E3028093E2027D
:1012F000BF91AF919F918F911F901FBE1F90189526
:1013000087FDDACF8091E4029091E502A091E60298
:10131000B091E7020196A11DB11D8093E402909364
:10132000E502A093E602B093E7028091E202909179
:10133000E30201969093E3028093E202D9CF1F92D9
:101340001FB61F9211248F939F93AF93BF938CB1BD
:1013500087FD26C086FD26C08091E4029091E502BB
:10136000A091E602B091E7020197A109B10980932B
:10137000E4029093E502A093E602B093E702809125
:10138000E2029091E30201979093E3028093E202DC
:10139000BF91AF919F918F911F901FBE1F90189585
:1013A00086FDDACF8091E4029091E502A091E602F9
:1013B000B091E7020196A11DB11D8093E4029093C4
:1013C000E502A093E602B093E7028091E2029091D9
:1013D000E30201969093E3028093E202D9CF80B1B9
:1013E00080958F70089520E1829FC0011124809321
:1013F000ED000895282F30E0883068F49091DE00E9
:1014000021E030E001C0220F8A95EAF720952923D8
:101410002093DE0008954091DF002850310981E0DB
:1014200090E001C0880F2A95EAF780958423809385
:10143000DF000895482F50E0883060F49091DE007E
:1014400021E030E001C0220F8A95EAF7922B9093B9
:10145000DE0008958091DF004850510921E030E01E
:1014600001C0220F4A95EAF7822B8093DF0008958E
:101470001F920F920FB60F9211242F933F934F9309
:101480005F936F937F938F939F93AF93BF93CF930C
:10149000EF93FF93C091ED008091EC00807F803F3F
:1014A00009F448C0E091EC008E2F82958F7090E196
:1014B000899F900111242093ED009091EE0096FFFA
:1014C0001CC09091EE001092EE001092EF000E946E
:1014D0001A0AC093ED00FF91EF91CF91BF91AF91A8
:1014E0009F918F917F916F915F914F913F912F913C
:1014F0000F900FBE0F901F9018959091EC029F5F78
:101500009093EC02EE1FEE27EE1FF0E0E651FD4F48
:101510009081482F477021E030E001C0220F4A95AA
:10152000EAF7922B90839091EE001092EE000E94C9
:10153000FA09CFCF8091DA008093DA00CACFCF9238
:10154000DF92EF92FF920F931F93CF93DF936B0184
:101550007C01042F122F8091D80081608093D800E5
:1015600084E690E00E94DF0FC701AA27BB27809383
:10157000E200BB27AF2D9E2D8D2D8093E300C092FE
:10158000E40080EB8093DB008FEF8093E500109206
:10159000EB021092EA02D0E0C0E060E8F62ED093B1
:1015A000ED008091EE001092EE001092F400109287
:1015B000F5001092F0001092F1008091E8028295FF
:1015C000880F807E8093F2008091E8029091E9027A
:1015D00023E0969587952A95E1F78093F300809113
:1015E000ED028295880F807E8093F6008091ED0257
:1015F0009091EE0233E0969587953A95E1F78093C6
:10160000F7000C17F0F4F092EF008C2F0E941A0AEA
:10161000CF5FD05FCF3019F61092EC0282E080935A
:10162000D80010FF05C08091D80088608093D80052
:10163000DF91CF911F910F91FF90EF90DF90CF90AE
:1016400008951092EF00E4CF282F30E0883068F43E
:101650002091DE0030E0A90102C0559547958A959A
:10166000E2F7CA018170992708958091DF0090E028
:101670002850310902C0959587952A95E2F7F2CF57
:10168000282F30E0883058F42091DC0030E002C090
:10169000359527958A95E2F7822F8170089580917C
:1016A000DD0090E02850310902C0959587952A9574
:1016B000E2F7F3CF8091EC0208950F931F93CF933D
:1016C000DF93FC018091EC02811106C080E0DF9184
:1016D000CF911F910F91089590E080E09093ED00DD
:1016E00083FB442740F950E0EA01C651DD4F2881D1
:1016F000682F6770062F30E002C0359527956A95F0
:10170000E2F720FD05C08F5F905F8F3039F7DECFA5
:101710004091EF004F7043839091F2002091F300CD
:1017200092959695977058E0259F90011124292B4A
:10173000318320832091F000928122FF34C0916098
:101740009283349690E0491330C0F8949091EC0263
:1017500091509093EC0278941092F0001092F10066
:101760009091E8029295990F907E9093F2002091CB
:10177000E8023091E90293E0369527959A95E1F7D2
:101780002093F3000E941A0A288181E090E001C0B2
:10179000880F0A95EAF780958223888380E88093F2
:1017A000EF0081E094CF9E7FCBCF2091FA00219370
:1017B0009F5FC9CF90E080E09093ED002091EF0013
:1017C000207C29F08F5F905F8F30B1F78FEF089505
:1017D000CF93DF93EC010E94DA0B8F3FF1F190E1A0
:1017E000899F900111242093ED009091EE001092BA
:1017F000EE009B819F709093EF0090E02B819217F9
:1018000020F11092F0002A8194E0299F9001112488
:1018100024702093F10098819295990F907E909377
:10182000F2002881398193E0369527959A95E1F762
:101830002093F3009091EF0090649093EF000E944A
:101840001A0A81E0DF91CF910895FE01E90FF11DA1
:1018500024812093FA009F5FD1CF80E0F3CFFF92E5
:101860000F931F93CF93DF939093EE028093ED023B
:101870007093E9026093E802062F0295000F007E44
:1018800023E0769567952A95E1F7C62FF82EF29416
:10189000FF0C30EEF32243E0969587954A95E1F7E9
:1018A000D82F10E0812F0E94400B882389F0812FD0
:1018B0008295807F8093ED008091EF0087FF08C0C4
:1018C0000093F200C093F300F092F600D093F7007B
:1018D0001F5F1F3039F7DF91CF911F910F91FF905C
:1018E00008952F923F924F925F926F927F928F92C4
:1018F0009F92AF92BF92CF92DF92EF92FF920F939F
:101900001F93CF93DF9300D000D000D0CDB7DEB7C8
:1019100019821E821D824EED242E41E0342E2D812F
:101920002B8389818093ED00C090EE008C2C912C4C
:10193000B12CA12CD090EF004D2C512C712C612C8E
:101940009D2D9F709C838091F600E090F70082951A
:101950008695877028E0E29E70011124E82A809124
:10196000F2000091F30082958695877098E0099FB8
:1019700080011124082B8D810E94240B892B09F0F2
:10198000D9C024E42A838B810E94400B8111D5C0E9
:1019900084E41F921F921F92CF921F929C819F936B
:1019A000FF92EF921F930F931F922A812F931F9202
:1019B0008F938E818F939D819F9386E891E09F9373
:1019C0008F930E945B030FB6F894DEBF0FBECDBFAE
:1019D00081149104A104B104F1F180ED91E09F9391
:1019E0008F930E945B030F900F9010E000E081E066
:1019F00090E0002E02C0880F991F0A94E2F7092E8A
:101A0000000CAA0BBB0B88219921AA21BB21892B91
:101A10008A2B8B2B99F0F801EE0FFF1FEE5FFE4F24
:101A200081818F9380818F938DEB91E09F938F9332
:101A30000E945B030F900F900F900F900F5F1F4F4E
:101A400008301105A1F681EC91E09F938F930E94DD
:101A50005B030F900F901F921F921F92DF9283ECF7
:101A600091E09F938F930E945B030F900F900F90D4
:101A70000F900F900F90D5FE08C082ED91E09F93DC
:101A80008F930E945B030F900F90D4FE08C088EDE7
:101A900091E09F938F930E945B030F900F90D3016F
:101AA000C20126E0B695A795979587952A95D1F717
:101AB00082309105A105B10509F446C08330910536
:101AC000A105B10509F443C00197A105B105B9F11C
:101AD0003F922F920E945B030F900F9081EF91E055
:101AE0009F938F930E945B038D819E8101969E83BD
:101AF0008D839981905F99830F900F90903F09F0AB
:101B00000ECF26960FB6F894DEBF0FBECDBFDF9185
:101B1000CF911F910F91FF90EF90DF90CF90BF90EA
:101B2000AF909F908F907F906F905F904F903F907D
:101B30002F90089585E48A8326CF85E42ACF82EE0C
:101B400091E09F938F93C6CF87EE91E0FACF8CEE12
:101B500091E0F7CF8F929F92AF92BF92CF92DF9298
:101B6000EF92FF920F931F93CF93DF93CDB7DEB722
:101B70002C970FB6F894DEBF0FBECDBFE982FA8274
:101B80000B83F12E1C832D833E834F8358876987F7
:101B90007A878B879C8784EF91E09F938F930E9435
:101BA0005B03012F10E01F92FF928B811F921F9207
:101BB0001F928F9389819A811F921F929F938F9377
:101BC00084E092E09F938F930E945B0384E292E013
:101BD0009F938F930E945B036E0185E0C80ED11C1A
:101BE0000FB6F894DEBF0FBECDBFF12CE12C48013B
:101BF000F1E08F1A91089AE2A92E92E0B92EE01630
:101C0000F1067CF18FE292E09F938F930E945B0339
:101C1000FE0131967F010E0F1F1F0F900F908AE378
:101C2000C82E82E0D82EE016F106C1F58DE392E0D1
:101C30009F938F930E945B030F900F902C960FB68B
:101C4000F894DEBF0FBECDBFDF91CF911F910F91F2
:101C5000FF90EF90DF90CF90BF90AF909F908F90CC
:101C600008958CED91E08E149F0411F482E592E0CA
:101C7000F60121916F019F938F931F921F921F92E4
:101C80002F93BF92AF920E945B03FFEFEF1AFF0A00
:101C90000FB6F894DEBF0FBECDBFB1CFF701848180
:101CA00090EE980F903608F08EE21F928F93DF929D
:101CB000CF920E945B03FFEFEF1AFF0A0F900F9085
:101CC0000F900F90B0CF80E480937C00EAE7F0E0C3
:101CD00086E08083808180688083089590917C0075
:101CE000907C8770982B90937C0080917A00806420
:101CF00080937A0080917A0086FDFCCF80917800F5
:101D000090917900089580917C00807C803C61F006
:101D100080917C00806C80937C0085E090E00E9444
:101D2000DF0F80E00C946E0E089580917C0080FFA0
:101D30000FC080917C008F7380937C0080E480933F
:101D40007C0085E090E00E94DF0F80E00C946E0E36
:101D500008950E94830E81E00E946E0E9C0145E072
:101D6000220F331F4A95E1F753E0880F991F5A95C8
:101D7000E1F7820F931F08957370843071F08530FE
:101D8000B1F08330E9F480919000806880939000F6
:101D900070939900609398000895809190008062FC
:101DA0008093900070939B0060939A0008958091B7
:101DB000900088608093900070939D0060939C00D9
:101DC0000895843071F08530B1F08330E9F480916A
:101DD00090008F7780939000109299001092980055
:101DE0000895809190008F7D8093900010929B00C9
:101DF00010929A00089580919000877F80939000C0
:101E000010929D0010929C0008951F920F920FB6A1
:101E10000F9211242F933F934F935F936F937F9370
:101E20008F939F93AF93BF93EF93FF938091F002B3
:101E30009091F102A091F202B091F3020196A11DDE
:101E4000B11D8093F0029093F102A093F202B0933F
:101E5000F3028091F0029091F102A091F202B09110
:101E6000F30283709927AA27BB27892B8A2B8B2BF8
:101E7000B1F081E08093EF020E947D10FF91EF911D
:101E8000BF91AF919F918F917F916F915F914F9192
:101E90003F912F910F900FBE0F901F90189580913A
:101EA000F0029091F102A091F202B091F3020E942F
:101EB000D910DFCF83E484BD81E080936E009BE185
:101EC0009093810093E09093800020E137E230937B
:101ED00089002093880010928500109284008093DE
:101EE0006F0090939000809391001092F0021092F6
:101EF000F1021092F2021092F3020895CF92DF9253
:101F0000EF92FF9220918400309185008091F00241
:101F10009091F102A091F202B091F3026C017D0167
:101F2000CC0CDD1CEE1CFF1CCC0CDD1CEE1CFF1CC5
:101F30008C0D9D1DAE1DBF1D6C017D01CC0CDD1CEB
:101F4000EE1CFF1CCC0CDD1CEE1CFF1CCC0CDD1CA5
:101F5000EE1CFF1C36952795A3E1B3E80E94C8123A
:101F60000024880F991F001C880F991F001C892FBF
:101F7000902DA7019601280F391F411D511DCA013F
:101F8000B901FF90EF90DF90CF900895E091840029
:101F9000F09185002091F0023091F1024091F2021F
:101FA0005091F302A0E4BCE90E94D712EE0FFF1F8C
:101FB000EE0FFF1F6E0F7F1F811D911D08954F9221
:101FC0005F926F927F928F929F92AF92BF92CF92C9
:101FD000DF92EF92FF922C012091840030918500D6
:101FE0008091F0029091F102A091F202B091F3027F
:101FF0004C015D01880C991CAA1CBB1C880C991C07
:10200000AA1CBB1C880D991DAA1DBB1D4C015D019E
:10201000880C991CAA1CBB1C880C991CAA1CBB1CF4
:10202000880C991CAA1CBB1C36952795A3E1B3E824
:102030000E94C8120024880F991F001C880F991F46
:10204000001C892F902D880E991EA11CB11C712C8B
:10205000612C20918400309185008091F002909154
:10206000F102A091F202B091F3026C017D01CC0C5F
:10207000DD1CEE1CFF1CCC0CDD1CEE1CFF1C8C0DB3
:102080009D1DAE1DBF1D6C017D01CC0CDD1CEE1C29
:10209000FF1CCC0CDD1CEE1CFF1CCC0CDD1CEE1C54
:1020A000FF1C36952795A3E1B3E80E94C8120024CF
:1020B000880F991F001C880F991F001C892F902DD5
:1020C000C80ED91EE11CF11CC818D908EA08FB0883
:1020D000C414D504E604F70408F4BBCFFF90EF90D6
:1020E000DF90CF90BF90AF909F908F907F906F9038
:1020F0005F904F90089544981895449A0895EFE69C
:10210000F0E08081846080833C9A87E791E090933F
:102110008B0080938A000895853B910584F482307A
:10212000910514F482E090E09C01220F331F9595F5
:102130008795820F931F90938B0080938A00089558
:10214000621773078407950714F49B01AC01CA0159
:10215000B9010895261737074807590714F49B015A
:10216000AC01CA01B90108958430E0F46430D0F4C0
:102170009FEF960F923018F493E0961B692F880F0B
:1021800023E030E0082E01C0220F0A94EAF72095E0
:102190009091F402292301C0660F8A95EAF7262B55
:1021A0002093F402089597FF03C0919581959109BA
:1021B0000895EF92FF920F931F93CF93DF938C01BB
:1021C0008091F402F0E0E0E0C1E0D0E0811108C0CD
:1021D00012B8DF91CF911F910F91FF90EF9008956A
:1021E0008091F40290E09F01220F331F02C0959569
:1021F00087952A95E2F7282F2370CF0104967C015A
:10220000222369F0622F70E0660F771F6F5F7F4FA8
:10221000C8010E945812892B81F0233071F022B13D
:10222000CE0101C0880FEA94EAF78095822382B933
:102230003196E430F105A1F6CCCF82B19E0101C008
:10224000220FEA94EAF7822BF2CFAF92BF92CF929D
:10225000DF92EF92FF920F931F93CF93DF93EC01E6
:10226000062F6C01F12CE12C1FEF8AE3A82E82E0EF
:10227000B82E10130FC0CE0DDF1D21971882DF91ED
:10228000CF911F910F91FF90EF90DF90CF90BF9073
:10229000AF9008950E944603182F812F012E000C45
:1022A000990B9F931F93BF92AF920E945B038FEF96
:1022B000E81AF80AF60111936F010F900F900F9032
:1022C0000F90D7CFCDB7DEB72C970FB6F894DEBFFF
:1022D0000FBECDBF80EF81B982B988E087B90E9477
:1022E0005A0F2FEF81EE94E0215080409040E1F7AB
:1022F00000C0000012B863E080E00E94B41078943F
:1023000060E07BE480E090E00E94080363E081E00D
:102310000E94B4108AE992E00E94DF0F0E94EF0948
:102320008061082F10E01F928F9382E191E09F93CC
:102330008F930E945B038AEF90E00E94DF0FB80149
:102340008FE190E00E942F0C20E044E063E174E014
:102350008EE190E00E949F0A63E082E00E94B41048
:102360000E94C6080E94630E88E19FE00FB6F894B1
:10237000A895809360000FBE909360000E94220594
:1023800063E083E00E94B4106AE070E090E080E0D7
:102390000E94770462E070E090E080E00E947E049A
:1023A00061E070E090E080E00E94850484EF91E0BD
:1023B0000E94DF0F60E080E00E94B41060E081E0E6
:1023C0000E94B41060E083E00E94B4100F900F9060
:1023D0000F900F90812C912C540109E611E088E2B6
:1023E000482E512C612C712C0E947E0F6B017C01B8
:1023F0008091EF02811152C00E945A0B8823C9F0CC
:1024000063E083E00E94B4100E947E0FA30192015A
:102410000E948012C9010E94D910CE0101960E942B
:102420005D0BCE0101960E94C30060E083E00E9434
:10243000B410C11002C00E94D50121E0D222EE24C6
:10244000FF24CD28CE28CF2811F40E94E1010E945C
:10245000B30563E080FF26C082E00E94B41060E014
:1024600081E00E94B4100E94B408681579058A05BD
:102470009B05A1F00E94B4089F938F937F936F9365
:102480001F930F930E945B030E94B4084B015C01F1
:102490000F900F900F900F900F900F900E94EE05ED
:1024A000A895A2CF81E00E94B41060E082E0D9CF6D
:1024B000AA1BBB1B51E107C0AA1FBB1FA617B7076A
:1024C00010F0A61BB70B881F991F5A95A9F7809586
:1024D0009095BC01CD01089597FB072E16F400944A
:1024E00007D077FD09D00E94581207FC05D03EF4B2
:1024F000909581959F4F0895709561957F4F0895B0
:10250000A1E21A2EAA1BBB1BFD010DC0AA1FBB1FF7
:10251000EE1FFF1FA217B307E407F50720F0A21B69
:10252000B30BE40BF50B661F771F881F991F1A94D6
:1025300069F760957095809590959B01AC01BD0100
:10254000CF010895052E97FB1EF400940E94B91246
:1025500057FD07D00E94801207FC03D04EF40C9464
:10256000B91250954095309521953F4F4F4F5F4F91
:10257000089590958095709561957F4F8F4F9F4FEF
:102580000895692796276927782787277827089548
:10259000A29FB001B39FC001A39F700D811D1124A4
:1025A000911DB29F700D811D1124911D08950E94EF
:1025B000C812A59F900DB49F900DA49F800D911DF2
:1025C00011240895FB01DC0102C001900D924150DD
:1025D0005040D8F708956817790768F4FB01DC01CB
:1025E000E40FF51FA40FB51F02C002900E924150D8
:1025F0005040D8F708950C94E212BB274A3031F4CA
:10260000992322F4BDE2909581959F4F0C94091374
:10261000BB27FB015527AA27880F991FAA1FA417BC
:1026200010F0A41B83955051B9F7A05DAA3308F0B0
:10263000A95DA193009779F7B111B1931192CB01E4
:102640000C942213DC01FC01672F71917723E1F7D1
:10265000329704C07C916D9370836291AE17BF076F
:08266000C8F30895F894FFCFC0
:10266800010053025B0264026C0274027C02810264
:1026780086026164723D25580A004572726F7220A5
:1026880025640A0073657474696E672074617267E3
:102698006574207020746F20256C0A00736574744B
:1026A800696E6720746172676574207620746F2084
:1026B800256C0A00736C6F77203D2025642C2074EC
:1026C80067745F696E63203D2025640A00256C20CD
:1026D800256C20256C202564202564202564202570
:1026E800642025640A006D6F622025643A2028253D
:1026F80063292C20493D25632C204944543D2564F9
:102708002C2049444D3D25642C20444C433D2564F0
:102718002C2043414E53543D3078255800257320D2
:10272800007D002C2043414E43443D3078255820FD
:102738007B0052504C562000322E30422000444933
:102748005300454E545800454E5258004642525880
:10275800007D0A000A2D43414E204D455353414701
:10276800452D0A0069643D307825582C20666C6137
:1027780067733D307825582C206C656E6774683D0A
:1027880025640A004845583D7B0025582573007D7F
:102798002C2041534349493D7B002563007D0A2D88
:1027A800454E442043414E204D4553534147452D06
:1027B8000A0A0041434B2045525200464F524D20D1
:1027C800455252004352432045525200535446202A
:1027D80045525200424954204552520052584F4BDC
:0C27E8000054584F4B00444C4357000075
:00000001FF
