:100000000C944A000C9467000C9467000C946700F1
:100010000C9467000C9467000C9467000C945C09C6
:100020000C94AC090C9467000C9467000C94670066
:100030000C9467000C9467000C9467000C94CA0E33
:100040000C9467000C949A080C94450A0C94670071
:100050000C9467000C9467000C9467000C94670084
:100060000C9467000C9467000C9467000C94670074
:100070000C9467000C9467000C9467000C94670064
:100080000C9461020C9486020C9467000C94670037
:100090000C94670011241FBECFEFD8E0DEBFCDBFA8
:1000A00012E0A0E0B1E0E4E2F4E202C005900D92BB
:1000B000AA33B107D9F722E0AAE3B2E001C01D924A
:1000C000A73AB207E1F70E94E7100C9410120C94C3
:1000D0000000DF92EF92FF920F931F93CF93DF9375
:1000E000CDB7DEB72C970FB6F894DEBF0FBECDBFED
:1000F000E82EF62E8A01D22E0E94FC09806150E083
:1001000040E0D11002C040E054E020E2829FC001F4
:100110001124807E93702E2D2F71822B842B952B92
:100120009A8389831B82FC824F2D50E0B801CE0157
:1001300005960E94C011CE0101960E94D90B90E055
:100140002C960FB6F894DEBF0FBECDBFDF91CF91D6
:100150001F910F91FF90EF90DF900895CF93DF9361
:1001600000D0CDB7DEB722E032E13A83298320E028
:10017000AE014F5F5F4F62E00E9469000F900F90E9
:10018000DF91CF910895CF93DF9300D0CDB7DEB745
:10019000562F5A834983AE014F5F5F4F62E00E9442
:1001A00069000F900F90DF91CF910895CF93DF9367
:1001B00000D000D0CDB7DEB770E0762F66277295FD
:1001C000707FE0E06E2B742BAB0170E060E0498340
:1001D0005A836B837C83AE014F5F5F4F63E00E9465
:1001E00069000F900F900F900F90DF91CF910895BD
:1001F0000F93CF93DF9300D000D0CDB7DEB7E82FB9
:100200006983CA01B9010E949F116A837B838C8331
:100210009D83202FAE014F5F5F4F65E08E2F0E94C0
:1002200069000F900F900F900F90DF91CF910F9179
:100230000895582F462F21E06FEF88E00C94D600E8
:10024000CF92DF92EF92FF920F931F93CF93DF93A2
:10025000EC012D813E81522F432F8D816F81788556
:100260009C819A3009F4ADC0F0F4923009F454C086
:1002700058F49923F1F1DF91CF911F910F91FF90E5
:10028000EF90DF90CF900895943009F45EC09630DF
:1002900091F7DF91CF911F910F91FF90EF90DF9039
:1002A000CF900C949C059F3009F4A1C080F49C3041
:1002B00009F492C09E30F9F6C901DF91CF911F91E8
:1002C0000F91FF90EF90DF90CF900C942705903125
:1002D00009F492C09F3F79F61F928F938CE191E0D1
:1002E0009F938F930E94A1030F900F900F900F90F8
:1002F000C2CF882369F00E94D0058D7FDF91CF9116
:100300001F910F91FF90EF90DF90CF900C94CD054F
:100310000E94D0058260F2CF0E94D00581FDABCF54
:100320008D8124E0829FC00111242E81222319F0A7
:10033000919581959109DF91CF911F910F91FF9038
:10034000EF90DF90CF900C94E20420910001309167
:100350000101249FC001259F900D349F900D112411
:10036000762767277627629FF001639FF00D729FC3
:10037000F00D112424E630E0B9010E9436116B0122
:10038000CF01B9010E9436118B010E949108F12C16
:10039000E12C6C157D058E059F0520F46C8183E0B2
:1003A0000E941901C701B6010E947805C801DF91BA
:1003B000CF911F910F91FF90EF90DF90CF900C9411
:1003C0008305C901DF91CF911F910F91FF90EF90AD
:1003D000DF90CF900C940B05C901DF91CF911F9155
:1003E0000F91FF90EF90DF90CF900C9419055093F0
:1003F0000101409300013FCF8881998125E09695C6
:1004000087952A95E1F78F71DF91CF911F910F9119
:10041000FF90EF90DF90CF900C94AE000F930E946E
:10042000C3086F3F2FEF72078105910538F420E074
:10043000AB0164E188E00F910C94D60000E09B01D1
:10044000AC0164E188E00E94F8000F9108950F93D9
:10045000CF93DF930E946E0EEC010E9435059E0142
:1004600050E040E0A90133272227B0E0A0E0282B8C
:10047000392B4A2B5B2B00E068E188E00E94F800F2
:10048000DF91CF910F91089596E0811101C098E01E
:1004900094B993E49CBD882319F08CB580618CBD20
:1004A00008958EBD0DB407FEFDCF08950DB407FE6F
:1004B000FDCF8EB508958EBD0DB407FEFDCF8EB570
:1004C00008950F920FB60F928F939F93EF93FF9320
:1004D00080914F0281315CF080E180934F02FF9167
:1004E000EF919F918F910F900FBE0F901895809173
:1004F000CE00E0914F0291E09E0F90934F020E2E9E
:10050000000CFF0BE05BFD4F8083E9CF0F920FB62D
:100510000F921F9211248F939F93EF93FF93E0917B
:10052000600281E08E0F809360020E2E000CFF0BA4
:10053000E25CFD4F80818093CE00909160028091BB
:100540004E02981724F48091600281314CF0809122
:10055000C9008F7D8093C90010924E0210926002F4
:10056000FF91EF919F918F911F900F900FBE0F9071
:100570001895EF92FF920F931F93CF93DF937C0117
:100580000091C90080914F021816E4F78091C900CC
:100590008F778093C90080914F02262F30E050E082
:1005A00040E0682F880F770B880B990B0E943F1053
:1005B000162FC62FD0E0AE0160E572E0C7010E94A1
:1005C000C01140E150E04C1B5D0BBE01605B7D4FF4
:1005D00080E592E00E94C91180914F02811B8093B7
:1005E0004F020093C900812FDF91CF911F910F918E
:1005F000FF90EF900895CF92DF92EF92FF921F93BA
:10060000CF93DF930F92CDB7DEB77C01162F809189
:100610004E02882329F08091C90080628093C9002E
:1006200080E1C82ED12C111109C00F90DF91CF911C
:100630001F91FF90EF90DF90CF90089580914E0230
:100640008F30E4F780914E02212F30E050E040E0FF
:10065000B601681B710987FD7395072E000C880B86
:10066000990B0E943F106983498180914E02082EA8
:10067000000C990B50E0B701825C9D4F0E94C011A5
:10068000998180914E02890F80934E028981181BB7
:100690008091C90080628093C900C5CF9B01AC01E5
:1006A00010924F0210924E02109260021092C800F7
:1006B00060E472E48FE090E00E945E112150310905
:1006C0003093CD002093CC0086E08093CA0088E967
:1006D0008093C90008951092C9000895CF93DF93C5
:1006E0000F92CDB7DEB789838A3019F48DE00E946E
:1006F0006E0361E0CE0101960E94FB020F90DF9134
:10070000CF910895FC0101900020E9F73197BF01D6
:10071000681B790B0C94FB02CF93DF930F92CDB73C
:10072000DEB761E0CE0101960E94B90289810F9087
:10073000DF91CF91089580914F02082E000C990B04
:1007400008952F923F924F925F926F927F928F9275
:100750009F92AF92BF92CF92DF92EF92FF920F9350
:100760001F93CF93DF93CDB7DEB72B970FB6F894D7
:10077000DEBF0FBECDBFFE01B096C190D1908F01FC
:10078000F12CE12C80E1482E87E2582E612C712C4F
:10079000F601EE0DFF1DB080B11019C02B960FB6FB
:1007A000F894DEBF0FBECDBFDF91CF911F910F91A7
:1007B000FF90EF90DF90CF90BF90AF909F908F9081
:1007C0007F906F905F904F903F902F90089585E2BB
:1007D000B816C9F08B2D0E946E03ECE5BE127AC0EC
:1007E000FFEFEF1AFF0AF601EE0DFF1D80818A3040
:1007F00029F08C3529F40E946E036CC08AE0FBCF8F
:10080000853209F067C08FEFE81AF80AF601EE0D9D
:10081000FF1D8081843609F474C044F4883509F4DE
:100820005DC0833609F476C08FE3E5CF8C3639F0AE
:100830008337D1F7F801819191918F0149C0F80177
:1008400081909190A190B1908F018114F0E89F0662
:10085000A104B104A4F1C501B401A30192010E9455
:10086000801149011B018A879B874AE0BE016F5FA7
:100870007F4FC4010E94DB11CE0101960E948203CA
:100880004101AA84BB8488EE881683E09806A104FF
:10089000B104ACF480E30E946E03E4E68E1691048A
:1008A000A104B10464F480E30E946E03FAE08F16A1
:1008B0009104A104B1041CF480E30E946E034AE099
:1008C000BE016F5F7F4FC4010E94DB11CE01019614
:1008D0000E948203FFEFEF1AFF0A5ACF580184E00B
:1008E000A80EB11C40E1BE016F5F7F4FF80180810F
:1008F00091810E94DB11CE0101960E948203850145
:10090000E9CF4AE0BE016F5F7F4FF801819191917D
:100910008F01DACF5801F2E0AF0EB11CF8018081EF
:100920000E946E03ECCF73986B9A6A9A729A8098C1
:1009300080E094E0A0E0B0E08093730290937402B2
:10094000A0937502B093760288E893E190938402B5
:100950008093830210926D0210926E0210926F02C9
:10096000109270021092640210926302109262025E
:10097000109261028CE890E090937E0280937D0259
:1009800084E190E0909368028093670284E690E0AF
:1009900090937A028093790281E090E090938002B4
:1009A00080937F0290937C0280937B0290936602F7
:1009B000809365028AEF90E09093720280937102B7
:1009C0000C94D508CF93DF93EC01C11584E0D807D0
:1009D00094F4C1308CEFD8078CF01C161D0684F4FB
:1009E00070E060E083E00E94810EBE0184E0DF9150
:1009F000CF910C94810ECFEFD3E0F2CFC1E0DCEFCA
:100A000070E060E084E00E94810E662777276C1B0F
:100A10007D0B83E0ECCF009721F090937E028093D2
:100A20007D026115710521F07093800260937F0251
:100A30000895009721F090936802809367026115F2
:100A4000710521F070937C0260937B0208950097FA
:100A500021F090937A02809379026115710521F05B
:100A6000709366026093650208950E94490E80E0CB
:100A70000E94340E8431910520F09CEE980F80E0A6
:100A8000089590E0FCCF0F931F930E9435052091AD
:100A900083023091840228173907D0F40E94420F54
:100AA00000913A0210913B0220913C0230913D02AC
:100AB000AB01BC01401B510B620B730B81E0453F46
:100AC00051406105710508F480E01F910F91089570
:100AD0000E94420F60933A0270933B0280933C0263
:100AE00090933D02F1CF9093840280938302089506
:100AF00097FD08C060936D0270936E0280936F0241
:100B000090937002089590937202809371020895F9
:100B100060916D0270916E0280916F0290917002EF
:100B200008956091710270917202072E000C880B7B
:100B3000990B08950C940B0980918D028460809329
:100B40008D028091710290917202892B31F48AEFAB
:100B500090E0909372028093710280E090E0ACEF9D
:100B6000BFEF80936D0290936E02A0936F02B093DB
:100B70007002089580918D02816080938D0260E003
:100B800081E00C94531090E080E00E94E204809198
:100B90008D028E7F80938D02089580938D0208953B
:100BA00080918D02089589B18095827008952F9269
:100BB0003F924F925F926F927F928F929F92AF92ED
:100BC000BF92CF92DF92EF92FF920F931F93CF933A
:100BD000DF93CDB7DEB764970FB6F894DEBF0FBED4
:100BE000CDBF80918D0281FF1092A1020E9443052A
:100BF000811102C0749B12C01092620210926102B5
:100C00000E94C3050E943505692F6695669581E0AF
:100C10000E94190161E081E00E9453100E94D305F7
:100C2000898380FF1BC00E94F20880918D0282FFA1
:100C300003C08B7F80938D0280916D0290916E0234
:100C4000A0916F02B0917002B7FF08C010926D02C0
:100C500010926E0210926F0210927002298121FF91
:100C600034C00E94C308609373027093740280932F
:100C700075029093760200916D0210916E022091A0
:100C80006F0230917002601771078207930744F476
:100C900060936D0270936E0280936F029093700266
:100CA00080918D0282FF03C08B7F80938D028091A3
:100CB000610290916202892B41F0109262021092BF
:100CC000610290E080E00E94E20480918D0281FF49
:100CD000ECC18091A102882309F4E7C10E940B09AD
:100CE0009A8389830E94C308C0906D02D0906E02DF
:100CF000E0906F02F09070022090710230907202CA
:100D00006C157D058E059F050CF0EDC149815A815A
:100D1000241A350AA0918102B0918202BE87AD8764
:100D2000309282022092810220917F0230918002D3
:100D30003C8B2B8B40917B0250917C02588B4F87D0
:100D40008091890290918A02A0918B02B0918C02CD
:100D500089879A87AB87BC87A0916502B0916602AC
:100D6000BA8BA98BC10140968197A8F0C101032CD1
:100D7000000CAA0BBB0B29853A854B855C85820F3D
:100D8000931FA41FB51F8093890290938A02A0939A
:100D90008B02B0938C028091890290918A02A0917B
:100DA0008B02B0918C02813030E49307A105B1052C
:100DB0000CF4A1C180E090E4A0E0B0E0809389024F
:100DC00090938A02A0938B02B0938C020E94C30876
:100DD00069837A838B839C8346015701861A970A1D
:100DE000A80AB90A8091850290918602A091870293
:100DF000B0918802A5019401281B390B4A0B5B0BAB
:100E00002D833E834F83588780928502909286027D
:100E1000A0928702B0928802D501C4010496A11D58
:100E2000B11D0997A105B105A0F0809169029091CB
:100E30006A02A0916B02B0916C02880D991DAA1DE7
:100E4000BB1D8093690290936A02A0936B02B093DA
:100E50006C028091690290916A02A0916B02B0913C
:100E60006C02813033E09307A105B1050CF44EC14B
:100E700080E093E0A0E0B0E08093690290936A0282
:100E8000A0936B02B0936C02A0916702B0916802CC
:100E90002091690230916A0240916B0250916C027C
:100EA0000E94B51124E130E040E050E00E94801142
:100EB00029013A01A0917D02B0917E02A501940121
:100EC0000E94B51124E130E040E050E00E94801122
:100ED000420E531E641E751EA0917902B0917A02D3
:100EE0002D813E814F8158850E94B51124E130E06B
:100EF00040E050E00E948011420E531E641E751E99
:100F000051E045165CEF55065FEF650675063CF44B
:100F1000442443949CEF592E66246A94762C411401
:100F200084E058066104710434F044244A9483E058
:100F3000582E612C712C5092620240926102C401C1
:100F40000E946F108536910508F452C0AB89BC89A8
:100F50002A9EC0012B9E900D3A9E900D112464E1B3
:100F600070E00E9436118B01AF85B88929853A85DA
:100F70004B855C850E94B51124E130E040E050E0F3
:100F80000E948011DA01C901800F911FA11DB11DBE
:100F90008C019D01AD85BE852A1A3B0A49895A8973
:100FA000249EC001259E900D349E900D112464E175
:100FB00070E00E943611060F171F211D311D0130F0
:100FC0005CEF15075FEF2507350724F401E01CEF00
:100FD0002FEF3FEF011584E018072105310524F0BC
:100FE0000FEF13E020E030E0109362020093610203
:100FF000209177023091780249E0429FC001439FDF
:10100000900D11246AE070E00E944A118B010E9449
:101010000B096AE070E00E944A11060F171F109337
:101020007802009377021F930F93809162028F934F
:10103000809161028F9380916A028F9380916902FF
:101040008F939E819F93AD81AF939F928F92BC812E
:10105000BF932B812F933A813F9349814F93FF9206
:10106000EF92DF92CF92809170028F9380916F0206
:101070008F9380916E028F9380916D028F9386E2A1
:1010800091E09F938F930E94A103809163029091BE
:101090006402019690936402809363021092A1020D
:1010A0000FB6F894DEBF0FBECDBF80916102909164
:1010B000620264960FB6F894DEBF0FBECDBFDF911B
:1010C000CF911F910F91FF90EF90DF90CF90BF9045
:1010D000AF909F908F907F906F905F904F903F90D8
:1010E0002F900C94E20431942194310889819A81E3
:1010F000281A390A0FCE8115904CAF4FBF4F0CF014
:1011000065CE80E090ECAFEFBFEF58CE81159D4FDC
:10111000AF4FBF4F0CF0B8CE80E09DEFAFEFBFEF09
:10112000ABCE6091730270917402809175029091C0
:10113000760208951F921FB61F9211248F939F93DA
:10114000809191028F5F80939102909191028091A2
:101150009002981312C080919402909195029093FE
:101160009302809392029093930280939202109242
:10117000910210929502109294029F918F911F906C
:101180001FBE1F90189560919602709197028091F2
:101190009802909199020895609396027093970235
:1011A000809398029093990208958DB38F738DBBAD
:1011B0008DB18F738DB98EB1806C8EB910929602FD
:1011C00010929702109298021092990288E18093EF
:1011D0009002EAE6F0E08081806580838DB3806CC8
:1011E0008DBB08958DB38F738DBB109296021092B4
:1011F0009702109298021092990210929502109202
:1012000094021092930210929202109291028DB366
:10121000806C8DBB08952091920230919302809151
:101220009002883131F1809190028A3709F041C0F3
:10123000C901805B9F4F813A910518F088E1809346
:10124000900280918E0290918F0297FD10C095952B
:10125000879595958795A901440F551F240F351F34
:10126000820F931F90938F0280938E0208950396AE
:10127000EECFC9010496099718F48AE7809390028B
:1012800080918E0290918F0297FD11C09595879560
:10129000959587956FE0629FA001639F500D112483
:1012A000840F951F90938F0280938E02089503966A
:1012B000EDCF8FEF9FEF08951F921FB61F9211245D
:1012C0008F939F93AF93BF938CB186FF26C087FD0A
:1012D00026C08091960290919702A0919802B091B9
:1012E00099020197A109B109809396029093970200
:1012F000A0939802B09399028091940290919502E4
:1013000001979093950280939402BF91AF919F9122
:101310008F911F901FBE1F90189587FDDACF809187
:10132000960290919702A0919802B091990201962D
:10133000A11DB11D8093960290939702A0939802ED
:10134000B0939902809194029091950201969093A6
:10135000950280939402D9CF1F921FB61F92112439
:101360008F939F93AF93BF938CB187FD26C086FD6B
:1013700026C08091960290919702A0919802B09118
:1013800099020197A109B10980939602909397025F
:10139000A0939802B0939902809194029091950243
:1013A00001979093950280939402BF91AF919F9182
:1013B0008F911F901FBE1F90189586FDDACF8091E8
:1013C000960290919702A0919802B091990201968D
:1013D000A11DB11D8093960290939702A09398024D
:1013E000B093990280919402909195020196909306
:1013F000950280939402D9CF80B18F708095089523
:1014000020E1829FC00111248093ED000895282FD0
:1014100030E0883068F49091DE0021E030E001C0D7
:10142000220F8A95EAF7209529232093DE0008955C
:101430004091DF002850310981E090E001C0880F21
:101440002A95EAF7809584238093DF000895482F3A
:1014500050E0883060F49091DE0021E030E001C07F
:10146000220F8A95EAF7922B9093DE0008958091DF
:10147000DF004850510921E030E001C0220F4A95B9
:10148000EAF7822B8093DF0008951F920F920FB628
:101490000F9211242F933F934F935F936F937F93FA
:1014A0008F939F93AF93BF93CF93EF93FF93C0918D
:1014B000ED008091EC00807F803F09F448C0E0910E
:1014C000EC008E2F82958F7090E1899F90011124FE
:1014D0002093ED009091EE0096FF1CC09091EE00DD
:1014E0001092EE001092EF000E94270AC093ED00C8
:1014F000FF91EF91CF91BF91AF919F918F917F918C
:101500006F915F914F913F912F910F900FBE0F9070
:101510001F90189590919E029F5F90939E02EE1FE0
:10152000EE27EE1FF0E0E456FD4F9081482F477004
:1015300021E030E001C0220F4A95EAF7922B908318
:101540009091EE001092EE000E94070ACFCF80919A
:10155000DA008093DA00CACFCF92DF92EF92FF9247
:101560000F931F93CF93DF936B017C01042F122FF6
:101570008091D80081608093D80084E690E00E943A
:10158000A30FC701AA27BB278093E200BB27AF2D7B
:101590009E2D8D2D8093E300C092E40080EB80931C
:1015A000DB008FEF8093E50010929D0210929C0269
:1015B000D0E0C0E020E8F22ED093ED008091EE0064
:1015C0001092EE001092F4001092F5001092F600C6
:1015D0001092F7001092F0001092F1001092F200B9
:1015E0001092F3000C17F0F4F092EF008C2F0E9491
:1015F000270ACF5FD05FCF30F9F610929E0282E0CB
:101600008093D80010FF05C08091D8008860809337
:10161000D800DF91CF911F910F91FF90EF90DF9055
:10162000CF9008951092EF00E4CF282F30E088305B
:1016300068F42091DE0030E0A90102C0559547957D
:101640008A95E2F7CA018170992708958091DF0099
:1016500090E02850310902C0959587952A95E2F7C8
:10166000F2CF282F30E0883058F42091DC0030E0B1
:1016700002C0359527958A95E2F7822F81700895EB
:101680008091DD0090E02850310902C09595879542
:101690002A95E2F7F3CF80919E0208950F931F934E
:1016A000CF93DF93FC0180919E02811106C080E000
:1016B000DF91CF911F910F91089590E080E090937A
:1016C000ED0083FB442740F950E0EA01C456DD4FAA
:1016D0002881682F6770062F30E002C03595279566
:1016E0006A95E2F720FD05C08F5F905F8F3039F774
:1016F000DECF4091EF004F7043839091F200209134
:10170000F30092959695977058E0259F90011124CB
:10171000292B318320832091F000928122FF34C055
:1017200091609283349690E0491330C0F894909180
:101730009E02915090939E0278941092F000109225
:10174000F10090919F029295990F90769093F200FC
:1017500020919F023091A00293E0369527959A95AB
:10176000E1F72093F3000E94270A288181E090E0AE
:1017700001C0880F0A95EAF780958223888380E864
:101780008093EF0081E094CF9E7FCBCF2091FA0031
:1017900021939F5FC9CF90E080E09093ED0020916E
:1017A000EF00207C29F08F5F905F8F30B1F78FEFD3
:1017B0000895CF93DF93EC010E94CB0B8F3FF1F1A3
:1017C00090E1899F900111242093ED009091EE000B
:1017D0001092EE009B819F709093EF0090E02B8120
:1017E000921720F11092F0002A8194E0299F900135
:1017F000112424702093F10098819295990F90768E
:101800009093F2002881398193E0369527959A9537
:10181000E1F72093F3009091EF0090649093EF0034
:101820000E94270A81E0DF91CF910895FE01E90F20
:10183000F11D24812093FA009F5FD1CF80E0F3CF88
:10184000FF920F931F93CF93DF939093A002809307
:101850009F0270939B0260939A02062F0295000FDD
:10186000007623E0769567952A95E1F7C62F282F15
:101870002295220F2076F22E33E0969587953A95A1
:10188000E1F7D82F10E0812F0E94310B882389F0D7
:10189000812F8295807F8093ED008091EF0087FFFC
:1018A00008C00093F200C093F300F092F600D093CA
:1018B000F7001F5F1F3039F7DF91CF911F910F9114
:1018C000FF9008952F923F924F925F926F927F9276
:1018D0008F929F92AF92BF92CF92DF92EF92FF9240
:1018E0000F931F93CF93DF93612CD0E0C0E02C2E99
:1018F0006092ED004090EE00842C912CB12CA12C34
:101900007090EF00C72CD12CF12CE12C272D2F70DB
:10191000322E8091F2000091F300829586958770B7
:1019200098E0099F80011124082B8C2F0E94150B31
:1019300034E4532E892B11F025E4522E822D0E947F
:10194000310B8111C7C084E41F921F921F924F92E6
:101950001F923F921F930F931F925F921F928F933C
:10196000DF93CF938FE391E09F938F930E94A10326
:101970008DB79EB740960FB6F8949EBF0FBE8DBF31
:1019800081149104A104B104F1F181E891E09F93E5
:101990008F930E94A1030F900F9010E000E081E070
:1019A00090E0002E02C0880F991F0A94E2F7092EDA
:1019B000000CAA0BBB0B88219921AA21BB21892BE2
:1019C0008A2B8B2B99F0F801EE0FFF1FEE5FFE4F75
:1019D00081818F9380818F938EE691E09F938F9387
:1019E0000E94A1030F900F900F900F900F5F1F4F59
:1019F00008301105A1F682E791E09F938F930E9432
:101A0000A1030F900F901F921F921F927F9284E765
:101A100091E09F938F930E94A1030F900F900F90DE
:101A20000F900F900F9075FE08C083E891E09F9390
:101A30008F930E94A1030F900F9074FE08C089E855
:101A400091E09F938F930E94A1030F900F9086E0E7
:101A5000F694E794D794C7948A95D1F782E0C81694
:101A6000D104E104F104C1F193E0C916D104E10409
:101A7000F104A9F18FE891E0CA94CD28CE28CF28AF
:101A800011F483E991E09F938F930E94A1030F903B
:101A90000F9082EA91E09F938F930E94A103219679
:101AA00080E1680E0F900F9090EF691220CFDF91C8
:101AB000CF911F910F91FF90EF90DF90CF90BF904B
:101AC000AF909F908F907F906F905F904F903F90DE
:101AD0002F90089585E438CF88E991E0D4CF8DE93F
:101AE00091E0D1CF8F929F92AF92BF92CF92DF922F
:101AF000EF92FF920F931F93CF93DF93CDB7DEB793
:101B00002C970FB6F894DEBF0FBECDBFE982FA82E4
:101B10000B83F12E1C832D833E834F835887698767
:101B20007A878B879C8785EA91E09F938F930E94A9
:101B3000A103012F10E01F92FF928B811F921F9231
:101B40001F928F938A818F9389818F9385EB91E088
:101B50009F938F930E94A10383ED91E09F938F93B6
:101B60000E94A1036E0185E0C80ED11C0FB6F89447
:101B7000DEBF0FBECDBFF12CE12C4801F1E08F1A82
:101B8000910899EDA92E91E0B92EE016F1067CF1AD
:101B90008EED91E09F938F930E94A103FE013196F9
:101BA0007F010E0F1F1F0F900F9089EEC82E81E04E
:101BB000D82EE016F106C1F58CEE91E09F938F933D
:101BC0000E94A1030F900F902C960FB6F894DEBFE1
:101BD0000FBECDBFDF91CF911F910F91FF90EF907E
:101BE000DF90CF90BF90AF909F908F9008958DE839
:101BF00091E08E149F0411F481E092E0F6012191AE
:101C00006F019F938F931F921F921F922F93BF92EA
:101C1000AF920E94A103FFEFEF1AFF0A0FB6F894EC
:101C2000DEBF0FBECDBFB1CFF701848190EE980F1C
:101C3000903608F08EE21F928F93DF92CF920E942F
:101C4000A103FFEFEF1AFF0A0F900F900F900F9074
:101C5000B0CF80E480937C00EAE7F0E086E0808308
:101C6000808180688083089590917C00907C87704B
:101C7000982B90937C0080917A00806480937A0006
:101C800080917A0086FDFCCF809178009091790058
:101C9000089580917C00807C61F480917C00806C50
:101CA00080937C0085E090E00E94A30F80E00C947C
:101CB000340E089580917C00807C79F080917C00C6
:101CC0008F7380937C0080E480937C0085E090E0BB
:101CD0000E94A30F80E00C94340E08950E94490ED8
:101CE00081E00E94340E9C0145E0220F331F4A958B
:101CF000E1F753E0880F991F5A95E1F7820F931F80
:101D000008957370843071F08530B1F08330E9F458
:101D10008091900080688093900070939900609308
:101D20009800089580919000806280939000709355
:101D30009B0060939A000895809190008860809342
:101D4000900070939D0060939C000895843071F022
:101D50008530B1F08330E9F4809190008F778093E3
:101D60009000109299001092980008958091900030
:101D70008F7D8093900010929B0010929A0008959E
:101D800080919000877F8093900010929D00109228
:101D90009C0008951F920F920FB60F9211242F935B
:101DA0003F934F935F936F937F938F939F93AF93E3
:101DB000BF93EF93FF938091A2029091A302A09111
:101DC000A402B091A5020196A11DB11D8093A202AB
:101DD0009093A302A093A402B093A5028091A202C3
:101DE0009091A302A091A402B091A50283709927BB
:101DF000AA27BB27892B8A2B8B2BA1F081E080930C
:101E0000A102FF91EF91BF91AF919F918F917F912F
:101E10006F915F914F913F912F910F900FBE0F9057
:101E20001F9018958091A2029091A302A091A40204
:101E3000B091A5020E947510E1CF83E484BD91E0CA
:101E400090936E008BE18093810083E0809380000B
:101E500020E137E2309389002093880010928500BA
:101E60001092840090936F008093900082E08093A2
:101E700091001092A2021092A3021092A40210925A
:101E8000A5020895CF92DF92EF92FF9220918400F5
:101E9000309185008091A2029091A302A091A402AA
:101EA000B091A5026C017D01CC0CDD1CEE1CFF1C69
:101EB000CC0CDD1CEE1CFF1C8C0D9D1DAE1DBF1D32
:101EC0006C017D01CC0CDD1CEE1CFF1CCC0CDD1C60
:101ED000EE1CFF1CCC0CDD1CEE1CFF1C3695279560
:101EE000A3E1B3E80E94A6110024880F991F001CEB
:101EF000880F991F001C892F902DA7019601280F8C
:101F0000391F411D511DCA01B901FF90EF90DF90AB
:101F1000CF900895E0918400F09185002091A20275
:101F20003091A3024091A4025091A502A0E4BCE923
:101F30000E94B511EE0FFF1FEE0FFF1F6E0F7F1FE8
:101F4000811D911D08954F925F926F927F928F92A3
:101F50009F92AF92BF92CF92DF92EF92FF922C01AD
:101F600020918400309185008091A2029091A3027B
:101F7000A091A402B091A5024C015D01880C991CAE
:101F8000AA1CBB1C880C991CAA1CBB1C880D991D83
:101F9000AA1DBB1D4C015D01880C991CAA1CBB1C11
:101FA000880C991CAA1CBB1C880C991CAA1CBB1C65
:101FB00036952795A3E1B3E80E94A6110024880F67
:101FC000991F001C880F991F001C892F902D880EC7
:101FD000991EA11CB11C712C612C209184003091A0
:101FE00085008091A2029091A302A091A402B091D9
:101FF000A5026C017D01CC0CDD1CEE1CFF1CCC0C81
:10200000DD1CEE1CFF1C8C0D9D1DAE1DBF1D6C014B
:102010007D01CC0CDD1CEE1CFF1CCC0CDD1CEE1C71
:10202000FF1CCC0CDD1CEE1CFF1C36952795A3E194
:10203000B3E80E94A6110024880F991F001C880F86
:10204000991F001C892F902DC80ED91EE11CF11C70
:10205000C818D908EA08FB08C414D504E604F70434
:1020600008F4BBCFFF90EF90DF90CF90BF90AF9080
:102070009F908F907F906F905F904F900895621720
:1020800073078407950714F49B01AC01CA01B901D9
:102090000895261737074807590714F49B01AC0128
:1020A000CA01B90108958530C8F46430B8F46623D4
:1020B00019F094E0961B692F23E030E0082E01C050
:1020C000220F0A94EAF720959091A602292301C0D5
:1020D000660F8A95EAF7262B2093A602089597FFAC
:1020E00003C091958195910908950F931F93CF9304
:1020F000DF93EC018091A602882321F130E020E0FB
:1021000001E010E0C901880F991FB90102C075955F
:1021100067958A95E2F7C9010496F80101C0EE0FB0
:102120008A95EAF7662329F0CE010E943611892BA1
:1021300071F082B1E095E823E2B92F5F3F4F243080
:10214000310501F7DF91CF911F910F91089582B171
:10215000E82BF2CFAF92BF92CF92DF92EF92FF9235
:102160000F931F93CF93DF93EC01062F6C01F12C9B
:10217000E12C1FEF89EEA82E81E0B82E10130FC0BE
:10218000CE0DDF1D21971882DF91CF911F910F9106
:10219000FF90EF90DF90CF90BF90AF9008950E9496
:1021A0008C03182F812F012E000C990B9F931F93E6
:1021B000BF92AF920E94A1038FEFE81AF80AF601CE
:1021C00011936F010F900F900F900F90D7CFCDB755
:1021D000DEB72C970FB6F894DEBF0FBECDBF0E94BE
:1021E0001D0F60E07BE480E090E00E944E032FEF43
:1021F00084E890E2215080409040E1F700C0000068
:10220000789470E060E090E080E00E94200C82E131
:1022100091E09F938F930E94A10320E044E063E14B
:1022200074E08EE190E00E94AC0A88EE93E00E9498
:10223000A30F0F900F900E944B0B882391F0CE01BB
:1022400001960E944E0BE980FA800B811C812D8142
:102250003E814F81588569857A858B859C850E9452
:10226000720D8AEF90E00E94A30FE5CFAA1BBB1B63
:1022700051E107C0AA1FBB1FA617B70710F0A61B86
:10228000B70B881F991F5A95A9F780959095BC01A7
:10229000CD01089597FB072E16F4009407D077FD23
:1022A00009D00E94361107FC05D03EF49095819527
:1022B0009F4F0895709561957F4F0895A1E21A2E62
:1022C000AA1BBB1BFD010DC0AA1FBB1FEE1FFF1FDA
:1022D000A217B307E407F50720F0A21BB30BE40B2A
:1022E000F50B661F771F881F991F1A9469F7609571
:1022F0007095809590959B01AC01BD01CF0108952B
:10230000052E97FB1EF400940E94971157FD07D0ED
:102310000E945E1107FC03D04EF40C949711509567
:102320004095309521953F4F4F4F5F4F08959095C1
:102330008095709561957F4F8F4F9F4F08956927C6
:10234000962769277827872778270895A29FB001C5
:10235000B39FC001A39F700D811D1124911DB29FD9
:10236000700D811D1124911D08950E94A611A59F35
:10237000900DB49F900DA49F800D911D1124089580
:10238000FB01DC0102C001900D9241505040D8F792
:1023900008956817790768F4FB01DC01E40FF51F65
:1023A000A40FB51F02C002900E9241505040D8F7C2
:1023B00008950C94C011BB274A3031F4992322F4BC
:1023C000BDE2909581959F4F0C94E711BB27FB01CF
:1023D0005527AA27880F991FAA1FA41710F0A41B1E
:1023E00083955051B9F7A05DAA3308F0A95DA19378
:1023F000009779F7B111B1931192CB010C940012AF
:10240000DC01FC01672F71917723E1F7329704C05B
:102410007C916D9370836291AE17BF07C8F30895E6
:04242000F894FFCF5E
:10242400010002020A0213021B0223022B023002E1
:10243400350243414E20696E69740A004572726F19
:10244400722025640A00256C20256C20256C20252B
:10245400642025642025642025642025640A006DF9
:102464006F622025643A20282563292C20493D25C4
:10247400632C204944543D25642C20444C433D2581
:10248400642C2043414E53543D3078255800257325
:1024940020007D002C2043414E43443D3078255894
:1024A400207B0052504C562000322E3042200044F3
:1024B400495300454E545800454E52580046425226
:1024C40058007D0A000A2D43414E204D4553534187
:1024D40047452D0A0069643D25642C20666C6167BC
:1024E400733D307825582C206C656E6774683D25E3
:1024F400640A004845583D7B0025582573007D2C0F
:102504002041534349493D7B002563007D0A2D4505
:102514004E442043414E204D4553534147452D0AD7
:102524000A0041434B2045525200464F524D20452C
:1025340052520043524320455252005354462045C0
:10254400525200424954204552520052584F4B00B7
:0A25540054584F4B00444C4357000D
:00000001FF
