:100000000C944A000C9469000C9469000C946900EB
:100010000C9469000C9469000C9469000C947005B0
:100020000C94BC050C9469000C9469000C94690054
:100030000C9469000C9469000C9469000C94D80924
:100040000C9469000C94B8040C944F060C9469004D
:100050000C9469000C9469000C9469000C9469007C
:100060000C9469000C9469000C9469000C9469006C
:100070000C9469000C9469000C9469000C9469005C
:100080000C9445010C946E010C9469000C94690069
:100090000C94690011241FBECFEFD0E1DEBFCDBFAD
:1000A00012E0A0E0B1E0E4E7F7E100E00BBF02C03E
:1000B00007900D92AE34B107D9F722E0AEE4B2E07A
:1000C00001C01D92AD39B207E1F70E94870A0C9476
:1000D000B80B0C9400008F929F92AF92BF92CF9278
:1000E000DF92EF92FF920F931F93CF93DF93CDB7E1
:1000F000DEB72C970FB6F894DEBF0FBECDBFE982F6
:10010000FA820B83F12E1C832D833E834F83588705
:1001100069877A878B879C8780E191E09F938F9393
:100120000E948502012F10E01F92FF928B811F9287
:100130001F921F928F938A818F9389818F9380E280
:1001400091E09F938F930E9485028EE391E09F93AD
:100150008F930E9485026E0185E0C80ED11C0FB6F8
:10016000F894DEBF0FBECDBFF12CE12C4801F1E0C9
:100170008F1A910894E4A92E91E0B92EE016F106A9
:100180007CF189E491E09F938F930E948502FE01A8
:1001900031967F010E0F1F1F0F900F9084E5C82E20
:1001A00081E0D82EE016F106C1F587E591E09F9336
:1001B0008F930E9485020F900F902C960FB6F894A3
:1001C000DEBF0FBECDBFDF91CF911F910F91FF908A
:1001D000EF90DF90CF90BF90AF909F908F90089559
:1001E0008DEF91E08E149F0411F48CE691E0F601FE
:1001F00021916F019F938F931F921F921F922F93B4
:10020000BF92AF920E948502FFEFEF1AFF0A0FB66E
:10021000F894DEBF0FBECDBFB1CFF701848190EE61
:10022000980F903608F08EE21F928F93DF92CF9254
:100230000E948502FFEFEF1AFF0A0F900F900F90B8
:100240000F90B0CF96E0811101C098E094B993E48B
:100250009CBD882319F08CB580618CBD08958EBD3E
:100260000DB407FEFDCF08950DB407FEFDCF8EB58A
:1002700008958EBD0DB407FEFDCF8EB50895861787
:1002800097070CF4BC01CB0108950F920FB60F92A3
:100290008F938BB78F939F93EF93FF9380915F0220
:1002A00081316CF080E180935F02FF91EF919F912B
:1002B0008F918BBF8F910F900FBE0F9018958091EB
:1002C000CE00E0915F0291E09E0F90935F020E2EB0
:1002D000000CFF0BE05AFD4F8083E7CF0F920FB663
:1002E0000F921F9211248F938BB78F939F93EF934D
:1002F000FF93E091700281E08E0F809370020E2ECA
:10030000000CFF0BE25BFD4F80818093CE0090914B
:10031000700280915E02981724F4809170028131FE
:100320004CF08091C9008F7D8093C90010925E02CD
:1003300010927002FF91EF919F918F918BBF8F91DF
:100340001F900F900FBE0F901895FF920F931F9361
:10035000CF93DF93FC01F090C90080915F021816E3
:10036000E4F79091C9009F779093C90020915F02B4
:10037000022E000C330BC62FD0E02C173D070CF4D7
:10038000E9018E011127A80160E672E0CF010E9409
:10039000680B40E150E0401B510BB801605A7D4FA3
:1003A00080E692E00E94710B80915F028C1B80932B
:1003B0005F02F092C9008C2FDF91CF911F910F91B6
:1003C000FF900895CF92DF92EF92FF921F93CF9309
:1003D000DF930F92CDB7DEB77C01162F80915E02BE
:1003E000882329F08091C90080628093C90080E150
:1003F000C82ED12C111109C00F90DF91CF911F9100
:10040000FF90EF90DF90CF90089580915E028F3043
:10041000E4F780915E02212F30E0A601481B5109CC
:1004200087FD5395CA01241735070CF4C901898348
:10043000498180915E02082E000C990B50E0B701B3
:10044000825B9D4F0E94680B998180915E02890FAB
:1004500080935E028981181B8091C900806280931D
:10046000C900C8CF9B01AC0110925F0210925E02DE
:10047000109270021092C80060E472E48FE090E085
:100480000E940D0B215031093093CD002093CC00F8
:1004900086E08093CA0088E98093C900089510928D
:1004A000C9000895CF93DF930F92CDB7DEB789834C
:1004B0008A3019F48DE00E94520261E0CE0101966B
:1004C0000E94E2010F90DF91CF910895FC0101900D
:1004D0000020E9F73197BF01681B790B0C94E2010A
:1004E000CF93DF930F92CDB7DEB761E0CE010196D7
:1004F0000E94A50189810F90DF91CF91089580918D
:100500005F02082E000C990B08952F923F924F9294
:100510005F926F927F928F929F92AF92BF92CF9293
:10052000DF92EF92FF920F931F93CF93DF93CDB79C
:10053000DEB72B970FB6F894DEBF0FBECDBFFE011E
:10054000B096C190D1908F01F12CE12C80E1482E22
:1005500087E2582E612C712CF601EE0DFF1DB08044
:10056000B11019C02B960FB6F894DEBF0FBECDBFE9
:10057000DF91CF911F910F91FF90EF90DF90CF907F
:10058000BF90AF909F908F907F906F905F904F90B3
:100590003F902F90089585E2B816C9F08B2D0E94E8
:1005A0005202ECE5BE127AC0FFEFEF1AFF0AF60125
:1005B000EE0DFF1D80818A3029F08C3529F40E94D0
:1005C00052026CC08AE0FBCF853209F067C08FEF22
:1005D000E81AF80AF601EE0DFF1D8081843609F451
:1005E00074C044F4883509F45DC0833609F476C0DC
:1005F0008FE3E5CF8C3639F08337D1F7F80181915D
:1006000091918F0149C0F80181909190A190B19092
:100610008F018114F0E89F06A104B104A4F1C50183
:10062000B401A30192010E942F0B49011B018A878B
:100630009B874AE0BE016F5F7F4FC4010E94830B1E
:10064000CE0101960E9466024101AA84BB8488EE15
:10065000881683E09806A104B104ACF480E30E94FC
:100660005202E4E68E169104A104B10464F480E31E
:100670000E945202FAE08F169104A104B1041CF406
:1006800080E30E9452024AE0BE016F5F7F4FC401C7
:100690000E94830BCE0101960E946602FFEFEF1AC3
:1006A000FF0A5ACF580184E0A80EB11C40E1BE01F8
:1006B0006F5F7F4FF801808191810E94830BCE0193
:1006C00001960E9466028501E9CF4AE0BE016F5F94
:1006D0007F4FF801819191918F01DACF5801F2E0BB
:1006E000AF0EB11CF80180810E945202ECCF7498C9
:1006F0006C9A6B9A739A8098109276021092750297
:10070000109271021092720210927302109274028F
:100710000E94EA04109281021092820210928302D7
:10072000109284020E941F0A60937D0270937E02E1
:1007300080937F02909380020895CF93DF93EC0122
:10074000C11584E0D807ACF4C1308CEFD807A4F011
:10075000209721F08091850283FD11C070E060E058
:1007600084E00E948F098EB180718EB9DF91CF91A4
:100770000895CFEFD3E0EECFC1E0DCEFEBCFD7FFB2
:1007800011C0739B06C070E060E084E00E948F0996
:100790007398D195C195D109BE0184E0DF91CF91C5
:1007A0000C948F097399F8CF70E060E084E00E94A8
:1007B0008F09739AF1CF80917C00806C80937C00CC
:1007C00080E00E947A0920917C00207C20937C00AC
:1007D0008431910520F09CEE980F80E0089590E020
:1007E000FCCF80E008950F931F9397FD15C00091F3
:1007F0007702109178022091790230917A020617DF
:1008000017072807390744F060937102709372024A
:1008100080937302909374021F910F9108959093A7
:100820007602809375020895609171027091720250
:100830008091730290917402089560917502709195
:100840007602072E000C880B990B08954F925F9249
:100850006F927F928F929F92AF92BF92CF92DF92D0
:10086000EF92FF92CF93DF930E94E1046B017C0132
:100870000E941F0A4B015C0180917D0290917E02D3
:10088000A0917F02B091800224013501481A590AD3
:100890006A0A7B0AD0917B02C0917C0282E34816EF
:1008A00051046104710488F48D2F9C2FDF91CF9146
:1008B000FF90EF90DF90CF90BF90AF909F908F9080
:1008C0007F906F905F904F900895809181029091FA
:1008D0008202A0918302B0918402A7019601281B95
:1008E000390B4A0B5B0BA8EEB3E00E944E0BA30141
:1008F00092010E940D0BC90137FD019695958795D0
:100900002D2F3C2F37FF02C02F5F3F4F3595279586
:10091000820F931F90937C0280937B02C09281028E
:10092000D0928202E0928302F092840280927D0251
:1009300090927E02A0927F02B0928002B7CF08957B
:1009400080918502886080938502089590E080E020
:100950000E949D0380918502877F80938502089580
:1009600080938502089580918502089580E008951E
:100970001F921FB61F9211248F939F93809189021B
:100980008F5F8093890290918902809188029813E9
:1009900012C080918C0290918D0290938B02809373
:1009A0008A0290938B0280938A021092890210929D
:1009B0008D0210928C029F918F911F901FBE1F90ED
:1009C000189560918E0270918F02809190029091A3
:1009D000910208958DB38F738DBB8DB18F738DB9D7
:1009E0008EB1806C8EB910928E0210928F0210928E
:1009F00090021092910288E180938802EAE6F0E08A
:100A00008081806580838DB3806C8DBB08958DB3AC
:100A10008F738DBB10928E0210928F0210929002F3
:100A20001092910210928D0210928C0210928B0201
:100A300010928A02109289028DB3806C8DBB08954A
:100A400020918A0230918B0280918802883109F5C9
:100A5000C9010496099718F48AE7809388024091A7
:100A600086025091870257FF02C04D5F5F4F559538
:100A70004795559547956FE0629FC001639F900D24
:100A80001124480F591F5093870240938602CA01D0
:100A90000895809188028A3701F5C901805B9F4FD4
:100AA000813A910518F088E180938802809186024E
:100AB0009091870297FD03969595879595958795D3
:100AC000A901440F551F240F351F280F391F3093DC
:100AD000870220938602C90108958FEF9FEF089542
:100AE0001F921FB61F9211248F939F93AF93BF93B2
:100AF0008CB186FF1BC087FF1BC080918E02909136
:100B00008F02A0919002B09191020196A11DB11D9A
:100B100080938E0290938F02A0939002B0939102E3
:100B200080918C0290918D0201961AC087FFE5CFCB
:100B300080918E0290918F02A0919002B0919102CB
:100B40000197A109B10980938E0290938F02A0931F
:100B50009002B093910280918C0290918D02019746
:100B600090938D0280938C02BF91AF919F918F9152
:100B70001F901FBE1F9018951F921FB61F92112421
:100B80008F939F93AF93BF939CB1892F807497FFEE
:100B90001BC08823D9F080918E0290918F02A09182
:100BA0009002B09191020197A109B10980938E0240
:100BB00090938F02A0939002B093910280918C0247
:100BC00090918D0201971AC0882329F380918E029B
:100BD00090918F02A0919002B09191020196A11D77
:100BE000B11D80938E0290938F02A0939002B093D8
:100BF000910280918C0290918D02019690938D02CA
:100C000080938C02BF91AF919F918F911F901FBED7
:100C10001F90189520E1829FC00111248093ED0060
:100C20000895282F30E0883068F49091DE0021E0AC
:100C300030E001C0220F8A95EAF7209529232093FE
:100C4000DE0008954091DF002850310981E090E0F6
:100C500001C0880F2A95EAF7809584238093DF00EE
:100C60000895482F50E0883060F49091DE0021E034
:100C700030E001C0220F8A95EAF7922B9093DE00B4
:100C800008958091DF004850510921E030E001C013
:100C9000220F4A95EAF7822B8093DF0008951F9276
:100CA0000F920FB60F9211240BB60F922F933F9312
:100CB0004F935F936F937F938F939F93AF93BF9364
:100CC000CF93EF93FF93C091ED008091EC00807F74
:100CD000803F09F44AC0E091EC008E2F82958F701E
:100CE00090E1899F900111242093ED009091EE00F6
:100CF00096FF1EC09091EE001092EE001092EF0051
:100D00000E943106C093ED00FF91EF91CF91BF910A
:100D1000AF919F918F917F916F915F914F913F9193
:100D20002F910F900BBE0F900FBE0F901F90189534
:100D3000909196029F5F90939602EE1FEE27EE1F12
:100D4000F0E0EC56FD4F9081482F477021E030E0F5
:100D500001C0220F4A95EAF7922B90839091EE0002
:100D60001092EE000E941106CDCF8091DA008093A0
:100D7000DA00C8CFFF920F931F93CF93DF93042F16
:100D8000122F8091D80081608093D80086E28093F2
:100D9000E20084E08093E30083E18093E40080EB51
:100DA0008093DB008FEF8093E50010929502109204
:100DB0009402D0E0C0E080E8F82ED093ED0080915E
:100DC000EE001092EE001092F4001092F5001092D6
:100DD000F6001092F7001092F0001092F1001092BD
:100DE000F2001092F3000C17D8F4F092EF008C2F61
:100DF0000E943106CF5FD05FCF30F9F61092960295
:100E000082E08093D80010FF05C08091D8008860F0
:100E10008093D800DF91CF911F910F91FF9008959B
:100E20001092EF00E7CF282F30E0883068F420914F
:100E3000DE0030E0A90102C0559547958A95E2F79A
:100E4000CA018170992708958091DF0090E02850B1
:100E5000310902C0959587952A95E2F7F2CF282FA0
:100E600030E0883058F42091DC0030E002C0359545
:100E700027958A95E2F7822F817008958091DD0091
:100E800090E02850310902C0959587952A95E2F7A0
:100E9000F3CF8091960208950F931F93CF93DF9322
:100EA000FC0180919602811106C080E0DF91CF9114
:100EB0001F910F91089590E080E09093ED0083FBE7
:100EC000442740F950E0EA01CC56DD4F2881682FD5
:100ED0006770062F30E002C0359527956A95E2F7D6
:100EE00020FD05C08F5F905F8F3039F7DECF4091D6
:100EF000EF004F7043839091F2002091F3009295A0
:100F00009695977058E0259F90011124292B3183E5
:100F100020832091F000928122FF34C0916092835F
:100F2000349690E0491330C0F89490919602915015
:100F30009093960278941092F0001092F1009091A4
:100F400097029295990F90769093F20020919702D4
:100F50003091980293E0369527959A95E1F7209382
:100F6000F3000E943106288181E090E001C0880FE3
:100F70000A95EAF780958223888380E88093EF00C2
:100F800081E094CF9170CBCF2091FA0021939F5FA5
:100F9000C9CF90E080E09093ED002091EF00207C9D
:100FA00029F08F5F905F8F30B1F78FEF0895CF9367
:100FB000DF93EC010E94C9078F3FF1F190E1899F17
:100FC000900111242093ED009091EE001092EE001C
:100FD0009B819F709093EF0090E02B81921720F1FE
:100FE0001092F0002A8194E0299F9001112424702E
:100FF0002093F10098819295990F90769093F2004A
:101000002881398193E0369527959A95E1F72093C9
:10101000F3009091EF0090649093EF000E943106EE
:1010200081E0DF91CF910895FE01E90FF11D248148
:101030002093FA009F5FD1CF80E0F3CFFF920F9310
:101040001F93CF93DF9390939802809397027093AE
:10105000930260939202062F0295000F007623E020
:10106000769567952A95E1F7C62F282F2295220FAE
:101070002076F22E33E0969587953A95E1F7D82FB2
:1010800010E0812F0E942F07882389F0812F8295FD
:10109000807F8093ED008091EF0087FF08C0009370
:1010A000F200C093F300F092F600D093F7001F5FB8
:1010B0001F3039F7DF91CF911F910F91FF90089565
:1010C0002F923F924F925F926F927F928F929F9258
:1010D000AF92BF92CF92DF92EF92FF920F931F9346
:1010E000CF93DF93612CD0E0C0E02C2E6092ED0016
:1010F0004090EE00842C912CB12CA12C7090EF002C
:10110000C72CD12CF12CE12C272D2F70322E809161
:10111000F2000091F30082958695877098E0099F10
:1011200080011124082B8C2F0E94130734E4532EC6
:10113000892B11F025E4522E822D0E942F07811158
:10114000C7C084E41F921F921F924F921F923F923A
:101150001F930F931F925F921F928F93DF93CF93F2
:101160008FEA91E09F938F930E9485028DB79EB77F
:1011700040960FB6F8949EBF0FBE8DBF81149104A8
:10118000A104B104F1F181EF91E09F938F930E944C
:1011900085020F900F9010E000E081E090E0002EBB
:1011A00002C0880F991F0A94E2F7092E000CAA0BBF
:1011B000BB0B88219921AA21BB21892B8A2B8B2B40
:1011C00099F0F801EE0FFF1FE050FF4F81818F93E0
:1011D00080818F938EED91E09F938F930E94850283
:1011E0000F900F900F900F900F5F1F4F0830110559
:1011F000A1F682EE91E09F938F930E9485020F905B
:101200000F901F921F921F927F9284EE91E09F9306
:101210008F930E9485020F900F900F900F900F9068
:101220000F9075FE08C083EF91E09F938F930E940B
:1012300085020F900F9074FE08C089EF91E09F9394
:101240008F930E9485020F900F9086E0F694E794AA
:10125000D794C7948A95D1F782E0C816D104E104E7
:10126000F104C1F193E0C916D104E104F104A9F13C
:101270008FEF91E0CA94CD28CE28CF2811F483E0D7
:1012800092E09F938F930E9485020F900F9082E1CE
:1012900092E09F938F930E948502219680E1680ED1
:1012A0000F900F9090EF691220CFDF91CF911F9197
:1012B0000F91FF90EF90DF90CF90BF90AF909F90F5
:1012C0008F907F906F905F904F903F902F900895F8
:1012D00085E438CF88E092E0D4CF8DE092E0D1CFA2
:1012E00010927C00EAE7F0E086E0808380818068ED
:1012F0008083089590917C00907C8770982B9093C8
:101300007C0080917A00806480937A0080917A00DA
:1013100086FDFCCF809178009091790008957370DC
:10132000843071F08530B1F08330E9F48091900021
:10133000806880939000709399006093980008955E
:101340008091900080628093900070939B006093E6
:101350009A00089580919000886080939000709327
:101360009D0060939C000895843071F08530B1F049
:101370008330E9F4809190008F77809390001092F1
:101380009900109298000895809190008F7D80932D
:10139000900010929B0010929A0008958091900006
:1013A000877F8093900010929D0010929C0008957A
:1013B0001F921FB61F9211248F939F93AF93BF93D9
:1013C0008091990290919A02A0919B02B0919C0207
:1013D0000196A11DB11D8093990290939A02A0934A
:1013E0009B02B0939C02BF91AF919F918F911F90F0
:1013F0001FBE1F90189583E484BD91E090936E000A
:101400008BE18093810083E08093800020E137E2CC
:1014100030938900209388001092850010928400F8
:1014200090936F00809390008093910010929902A6
:1014300010929A0210929B0210929C020895CF92F1
:10144000DF92EF92FF920F931F93E0918400F0914F
:1014500085002091990230919A0240919B0250910F
:101460009C02A8E2B0E00E944E0B8B019C01CF01D0
:101470006AEF70E00E94F90A68017901C60ED71E72
:10148000E11CF11CC701B6011F910F91FF90EF9075
:10149000DF90CF900895E0918400F0918500209135
:1014A000990230919A0240919B0250919C02A0E4D3
:1014B000BCE90E944E0BEE0FFF1FEE0FFF1F6E0FD9
:1014C0007F1F811D911D08958F929F92AF92BF92B1
:1014D000CF92DF92EF92FF926C010E941F0A4B01A4
:1014E0005C01F12CE12C0E941F0A681979098A0914
:1014F0009B096C157D058E059F05A8F3FF90EF9065
:10150000DF90CF90BF90AF909F908F900895CDB710
:10151000DEB768970FB6F894DEBF0FBECDBF0E944E
:10152000FB0960EB74E080E090E00E94320220E072
:1015300043E060E070E0CB010E94BA0680E18DB923
:10154000789480ED97E00E94640A81E090E09E87A5
:101550008D871F8682E0888B88E4898B89E68A8B59
:101560008DE6C82E81E0D82E9DE7892E91E0992E38
:1015700025E9A22E21E0B22E30E1732EDF92CF9228
:101580000E948502CE010D960E94D7070F900F9002
:10159000811106C09F928F920E9485020F900F903A
:1015A0000E944907811108C08AEF90E00E94640AF6
:1015B0008EB187258EB9E2CF1F928F93BF92AF92E3
:1015C0000E948502CE0101960E944C07E980FA80B4
:1015D0000B811C812D813E814F81588569857A85DB
:1015E0008B859C850E946B000F900F900F900F9041
:1015F000D7CFAA1BBB1B51E107C0AA1FBB1FA61751
:10160000B70710F0A61BB70B881F991F5A95A9F7AB
:1016100080959095BC01CD010895A1E21A2EAA1BD8
:10162000BB1BFD010DC0AA1FBB1FEE1FFF1FA21792
:10163000B307E407F50720F0A21BB30BE40BF50B8F
:10164000661F771F881F991F1A9469F76095709518
:10165000809590959B01AC01BD01CF010895052EA9
:1016600097FB1EF400940E94460B57FD07D00E9482
:101670000D0B07FC03D04EF40C94460B509540958F
:10168000309521953F4F4F4F5F4F0895909580952E
:10169000709561957F4F8F4F9F4F08950E94590B12
:1016A000A59F900DB49F900DA49F800D911D1124B6
:1016B0000895A29FB001B39FC001A39F700D811D2B
:1016C0001124911DB29F700D811D1124911D08954B
:1016D000FB01DC0102C001900D9241505040D8F74F
:1016E00008956817790768F4FB01DC01E40FF51F22
:1016F000A40FB51F02C002900E9241505040D8F77F
:1017000008950C94680BBB274A3031F4992322F4D6
:10171000BDE2909581959F4F0C948F0BBB27FB01E9
:101720005527AA27880F991FAA1FA41710F0A41BDA
:1017300083955051B9F7A05DAA3308F0A95DA19334
:10174000009779F7B111B1931192CB010C94A80BCA
:10175000DC01FC01672F71917723E1F7329704C018
:101760007C916D9370836291AE17BF07C8F30895A3
:04177000F894FFCF1B
:1017740015021D0226022E0236023E0243024802D0
:101784000A2D43414E204D4553534147452D0A00F0
:1017940069643D25642C20666C6167733D3078254F
:1017A400582C206C656E6774683D25640A004845B2
:1017B400583D7B0025582573007D2C204153434917
:1017C400493D7B002563007D0A2D454E442043415D
:1017D4004E204D4553534147452D0A0A0053656E2B
:1017E40064696E67206D73672E2E2E0A005175652D
:1017F400696E67206D657373616765206661696CE6
:101804006564210A002564205258206D6573736154
:1018140067657320617661696C61626C650A006D4D
:101824006F622025643A20282563292C20493D2510
:10183400632C204944543D25642C20444C433D25CD
:10184400642C2043414E53543D3078255800257371
:1018540020007D002C2043414E43443D30782558E0
:10186400207B0052504C562000322E30422000443F
:10187400495300454E545800454E52580046425272
:1018840058007D0A0041434B2045525200464F52B6
:101894004D20455252004352432045525200535466
:1018A4004620455252004249542045525200525853
:0E18B4004F4B0054584F4B00444C435700001C
:00000001FF
