:100000000C944A000C9467000C9467000C946700F1
:100010000C9467000C9467000C9467000C94C8095A
:100020000C94180A0C9467000C9467000C946700F9
:100030000C9467000C94F4100C9467000C947E0FE1
:100040000C9467000C9404090C94B10A0C9467009A
:100050000C9467000C9467000C9467000C94670084
:100060000C9467000C9467000C9467000C94670074
:100070000C9467000C9467000C9467000C94670064
:100080000C94A0020C94C5020C9467000C946700B9
:100090000C94670011241FBECFEFD8E0DEBFCDBFA8
:1000A00012E0A0E0B1E0E0E2F7E202C005900D92BC
:1000B000AA35B107D9F722E0AAE5B2E001C01D9246
:1000C000A53CB207E1F70E94DB110C948E130C944F
:1000D0000000DF92EF92FF920F931F93CF93DF9375
:1000E000CDB7DEB72C970FB6F894DEBF0FBECDBFED
:1000F000E82EF62E8A01D22E0E94680A806150E016
:1001000040E0D11002C040E054E020E2829FC001F4
:100110001124807E93702E2D2F71822B842B952B92
:100120009A8389831B82FC824F2D50E0B801CE0157
:1001300005960E943E13CE0101960E94610C90E04C
:100140002C960FB6F894DEBF0FBECDBFDF91CF91D6
:100150001F910F91FF90EF90DF900895CF93DF9361
:1001600000D0CDB7DEB722E032E13A83298320E028
:10017000AE014F5F5F4F62E00E9469000F900F90E9
:10018000DF91CF910895CF93DF9300D0CDB7DEB745
:10019000562F5A834983AE014F5F5F4F62E00E9442
:1001A00069000F900F90DF91CF910895CF93DF9367
:1001B00000D000D0CDB7DEB770E0762F66277295FD
:1001C000707FE0E06E2B742BAB0170E060E0498340
:1001D0005A836B837C83AE014F5F5F4F63E00E9465
:1001E00069000F900F900F900F90DF91CF910895BD
:1001F0000F93CF93DF9300D000D0CDB7DEB7E82FB9
:100200006983CA01B9010E941D136A837B838C83B1
:100210009D83202FAE014F5F5F4F65E08E2F0E94C0
:1002200069000F900F900F900F90DF91CF910F9179
:100230000895582F462F21E06FEF88E00C94D600E8
:10024000CF92DF92EF92FF920F931F93CF93DF93A2
:10025000EC018881998125E0969587952A95E1F7AB
:10026000182F1F71ED80FE80FE24EF24FE24CF8026
:10027000D8848C811F921F921F928F931F921F927E
:100280001F921F938AE191E09F938F930E94E00356
:100290008C812DB73EB7265F3F4F0FB6F8943EBF17
:1002A0000FBE2DBF8A3009F4B9C010F5843009F4AF
:1002B0006FC078F4882309F445C0823009F44FC038
:1002C000DF91CF911F910F91FF90EF90DF90CF9032
:1002D0000895863009F498C0883091F7DF91CF9166
:1002E0001F910F91FF90EF90DF90CF900C94DD0560
:1002F0008F3009F4AFC098F48C3009F49DC08E3073
:10030000F9F66F8178858D819E81DF91CF911F9164
:100310000F91FF90EF90DF90CF900C946B0586319A
:1003200009F49DC08F3F09F4AAC0803149F6812F9E
:10033000DF91CF911F910F91FF90EF90DF90CF90C1
:100340000C94AE008D81882331F00E94F305826009
:100350000E94F005C3CF0E94F3058D7FF9CF0E9464
:10036000F30581FDADCF8D8134E0839FC001112461
:100370002E81222319F0919581959109DF91CF91DA
:100380001F910F91FF90EF90DF90CF900C94020699
:1003900020910001309101012E9DC0012F9D900DF3
:1003A0003E9D900D1124DC24CD24DC24C29EF0015E
:1003B000C39EF00DD29EF00D112424E630E0B90169
:1003C0000E94B4126B01CF01B9010E94B4128B01DB
:1003D0000E94FB08F12CE12C6C157D058E059F0514
:1003E00020F46C8183E00E941901C701B6010E94CC
:1003F0009B05C801DF91CF911F910F91FF90EF9066
:10040000DF90CF900C94A605DF91CF911F910F91B3
:10041000FF90EF90DF90CF900C94BF056F817885AF
:100420008D819E81DF91CF911F910F91FF90EF9071
:10043000DF90CF900C944F056F8178858D819E81E0
:10044000DF91CF911F910F91FF90EF90DF90CF90B0
:100450000C945D05F0920101E092000131CF6D81B5
:1004600084E0689FB001112485E0DF91CF911F9156
:100470000F91FF90EF90DF90CF900C94350F8D810E
:100480001F928F9381E391E09F938F930E94E003EB
:100490000F900F900F900F9013CF0F930E942D0984
:1004A0006F3F2FEF72078105910538F420E0AB0113
:1004B00064E188E00F910C94D60000E09B01AC0150
:1004C00064E188E00E94F8000F9108950F93CF93A4
:1004D000DF930E94220FEC010E9479059E0150E0FB
:1004E00040E0A90133272227B0E0A0E0282B392BD8
:1004F0004A2B5B2B00E068E188E00E94F800DF9166
:10050000CF910F91089596E0811101C098E094B9C0
:1005100093E49CBD882319F08CB580618CBD08954F
:100520008EBD0DB407FEFDCF08950DB407FEFDCFBF
:100530008EB508958EBD0DB407FEFDCF8EB508951E
:100540000F920FB60F928F939F93EF93FF9380912B
:100550006B0281315CF080E180936B02FF91EF913F
:100560009F918F910F900FBE0F9018958091CE00A4
:10057000E0916B0291E09E0F90936B020E2E000CA7
:10058000FF0BE459FD4F8083E9CF0F920FB60F9216
:100590001F9211248F939F93EF93FF93E0917C021E
:1005A00081E08E0F80937C020E2E000CFF0BE65A2A
:1005B000FD4F80818093CE0090917C0280916A02F1
:1005C000981724F480917C0281314CF08091C9000D
:1005D0008F7D8093C90010926A0210927C02FF9175
:1005E000EF919F918F911F900F900FBE0F901895D4
:1005F000EF92FF920F931F93CF93DF937C010091B3
:10060000C90080916B021816E4F78091C9008F77BA
:100610008093C90080916B02262F30E050E040E0CB
:10062000682F880F770B880B990B0E941911162FD2
:10063000C62FD0E0AE016CE672E0C7010E943E1307
:1006400040E150E04C1B5D0BBE0164597D4F8CE6D0
:1006500092E00E94471380916B02811B80936B0292
:100660000093C900812FDF91CF911F910F91FF90CF
:10067000EF900895CF92DF92EF92FF921F93CF9366
:10068000DF930F92CDB7DEB77C01162F80916A02FF
:10069000882329F08091C90080628093C90080E19D
:1006A000C82ED12C111109C00F90DF91CF911F914D
:1006B000FF90EF90DF90CF90089580916A028F3085
:1006C000E4F780916A02212F30E050E040E0B6016B
:1006D000681B710987FD7395072E000C880B990B19
:1006E0000E9419116983498180916A02082E000CC9
:1006F000990B50E0B701865A9D4F0E943E13998195
:1007000080916A02890F80936A028981181B809107
:10071000C90080628093C900C5CF9B01AC011092D3
:100720006B0210926A0210927C021092C80060E480
:1007300072E48FE090E00E94DC1221503109309386
:10074000CD002093CC0086E08093CA0088E9809396
:10075000C90008951092C9000895CF93DF930F92B6
:10076000CDB7DEB789838A3019F48DE00E94AD03DE
:1007700061E0CE0101960E943A030F90DF91CF9184
:100780000895FC0101900020E9F73197BF01681B33
:10079000790B0C943A03CF93DF930F92CDB7DEB76A
:1007A00061E0CE0101960E94F80289810F90DF91ED
:1007B000CF91089580916B02082E000C990B08953B
:1007C0002F923F924F925F926F927F928F929F9261
:1007D000AF92BF92CF92DF92EF92FF920F931F934F
:1007E000CF93DF93CDB7DEB72B970FB6F894DEBF6C
:1007F0000FBECDBFFE01B096C190D1908F01F12CFC
:10080000E12C80E1482E87E2582E612C712CF601F4
:10081000EE0DFF1DB080B11019C02B960FB6F894E5
:10082000DEBF0FBECDBFDF91CF911F910F91FF9023
:10083000EF90DF90CF90BF90AF909F908F907F9080
:100840006F905F904F903F902F90089585E2B8167B
:10085000C9F08B2D0E94AD03ECE5BE127AC0FFEF0C
:10086000EF1AFF0AF601EE0DFF1D80818A3029F094
:100870008C3529F40E94AD036CC08AE0FBCF853231
:1008800009F067C08FEFE81AF80AF601EE0DFF1DB8
:100890008081843609F474C044F4883509F45DC05D
:1008A000833609F476C08FE3E5CF8C3639F0833791
:1008B000D1F7F801819191918F0149C0F8018190A0
:1008C0009190A190B1908F018114F0E89F06A1044E
:1008D000B104A4F1C501B401A30192010E94FE126A
:1008E00049011B018A879B874AE0BE016F5F7F4FEA
:1008F000C4010E945913CE0101960E94C103410117
:10090000AA84BB8488EE881683E09806A104B1040B
:10091000ACF480E30E94AD03E4E68E169104A104DA
:10092000B10464F480E30E94AD03FAE08F169104F1
:10093000A104B1041CF480E30E94AD034AE0BE01AF
:100940006F5F7F4FC4010E945913CE0101960E9430
:10095000C103FFEFEF1AFF0A5ACF580184E0A80E37
:10096000B11C40E1BE016F5F7F4FF8018081918132
:100970000E945913CE0101960E94C1038501E9CF5F
:100980004AE0BE016F5F7F4FF801819191918F0125
:10099000DACF5801F2E0AF0EB11CF80180810E945D
:1009A000AD03ECCF73986B9A6A9A729A8098749A96
:1009B0006D9A83E08BB980E094E0A0E0B0E0809392
:1009C0008F0290939002A0939102B093920288E8D4
:1009D00093E19093A2028093A10210928902109257
:1009E0008A0210928B0210928C0210928002109256
:1009F0007F0210927E0210927D028CE890E090932C
:100A00009C0280939B0284E190E090938402809307
:100A1000830284E690E0909398028093970281E0AD
:100A200090E090939E0280939D0290939A0280930F
:100A3000990290938202809381028AEF90E09093D2
:100A40008E0280938D020C943F09811524E0920759
:100A50008CF481302CEF920784F0009721F02091E4
:100A6000AB0220FD0DC070E060E083E00E94350F16
:100A7000739808958FEF93E0F2CF81E09CEFEFCF72
:100A800097FF09C072997298919581959109BC015F
:100A900083E00C94350F7299FACF729AF8CF0097D1
:100AA00021F090939C0280939B026115710521F0C7
:100AB00070939E0260939D020895009721F0909399
:100AC0008402809383026115710521F070939A026C
:100AD000609399020895009721F090939802809373
:100AE00097026115710521F0709382026093810273
:100AF00008950E94FC0E80E00E94E70EB0E0A0E0A6
:100B000084319105A105B10558F04497A109B109B7
:100B100026E0880F991FAA1FBB1F2A95D1F70895B9
:100B200080E090E0DC01089580E008959093A202B7
:100B30008093A102089597FD08C060938902709385
:100B40008A0280938B0290938C02089590938E0278
:100B500080938D0208956091890270918A0280913C
:100B60008B0290918C02089560918D0270918E029B
:100B7000072E000C880B990B08950C94770980912F
:100B8000AB0284608093AB0280918D0290918E02C3
:100B9000892B31F48AEF90E090938E0280938D023E
:100BA00080E090E0ACEFBFEF8093890290938A02DF
:100BB000A0938B02B0938C0208958091AB02816068
:100BC0008093AB0260E080E00C942D1190E080E017
:100BD0000E9425058091AB028E7F8093AB02089521
:100BE0008093AB0208958091AB02089529B186B13C
:100BF00090E08095909586958170922F9095927057
:100C0000892B08952091AB0220FD04C090E080E084
:100C10000C94250590937E0280937D020E94F60538
:100C200080FF0AC020917D0230917E0237FF04C010
:100C300010927E0210927D0281FF0BC020917D02F6
:100C400030917E021216130624F410927E02109246
:100C50007D021F928F938DE291E09F938F930E946C
:100C6000E0030F900F900F900F9080917D02909174
:100C70007E02CECF2F923F924F925F926F927F92E1
:100C80008F929F92AF92BF92CF92DF92EF92FF929C
:100C90000F931F93CF93DF93CDB7DEB764970FB653
:100CA000F894DEBF0FBECDBF8091AB0281FF1092E2
:100CB000BF0264990EC010927E0210927D020E94C3
:100CC000E60560E081E00E94190161E080E00E9499
:100CD0002D110E94F605898380FF29C00E945E09BC
:100CE0008091AB0282FF03C08B7F8093AB02809127
:100CF000890290918A02A0918B02B0918C02B7FF79
:100D000008C01092890210928A0210928B021092EF
:100D10008C0280917D0290917E0297FF08C0109214
:100D20007E0210927D0290E080E00E9425052981DC
:100D300021FF35C00E942D0960938F0270939002AD
:100D400080939102909392020091890210918A02FD
:100D500020918B0230918C026017710782079307F4
:100D600044F46093890270938A0280938B0290937B
:100D70008C028091AB0282FF03C08B7F8093AB0219
:100D800080917D0290917E021816190644F410920B
:100D90007E0210927D0290E080E00E942505809105
:100DA000AB0281FFECC18091BF02882309F4E7C147
:100DB0000E9477099A8389830E942D09C090890235
:100DC000D0908A02E0908B02F0908C0220908D02ED
:100DD00030908E026C157D058E059F050CF0EDC1DF
:100DE00049815A81241A350AA0919F02B091A0022C
:100DF000BE87AD873092A00220929F0220919D0273
:100E000030919E023C8B2B8B4091990250919A021B
:100E1000588B4F878091A7029091A802A091A902B8
:100E2000B091AA0289879A87AB87BC87A09181027B
:100E3000B0918202BA8BA98BC10140968197A8F02C
:100E4000C101032C000CAA0BBB0B29853A854B85ED
:100E50005C85820F931FA41FB51F8093A7029093F8
:100E6000A802A093A902B093AA028091A702909130
:100E7000A802A091A902B091AA02813030E49307A0
:100E8000A105B1050CF4A1C180E090E4A0E0B0E0C0
:100E90008093A7029093A802A093A902B093AA02FC
:100EA0000E942D0969837A838B839C8346015701B5
:100EB000861A970AA80AB90A8091A3029091A402FF
:100EC000A091A502B091A602A5019401281B390B9F
:100ED0004A0B5B0B2D833E834F8358878092A3027E
:100EE0009092A402A092A502B092A602D501C401DC
:100EF0000496A11DB11D0997A105B105A0F080912F
:100F0000850290918602A0918702B0918802880D97
:100F1000991DAA1DBB1D8093850290938602A09304
:100F20008702B09388028091850290918602A091F9
:100F30008702B0918802813033E09307A105B105A3
:100F40000CF44EC180E093E0A0E0B0E08093850215
:100F500090938602A0938702B0938802A0918302A7
:100F6000B0918402209185023091860240918702DF
:100F7000509188020E94331324E130E040E050E0B9
:100F80000E94FE1229013A01A0919B02B0919C029D
:100F9000A50194010E94331324E130E040E050E0C9
:100FA0000E94FE12420E531E641E751EA0919702EF
:100FB000B09198022D813E814F8158850E94331354
:100FC00024E130E040E050E00E94FE12420E531E49
:100FD000641E751E51E045165CEF55065FEF650611
:100FE00075063CF4442443949CEF592E66246A947D
:100FF000762C411484E058066104710434F04424D2
:101000004A9483E0582E612C712C50927E024092BB
:101010007D02C4010E944C118536910508F452C02E
:10102000AB89BC892A9EC0012B9E900D3A9E900DE3
:10103000112464E170E00E94B4128B01AF85B8897D
:1010400029853A854B855C850E94331324E130E085
:1010500040E050E00E94FE12DA01C901800F911FAA
:10106000A11DB11D8C019D01AD85BE852A1A3B0ACB
:1010700049895A89249EC001259E900D349E900D69
:10108000112464E170E00E94B412060F171F211DA5
:10109000311D01305CEF15075FEF2507350724F49C
:1010A00001E01CEF2FEF3FEF011584E01807210549
:1010B000310524F00FEF13E020E030E010937E02C2
:1010C00000937D02209193023091940249E0429F67
:1010D000C001439F900D11246AE070E00E94C81285
:1010E0008B010E9477096AE070E00E94C812060F27
:1010F000171F10939402009393021F930F938091F4
:101100007E028F9380917D028F93809186028F93D0
:10111000809185028F939E819F93AD81AF939F9223
:101120008F92BC81BF932B812F933A813F9349814A
:101130004F93FF92EF92DF92CF9280918C028F9328
:1011400080918B028F9380918A028F938091890284
:101150008F938BE391E09F938F930E94E0038091A4
:101160007F029091800201969093800280937F028B
:101170001092BF020FB6F894DEBF0FBECDBF8091B4
:101180007D0290917E0264960FB6F894DEBF0FBE8A
:10119000CDBFDF91CF911F910F91FF90EF90DF9026
:1011A000CF90BF90AF909F908F907F906F905F9007
:1011B0004F903F902F900C94250531942194310845
:1011C00089819A81281A390A0FCE8115904CAF4F28
:1011D000BF4F0CF065CE80E090ECAFEFBFEF58CE84
:1011E00081159D4FAF4FBF4F0CF0B8CE80E09DEF03
:1011F000AFEFBFEFABCE60918F0270919002809104
:1012000091029091920208951F921FB61F9211248D
:101210008F939F938091AF028F5F8093AF029091E5
:10122000AF028091AE02981312C08091B2029091E9
:10123000B3029093B1028093B0029093B102809375
:10124000B0021092AF021092B3021092B2029F91BC
:101250008F911F901FBE1F9018956091B4027091DE
:10126000B5028091B6029091B70208956093B402DE
:101270007093B5028093B6029093B70208958DB330
:101280008F738DBB8DB18F738DB98EB1806C8EB91C
:101290001092B4021092B5021092B6021092B702E8
:1012A00088E18093AE02EAE6F0E080818065808389
:1012B000109269008DB3806C8DBB08958DB38F73D0
:1012C0008DBB1092B4021092B5021092B602109229
:1012D000B7021092B3021092B2021092B1021092B1
:1012E000B0021092AF028DB3806C8DBB0895209137
:1012F000B0023091B1028091AE02883131F180911B
:10130000AE028A3709F041C0C901805B9F4F813A24
:10131000910518F088E18093AE028091AC02909123
:10132000AD0297FD10C09595879595958795A90174
:10133000440F551F240F351F820F931F9093AD024A
:101340008093AC0208950396EECFC90104960997E5
:1013500018F48AE78093AE028091AC029091AD02BE
:1013600097FD11C095958795959587956FE0629F3C
:10137000A001639F500D1124840F951F9093AD021F
:101380008093AC0208950396EDCF8FEF9FEF089501
:101390001F921FB61F9211248F939F93AF93BF93F9
:1013A0008CB186FF26C087FD26C08091B402909143
:1013B000B502A091B602B091B7020197A109B10997
:1013C0008093B4029093B502A093B602B093B70293
:1013D0008091B2029091B30201979093B3028093EF
:1013E000B202BF91AF919F918F911F901FBE1F902E
:1013F000189587FDDACF8091B4029091B502A09143
:10140000B602B091B7020196A11DB11D8093B4023E
:101410009093B502A093B602B093B7028091B20246
:101420009091B30201969093B3028093B202D9CF08
:101430001F921FB61F9211248F939F93AF93BF9358
:101440008CB187FD26C086FD26C08091B4029091A4
:10145000B502A091B602B091B7020197A109B109F6
:101460008093B4029093B502A093B602B093B702F2
:101470008091B2029091B30201979093B30280934E
:10148000B202BF91AF919F918F911F901FBE1F908D
:10149000189586FDDACF8091B4029091B502A091A3
:1014A000B602B091B7020196A11DB11D8093B4029E
:1014B0009093B502A093B602B093B7028091B202A6
:1014C0009091B30201969093B3028093B202D9CF68
:1014D00080B180958F70089520E1829FC001112412
:1014E0008093ED000895282F30E0883068F49091C3
:1014F000DE0021E030E001C0220F8A95EAF7209556
:1015000029232093DE0008954091DF0028503109FF
:1015100081E090E001C0880F2A95EAF78095842346
:101520008093DF000895482F50E0883060F4909158
:10153000DE0021E030E001C0220F8A95EAF7922B0D
:101540009093DE0008958091DF004850510921E01A
:1015500030E001C0220F4A95EAF7822B8093DF002A
:1015600008951F920F920FB60F9211242F933F935D
:101570004F935F936F937F938F939F93AF93BF939B
:10158000CF93EF93FF93C091ED008091EC00807FAB
:10159000803F09F448C0E091EC008E2F82958F7057
:1015A00090E1899F900111242093ED009091EE002D
:1015B00096FF1CC09091EE001092EE001092EF008A
:1015C0000E94930AC093ED00FF91EF91CF91BF91DC
:1015D000AF919F918F917F916F915F914F913F91CB
:1015E0002F910F900FBE0F901F9018959091BC02F5
:1015F0009F5F9093BC02EE1FEE27EE1FF0E0E654D3
:10160000FD4F9081482F477021E030E001C0220F4C
:101610004A95EAF7922B90839091EE001092EE009B
:101620000E94730ACFCF8091DA008093DA00CACF8C
:10163000CF92DF92EF92FF920F931F93CF93DF939E
:101640006B017C01042F122F8091D8008160809360
:10165000D80084E690E00E945810C701AA27BB2753
:101660008093E200BB27AF2D9E2D8D2D8093E3004C
:10167000C092E40080EB8093DB008FEF8093E50065
:101680001092BB021092BA02D0E0C0E060E8F62EE1
:10169000D093ED008091EE001092EE001092F400D5
:1016A0001092F5001092F0001092F1008091B802B3
:1016B0008295880F80768093F2008091B802909195
:1016C000B90223E0969587952A95E1F78093F30078
:1016D0008091BD028295880F80768093F60080917C
:1016E000BD029091BE0233E0969587953A95E1F759
:1016F0008093F7000C17F0F4F092EF008C2F0E940B
:10170000930ACF5FD05FCF3019F61092BC0282E00F
:101710008093D80010FF05C08091D8008860809326
:10172000D800DF91CF911F910F91FF90EF90DF9044
:10173000CF9008951092EF00E4CF282F30E088304A
:1017400068F42091DE0030E0A90102C0559547956C
:101750008A95E2F7CA018170992708958091DF0088
:1017600090E02850310902C0959587952A95E2F7B7
:10177000F2CF282F30E0883058F42091DC0030E0A0
:1017800002C0359527958A95E2F7822F81700895DA
:101790008091DD0090E02850310902C09595879531
:1017A0002A95E2F7F3CF8091BC0208950F931F931F
:1017B000CF93DF93FC018091BC02811106C080E0D1
:1017C000DF91CF911F910F91089590E080E0909369
:1017D000ED0083FB442740F950E0EA01C654DD4F99
:1017E0002881682F6770062F30E002C03595279555
:1017F0006A95E2F720FD05C08F5F905F8F3039F763
:10180000DECF4091EF004F7043839091F200209122
:10181000F30092959695977058E0259F90011124BA
:10182000292B318320832091F000928122FF34C044
:1018300091609283349690E0491330C0F89490916F
:10184000BC0291509093BC0278941092F0001092D8
:10185000F1009091B8029295990F90769093F200D2
:101860002091B8023091B90293E0369527959A9568
:10187000E1F72093F3000E94930A288181E090E031
:1018800001C0880F0A95EAF780958223888380E853
:101890008093EF0081E094CF9E7FCBCF2091FA0020
:1018A00021939F5FC9CF90E080E09093ED0020915D
:1018B000EF00207C29F08F5F905F8F30B1F78FEFC2
:1018C0000895CF93DF93EC010E94530C8F3FF1F109
:1018D00090E1899F900111242093ED009091EE00FA
:1018E0001092EE009B819F709093EF0090E02B810F
:1018F000921720F11092F0002A8194E0299F900124
:10190000112424702093F10098819295990F90767C
:101910009093F2002881398193E0369527959A9526
:10192000E1F72093F3009091EF0090649093EF0023
:101930000E94930A81E0DF91CF910895FE01E90FA3
:10194000F11D24812093FA009F5FD1CF80E0F3CF77
:10195000FF920F931F93CF93DF939093BE028093D8
:10196000BD027093B9026093B802062F0295000F72
:10197000007623E0769567952A95E1F7C62F282F04
:101980002295220F2076F22E33E0969587953A9590
:10199000E1F7D82F10E0812F0E94B90B882389F03E
:1019A000812F8295807F8093ED008091EF0087FFEB
:1019B00008C00093F200C093F300F092F600D093B9
:1019C000F7001F5F1F3039F7DF91CF911F910F9103
:1019D000FF9008952F923F924F925F926F927F9265
:1019E0008F929F92AF92BF92CF92DF92EF92FF922F
:1019F0000F931F93CF93DF9300D000D000D0CDB7CB
:101A0000DEB719821E821D824CEA242E41E0342E5C
:101A10002D812B8389818093ED00C090EE008C2C6A
:101A2000912CB12CA12CD090EF004D2C512C712C6D
:101A3000612C9D2D9F709C838091F600E090F700B3
:101A400082958695877028E0E29E70011124E82A2D
:101A50008091F2000091F30082958695877098E05E
:101A6000099F80011124082B8D810E949D0B892BD9
:101A700009F0D9C024E42A838B810E94B90B81111B
:101A8000D5C084E41F921F921F92CF921F929C8117
:101A90009F93FF92EF921F930F931F922A812F9390
:101AA0001F928F938E818F939D819F9384E591E008
:101AB0009F938F930E94E0030FB6F894DEBF0FBE92
:101AC000CDBF81149104A104B104F1F18EE991E03C
:101AD0009F938F930E94E0030F900F9010E000E01F
:101AE00081E090E0002E02C0880F991F0A94E2F76F
:101AF000092E000CAA0BBB0B88219921AA21BB211E
:101B0000892B8A2B8B2B99F0F801EE0FFF1FEE5FCC
:101B1000FE4F81818F9380818F938BE891E09F931B
:101B20008F930E94E0030F900F900F900F900F5F24
:101B30001F4F08301105A1F68FE891E09F938F9316
:101B40000E94E0030F900F901F921F921F92DF924E
:101B500081E991E09F938F930E94E0030F900F9093
:101B60000F900F900F900F90D5FE08C080EA91E083
:101B70009F938F930E94E0030F900F90D4FE08C0B4
:101B800086EA91E09F938F930E94E0030F900F905D
:101B9000D301C20126E0B695A795979587952A951A
:101BA000D1F782309105A105B10509F446C0833013
:101BB0009105A105B10509F443C00197A105B1053F
:101BC000B9F13F922F920E94E0030F900F908FEB9C
:101BD00091E09F938F930E94E0038D819E810196F7
:101BE0009E838D839981905F99830F900F90903F92
:101BF00009F00ECF26960FB6F894DEBF0FBECDBF0C
:101C0000DF91CF911F910F91FF90EF90DF90CF90D8
:101C1000BF90AF909F908F907F906F905F904F900C
:101C20003F902F90089585E48A8326CF85E42ACFBC
:101C300080EB91E09F938F93C6CF85EB91E0FACF35
:101C40008AEB91E0F7CF8F929F92AF92BF92CF92A3
:101C5000DF92EF92FF920F931F93CF93DF93CDB755
:101C6000DEB72C970FB6F894DEBF0FBECDBFE9826A
:101C7000FA820B83F12E1C832D833E834F8358877A
:101C800069877A878B879C8782EC91E09F938F93FB
:101C90000E94E003012F10E01F92FF928B811F92A0
:101CA0001F921F928F9389819A811F921F929F93F7
:101CB0008F9382ED91E09F938F930E94E00382EFD8
:101CC00091E09F938F930E94E0036E0185E0C80E20
:101CD000D11C0FB6F894DEBF0FBECDBFF12CE12CA6
:101CE0004801F1E08F1A910898EFA92E91E0B92EE2
:101CF000E016F1067CF18DEF91E09F938F930E94A7
:101D0000E003FE0131967F010E0F1F1F0F900F9011
:101D100088E0C82E82E0D82EE016F106C1F58BE0EF
:101D200092E09F938F930E94E0030F900F902C9668
:101D30000FB6F894DEBF0FBECDBFDF91CF911F91DC
:101D40000F91FF90EF90DF90CF90BF90AF909F905A
:101D50008F9008958AEA91E08E149F0411F480E236
:101D600092E0F60121916F019F938F931F921F9232
:101D70001F922F93BF92AF920E94E003FFEFEF1AE2
:101D8000FF0A0FB6F894DEBF0FBECDBFB1CFF7018B
:101D9000848190EE980F903608F08EE21F928F9318
:101DA000DF92CF920E94E003FFEFEF1AFF0A0F903D
:101DB0000F900F900F90B0CF80E480937C00EAE703
:101DC000F0E086E080838081806880830895909130
:101DD0007C00907C8770982B90937C0080917A0097
:101DE000806480937A0080917A0086FDFCCF809198
:101DF000780090917900089580917C00807C803CEF
:101E000061F080917C00806C80937C0085E090E0A4
:101E10000E94581080E00C94E70E089580917C0099
:101E200080FF0FC080917C008F7380937C0080E4E2
:101E300080937C0085E090E00E94581080E00C9434
:101E4000E70E08950E94FC0E81E00E94E70E9C01BF
:101E500045E0220F331F4A95E1F753E0880F991FA1
:101E60005A95E1F7820F931F08957370843071F0D3
:101E70008530B1F08330E9F48091900080688093E0
:101E8000900070939900609398000895809190005D
:101E900080628093900070939B0060939A000895F5
:101EA0008091900088608093900070939D00609373
:101EB0009C000895843071F08530B1F08330E9F4EE
:101EC000809190008F7780939000109299001092EB
:101ED00098000895809190008F7D809390001092DB
:101EE0009B0010929A00089580919000877F8093C4
:101EF000900010929D0010929C0008951F920F92E6
:101F00000FB60F9211242F933F934F935F936F93CC
:101F10007F938F939F93AF93BF93EF93FF938091A2
:101F2000C0029091C102A091C202B091C302019679
:101F3000A11DB11D8093C0029093C102A093C20263
:101F4000B093C3028091C0029091C102A091C202DD
:101F5000B091C30283709927AA27BB27892B8A2BAC
:101F60008B2BB1F081E08093BF020E94F610FF91AD
:101F7000EF91BF91AF919F918F917F916F915F9101
:101F80004F913F912F910F900FBE0F901F9018957A
:101F90008091C0029091C102A091C202B091C3028F
:101FA0000E945211DFCF83E484BD81E080936E00F4
:101FB0009BE19093810093E09093800020E137E2D1
:101FC000309389002093880010928500109284003D
:101FD00080936F0090939000809391001092C002C4
:101FE0001092C1021092C2021092C3020895CF92C1
:101FF000DF92EF92FF9220918400309185008091D2
:10200000C0029091C102A091C202B091C3026C01C2
:102010007D01CC0CDD1CEE1CFF1CCC0CDD1CEE1C71
:10202000FF1C8C0D9D1DAE1DBF1D6C017D01CC0CD8
:10203000DD1CEE1CFF1CCC0CDD1CEE1CFF1CCC0CB4
:10204000DD1CEE1CFF1C36952795A3E1B3E80E942A
:1020500024130024880F991F001C880F991F001C4F
:10206000892F902DA7019601280F391F411D511D61
:10207000CA01B901FF90EF90DF90CF900895E091F1
:102080008400F09185002091C0023091C1024091FE
:10209000C2025091C302A0E4BCE90E943313EE0FC8
:1020A000FF1FEE0FFF1F6E0F7F1F811D911D0895F3
:1020B0004F925F926F927F928F929F92AF92BF9258
:1020C000CF92DF92EF92FF922C0120918400309109
:1020D00085008091C0029091C102A091C202B0918E
:1020E000C3024C015D01880C991CAA1CBB1C880C06
:1020F000991CAA1CBB1C880D991DAA1DBB1D4C0157
:102100005D01880C991CAA1CBB1C880C991CAA1C7C
:10211000BB1C880C991CAA1CBB1C36952795A3E1F7
:10212000B3E80E9424130024880F991F001C880F15
:10213000991F001C892F902D880E991EA11CB11C7F
:10214000712C612C20918400309185008091C00217
:102150009091C102A091C202B091C3026C017D01B5
:10216000CC0CDD1CEE1CFF1CCC0CDD1CEE1CFF1C83
:102170008C0D9D1DAE1DBF1D6C017D01CC0CDD1CA9
:10218000EE1CFF1CCC0CDD1CEE1CFF1CCC0CDD1C63
:10219000EE1CFF1C36952795A3E1B3E80E9424139B
:1021A0000024880F991F001C880F991F001C892F7D
:1021B000902DC80ED91EE11CF11CC818D908EA08D8
:1021C000FB08C414D504E604F70408F4BBCFFF9061
:1021D000EF90DF90CF90BF90AF909F908F907F90C7
:1021E0006F905F904F90089544981895449A089581
:1021F000EFE6F0E08081846080833C9A87E791E09D
:1022000090938B0080938A000895853B910584F418
:102210008230910514F482E090E09C01220F331F7C
:1022200095958795820F931F90938B0080938A00DA
:102230000895621773078407950714F49B01AC0196
:10224000CA01B9010895261737074807590714F43A
:102250009B01AC01CA01B90108958430E0F46430F7
:10226000D0F49FEF960F923018F493E0961B692FED
:10227000880F23E030E0082E01C0220F0A94EAF70D
:1022800020959091C402292301C0660F8A95EAF730
:10229000262B2093C402089597FF03C09195819542
:1022A00091090895EF92FF920F931F93CF93DF93BD
:1022B0008C018091C402F0E0E0E0C1E0D0E0811147
:1022C00008C012B8DF91CF911F910F91FF90EF904E
:1022D00008958091C40290E09F01220F331F02C035
:1022E000959587952A95E2F7282F2370CF010496BC
:1022F0007C01222369F0622F70E0660F771F6F5F09
:102300007F4FC8010E94B412892B81F0233071F0F5
:1023100022B1CE0101C0880FEA94EAF780958223AA
:1023200082B93196E430F105A1F6CCCF82B19E019D
:1023300001C0220FEA94EAF7822BF2CFAF92BF924C
:10234000CF92DF92EF92FF920F931F93CF93DF9381
:10235000EC01062F6C01F12CE12C1FEF88E0A82E78
:1023600082E0B82E10130FC0CE0DDF1D219718820A
:10237000DF91CF911F910F91FF90EF90DF90CF9061
:10238000BF90AF9008950E94CB03182F812F012E8C
:10239000000C990B9F931F93BF92AF920E94E00392
:1023A0008FEFE81AF80AF60111936F010F900F9062
:1023B0000F900F90D7CFCDB7DEB72C970FB6F8940C
:1023C000DEBF0FBECDBF80EF81B982B90E94D30FAF
:1023D0002FEF81EE94E0215080409040E1F700C063
:1023E000000012B863E080E00E942D11789460E054
:1023F0007BE480E090E00E948D0363E081E00E9436
:102400002D118AE992E00E9458100E94680A8061AA
:10241000E82EF12C1F928F9382E191E09F938F938E
:102420000E94E0038AEF90E00E945810B7018FE10C
:1024300090E00E94A80C20E044E063E174E08EE1AB
:1024400090E00E94180B63E082E00E942D110E9430
:102450003F090E94DC0E88E19FE00FB6F894A89532
:10246000809360000FBE909360000E94D20482E0CF
:102470000E94F0050E94DD0563E083E00E942D11BB
:1024800067E070E090E080E00E944F0563E070E05C
:1024900090E080E00E945D0561E070E090E080E007
:1024A0000E946B0584EF91E00E94581060E080E08C
:1024B0000E942D1160E081E00E942D1160E083E018
:1024C0000E942D110F900F900F900F9088E2882E90
:1024D000912CA12CB12C0E94F70F6B017C018091F3
:1024E000BF02811137C00E94D30B8823C9F063E07B
:1024F00083E00E942D110E94F70FA50194010E9414
:10250000DC12C9010E945211CE0101960E94D60B25
:10251000CE0101960E94200160E083E00E942D110F
:10252000C11002C00E944D0221E0D222EE24FF24FD
:10253000CD28CE28CF2811F40E9466020E94F30510
:1025400063E080FF0BC082E00E942D1160E081E01B
:102550000E942D110E943A06A895BDCF81E00E94ED
:102560002D1160E082E0F4CFAA1BBB1B51E107C034
:10257000AA1FBB1FA617B70710F0A61BB70B881F13
:10258000991F5A95A9F780959095BC01CD010895A2
:1025900097FB072E16F4009407D077FD09D00E9410
:1025A000B41207FC05D03EF4909581959F4F089595
:1025B000709561957F4F0895A1E21A2EAA1BBB1B4F
:1025C000FD010DC0AA1FBB1FEE1FFF1FA217B307FF
:1025D000E407F50720F0A21BB30BE40BF50B661F15
:1025E000771F881F991F1A9469F7609570958095D9
:1025F00090959B01AC01BD01CF010895052E97FB7D
:102600001EF400940E94151357FD07D00E94DC129F
:1026100007FC03D04EF40C9415135095409530955B
:1026200021953F4F4F4F5F4F08959095809570953E
:1026300061957F4F8F4F9F4F089569279627692790
:102640007827872778270895A29FB001B39FC001FC
:10265000A39F700D811D1124911DB29F700D811DCE
:102660001124911D08950E942413A59F900DB49FDD
:10267000900DA49F800D911D11240895FB01DC0194
:1026800002C001900D9241505040D8F7089568174C
:10269000790768F4FB01DC01E40FF51FA40FB51FF7
:1026A00002C002900E9241505040D8F708950C9409
:1026B0003E13BB274A3031F4992322F4BDE29095B2
:1026C00081959F4F0C946513BB27FB015527AA27C3
:1026D000880F991FAA1FA41710F0A41B83955051AF
:1026E000B9F7A05DAA3308F0A95DA193009779F727
:1026F000B111B1931192CB010C947E13DC01FC015A
:10270000672F71917723E1F7329704C07C916D9325
:1027100070836291AE17BF07C8F30895F894FFCF96
:1027200001002102290232023A0242024A024F0209
:1027300054026164723D25580A0073656E646572C7
:102740003D25582C20636F6D6D616E643D25580AE0
:10275000004572726F722025640A00256C20256C7A
:1027600020256C20256420256420256420256420F4
:1027700025640A006D6F622025643A2028256329AC
:102780002C20493D25632C204944543D25642C20B0
:1027900049444D3D25642C20444C433D25642C2068
:1027A00043414E53543D3078255800257320007D19
:1027B000002C2043414E43443D30782558207B0077
:1027C00052504C562000322E3042200044495300D3
:1027D000454E545800454E52580046425258007DCE
:1027E0000A000A2D43414E204D4553534147452D84
:1027F0000A0069643D307825582C20666C61677347
:102800003D307825582C206C656E6774683D2564D2
:102810000A004845583D7B0025582573007D2C2033
:1028200041534349493D7B002563007D0A2D454EB8
:10283000442043414E204D4553534147452D0A0AFC
:102840000041434B2045525200464F524D204552C5
:1028500052004352432045525200535446204552A1
:102860005200424954204552520052584F4B005496
:0A287000584F4B00444C4357000042
:00000001FF
