:100000000C944A000C9469000C9469000C946900EB
:100010000C9469000C9469000C9469000C943304EE
:100020000C9469040C9469000C9469000C946900A8
:100030000C9469000C9469000C9469000C940E07F0
:100040000C9469000C9469000C942B050C946900C5
:100050000C9469000C9469000C9469000C9469007C
:100060000C9469000C9469000C9469000C9469006C
:100070000C9469000C9469000C9469000C9469005C
:100080000C948E000C94B7000C9469000C946900D9
:100090000C94690011241FBECFEFD0E1DEBFCDBFAD
:1000A00011E0A0E0B1E0E6E3F1E100E00BBF02C047
:1000B00007900D92AE30B107D9F721E0AEE0B1E084
:1000C00001C01D92A335B207E1F70E94BC070C9452
:1000D00099080C94000096E0811101C098E094B951
:1000E00093E49CBD882319F08CB580618CBD089584
:1000F0008EBD0DB407FEFDCF08950DB407FEFDCFF4
:100100008EB508958EBD0DB407FEFDCF8EB5089552
:10011000861797070CF4BC01CB0108950F920FB618
:100120000F928F938BB78F939F93EF93FF93809151
:100130001F0181316CF080E180931F01FF91EF91ED
:100140009F918F918BBF8F910F900FBE0F9018953D
:100150008091CE00E0911F0191E09E0F90931F01CE
:100160000E2E000CFF0BE05EFE4F8083E7CF0F9258
:100170000FB60F921F9211248F938BB78F939F937B
:10018000EF93FF93E091300181E08E0F8093300177
:100190000E2E000CFF0BE25FFE4F80818093CE009D
:1001A0009091300180911E01981724F480913001C4
:1001B00081314CF08091C9008F7D8093C9001092ED
:1001C0001E0110923001FF91EF919F918F918BBF93
:1001D0008F911F900F900FBE0F901895FF920F9365
:1001E0001F93CF93DF93FC01F090C90080911F0112
:1001F0001816E4F79091C9009F779093C900209159
:100200001F01022E000C330BC62FD0E02C173D0728
:100210000CF4E9018E011127A80160E271E0CF0121
:100220000E94490840E150E0401B510BB801605E5C
:100230007E4F80E291E00E94520880911F018C1B4A
:1002400080931F01F092C9008C2FDF91CF911F91F5
:100250000F91FF900895CF92DF92EF92FF921F933C
:10026000CF93DF930F92CDB7DEB77C01162F80912D
:100270001E01882329F08091C90080628093C90003
:1002800080E1C82ED12C111109C00F90DF91CF91C0
:100290001F91FF90EF90DF90CF90089580911E0105
:1002A0008F30E4F780911E01212F30E0A601481B1A
:1002B000510987FD5395CA01241735070CF4C9016C
:1002C0008983498180911E01082E000C990B50E012
:1002D000B701825F9E4F0E944908998180911E015B
:1002E000890F80931E018981181B8091C90080624B
:1002F0008093C900C8CF9B01AC0110921F011092DE
:100300001E01109230011092C80060E472E48FE088
:1003100090E00E94EE07215031093093CD002093E8
:10032000CC0086E08093CA0088E98093C9000895D4
:100330001092C9000895CF93DF930F92CDB7DEB727
:1003400089838A3019F48DE00E949B0161E0CE011F
:1003500001960E942B010F90DF91CF910895FC012F
:1003600001900020E9F73197BF01681B790B0C94CD
:100370002B01CF93DF930F92CDB7DEB761E0CE01B3
:1003800001960E94EE0089810F90DF91CF91089530
:1003900080911F01082E000C990B08952F923F9217
:1003A0004F925F926F927F928F929F92AF92BF9285
:1003B000CF92DF92EF92FF920F931F93CF93DF9331
:1003C000CDB7DEB72B970FB6F894DEBF0FBECDBF0B
:1003D000FE01B096C190D1908F01F12CE12C80E10B
:1003E000482E87E2582E612C712CF601EE0DFF1D70
:1003F000B080B11019C02B960FB6F894DEBF0FBEB7
:10040000CDBFDF91CF911F910F91FF90EF90DF90C3
:10041000CF90BF90AF909F908F907F906F905F90A4
:100420004F903F902F90089585E2B816C9F08B2D1C
:100430000E949B01ECE5BE127AC0FFEFEF1AFF0AA3
:10044000F601EE0DFF1D80818A3029F08C3529F4EC
:100450000E949B016CC08AE0FBCF853209F067C027
:100460008FEFE81AF80AF601EE0DFF1D8081843641
:1004700009F474C044F4883509F45DC0833609F486
:1004800076C08FE3E5CF8C3639F08337D1F7F801AA
:10049000819191918F0149C0F80181909190A19033
:1004A000B1908F018114F0E89F06A104B104A4F17A
:1004B000C501B401A30192010E94100849011B016A
:1004C0008A879B874AE0BE016F5F7F4FC4010E940D
:1004D0006408CE0101960E94AF014101AA84BB8449
:1004E00088EE881683E09806A104B104ACF480E39A
:1004F0000E949B01E4E68E169104A104B10464F409
:1005000080E30E949B01FAE08F169104A104B104DC
:100510001CF480E30E949B014AE0BE016F5F7F4FA5
:10052000C4010E946408CE0101960E94AF01FFEF52
:10053000EF1AFF0A5ACF580184E0A80EB11C40E11F
:10054000BE016F5F7F4FF801808191810E94640836
:10055000CE0101960E94AF018501E9CF4AE0BE01BC
:100560006F5F7F4FF801819191918F01DACF580130
:10057000F2E0AF0EB11CF80180810E949B01ECCF2C
:1005800074986C9A6B9A739A8098109236011092B4
:100590003501109231011092320110923301109204
:1005A00034010E940A0410924101109242011092FB
:1005B0004301109244010E94530760933D017093E0
:1005C0003E0180933F01909340010895CF93DF93C4
:1005D000EC01C11584E0D807ACF4C1308CEFD8072A
:1005E000A4F0209721F08091450183FD11C070E0B7
:1005F00060E084E00E94C5068EB180718EB9DF9103
:10060000CF910895CFEFD3E0EECFC1E0DCEFEBCF99
:10061000D7FF11C0739B06C070E060E084E00E94C9
:10062000C5067398D195C195D109BE0184E0DF91CB
:10063000CF910C94C5067399F8CF70E060E084E028
:100640000E94C506739AF1CF80917C00806C8093E4
:100650007C0080E00E94B00620917C00207C2093EA
:100660007C008431910520F09CEE980F80E0089585
:1006700090E0FCCF80E008950F931F9397FD15C085
:1006800000913701109138012091390130913A01E0
:10069000061717072807390744F060933101709354
:1006A000320180933301909334011F910F9108958B
:1006B00090933601809335010895609131017091D6
:1006C0003201809133019091340108956091350198
:1006D00070913601072E000C880B990B08954F92EC
:1006E0005F926F927F928F929F92AF92BF92CF92C2
:1006F000DF92EF92FF92CF93DF930E9401046B0190
:100700007C010E9453074B015C0180913D01909157
:100710003E01A0913F01B091400124013501481AEA
:10072000590A6A0A7B0AD0913B01C0913C0182E3DD
:10073000481651046104710488F48D2F9C2FDF91B9
:10074000CF91FF90EF90DF90CF90BF90AF909F90B0
:100750008F907F906F905F904F90089580914101AE
:1007600090914201A0914301B0914401A7019601EB
:10077000281B390B4A0B5B0BA8EEB3E00E942F0835
:10078000A30192010E94EE07C90137FD01969595DC
:1007900087952D2F3C2F37FF02C02F5F3F4F359598
:1007A0002795820F931F90933C0180933B01C09249
:1007B0004101D0924201E0924301F09244018092C3
:1007C0003D0190923E01A0923F01B0924001B7CF0F
:1007D000089580914501886080934501089590E0D7
:1007E00080E00E94E60280914501877F8093450169
:1007F000089580934501089580914501089580E012
:10080000089560914601709147018091480190914F
:10081000490108958DB38F738DBB8DB18F738DB9E1
:100820008EB1806C8EB910924601109247011092E1
:10083000480110924901EAE6F0E0808180658083FA
:100840008DB3806C8DBB08958DB38F738DBB10926B
:1008500046011092470110924801109249018DB350
:10086000806C8DBB08951F921FB61F9211248F9329
:100870009F93AF93BF938CB186FF0EC087FF0EC0CE
:100880008091460190914701A0914801B0914901A2
:100890000196A11DB11D0DC087FFF2CF80914601C9
:1008A00090914701A0914801B09149010197A10998
:1008B000B1098093460190934701A0934801B093FA
:1008C0004901BF91AF919F918F911F901FBE1F90C3
:1008D00018951F921FB61F9211248F939F93AF9369
:1008E000BF939CB1892F807497FF0EC0882371F04D
:1008F0008091460190914701A0914801B091490132
:100900000197A109B1090DC0882391F38091460197
:1009100090914701A0914801B09149010196A11D14
:10092000B11D8093460190934701A0934801B09375
:100930004901BF91AF919F918F911F901FBE1F9052
:1009400018958091D80081608093D80086E28093CA
:10095000E20084E08093E30083E18093E4008AE393
:100960008093DB008FEF8093E50090E080E030E83B
:100970009093ED005091EE001092EE001092F40072
:100980001092F5001092F6001092F7001092F0000D
:100990001092F1001092F2001092F300481798F4B0
:1009A0003093EF008F5F905F8F3011F710924C0102
:1009B00082E08093D80020FF05C08091D800886035
:1009C0008093D80008951092EF00ECCF20E1829F31
:1009D000C00111248093ED000895282F30E0883065
:1009E00068F49091DE0021E030E001C0220F8A958A
:1009F000EAF7209529232093DE0008954091DF0037
:100A00002850310981E090E001C0880F2A95EAF76B
:100A1000809584238093DF000895482F50E088302C
:100A200060F49091DE0021E030E001C0220F8A9551
:100A3000EAF7922B9093DE0008958091DF004850F2
:100A4000510921E030E001C0220F4A95EAF7822BDC
:100A50008093DF0008951F920F920FB60F9211241A
:100A60000BB60F922F933F934F935F936F937F93A8
:100A70008F939F93AF93BF93EF93FF9380914C011C
:100A80008F5F80934C018091EC00807F803F49F123
:100A90008091EE0086FF1FC08091EC009091EE00E7
:100AA0001092EE001092EF0082958F700E940D055B
:100AB000FF91EF91BF91AF919F918F917F916F9136
:100AC0005F914F913F912F910F900BBE0F900FBEF2
:100AD0000F901F90189580914C018F5F80934C016F
:100AE000E7CF8091DA008093DA00E2CF282F30E060
:100AF000883058F42091DC0030E002C0359527950D
:100B00008A95E2F7822F817008958091DD0090E050
:100B10002850310902C0959587952A95E2F7F3CFC1
:100B200080914C010895FC0180914C01811102C01B
:100B300080E0089590E080E09093ED002091EE0039
:100B400025FF1DC09091EE001092EE004091EF0045
:100B50004F7043839091F2002091F3009295969507
:100B6000977058E0259F90011124292B3183208311
:100B70002091F000928122FD07C0917006C08F5F26
:100B8000905F8F30C9F6D4CF91609283349690E015
:100B9000491324C0F89490914C01915090934C01CA
:100BA00078941092F0001092F10090914D0192957E
:100BB000990F90769093F20020914D0130914E0163
:100BC00093E0369527959A95E1F72093F3000E94DC
:100BD0000D0580E88093EF0081E008952091FA00F0
:100BE00021939F5FD5CFCF93DF93D0E0C0E0D09328
:100BF000ED008091EF00982F907C21F48C2FDF91F5
:100C0000CF91089586FF03C08C2F0E947605CF5F99
:100C1000D05FCF3061F78FEFF2CF1F93CF93DF9389
:100C2000EC010E94F305182F812F012E000C990B67
:100C30009F931F9380E091E09F938F930E94CE013A
:100C40000F900F900F900F9080E01F3F89F120E1EF
:100C5000129FC00111248093ED008091EE0010924C
:100C6000EE008B818F708093EF0080E09B8189176D
:100C700018F11092F0008A8124E0829FC0011124B3
:100C800084708093F10088818295880F80768093AC
:100C9000F2008881998123E0969587952A95E1F75E
:100CA0008093F3008091EF0080648093EF0081E0F7
:100CB000DF91CF911F910895FE01E80FF11D9481FE
:100CC0009093FA008F5FD2CFFF920F931F93CF9331
:100CD000DF9390934E0180934D0170934B0160938D
:100CE0004A01062F0295000F007623E0769567955E
:100CF0002A95E1F7C62F282F2295220F2076F22E73
:100D000033E0969587953A95E1F7D82F10E0812F3B
:100D10000E947605882389F0812F8295807F8093B9
:100D2000ED008091EF0087FF08C00093F200C093B0
:100D3000F300F092F600D093F7001F5F1F3039F7F1
:100D4000DF91CF911F910F91FF90089510927C0039
:100D5000EAE7F0E086E08083808180688083089500
:100D600090917C00907C8770982B90937C00809170
:100D70007A00806480937A0080917A0086FDFCCFAF
:100D8000809178009091790008957370843071F0AB
:100D90008530B1F08330E9F48091900080688093D1
:100DA000900070939900609398000895809190004E
:100DB00080628093900070939B0060939A000895E6
:100DC0008091900088608093900070939D00609364
:100DD0009C000895843071F08530B1F08330E9F4DF
:100DE000809190008F7780939000109299001092DC
:100DF00098000895809190008F7D809390001092CC
:100E00009B0010929A00089580919000877F8093B4
:100E1000900010929D0010929C0008951F921FB6A2
:100E20001F9211248F939F93AF93BF9380914F0193
:100E300090915001A0915101B09152010196A11DD4
:100E4000B11D80934F0190935001A0935101B09335
:100E50005201BF91AF919F918F911F901FBE1F9024
:100E6000189583E484BD8BE18093810083E08093B7
:100E7000800020E137E230938900209388001092AF
:100E800085001092840091E090936F008093900011
:100E90008093910010924F011092500110925101D5
:100EA000109252010895CF92DF92EF92FF920F932A
:100EB0001F93E0918400F091850020914F013091C3
:100EC00050014091510150915201A8E2B0E00E94BE
:100ED0002F088B019C01CF016AEF70E00E94DA07B6
:100EE00068017901C60ED71EE11CF11CC701B601CD
:100EF0001F910F91FF90EF90DF90CF900895E091B8
:100F00008400F091850020914F0130915001409173
:100F1000510150915201A0E4BCE90E942F0823E046
:100F2000EE0FFF1F2A95E1F76E0F7F1F811D911DA8
:100F300008958F929F92AF92BF92CF92DF92EF92DD
:100F4000FF926C010E9453074B015C01F12CE12CD4
:100F50000E945307681979098A099B096C157D0558
:100F60008E059F05A8F3FF90EF90DF90CF90BF9084
:100F7000AF909F908F9008950E94310760EB74E0CE
:100F800080E090E00E947B010E940A047894C9E00E
:100F9000D1E00E9401047F936F93DF93CF930E946F
:100FA000CE0184E690E00E9499070F900F900F9079
:100FB0000F90EFCFAA1BBB1B51E107C0AA1FBB1F9D
:100FC000A617B70710F0A61BB70B881F991F5A95D5
:100FD000A9F780959095BC01CD010895A1E21A2E44
:100FE000AA1BBB1BFD010DC0AA1FBB1FEE1FFF1FCD
:100FF000A217B307E407F50720F0A21BB30BE40B1D
:10100000F50B661F771F881F991F1A9469F7609563
:101010007095809590959B01AC01BD01CF0108951D
:10102000052E97FB1EF400940E94270857FD07D059
:101030000E94EE0707FC03D04EF40C94270850954D
:101040004095309521953F4F4F4F5F4F08959095B4
:101050008095709561957F4F8F4F9F4F08950E94A7
:101060003A08A59F900DB49F900DA49F800D911DEF
:1010700011240895A29FB001B39FC001A39F700DDA
:10108000811D1124911DB29F700D811D1124911D90
:101090000895FB01DC0102C001900D9241505040C7
:1010A000D8F708956817790768F4FB01DC01E40FAD
:1010B000F51FA40FB51F02C002900E924150504080
:1010C000D8F708950C944908BB274A3031F4992386
:1010D00022F4BDE2909581959F4F0C947008BB2738
:1010E000FB015527AA27880F991FAA1FA41710F0E4
:1010F000A41B83955051B9F7A05DAA3308F0A95DF0
:10110000A193009779F7B111B1931192CB010C948F
:101110008908DC01FC01672F71917723E1F7329791
:1011200004C07C916D9370836291AE17BF07C8F3C2
:061130000895F894FFCFC2
:0E11360066726565206D6F623D25640A0000DB
:00000001FF
