:400000000080002011000000D9040000D904000010B500F081FAC04670B5214C1223236001F084F91F4801F04BFA182001F084F800F0FAFF1C4D8026F6052E6000221B4B1C
:400040001A601B4B1B491960802040001A4908601A491960B0204001194908601949196080204001184908601849196082210906174B1960174B1A604132174B1A60023216
:40008000164B1A60013A164B1A601649082000F07BFF082000F062FF2E601123236070BD30001040001BB7000C020B40000301400000014040FF00800403014041FF00807C
:4000C0000C03014043FF00800803014042FF008008010B4000010B402C010140280101400C0101401914000010B572B600240FE02A486200131959000B00411889881A5AAC
:40010000C31858880004104300F0B2F90134E4B2012CEDD9214801000C31203000F08EF9C02292001E4B1A601E4A1F4B1A60AA2212051E4B1A6099231B041D4A13601D4A61
:4001400013608A21C9031C4A11601C4A13601C4A13601C4A117806230B43DBB213708422194B1A60194A1A4B1A600123194A1360194A13600133194A13601949194A1160C0
:40018000194A13604022194B1A60C4225203184B1A60FFF741FF00F081F910BD582100000000024099EE0000000302400004024020500F4040500F4048500F4050500F4063
:4001C00070500F4000700F40000004408001400008000440000204401802044000030440B10D00000803044018030440000404400804044010B5064C2378002B07D1054BEC
:40020000002B02D0044800E000BF0123237010BD480100200000000000210000084B10B5002B03D00749084800E000BF07480368002B00D110BD064B002BFBD09847F9E7EA
:40024000000000004C01002000210000C00000200000000080225201044B1A600123044A1370044A11680B431360704700002F4064010020A0002F4010B5002405E001202C
:4002800000F0BAFE01340A2C05D800F023FA0128F5D0002000E0012010BDC04630B589B000F098F900F024FB00F07CFA00F030FB00F05CFD00F0CCFD53491D2000F064FE03
:4002C00062B6012000F02EFB002844D0002000F03DFB011E00DA0021002000F04DFB84B24A4B1A681202120A210A09060A431A601A68474D2A40C0B20004104318601A68F5
:4003000044490A401A601A68FF2082431A60424B1A681202120A1A601A6815401D601A68114019601A6882431A6000F0B7FDFA218900200001F092F98DB2FA21890020008B
:4003400001F006F982B22B00344901A801F0B4FA01A800F0B3F9324B5C78FFF78DFF844238D0FFF789FF2E4B587000F0B3F900280BD12C4A13681B021B0A802149040B43B5
:400380001360294800F09AF907E0264A13681B021B0A1360254800F091F9224B1A681C4802401A601A681B490A401A601A68FF24A2431A601E4B1A681202120A1A601A6894
:4003C000104018601A68114019601A68A2431A6000F054FD124B1B78002B10D0154C2068000E00F08FF92268120E134901A801F063FA01A800F062F90022094B1A706420E8
:4004000000F0FAFD5DE7C0465502000038002F40FFFF00FFFF00FFFF3C002F40042100006401002028002F40182100002C2100002C002F40A8002F4040210000F0B5002544
:40044000002711E0BB00C658F3B2FF22964308E06A008A181478A419527822700135013BDBB2002BF4D10137062FEBD9F0BDC04610B50A00002101F016FA10BD064B1B68EE
:40048000002803D080221206134301E05B005B08014A13607047C04680033A4010B50323084A1360084A136080221206074B1A600122074B1A600022064B1A600120FFF72C
:4004C000DDFF10BD300030403000314000003A4000033A40000E3F4010B501F0AFF903680C2B00D1FEE7FEE710B50300084A1068C318084A9A1A802A02DC054A136005E051
:4005000001F09CF90C2303600120404210BDC046C4000020C801002070B50F4E0F4D13E029686B68AC68002202E001C901C30432A242FAD1E868002202E0002102C3043230
:400540008242FAD11035013E002EE9D101F07CF9FFF7A4FEFEE7C046010000009423000010B50E4A136801218B43136000230AE0032B03D89A000A49505800E0094899006F
:40058000094A885001332F2BF2D9FFF7ADFD034A116801230B43136010BDC0460000104000000000D90400000000002010B500F073F810BD10B500F01DF810BD10B5044AB5
:4005C0001368802109060B431360FFF7EFFF10BD0000254010B5064B1B78002B04D1FFF7E9FF0122024B1A70FFF7E8FF10BDC0466601002010B5154A154B1A600023154AC1
:4006000013600121144A1160144A15480260072414480460144803601448016014490A60144A13600421144A1160144A1360144A1360144A1360144A1360144A1360144AD3
:4006400013601268134B1A8010BDC0460B0000020000254040002540480025400700008000032540040325401003254044002540000225400402254050002540880E254000
:40068000C80E2540480F2540080F2540C80F2540880F25406801002005490B68F0229343603A13430B60034B1A88034B1A6070470003024068010020880F254070B505009F
:4006C000002402E000F00CFF0134285D0028F9D170BDC046024B1868C009012318407047040004400004000C014B18607047C046080120400004000C014B18607047C0467E
:40070000140120400004000C014B18607047C0460C01204070B504000D0000F0DAFEAC40024B1C6000F0D9FE70BDC0460800204010B500F0CEFE064A116801230B43136002
:4007400000F0CBFE18210120FFF7E4FF10BDC04600002040014B18607047C0463801204010B50D4C8023DB042360236823600020FFF7B8FF236823600C22084B1A60002019
:40078000FFF7E8FF3122064B1A60FF20FFF7B2FF0A20FFF7B7FF10BD00012040240120402801204010B5064B1B78002B04D1FFF7D7FF0122024B1A70FFF7BAFF10BDC04675
:4007C0006A01002010B50321112000F0EFFB2449112000F0D9FB0122224B1A60224B1B68002B01DA214900E02149224A13680B431360214A214B1A60214A224B1A600023F6
:40080000214A1360214A22490A6022490A6022490A688020400202430A60204A1360204A136001221F4B1A601F4A11681F4B0B40802189050B43136000230DE09A001C4900
:4008400051188020C0000860580000241949445219481A4950500133002BEFD010BDC046D509000020003A4080033A40700210537002005300003A40DC00008004003A401B
:400880000000FF0718003A401C003A400200020010003A4014003A4000033A4028023A4038023A4018023A4030003A40FEFFFFDF80003A40C00100203E180000BC010020F2
:4008C00010B5094B1B68002B0CDB084B1B68002BFBDB054A1368802109060B4313600A2000F020FC10BDC04600003A4008023A4010B5064B1B78002B04D1FFF763FF01220D
:40090000024B1A70FFF7DCFF10BDC0466B010020034A1368802149020B4313607047C04604003A40020083070CD0074B1B680120184001D19307F8D4002804D00122024BA6
:400940001A6000E00020704710023A4010B5041E02D0002000F016FB002C07D1A400054B9C46644420680004000C00E0002000B210BDC04680013A4070B504000D000028E8
:4009800002D0002000F0FEFA63000F4A995A09B2691A09B20D484843002906DDA3000C4A9A58D30F9A18531006E0A300084A9A58D30F9A18521053421818A400044BE15833
:4009C00000F050FE00B270BDC001002010270000BC010020014B1A681A60704710023A40054B1A6801210A431A601B68194201D1012000E00020704704002F4010B50E4A87
:400A00000E4B1A60FFF7ECFF1D2000F0A7FA0C4A116801230B43136090231B0100E0013B002B03D0064A1268D207F8D5002B01D1012000E0002010BD0110000000002F40BC
:400A400010002F4003B2002B0DDB094A1168094B0B400004034313601268074B1340984203D0012002E0022000E000207047C04614002F40FFFF00800000FF7F002809D1D8
:400A80000C4B19680C4A0A401A601B68DB040CD501300DE0074B1A68802149010A431A601B680B4203D1012002E0002000E000207047C04614002F40FFEFFFFF70B5841EA3
:400AC000E4B20D2C35D88C1EE4B2052C03D9002B31D1012931D1032A31D8904231D3914231D31C4D2C68240AE4B20F26B44320432E68194C3440000204432C602C686040C9
:400B0000F0242401204220D1002B00D002234901C9B29200D2B2114319430E4A1368EE2083430B4313601368034099420FD0ED380EE002200CE002200AE0022008E0022045
:400B400006E0022004E0022002E0012000E0002070BDC04614002F40FFF0FFFF002809D10B4B1A6810218A431A601B6819420BD001300CE0064B1A6810210A431A601B684B
:400B8000194203D1012002E0002000E00020704714002F40002809D10B4B1A6801218A431A601B6819420BD001300CE0064B1A6801210A431A601B68194203D1012002E01F
:400BC000002000E00020704714002F40054B18601B681B041B0C984201D0012000E000207047C04604002F4010B503785B01204A944663441F4A41680A431A6003785B01D7
:400C0000634419681C4A11401C4A44682240914224D182681A6103785B0163441A6981688A421DD1C2685A6103785B0163445A69C1688A4216D1012252429A6103785B0105
:400C400063449A6901320FD10022DA6103785B016344DB69002B09D0012008E0012006E0012004E0012002E0012000E0002010BDA0002F40800080007F007F007FFF7FFF85
:400C800010B503781B01104A944663440F4A41680A431A6003781B01634419680C4A11400C4A4468224091420AD182685A6003781B0163445A6883689A4203D0012002E07B
:400CC000012000E0002010BD20002F4008008000F7007F00F7FF7FFF70B500240AE063001B199800104B1818FFF7CAFF002805D10134E4B2072CF2D9002500E00125002D3A
:400D00000BD00FE0230108486030C018FFF76CFF002806D10134E4B200E000240F2CF1D900E00125280070BD94210000002809D10C4B19680C4A0A401A601B689B040CD5D2
:400D400001300DE0074B1A68802189010A431A601B680B4203D1012002E0002000E000207047C04614002F40FFDFFFFF10B580221206334B1A60334A136801218B431360DA
:400D8000F023DB0100E0013B002B03D02D4A1268D207F8D4002B49D01D2000F0E9F82A491D2000F0F1F803211D2000F0FFF80B20FFF748FE002819D1FFF760FE002817D194
:400DC000FFF7B4FF002815D10023012201210C30FFF774FE00280FD1FFF7C0FE00280DD1FFF7D8FE00280BD001230AE0012308E0012306E0012304E0012302E0012300E069
:400E00000023002B14D1FFF767FF002812D10F48FFF7DCFE00280FD10A4B1A6807218A431A601B68194209D0013008E0012006E0012004E0012002E0012000E0002010BDD6
:400E400000042F4010002F40790E00000110000010B5084B1B78002B02D1FFF787FF00E00020002804D10122024B1A70FFF7C6FD10BDC0466C0100207047C046064B1B6822
:400E8000DB0706D4044A116801230B431360002000E001207047C04620002F40064B1B68DB0706D4044A116801230B431360002000E001207047C04630002F40024A1168DF
:400EC000024B0B401360704700002240FFFFFFBF034B18688023DB05184000D001207047000022400A4A136801218B431360094B1A681E318A43084802601A688A431739EA
:400F00000A431A60054A116802230B431360704750000C4034FF0B407001002024002C40064A136802218B43136005490B681F229343044A126813430B60704724002C4073
:400F400034FF0B4070010020034B1B680220184000D001207047C04624002C401F2318401E3B8340014A13607047C04600E100E01F2318401E3B8340014A13607047C046B6
:400F800080E100E001BE704770B504000D001F2802D90020FFF7F6FF1034A40080239B059C4664442068256070BDC04670B504000E00032902D90020FFF7E4FF1F2C02D9C5
:400FC0000020FFF7DFFF03252540ED00063500F080FAA408A400074B9C46644421680323AB4099430B003100A9401943216000F074FA70BD00E400E010B5040006E0084BE9
:40100000586800F05DFA074B9C46644480231B029C42F4D8024B9868604300F051FA10BDC80000200080FFFF30B583B000F09EF900285FD000F04DFA04002F4A11680123BE
:401040000B43136000230AE02C4A12683F210A402B49C95C8A4201D1033303E001332D2BF2D90323274A1268D20606D1254802681F218A4313390A430260234A1168234A6F
:401080000A40234959438020C00184466144C90B01394905490D0A43A021490311430800192B02D81B4B1A430EE01B4A9A1812781A3B1349C9183023CB5CD318FF2B00D93C
:4010C000FF239B0502001A430F4B1A60134D2B680193302000F012FA114A13688021C9050B4313601420FFF787FF019B2B60200000F0F3F903B030BD50000C402CFF0B409D
:40110000F422000034FF0B400800224000F800C040420F000000D43F4DF3FF0F300010400000224010B5034B1B7B584300F0C8F910BDC046C8000020F0B55F4656464D46FC
:401140004446F0B483B0040000F0C3F90190FFF7BFFE002804D0FFF7B1FE01239B4601E000239B46FFF7F0FE002807D0182C01D0302C05D1FFF7D4FE012502E0002500E090
:401180000025E71E2D2F00D985E04E4B1B78DBB29C4208D84C4B1B78DBB29A464B4B1B78DBB2994631E04A4B1B78DBB29C4208D8484B1B78DBB29A46474B1B78DBB2994620
:4011C00023E0464B1B78DBB29C4208D8444B1B78DBB29A46434B1B78DBB2994615E0424B1B78DBB29C4208D8404B1B78DBB29A463F4B1B78DBB2994607E03E4B1B78DBB25D
:401200009A463D4B1B78DBB299463C4BDB5D98462F2B09D92A2C07D91922394B1A60052000F04EF9192603E0354B1E683F231E40464506D9314BDA5D314B1A60052000F093
:401240003FF9012D05D1302C03D12E4B1B78DBB20CE0012D05D1182C03D12B4B1B78DBB204E0254B9C4664442378DBB2274A1360274B52461A60274B4A461A600520FFF7C6
:4012800051FF46450AD21D4BDA5D1D4B1A60052000F016F902E00020FFF774FE5B46012B01D1FFF7C1FE012D01D1FFF71BFE019800F013F903B03CBC90469946A246AB4637
:4012C000F0BDC04640F3FF0F41F3FF0F42F3FF0F43F3FF0F44F3FF0F45F3FF0F46F3FF0F47F3FF0F48F3FF0F49F3FF0F4AF3FF0F4BF3FF0F4CF3FF0F4DF3FF0FF42200003C
:401300002CFF0B403FF3FF0F3EF3FF0F28FF0B401CFF0B4020FF0B40034B1868C0231B02184000D00120704700010B4010B50D4B1A6801218A431A601A68022082431A6071
:40134000094A10683024A043203C204310601068093CA043014311601A68802109060A431A6010BD00002240000F2240034B1B68002B01DA012000E000207047000022403D
:4013800010B500F0A6F8044A1368C02109020B43136000F0A2F810BD00010B4010B500F098F808490A68084B1A408024E40122430A600A6813408022120213430B6000F088
:4013C0008CF810BD00010B40FF3FFFFF70B5050000F07FF80400FFF79FFF002803D0FFF7DDFF012100E0002108482840084A1568084B2B40184310601368012901D1FFF77E
:40140000BFFF200000F069F870BDC0460404040010020B40FBFBFBFF10B5244B1B685B0715D5234B5B685B070ED5224B596A042001401F4C62688A4362605A6A82435A62DA
:401440009B69002B00D098470420FFF7BFFF174B1B685B0518D5164B5B685B0510D5154B596A8022D2001140114842688A434260596A114A0A405A62DB69002B00D098477F
:401480008020C000FFF7A2FF084B1B685B030CD5074B5B685B0304D5064B1B6A002B00D098478020C002FFF791FF10BD10020B40DC0000208C010020FFFBFFFF0000000071
:4014C0000230800803D00138FDD1C046C046C0467047EFF3108072B6704780F310887047044B1B681F221340082BF9D0024B18607047C046080225404002254070B5040059
:40150000FFF7E7FF0500102C05D8104A136803218B43136016E0202C07D80C490B6803229343023A13430B600CE0302C07D807490B6803229343013A13430B6002E00020B3
:40154000FFF720FD2800FFF7C8FF70BD30001040002243088B4274D303098B425FD3030A8B4244D3030B8B4228D3030C8B420DD3FF22090212BA030C8B4202D312120902DF
:4015800065D0030B8B4219D300E0090AC30B8B4201D3CB03C01A5241830B8B4201D38B03C01A5241430B8B4201D34B03C01A5241030B8B4201D30B03C01A5241C30A8B42FA
:4015C00001D3CB02C01A5241830A8B4201D38B02C01A5241430A8B4201D34B02C01A5241030A8B4201D30B02C01A5241CDD2C3098B4201D3CB01C01A524183098B4201D373
:401600008B01C01A524143098B4201D34B01C01A524103098B4201D30B01C01A5241C3088B4201D3CB00C01A524183088B4201D38B00C01A524143088B4201D34B00C01A0C
:401640005241411A00D20146524110467047FFE701B5002000F0F0F802BDC0460029F7D076E7704703460B437FD4002243088B4274D303098B425FD3030A8B4244D3030BF1
:401680008B4228D3030C8B420DD3FF22090212BA030C8B4202D31212090265D0030B8B4219D300E0090AC30B8B4201D3CB03C01A5241830B8B4201D38B03C01A5241430BBD
:4016C0008B4201D34B03C01A5241030B8B4201D30B03C01A5241C30A8B4201D3CB02C01A5241830A8B4201D38B02C01A5241430A8B4201D34B02C01A5241030A8B4201D33E
:401700000B02C01A5241CDD2C3098B4201D3CB01C01A524183098B4201D38B01C01A524143098B4201D34B01C01A524103098B4201D30B01C01A5241C3088B4201D3CB00C1
:40174000C01A524183088B4201D38B00C01A524143088B4201D34B00C01A5241411A00D201465241104670475DE0CA0F00D04942031000D34042534000229C4603098B42D7
:401780002DD3030A8B4212D3FC22890112BA030A8B420CD3890192118B4208D3890192118B4204D389013AD0921100E08909C3098B4201D3CB01C01A524183098B4201D31B
:4017C0008B01C01A524143098B4201D34B01C01A524103098B4201D30B01C01A5241C3088B4201D3CB00C01A524183088B4201D38B00C01A5241D9D243088B4201D34B007A
:40180000C01A5241411A00D20146634652415B10104601D34042002B00D54942704763465B1000D3404201B5002000F005F802BD0029F8D016E770477047C046014B186819
:401840007047C046440100200E4B70B500251E000D4CE41AA410A54204D0AB00F35898470135F8E700F084FD084B00251E00084CE41AA410A54204D0AB00F3589847013502
:40188000F8E770BD7C2300007C2300007C23000084230000002310B59A4203D0CC5CC4540133F9E710BD03008218934202D019700133FAE7704700000EB410B59DB002A9C8
:4018C000029008610B48822488604861012040421FABC881084804CBA400006801938C8100F06EF80023029A13701DB010BC08BC03B01847FFFFFF7F44010020F0B58E685E
:4019000085B007000C00039201939E4243D890238A89DB001A423ED003250969236801985B1A029363695D43EB0F5D19029B6D1001331B18AB4200D91D00530510D52900C2
:40194000380000F037FB061E14D0029A2169FFF7A1FFA289194B134080221343A38112E02A00380000F086FB061E0CD12169380000F0D4FA0C23402201203B60A38940420A
:401980001343A38117E0029B2661F61826606561019EED1AA560019BB34200D21E0032000399206800F0A5FA0020A3689B1BA36023689E19266005B0F0BDC0467FFBFFFF9B
:4019C000F0B59FB0029005938B890F0016001B0610D50B69002B0DD1402100F0EBFA38603861002804D10C23029A01381360D8E040237B61002306AD6B6120336B76103322
:401A0000AB7634002378002B03D1A31B049312D003E0252BF9D00134F4E7A31B320039000298FFF76BFF431C00D1B4E06A69049B944663446B612378002B00D1ABE0012289
:401A4000002352426A6002A95432521801342B60EB60AB601370AB65534E21780522300000F03CFA002807D00123801B83402A68013413432B60EFE72B68DA0604D553222A
:401A8000202102A8121811701A0704D553222B2102A81218117022782A2A03D0099B00200A210EE0059A111D12680591002A01DB099204E05242EA60022213432B60013468
:401AC0000BE02278303A092A04D84B4301349B180120F6E7002800D0099323782E2B1ED163782A2B0AD1059B02341A1D1B680592002B01DA01235B42079310E000230A202D
:401B00001A0001346B6021783039092904D84243013452180123F6E7002B00D00792234E21780322300000F0D9F9002806D04023801B83402A68013413432B602178062279
:401B40001B48661C297600F0C9F9002812D0194B002B06D10722059B073393430833059314E005AB00933A00134B2900029800E000BF07E005AB00933A000F4B2900029861
:401B800000F08AF80390039B013304D06B69039A9B186B6135E7BB890B985B0601D5012040421FB0F0BDC0463D230000432300004723000000000000FD180000F7B5170023
:401BC00001938A680B6900900C00934200DA130022003B6043321278002A01D001333B6023689B0602D53B6802333B60062523681D401ED0230043331B785A1E934122688E
:401C000092061CD53020E1184331087021005A1C45310978A2184332023311700FE022000123193201990098089EB047431C0ED00135E3683A689B1A9D42F0DBDAE7220082
:401C4000019943320098089DA847431C02D10120404220E006232068E1683A6803400025042B03D18D1AEB43DB171D40A3682269934201DD9B1AED180027BD420AD0220004
:401C800001231A3201990098089EB047431CDED00137F2E70020FEBDF0B58BB006920A0043320793059004920A7E0C00109B6E2A00D1ABE011D8632A22D009D8002A00D1B9
:401CC000B5E0582A00D0C5E045310A70814A4FE0642A1DD0692A1BD0BCE0732A00D1AAE009D86F2A29D0702A00D0B3E0202209680A43226037E0752A1FD0782A33D0A9E01C
:401D00000E001A684236111D196013683370A4E021681A68080606D4490604D5111D19600023D55E02E0111D19601568002D3BDA2D23049A6D42137036E021681A680806A3
:401D400006D4490604D51568111D1960ADB202E0111D196015685F4B227E039308276F2A1DD00A271BE022007821453211705A4A19680392081D226818600D68100602D422
:401D8000500600D5ADB2D30702D520231A4322601027002D03D1202322689A4322602300002243331A7002E00A274A4B03936368A360002B09DB0422216891432160002DD1
:401DC00005D1049E002B11D07BE0002D79D0049E28003900FFF742FC039B013E5B5C280033703900FFF7B4FB051EF1D1082F09D12368DB0706D563682269934202DC302380
:401E0000013E3370049B9B1B23612BE009681A68080607D4490605D5111D19601368A28A1A8004E0111D1960136862691A600023049E236116E01A68111D1960166800219D
:401E40006268300000F04AF8002801D0801B6060636803E0260042363270012323610023049A1370079B09AA00932100069B0598FFF7A4FE431C02D10120404227E02369C1
:401E8000320006990598079DA847431CF4D0236800259B070FD4099BE068984217DA180015E022000123193206990598079EB047431CE1D00135E368099A9B1A9D42F0DB09
:401EC000E9E72600039B42361B7833708EE70BB0F0BDC0464E2300005F230000C9B28218904204D003788B4202D00130F8E70020704710B5884202D98B18984201D3002330
:401F000005E09B1A013A08D3995C8154FAE7934203D0CC5CC4540133F9E710BD70B50500002944D00C1F2368002B00DAE418280000F0D8F81E4A13681100002B02D16360C2
:401F4000146031E0A3420DD92268A018834203D118685B688218226063600C6024E0A24203D813005A68002AF9D11E689819A0420BD12168711858181960824214D110680B
:401F80005268411819605A600EE0A04202D90C232B6009E021686018824203D1106852684118216062605C60280000F09CF870BDB8010020032370B5CD1C9D430835060061
:401FC0000C2D01D20C2501E0002D01DBA94202D90C23336048E0300000F084F8234B1C681A002100002913D00B685B1B0DD40B2B02D90B60CC181EE08C4202D1636813602E
:402000001AE04B6863600C0016E00C004968E9E7174C2368002B03D1300000F051F820602900300000F04CF8431C18D00323C41C9C43A0420DD12560300000F054F8200041
:4020400007220B30231D9043C31A0ED05A42E2500BE0211A300000F033F8431CEBD10C233000336000F03FF8002070BDB8010020B4010020F8B506000C001500002904D1EE
:402080001100FFF797FF040018E0002A03D1FFF745FF2C0012E000F027F885420ED929003000FFF787FF071E07D021002A00FFF7F1FB21003000FFF731FF3C002000F8BDEE
:4020C000002370B5064C050008002360FEF70CFA431C03D12368002B00D02B6070BDC046C4010020704770470B1F1A68101F002A04DA891804390B68D018043870470000E2
:4021000000000000414443206F75743A2025752E252E3375200D0A007377697463683120707265737365642E0D0A0000737769746368312072656C65617365642E0D0A0080
:4021400050574D2070756C73652077696474683A202558200D0A000000300F40000800400F400008E8101102C410B5015004D40494089408B404E80801370F4002420F40FB
:4021800001430F4002440F4001450F4001460F4002470F400000000000000800000020000100000000001800100000000200000008008800000000000300000008008800BE
:4021C0000000000004000000080088000000000005000000080088000000000006000000080088000000000007000000080088000000000000000000A8008000FFFFFFFF65
:402200000000000001000000000000000000000000000000020000000000000000000000000000000300000000000000000000000000000004000000000000000000000094
:402240000000000005000000000000000000000000000000060000000000000000000000000000000700000000000000000000000000000008000000000000000000000044
:4022800000000000090000000000000000000000000000000A0000000000000000000000000000000B0000000000000000000000000000000C0000000000000000000000F4
:4022C000000000000D0000000000000000000000000000000E0000000000000000000000000000000F000000000000000000000000000000030405060708090A0B0C0E0F4C
:40230000101112131415161718191B1C1D1E1F2021222325262728292A2B2E2F3031323334350000EEDBC9B9AA9B8E82766B60564D443B332C241D17100A044300232D307A
:402340002B2000686C4C006566674546470030313233343536373839414243444546003031323334353637383961626364656600F8B5C046F8BC08BC9E4670471D02000005
:4023800061050000F8B5C046F8BC08BC9E467047F5010000A8230000C000002088000000800000000000000000000000C8010020010000000000E02EC05D0000180000001B
:4023C00000366E01F00000000404040000000000000000000000000000000000000000000000000000000000000000003B23000000000000000000000000000000000000DE
:402400000000000000000000000000000000000000000000000000000000000000000000000000000000000000000000E40000200000000000000000000000000000000098
:40244000000000000000000000000000000000000000000000000000000000000000000000000000000000000000000000000000000000000000000000000000000000005C
:40248000000000000000000000000000000000000000000000000000000000000000000000000000000000000000000000000000000000000000000000000000000000001C
:4024C00000000000000000000000000000000000000000000000000000000000000000000000000000000000000000000000000000000000000000000000000000000000DC
:40250000000000000000000000000000000000000000000000000000000000000000000000000000000000000000000000000000000000000000000000000000000000009B
:020000040003F7
:0200000490303A
:02000000CEF23E
:0200000490402A
:4000000000000000000000000000000000000000000000000000000000000000000000000000000000000000000000000000000000000000000000000000000000000000C0
:400040000000000000000000000000000000000000000000000000000000000000000000000000000000000000000000000000000000000000000000000000000000000080
:0200000490501A
:0C0000000002101311A00001101DE0927E
:0200000490600A
:0100000001FE
:00000001FF