:4000000000800020110000005D0500005D05000010B500F0C3FAC04670B512222A4B1A6000F0BCFD294801F0FBFB302000F0CEFC00F044FC264A274B1A60274C8025ED05EA
:4000400025600022254B1A60254B264A1A602649264A1160264A1A602649274A1160274A1A6080214900264A1160264A1A6088214901254A1160254A1A6088218901244A0D
:400080001160244A1A6082221206234B1A60C022D202224B1A60C022214B1A607C3A214B1A60033A204B1A600132204B1A6001321F4B1A601F49082000F0B0FB082000F0AE
:4000C00097FB256070BDC04630001040001BB7000600008004010B400C020B40000301400000014040FF008000FF520700050140C0FF0080007FBB001003014044FF0080C3
:400100000403014041FF00800803014042FF00800C03014043FF008008010B4000010B40580101405001014048010140280101400C010140890C000010B572B60122384B62
:400140001A7000240FE037486200131959000B00411889881A5AC31858880004104300F0C9F90134E4B2012CEDD92E490C312E48583000F0A5F90A222C4B1A6080221205FB
:400180002B4B1A602B4A2C4B1A60A02212052B4B1A6099231B042A4A13602A4A13602A4A13602A4A13602A4A13602A4A13600323294A1360294A136029490B783C229343C0
:4001C00014221343DBB20B70264A117816230B43DBB213700122244B1A60C023234A13602349244A1160102223490A6023490A600E3A23490A6023482349086023490A60B0
:40020000234A1360234A244B1A600822234B1A60234A244B1A60FFF7FFFE00F081F910BD1C700F40A4220000A4250000000002400001024099EE00000003024000040240F5
:4002400000500F4010500F4020500F4040500F4050500F4070500F402000104000800F4001700F4000700F400800044000010440B66D5800080104400002044018020440D9
:4002800000030440B18D0000080304401803044000040440010058000804044000050440008404000805044010B5064C2378002B07D1054B002B02D0044800E000BF0123E7
:4002C000237010BD48010020000000008C220000084B10B5002B03D00749084800E000BF07480368002B00D110BD064B002BFBD09847F9E7000000004C0100208C2200008E
:40030000C00000200000000070B501F091F9050001F002FA084C2A000849200001F092FB200001F06FFA00F00FFF00F01DFF00F0D7FD00F067FD70BDD00100209022000072
:4003400010B50400FA239B00C218FA23DB009A421CD800280ADA00F063FEC30706D4002000F060FD604200F0FBFC0FE0002C0ADD00F056FE830706D4012000F053FD200038
:4003800000F0EEFC02E0002000F0EAFC10BDC04610B5034B1868FFF7D3FF00F0C7FC10BDF001002070B562B6FFF7AEFF3C4800F067FD012402E0002400E00124394B1B78CD
:4003C000002BFBD100F0F6FE002808D0002000F0D5FE00F0EFFE830701D400F0EBFE00F01FFE022318404010C0B200F001FE00F017FE0123184000F007FE2B4B1A6812026D
:40040000120A802149040A431A601A6827480240802189020A431A601A6825490A40C025AD002A431A601A68FF25AA43042632431A60204B1A681202120AA026F604324314
:400440001A601A681040C022D202104318601A681140E022D200114319601A68AA4308210A431A6001F026F9134B1868FFF768FF642000F00BFA002C04D00F4A13686433AD
:40048000136003E00C4A1368643B13600A4B1B68FA22920093428EDC084A93428DDB8DE7910300006401002028002F40FFFF00FFFF00FFFF2C002F40F001002018FCFFFFD3
:4004C000F0B50025002711E0BB00C658F3B2FF22964308E06A008A181478A419527822700135013BDBB2002BF4D101370F2FEBD9F0BDC04610B50A00002101F09AFA10BDEB
:40050000064B1B68002803D080221206134301E05B005B08014A13607047C04680033A4010B50323084A1360084A136080221206074B1A601022074B1A600022064B1A60DF
:400540000120FFF7DDFF10BD300030403000314000003A4000033A40000E3F4010B501F033FA03680C2B00D1FEE7FEE710B50300084A1068C318084A9A1A802A02DC054A8C
:40058000136005E001F020FA0C2303600120404210BDC046C40000201002002070B50F4E0F4D13E029686B68AC68002202E001C901C30432A242FAD1E868002202E0002185
:4005C00002C304328242FAD11035013E002EE9D101F000FAFFF7E6FEFEE7C046010000004028000010B50E4A136801218B43136000230AE0032B03D89A000A49505800E066
:4006000009489900094A885001332F2BF2D9FFF793FD034A116801230B43136010BDC04600001040000000005D05000000000020024A1168024B0B4013607047000022408D
:40064000FFFFFFBF034B18688023DB05184000D0012070470000224030B52D4B1A783F231340042B01D9012000E0002000230AE0284A12683F210A402749C95C8A4201D167
:40068000033303E001332D2BF2D9032323490A680124A2430A60224A126822490A6000280FD021490D681F4C65601F24A2431F4C247822431A4C22601D4A1278D2B20A6026
:4006C00005E01F218A4317390A4315490A60302B0BD1002803D0174B1B78DBB202E0164B1B78DBB2154A13600CE0182B0AD1002803D0134B1B78DBB202E0124B1B78DBB2D8
:400700000E4A1360104A116802230B43136030BD00F3FF0F2CFF0B403C26000050000C4034FF0B407001002020FF0B40C0F1FF0FC1F1FF0FC3F1FF0F3FF3FF0F28FF0B4067
:40074000C2F1FF0F3EF3FF0F24002C4030B51A4B1A783F231340042B01D9012000E0002000230AE0154A12683F210A401449C95C8A4201D1033303E001332D2BF2D90323E8
:4007800010490A680224A2430A600F4C21681F2291430E4D2D682A400A432260002803D00A4A51680A4A11600A4A944663441B78DBB2094A136030BD00F3FF0F2CFF0B40EB
:4007C0003C26000024002C4034FF0B407001002020FF0B404DF3FF0F28FF0B40034B1B680220184000D001207047C04624002C401F2318401E3B8340014A13607047C04614
:4008000000E100E01F2318401E3B8340014A13607047C04680E100E001BE704770B504000D001F2802D90020FFF7F6FF1034A40080239B059C4664442068256070BDC046B7
:4008400070B504000E00032902D90020FFF7E4FF1F2C02D90020FFF7DFFF03252540ED00063500F0E6FFA408A400074B9C46644421680323AB4099430B003100A94019437A
:40088000216000F0DAFF70BD00E400E010B5040006E0084B586800F0C3FF074B9C46644480231B029C42F4D8024B9868604300F0B7FF10BDC80000200080FFFF30B583B062
:4008C00000F08CF900285FD000F0B3FF04002F4A116801230B43136000230AE02C4A12683F210A402B49C95C8A4201D1033303E001332D2BF2D90323274A1268D20606D1A1
:40090000254802681F218A4313390A430260234A1168234A0A40234959438020C00184466144C90B01394905490D0A43A021490311430800192B02D81B4B1A430EE01B4AC7
:400940009A1812781A3B1349C9183023CB5CD318FF2B00D9FF239B0502001A430F4B1A60134D2B680193302000F06AFF114A13688021C9050B4313601420FFF787FF019BCA
:400980002B60200000F059FF03B030BD50000C402CFF0B403C26000034FF0B400800224000F800C040420F000000D43F4DF3FF0F300010400000224010B5034B1B7B584378
:4009C00000F02EFF10BDC046C8000020F0B55F4656464D464446F0B483B0040000F029FF0190FFF72FFE002804D0FFF721FE01239A4601E000239A46FFF7F0FE002808D098
:400A0000182C01D0302C07D1FFF7A0FE01239B4604E000239B4601E000239B46E61E2D2E74D8464B1B78DBB29C4208D8444B1B78DBB29946434B1B78DBB2984631E0424B35
:400A40001B78DBB29C4208D8404B1B78DBB299463F4B1B78DBB2984623E03E4B1B78DBB29C4208D83C4B1B78DBB299463B4B1B78DBB2984615E03A4B1B78DBB29C4208D8BA
:400A8000384B1B78DBB29946374B1B78DBB2984607E0364B1B78DBB29946354B1B78DBB29846344B9F5D2F2F09D92A2C07D91922314B1A60052000F0B3FE192503E02E4BCD
:400AC0001D683F231D40BD4206D92A4B9A5D2A4B1A60052000F0A4FE254B9C4664442378DBB2264A1360264B4A461A60254B42461A600520FFF760FFBD420AD21D4B9A5D1C
:400B00001D4B1A60052000F08BFE02E00020FFF783FE5346012B01D1FFF7D0FE5B46012B01D1FFF799FD019800F087FE03B03CBC90469946A246AB46F0BDC04640F3FF0FFB
:400B400041F3FF0F42F3FF0F43F3FF0F44F3FF0F45F3FF0F46F3FF0F47F3FF0F48F3FF0F49F3FF0F4AF3FF0F4BF3FF0F4CF3FF0F4DF3FF0F3C2600002CFF0B4028FF0B4083
:400B80001CFF0B4020FF0B40034B1868C0231B02184000D00120704700010B4010B50D4B1A6801218A431A601A68022082431A60094A10683024A043203C204310601068B7
:400BC000093CA043014311601A68802109060A431A6010BD00002240000F2240034B1B68002B01DA012000E0002070470000224010B500F01EFE044A1368C02109020B439A
:400C0000136000F01AFE10BD00010B4010B500F010FE08490A68084B1A408024E40122430A600A6813408022120213430B6000F004FE10BD00010B40FF3FFFFF70B50500E8
:400C400000F0F7FD0400FFF79FFF002803D0FFF7DDFF012100E0002108482840084A1568084B2B40184310601368012901D1FFF7BFFF200000F0E1FD70BDC04604040400A0
:400C800010020B40FBFBFBFF10B5244B1B685B0715D5234B5B685B070ED5224B596A042001401F4C62688A4362605A6A82435A629B69002B00D098470420FFF7BFFF174BB8
:400CC0001B685B0518D5164B5B685B0510D5154B596A8022D2001140114842688A434260596A114A0A405A62DB69002B00D098478020C000FFF7A2FF084B1B685B030CD513
:400D0000074B5B685B0304D5064B1B6A002B00D098478020C002FFF791FF10BD10020B40DC00002090010020FFFBFFFF034B1868C0B27F2290431860C009704710010440FF
:400D40000004000C014B18607047C046C80220400004000C014B18607047C046D40220400004000C014B18607047C046CC02204070B504000D0000F05CFDAC40024B1C60FE
:400D800000F05BFD70BDC0460800204010B500F050FD064A116880230B43136000F04DFD18218020FFF7E4FF10BDC04600002040014B18607047C046F802204010B50E4C08
:400DC0008023DB042360236823600020FFF7B8FF236823600C22094B1A600120FFF7E8FF3122074B1A60FA24A4002000FFF7B0FF2000FFF7B5FF10BDC0022040E402204066
:400E0000E802204010B5064B1B78002B04D1FFF7D5FF0122024B1A70FFF7B8FF10BDC046B801002004490A68D2B210239A430001184010430860704700010440014B186477
:400E40007047C0460000002010B5040000F0F1FC044A1368C0218B43A4011C43146000F0ECFC10BD00E400E00122014B1A60704700E100E00122014B1A60704780E100E054
:400E800010B50400FFF7F6FF2000FFF7D7FF0320FFF7DAFFFFF7E8FF10BDC046024B18780F2318407047C04663000F40014B18707047C04683000F4010B50F20FFF7F6FFD8
:400EC000FFF7ECFF00F0B5FC044A117810230B43DBB2137000F0B1FC10BDC04693000F4010B500F075F88020000200F023F8054B1B78002B02D10122024B1A70FFF7DCFF3B
:400F000010BDC046B9010020034A117880235B420B43DBB21370704773000F40014B18707047C04680000F40014B1878C0B2704760000F40014B18807047C04604100F40FF
:400F4000014B188880B2704784100F40014B18807047C04644100F40014B18807047C04664100F4010B501E0FFF7EAFFFFF7DCFF4306F9D410BDC04610B5134B1A780721F5
:400F80008A431A701A7804398A431A70FFF7EAFF802424022000FFF7D9FF2000FFF7CAFF0020FFF7BBFFFFF7BFFF2000FFF7D4FF00F03FFC054A117810230B43DBB213703D
:400FC00000F03BFC10BDC04673000F4090000F4010B5064B1B78002B04D1FFF7CDFF0122024B1A70FFF790FF10BDC046BA01002004490A68D2B204239A438000184010434C
:40100000086070470001044004490A68D2B208239A43C000184010430860704700010440014B1878C0B2704767000F4010B503211120FFF705FC21491120FFF7EFFB0122C8
:401040001F4B1A601F4B1B68002B01DA1E4900E01E491F4A13680B4313601E4A1E4B1A601E4A1F4B1A6000231E4A13601E4A1F490A601F490A601F4A13601F4A13600122CA
:401080001E4B1A601E4A11681E4B0B40802189050B43136000230DE09A001B49511880204000086058000024184944521848194950500133002BEFD010BDC046A911000089
:4010C00020003A4080033A40700210517002005100003A408C00008004003A400000FF0718003A401C003A400200020010003A4014003A4028023A4038023A4018023A4089
:4011000030003A40FEFFFFDF80003A40000200203E1800000402002010B5094B1B68002B0CDB084B1B68002BFBDB054A1368802109060B4313600A20FFF73EFC10BDC046A5
:4011400000003A4008023A4010B5064B1B78002B04D1FFF76BFF0122024B1A70FFF7DCFF10BDC046BB010020034A1368802149020B4313607047C04604003A4010B5041E57
:4011800002D00020FFF748FB002C07D1A400054B9C46644420680004000C00E0002000B210BDC04680013A40014B1A681A60704710023A40014B1878C0B2704762000F4029
:4011C000054B1A6801210A431A601B68194201D1012000E00020704704002F4010B5802252010D4B1A60FFF7EBFF1D20FFF700FB0A4A116801230B431360094B00E0013B7D
:40120000002B03D0054A1268D207F8D5002B01D1012000E0002010BD00002F4010002F40A086010003B2002B0DDB094A1168094B0B400004034313601268074B1340984258
:4012400003D0012002E0022000E000207047C04614002F40FFFF00800000FF7F002809D10C4B19680C4A0A401A601B68DB040CD501300DE0074B1A68802149010A431A605F
:401280001B680B4203D1012002E0002000E000207047C04614002F40FFEFFFFF70B5841EE4B20D2C35D88C1EE4B2052C03D9002B31D1012931D1032A31D8904231D3914213
:4012C00031D31C4D2C68240AE4B20F26B44320432E68194C3440000204432C602C686040F0242401204220D1002B00D002234901C9B29200D2B2114319430E4A1368EE200A
:4013000083430B4313601368034099420FD0ED380EE002200CE002200AE0022008E0022006E0022004E0022002E0012000E0002070BDC04614002F40FFF0FFFF002809D19F
:401340000B4B1A6810218A431A601B6819420BD001300CE0064B1A6810210A431A601B68194203D1012002E0002000E00020704714002F40002809D10B4B1A6801218A43A4
:401380001A601B6819420BD001300CE0064B1A6801210A431A601B68194203D1012002E0002000E00020704714002F40054B18601B681B041B0C984201D0012000E00020B5
:4013C0007047C04604002F4010B503785B01204A944663441F4A41680A431A6003785B01634419681C4A11401C4A44682240914224D182681A6103785B0163441A6981681C
:401400008A421DD1C2685A6103785B0163445A69C1688A4216D1012252429A6103785B0163449A6901320FD10022DA6103785B016344DB69002B09D0012008E0012006E077
:40144000012004E0012002E0012000E0002010BDA0002F40800080007F007F007FFF7FFF10B503781B01104A944663440F4A41680A431A6003781B01634419680C4A114007
:401480000C4A4468224091420AD182685A6003781B0163445A6883689A4203D0012002E0012000E0002010BD20002F4008008000F7007F00F7FF7FFF70B500240AE0630054
:4014C0001B199800104B1818FFF7CAFF002805D10134E4B2072CF2D9002500E00125002D0BD00FE0230108486030C018FFF76CFF002806D10134E4B200E000240F2CF1D9DD
:4015000000E00125280070BD84260000002809D10C4B19680C4A0A401A601B689B040CD501300DE0074B1A68802189010A431A601B680B4203D1012002E0002000E0002004
:401540007047C04614002F40FFDFFFFF10B580221206344B1A60344A136801218B431360F0231B0200E0013B002B03D02E4A1268D207F8D4002B4AD01D20FFF743F92B4972
:401580001D20FFF74BF903211D20FFF759F91720FFF748FE002819D1FFF760FE002817D1FFF7B4FF002815D10023012201210C30FFF774FE00280FD1FFF7C0FE00280DD19D
:4015C000FFF7D8FE00280BD001230AE0012308E0012306E0012304E0012302E0012300E00023002B15D1FFF767FF002813D180204001FFF7DBFE00280FD10B4B1A68072192
:401600008A431A601B68194209D0013008E0012006E0012004E0012002E0012000E0002010BDC04600042F4010002F40A116000010B5084B1B78002B02D1FFF787FF00E0E2
:401640000020002804D10122024B1A70FFF7C6FD10BDC046BC01002070B5802252010D4B1A600125002411E00B4B1B682B4209D063010A4A944663441B689B0602D5200050
:4016800000F028F86D00ADB20134E4B20F2CEBD970BDC04600002F4008002F40A0002F4010B5034B1B68DB0401D5FFF7D5FF10BD00002F40064B1B68DB0706D4044A1168B4
:4016C00001230B431360002000E001207047C04620002F404001054B9C4660440368DB0703D502680123134303607047A0002F4010B500F075F810BD10B500F01DF810BDC9
:4017000010B5044A1368802109060B431360FFF7EFFF10BD0000254010B5064B1B78002B04D1FFF7E9FF0122024B1A70FFF7E8FF10BDC046BE010020154A164B1A60002327
:40174000154A13601549164A1160164A16490A6007201649086016490B6006381549086015490A60154A13600421154A1160154A1360154A1360154A1360154A1360154A4D
:401780001360154A13601268144B1A807047C0460B000002000025404000254001000A00480025400700008000032540040325401003254044002540000225400402254097
:4017C00050002540880E2540C80E2540480F2540080F2540C80F2540880F2540C001002005490B68F0229343603A13430B60034B1A88034B1A60704700030240C001002014
:40180000880F254070B50500002402E000F042F80134285D0028F9D170BDC046000000000230800803D00138FDD1C046C046C0467047EFF3108072B6704780F31088704703
:4018400070B50400FFF7F5FF0500102C05D8104A136803218B43136016E0202C07D80C490B6803229343023A13430B600CE0302C07D807490B6803229343013A13430B603B
:4018800002E00020FEF7C8FF2800FFF7D6FF70BD30001040044B1B681F221340082BF9D0024B18607047C0460802254040022540002243088B4274D303098B425FD3030A37
:4018C0008B4244D3030B8B4228D3030C8B420DD3FF22090212BA030C8B4202D31212090265D0030B8B4219D300E0090AC30B8B4201D3CB03C01A5241830B8B4201D38B0344
:40190000C01A5241430B8B4201D34B03C01A5241030B8B4201D30B03C01A5241C30A8B4201D3CB02C01A5241830A8B4201D38B02C01A5241430A8B4201D34B02C01A5241EE
:40194000030A8B4201D30B02C01A5241CDD2C3098B4201D3CB01C01A524183098B4201D38B01C01A524143098B4201D34B01C01A524103098B4201D30B01C01A5241C3083D
:401980008B4201D3CB00C01A524183088B4201D38B00C01A524143088B4201D34B00C01A5241411A00D20146524110467047FFE701B5002000F006F802BDC0460029F7D013
:4019C00076E770477047C046014B18687047C046440100200E4B70B500251E000D4CE41AA410A54204D0AB00F35898470135F8E700F014FF084B00251E00084CE41AA41018
:401A0000A54204D0AB00F35898470135F8E770BD28280000282800002828000030280000002310B59A4203D0CC5CC4540133F9E710BD03008218934202D019700133FAE7F2
:401A4000704700000EB410B59DB002A9029008610B48822488604861012040421FABC881084804CBA400006801938C8100F06EF80023029A13701DB010BC08BC03B0184722
:401A8000FFFFFF7F44010020F0B58E6885B007000C00039201939E4243D890238A89DB001A423ED003250969236801985B1A029363695D43EB0F5D19029B6D1001331B180E
:401AC000AB4200D91D00530510D52900380000F037FB061E14D0029A2169FFF7A1FFA289194B134080221343A38112E02A00380000F086FB061E0CD12169380000F0D4FA3B
:401B00000C23402201203B60A38940421343A38117E0029B2661F61826606561019EED1AA560019BB34200D21E0032000399206800F0A5FA0020A3689B1BA36023689E1984
:401B4000266005B0F0BDC0467FFBFFFFF0B59FB0029005938B890F0016001B0610D50B69002B0DD1402100F0EBFA38603861002804D10C23029A01381360D8E040237B6153
:401B8000002306AD6B6120336B761033AB7634002378002B03D1A31B049312D003E0252BF9D00134F4E7A31B320039000298FFF76BFF431C00D1B4E06A69049B9446634400
:401BC0006B612378002B00D1ABE00122002352426A6002A95432521801342B60EB60AB601370AB65534E21780522300000F03CFA002807D00123801B83402A6801341343BA
:401C00002B60EFE72B68DA0604D55322202102A8121811701A0704D553222B2102A81218117022782A2A03D0099B00200A210EE0059A111D12680591002A01DB099204E0DC
:401C40005242EA60022213432B6001340BE02278303A092A04D84B4301349B180120F6E7002800D0099323782E2B1ED163782A2B0AD1059B02341A1D1B680592002B01DA2B
:401C800001235B42079310E000230A201A0001346B6021783039092904D84243013452180123F6E7002B00D00792234E21780322300000F0D9F9002806D04023801B8340C9
:401CC0002A68013413432B60217806221B48661C297600F0C9F9002812D0194B002B06D10722059B073393430833059314E005AB00933A00134B2900029800E000BF07E011
:401D000005AB00933A000F4B2900029800F08AF80390039B013304D06B69039A9B186B6135E7BB890B985B0601D5012040421FB0F0BDC046E6270000EC270000F0270000D8
:401D400000000000891A0000F7B5170001938A680B6900900C00934200DA130022003B6043321278002A01D001333B6023689B0602D53B6802333B60062523681D401ED0A8
:401D8000230043331B785A1E9341226892061CD53020E1184331087021005A1C45310978A2184332023311700FE022000123193201990098089EB047431C0ED00135E368E3
:401DC0003A689B1A9D42F0DBDAE72200019943320098089DA847431C02D10120404220E006232068E1683A6803400025042B03D18D1AEB43DB171D40A3682269934201DD7B
:401E00009B1AED180027BD420AD0220001231A3201990098089EB047431CDED00137F2E70020FEBDF0B58BB006920A0043320793059004920A7E0C00109B6E2A00D1ABE09F
:401E400011D8632A22D009D8002A00D1B5E0582A00D0C5E045310A70814A4FE0642A1DD0692A1BD0BCE0732A00D1AAE009D86F2A29D0702A00D0B3E0202209680A43226029
:401E800037E0752A1FD0782A33D0A9E00E001A684236111D196013683370A4E021681A68080606D4490604D5111D19600023D55E02E0111D19601568002D3BDA2D23049AB0
:401EC0006D42137036E021681A68080606D4490604D51568111D1960ADB202E0111D196015685F4B227E039308276F2A1DD00A271BE022007821453211705A4A19680392C8
:401F0000081D226818600D68100602D4500600D5ADB2D30702D520231A4322601027002D03D1202322689A4322602300002243331A7002E00A274A4B03936368A360002BDC
:401F400009DB0422216891432160002D05D1049E002B11D07BE0002D79D0049E28003900FFF72CFD039B013E5B5C280033703900FFF79EFC051EF1D1082F09D12368DB074A
:401F800006D563682269934202DC3023013E3370049B9B1B23612BE009681A68080607D4490605D5111D19601368A28A1A8004E0111D1960136862691A600023049E2361A3
:401FC00016E01A68111D1960166800216268300000F04AF8002801D0801B6060636803E0260042363270012323610023049A1370079B09AA00932100069B0598FFF7A4FEEA
:40200000431C02D10120404227E02369320006990598079DA847431CF4D0236800259B070FD4099BE068984217DA180015E022000123193206990598079EB047431CE1D0A2
:402040000135E368099A9B1A9D42F0DBE9E72600039B42361B7833708EE70BB0F0BDC046F727000008280000C9B28218904204D003788B4202D00130F8E70020704710B5E9
:40208000884202D98B18984201D3002305E09B1A013A08D3995C8154FAE7934203D0CC5CC4540133F9E710BD70B50500002944D00C1F2368002B00DAE418280000F0D8F8DD
:4020C0001E4A13681100002B02D16360146031E0A3420DD92268A018834203D118685B688218226063600C6024E0A24203D813005A68002AF9D11E689819A0420BD1216868
:40210000711858181960824214D110685268411819605A600EE0A04202D90C232B6009E021686018824203D1106852684118216062605C60280000F09CF870BDC801002093
:40214000032370B5CD1C9D43083506000C2D01D20C2501E0002D01DBA94202D90C23336048E0300000F084F8234B1C681A002100002913D00B685B1B0DD40B2B02D90B6016
:40218000CC181EE08C4202D1636813601AE04B6863600C0016E00C004968E9E7174C2368002B03D1300000F051F820602900300000F04CF8431C18D00323C41C9C43A042EE
:4021C0000DD12560300000F054F8200007220B30231D9043C31A0ED05A42E2500BE0211A300000F033F8431CEBD10C233000336000F03FF8002070BDC8010020C401002030
:40220000F8B506000C001500002904D11100FFF797FF040018E0002A03D1FFF745FF2C0012E000F027F885420ED929003000FFF787FF071E07D021002A00FFF7F1FB210001
:402240003000FFF731FF3C002000F8BD002370B5064C050008002360FEF788F9431C03D12368002B00D02B6070BDC04608020020704770470B1F1A68101F002A04DA8918C4
:4022800004390B68D0180438704700000000000043616E2053746172743A202025750D0A0000000000300F40000800400F400008806F8203830F87030301071008200B200C
:4022C0000C0B0D020E040F1C100C12021408150416011708191C1A0F1D1C1E1020072302251029042A602B082C0C2D032E013020313C3240340F3502361037013E013F5024
:40230000540F580459045B045C115D105F05817784FD8602889E89038A608BFC91BF920F9340949495859660971A983099CC9AC99B239C73A4CFA630A9CAAB15B30FB4FFC5
:40234000B5F0B70FBE10D804D904DC10DF010010030105200710081009010A100B020C540E190F401048120213201708181019A11F102251234024242610271D281029A0C8
:402380002B402D20304433103614370138043B623E1159095A805B2061247840C063C2FFC42BCA2FCCEECEAFD60FD806DE0808061C03200524062501330136073880403623
:4023C000410549FF4AFF4BFF4DA04F0150185604580459045A045B045C315D015F016040628064406540668068406A806C406D206E808101870789188B048D0C900893206E
:40240000951899089B109C019F20A301A51CA803A914AB08AC03AD20AE0CB004B102B208B301B401B51CB602B720B8A0BE14BF44C032C105C54EC6C0C732C83BC9FFCAFF9C
:40244000CBFFCDAFCE07CF01D018D280D40FD804D904DA04DB04DC11DD11DF01E040E280E440E540E680E840EA80EC40ED20EE8005200A410D400E01100A14101705194832
:402480001A441B501E012004210922402410281029A12C042E102F203004315032013824398241084204450849144A044B424F60500A51205AA05B095C50678071018740DA
:4024C0008B249020922293419611970299A09B059D0CA408A520A604A740A921AB01B602B704C040C289C433CA4FCC0FCE0FD046D238D63FD880E42083049305944096100B
:40250000A604B201B30802040310040206010A100C010E021304170819021B011C011E0221012208230224012501260227022D012F02300831043203330334043510361075
:4025400037083A083B08580459045C115F01850191029904B102B504B701D604D904DB04DC30DF01050507060E02150117081D051E101F62204022502605271A2D012F628B
:402580003022371A3B043F015AA063808340840288209305944096109B04A604C0F0C280C430CAD0CCE5CE82D60CD801E2080B010E106B106F02C260DAC00E0487028A04AF
:4025C00093019F10A702AA10C280E210E880830193019F10E08083109F10E22003800D108B80C008C201E20191200F10871089109120C204E604010A100A120A04000F4020
:402600004B300F4030310F4061320F4044330F4007350F402F360F4025370F4006400F400A410F4004420F4003430F4006450F4001460F4006470F4003600F4003040506A5
:402640000708090A0B0C0E0F101112131415161718191B1C1D1E1F2021222325262728292A2B2E2F3031323334350000EEDBC9B9AA9B8E82766B60564D443B332C241D17C2
:40268000100A040000000000000018000800000001000000080088000000000002000000080088000000000003000000080088000000000004000000080088000000000092
:4026C0000500000008008800000000000600000008008800000000000700000008008800000000000000000088008000FFFFFFFF0000000001000000000000000000000013
:40270000000000000200000000000000000000000000000003000000000000000000000000000000040000000000000000000000000000000500000000000000000000008B
:40274000000000000600000000000000000000000000000007000000000000000000000000000000080000000000000000000000000000000900000000000000000000003B
:40278000000000000A0000000000000000000000000000000B0000000000000000000000000000000C0000000000000000000000000000000D0000000000000000000000EB
:4027C000000000000E0000000000000000000000000000000F0000000000000000000000000000004300232D302B2000686C4C0065666745464700303132333435363738B6
:4028000039414243444546003031323334353637383961626364656600000000F8B5C046F8BC08BC9E467047D1020000E5050000F8B5C046F8BC08BC9E467047A902000074
:4028400050280000C000002088000000C80000000000000010020020010000000000C05D80BB000030000000006CDC02F000000004040400000000000000000000000000AF
:402880000000000000000000000000000000000000000000E4270000000000000000000000000000000000000000000000000000000000000000000000000000000000000D
:4028C0000000000000000000000000000000000000000000E400002000000000000000000000000000000000000000000000000000000000000000000000000000000000D4
:402900000000000000000000000000000000000000000000000000000000000000000000000000000000000000000000000000000000000000000000000000000000000097
:402940000000000000000000000000000000000000000000000000000000000000000000000000000000000000000000000000000000000000000000000000000000000057
:402980000000000000000000000000000000000000000000000000000000000000000000000000000000000000000000000000000000000000000000000000000000000017
:4029C00000000000000000000000000000000000000000000000000000000000000000000000000000000000000000000000000000000000000000000000000000000000D7
:020000040003F7
:0200000490303A
:020000006E0888
:0200000490402A
:4000000000000000000000000000000000000000000000000000000000000000000000000000000000000000000000000000000000000000000000000000000000000000C0
:400040000000000000000000000000000000000000000000000000000000000000000000000000000000000000000000000000000000000000000000000000000000000080
:0200000490501A
:0C0000000002101311A00001101F7FA8C7
:0200000490600A
:0100000001FE
:00000001FF