:4000000000800020110000007D0E00007D0E000010B500F053FFC04670B512222E4B1A60302001F063F92D4C8025ED05256000222B4B1A602B4B2C4A1A60802252002B498E
:400040000A602B4919602B482B4908602B4919602B490A602B4A1A60C02189002A4A11602A4A1A60E021C900294A1160294A1A60E0214901284A1160284A1A60C021490103
:40008000274A1160274A1A6082221206264B1A60264A274B1A604222264B1A607E32264B1A607F3A254B1A604323254A1360254A13604422244B1A600232244B1A60013A12
:4000C000234B1A602349082001F038F8082001F01FF8256070BDC046300010400C020B40000301400000014040FF00800803014042FF0080007F1A0600050140C0FF00802D
:400100000403014041FF00800C03014043FF00801003014044FF00801803014046FF00801403014045FF008008010B404902060000010B405801014054010140500101409E
:400140003C0101402C0101402801014014010140080101406915000010B572B60122444B1A7000240FE043486200131959000B00411889881A5AC31858880004104300F072
:4001800039FE0134E4B2012CEDD93A490C313A48643000F015FE394A394B1A60EE221202384B1A600823384A13603849384A1160384A136099231B04374A1360374A136083
:4001C000374A1360374A1360374A1360374A1360374A384B1A600321374B1960374B1960374803783C22934314221343DBB20370344A107816230343DBB213700222324BA7
:400200001A603248324B18607420324B186090204002314B1860C420304B18603B30304B18603048304B18608120304B1860D82000012F4B18606E202E4B18602E482F4BD8
:4002400018602F4B19602F492F4B196036232F490B602F482F4908602F490A6001212F4A11602F4A1360FFF7D7FE00F0D9FD10BD1C700F40F8360000F83A0000AA000008F0
:400280000000024000030240000502409900EE00000602400007024000500F4010500F4020500F4040500F4050500F4070500F40040400C458300F402000104000800F408C
:4002C00001700F4000700F40000004403100040008000440000104400801044018010440000204409024090008020440180204400803044000040440900409000804044098
:4003000000050440568200000805044000060440B14002000806044018060440000704400807044010B5064C2378002B07D1054B002B02D0044800E000BF0123237010BD4B
:40034000580100200000000040340000084B10B5002B03D00749084800E000BF07480368002B00D110BD064B002BFBD09847F9E7000000005C01002040340000C0000020E1
:400380000000000010B580225201714B1A60714B1B78002B02D0704801F04CFE6F4B1B686C4A52681A4266D06A4B1B78002B02D06B4801F03FFE00226A4B1A70002001F037
:4003C000EDFE644B1B895B01674A944663449A68120E16D19A68120CFF210A40012A03D09A68120C114204D19B681B0C594A937203E05E4B00225A709A700122594B5A7073
:400400002FE09A68120E022A0ED19968090C584A51709968090A91709968D170DB681B0E1371002353711CE09A68120E042A11D19968090C4F4A51709968090A9170996825
:40044000D170DB681B0E1371002353710122454B5A7006E09B681B0E102B02D10122414B9A703C4B1B895B013F4A94466344196801220A431A60394B1A68364B9B891A420B
:4004800065D0344B1B78002B02D03B4801F0D2FD344C00232370002001F080FEA3885B01314A944663449A68120E16D19A68120CFF210A40012A03D09A68120C114204D194
:4004C0009B681B0C234A937203E0284B00225A709A700122234B5A702FE09A68120E022A0ED19968090C224A51709968090A91709968D170DB681B0E1371002353711CE010
:400500009A68120E042A11D19968090C194A51709968090A91709968D170DB681B0E13710023537101220F4B5A7006E09B681B0E102B02D101220B4B9A700A4B9B885B0163
:40054000094A94466344196801220A431A6010BD00002F40C40000206034000008002F407434000074010020A0002F40F4010020A80200205C0200208434000070B501F09A
:400580000FFC040001F0C4F901F0BAFD01F028F901F09CF801F0CAF90D491D2000F0CEFD62B60C4801F0D0F80B4801F0DDFD0B4B1B78002B0AD001F0C7FC094D220009498E
:4005C000280002F019FB280001F034FD70BDC04685030000810800001D080000C4000020F8010020943400008002044B9B685B01184302231843024B186070477401002039
:4006000064020020F0B583B001F020FD050001F01DFD06286CD880004D4B1B589F4610224C4B9A6000204C494C4B1860596000265FE01122474B9A6049484A49474B1860CA
:4006400059602132484B1A602F3A484B1A600732474B1A6001264CE012223E4B9A60454845493E4B18605960022642E0394B13229A60123A1A7300203749384B186059609D
:40068000032636E0334A142393600121117300203149324A10605160334A13601E22334B1A60143A324B1A60F532344B9A7304261FE0284B15229A60143A1A730020264920
:4006C000264B186059601332274B1A600A32274B1A60143A264B1A6005260AE016221D4B9A6000201C491D4B18605960062600E00026224C6368B3406360A389B340A38195
:40070000B3B222899A18228112498A889B188B800120FFF769FF2378002B16D00D4F184CBB682A001749200002F066FA200001F081FC124B1B89BA8800923200124920000F
:4007400002F05AFA200001F075FC03B0F0BDC04644340000740100200000F03F90020020CDCCCCCCCCCC4340A402002080020020F00100206666666666660640C40000200A
:40078000F8010020A8340000D034000070B504001D4B18601D4B1B78002B08D01C4D02001C49280002F028FA280001F043FC0022194B5A73FF32FF322300FF33934222D8FC
:4007C00001F0A0F8002C0CDAC30703D5124B1B7B002B06D0002000F089FF604200F026FF11E0002C0CDD830703D50B4B1B7B002B06D0012000F07AFF200000F017FF02E092
:40080000002000F013FF70BD7C020020C4000020F8010020003500007401002010B501F02BFC124B1B78002B04D002001049114802F0E2F901220D4BDA730F4A537B013394
:40084000DBB25373117801311170132B05D90020FFF79CFF0122094B5A71074B1B78092B02D9012001F09AFC10BDC046C40000200C350000F801002074010020A8020020CE
:4008800010B50A4B1B78002B08D0094C1A220949200002F09FF9200001F0CCFB064B1868FFF774FF002000F067FF10BDC4000020F80100202C3500007C020020F0B583B0D2
:4008C00000F050FF124B14221A70587080B2000A98700022DA701A710E4801F077FA0E4B1B78022B11D10A4B1D785E789F7800F039FF0A4C0190009733002A00084920009B
:4009000002F07AF9200001F095FB03B0F0BDC0468402002064020020C4000020F80100204835000010B50D4B12221A7000225A709A70DA701A710A4801F048FA094B1B7893
:40094000022B0AD1054B1A785B78074C0749200002F052F9200001F06DFB10BD8402002064020020C4000020F8010020BC35000010B582B00E4BFF221A705870997000226C
:40098000DA701A710B4801F021FA0B4B1B78022B0CD107490A784B788978084C00910849200002F029F9200001F044FB02B010BD8402002064020020C4000020F801002018
:4009C000E035000070B5050002F078F80B4B1A685B6801F0C3FD02F03BF80400084B1B78002B09D0074E03002A000749300002F003F9300001F01EFB200070BD90020020CE
:400A0000C4000020F80100201036000070B582B0040000F0A7FE244B9B7B5BB2584302B2A41A3ED021490B69E3180B61FA2149008B4201DD1D4B19611C4B19691C4B994275
:400A400002DA1900194B1961184B5969651A5C61154B1B78002B0CD0144B1B69154E0192009522001449300002F0C6F8300001F0E1FA124B186860430A2101F083FC040060
:400A80000A4B18690E4B1B6858430A2101F07AFC24180C4B186868430A2101F073FC201800E0002002B070BDC4000020740100200CFEFFFFF801002028360000A402002039
:400AC00080020020F001002070B50400184B1B78002B09D0174B5A78174D1849280002F08BF8280001F0A6FA2000FFF76BFFFFF78DFF04000E4B1B78002B08D00E4D02007F
:400B00000F49280002F078F8280001F093FA094B187E844202DDFFF739FE08E04042844202DAFFF733FE02E02000FFF72FFE70BDC400002074010020F801002048360000DC
:400B40005836000030B583B0002001F027FB002001F018FB894A012313709370884A022111709370874A013111709370864B05229A7100245C71DC71844ADA601C71002005
:400B800001F00CFB002001F0FDFAFFF7F7FCFFF739FD7F4B1C600020FFF7F8FD012001F0FDFA012001F0EEFA7A4B9B79002BFBD1794B5979002934D1784B9A7A002A1FD147
:400BC0001B78002B0BD0744B5A789B78744D00917449280002F010F8280001F02BFA6E4B01225A719B78DB0704D56B4B5878FFF7CDFD16E0684B58784042FFF7C7FD10E0E9
:400C00005F4B0021997002315970644B1B78002B07D0634D6449280001F0EEFF280001F009FA5E4B9A7A012A21D11B78002B0DD05E4B5A78DB7858494979594D00915C499F
:400C4000280001F0D9FF280001F0F4F9514A00215170564BD87810761161987800025B78184300B2534B1880FFF72EFF14E04A4B5B79002B10D1424B0021997004315970AE
:400C8000464B1B78002B07D0454D4B49280001F0B3FF280001F0CEF9404B9B7A012B04D90123424A53713C4A5371344B9978354B9D784B424B416A426A411343304A907869
:400CC00042424241D2B2002B01D1002A1ED0002906D12A4D69782878FFF74AFE0123AB70284B9B78002B06D1264D69782878FFF73FFE0123AB70224B9B78002B06D1204D02
:400D000069782878FFF734FE0123AB70234BDB7B002B0DD0214B1B78002B04D0142227491F4801F057FFFFF7C9FD00221B4BDA73184B9B78002B04D0FFF7F4FD0022154B3E
:400D40009A70642000F032FA002C04D0104A13680A33136003E00E4A13680A3B13600C4B1868FF2803DC0300FF3302DB02E0002400E00124FFF70AFD16E7C0469C0200201E
:400D8000A0020020F401002064020020840200207C02002074010020A8020020C4000020F801002064360000803600005C020020A436000098020020C0360000E4360000C4
:400DC000F0B50025002711E0BB00C658F3B2FF22964308E06A008A181478A419527822700135013BDBB2002BF4D101370F2FEBD9F0BDC04610B50A00002101F0F4FE10BD84
:400E0000064B1B68002803D080221206134301E05B005B08014A13607047C04680033A4010B580231B060C4A136003220B490A600B480C4908600C490A600C4A136081234B
:400E40000B4A13600B4A136000220B4B1A600120FFF7D6FF10BDC046000030403000304008402000800030403000314000003A4000033A4040033A40000E3F4010B501F031
:400E80007DFE03680C2B00D1FEE7FEE710B50300084A1068C318084A9A1A802A02DC054A136005E001F06AFE0C2303600120404210BDC046D4000020B802002070B50F4E27
:400EC0000F4D13E029686B68AC68002202E001C901C30432A242FAD1E868002202E0002102C304328242FAD11035013E002EE9D101F04AFEFFF726FEFEE7C046010000000A
:400F0000E03D000010B50E4A136801218B43136000230AE0032B03D89A000A49505800E009489900094A885001332F2BF2D9FFF713F9034A116801230B43136010BDC04620
:400F400000001040000000007D0E000000000020024A1168024B0B401360704700002240FFFFFFBF034B18688023DB05184000D0012070470000224030B52D4B1A783F23CD
:400F80001340042B01D9012000E0002000230AE0284A12683F210A402749C95C8A4201D1033303E001332D2BF2D9032323490A680124A2430A60224A126822490A60002813
:400FC0000FD021490D681F4C65601F24A2431F4C247822431A4C22601D4A1278D2B20A6005E01F218A4317390A4315490A60302B0BD1002803D0174B1B78DBB202E0164B5A
:401000001B78DBB2154A13600CE0182B0AD1002803D0134B1B78DBB202E0124B1B78DBB20E4A1360104A116802230B43136030BD00F3FF0F2CFF0B409C3B000050000C4081
:4010400034FF0B409401002020FF0B40C0F1FF0FC1F1FF0FC3F1FF0F3FF3FF0F28FF0B40C2F1FF0F3EF3FF0F24002C4030B51A4B1A783F231340042B01D9012000E0002095
:4010800000230AE0154A12683F210A401449C95C8A4201D1033303E001332D2BF2D9032310490A680224A2430A600F4C21681F2291430E4D2D682A400A432260002803D08D
:4010C0000A4A51680A4A11600A4A944663441B78DBB2094A136030BD00F3FF0F2CFF0B409C3B000024002C4034FF0B409401002020FF0B404DF3FF0F28FF0B40034B1B686A
:401100000220184000D001207047C04624002C401F2318401E3B8340014A13607047C04600E100E01F2318401E3B8340014A13607047C04680E100E001BE704770B50400F4
:401140000D001F2802D90020FFF7F6FF1034A40080239B059C4664442068256070BDC04670B504000E00032902D90020FFF7E4FF1F2C02D90020FFF7DFFF03252540ED0075
:40118000063501F022F8A408A400074B9C46644421680323AB4099430B003100A9401943216001F016F870BD00E400E010B5040006E0084B586800F0FFFF074B9C466444C9
:4011C00080231B029C42F4D8024B9868604300F0F3FF10BDD80000200080FFFF30B583B000F06CF900285FD000F0EFFF04002F4A116801230B43136000230AE02C4A1268F6
:401200003F210A402B49C95C8A4201D1033303E001332D2BF2D90323274A1268D20606D1254802681F218A4313390A430260234A1168234A0A40234959438020C0018446EE
:401240006144C90B01394905490D0A43A021490311430800192B02D81B4B1A430EE01B4A9A1812781A3B1349C9183023CB5CD318FF2B00D9FF239B0502001A430F4B1A6002
:40128000134D2B680193302000F0A6FF114A13688021C9050B4313601420FFF787FF019B2B60200000F095FF03B030BD50000C402CFF0B409C3B000034FF0B4008002240D0
:4012C00000F800C040420F000000D43F4DF3FF0F300010400000224010B5034B1B7B584300F06AFF10BDC046D8000020F0B55F4656464D464446F0B483B0040000F065FFC8
:401300000190FFF72FFE002804D0FFF721FE01239A4601E000239A46FFF7F0FE002808D0182C01D0302C07D1FFF7A0FE01239B4604E000239B4601E000239B46E61E2D2E0E
:4013400074D8464B1B78DBB29C4208D8444B1B78DBB29946434B1B78DBB2984631E0424B1B78DBB29C4208D8404B1B78DBB299463F4B1B78DBB2984623E03E4B1B78DBB25E
:401380009C4208D83C4B1B78DBB299463B4B1B78DBB2984615E03A4B1B78DBB29C4208D8384B1B78DBB29946374B1B78DBB2984607E0364B1B78DBB29946354B1B78DBB204
:4013C0009846344B9F5D2F2F09D92A2C07D91922314B1A60052000F0EFFE192503E02E4B1D683F231D40BD4206D92A4B9A5D2A4B1A60052000F0E0FE254B9C46644423784C
:40140000DBB2264A1360264B4A461A60254B42461A600520FFF760FFBD420AD21D4B9A5D1D4B1A60052000F0C7FE02E00020FFF783FE5346012B01D1FFF7D0FE5B46012B3E
:4014400001D1FFF799FD019800F0C3FE03B03CBC90469946A246AB46F0BDC04640F3FF0F41F3FF0F42F3FF0F43F3FF0F44F3FF0F45F3FF0F46F3FF0F47F3FF0F48F3FF0F6B
:4014800049F3FF0F4AF3FF0F4BF3FF0F4CF3FF0F4DF3FF0F9C3B00002CFF0B4028FF0B401CFF0B4020FF0B40034B1868C0231B02184000D00120704700010B40034B1B6836
:4014C000002B01DA012000E0002070470000224010B500F07AFE044A1368C02109020B43136000F076FE10BD00010B4010B500F06CFE08490A68084B1A408024E40122430F
:401500000A600A6813408022120213430B6000F060FE10BD00010B40FF3FFFFF70B5050000F053FE0400FFF7BFFF002803D0FFF7DDFF012100E0002108482840084A1568C8
:40154000084B2B40184310601368012901D1FFF7BFFF200000F03DFE70BDC0460404040010020B40FBFBFBFF10B5244B1B685B0715D5234B5B685B070ED5224B596A042013
:4015800001401F4C62688A4362605A6A82435A629B69002B00D098470420FFF7BFFF174B1B685B0518D5164B5B685B0510D5154B596A8022D2001140114842688A43426036
:4015C000596A114A0A405A62DB69002B00D098478020C000FFF7A2FF084B1B685B030CD5074B5B685B0304D5064B1B6A002B00D098478020C002FFF791FF10BD10020B408F
:40160000EC000020B4010020FFFBFFFF0004000C014B18607047C046080120400004000C014B18607047C046140120400004000C014B18607047C0460C01204070B50400AA
:401640000D0000F0C2FDAC40024B1C6000F0C1FD70BDC0460800204010B500F0B6FD064A116801230B43136000F0B3FD18210120FFF7E4FF10BDC04600002040014B1860D0
:401680007047C0463801204010B50D4C8023DB042360236823600020FFF7B8FF236823600C22084B1A600120FFF7E8FF3122064B1A60FF20FFF7B2FF0020FFF7B7FF10BD52
:4016C00000012040240120402801204010B5064B1B78002B04D1FFF7D7FF0122024B1A70FFF7BAFF10BDC046DC01002004490A68D2B202239A43400018401043086070473E
:4017000000070440014B18647047C0460000002010B5040000F059FD044A1368C0218B43A4011C43146000F054FD10BD00E400E00122014B1A60704700E100E00122014B18
:401740001A60704780E100E010B50400FFF7F6FF2000FFF7D7FF0320FFF7DAFFFFF7E8FF10BDC04610B500F06BF8024B9C46604400B210BD0080FFFF10B5002805DB80B2CE
:40178000054B9C46604480B203E0034B9C46604480B200F04FF810BD0080FFFF024B18780F2318407047C04667000F40014B18707047C04687000F4010B50F20FFF7F6FF96
:4017C000FFF7ECFF00F001FD044A117810230B43DBB2137000F0FDFC10BDC04697000F4010B500F07FF88020000200F023F8054B1B78002B02D10122024B1A70FFF7DCFF8B
:4018000010BDC046DD010020034A117880235B420B43DBB21370704772000F40014B18707047C04680000F40014B1878C0B2704760000F40014B18807047C04604100F40D3
:40184000024B1B78024B188880B2704702000F4084100F40014B188880B2704784100F40014B18807047C04644100F40014B18807047C04664100F4010B501E0FFF7EAFF99
:40188000FFF7D2FF4306F9D410BDC04610B5134B1A7807218A431A701A7804398A431A70FFF7EAFF802424022000FFF7D9FF2000FFF7C0FF0020FFF7B1FFFFF7B5FF200022
:4018C000FFF7D4FF00F081FC054A117810230B43DBB2137000F07DFC10BDC04672000F4090000F4010B5064B1B78002B04D1FFF7CDFF0122024B1A70FFF786FF10BDC046BA
:40190000DE010020014B1878C0B2704764000F4010B500F05AFC044A117810230B43DBB2137000F056FC10BD94000F40054B1A6801210A431A601B68194201D1012000E01F
:401940000020704704002F4010B50E4A0E4B1A60FFF7ECFF1D20FFF7DBFB0C4A116801230B431360F0231B0100E0013B002B03D0064A1268D207F8D5002B01D1012000E0D8
:40198000002010BD0110000000002F4010002F4003B2002B0DDB094A1168094B0B400004034313601268074B1340984203D0012002E0022000E000207047C04614002F401A
:4019C000FFFF00800000FF7F002809D10C4B19680C4A0A401A601B68DB040CD501300DE0074B1A68802149010A431A601B680B4203D1012002E0002000E000207047C0468C
:401A000014002F40FFEFFFFF70B5841EE4B20D2C35D88C1EE4B2052C03D9002B31D1012931D1032A31D8904231D3914231D31C4D2C68240AE4B20F26B44320432E68194CC0
:401A40003440000204432C602C686040F0242401204220D1002B00D002234901C9B29200D2B2114319430E4A1368EE2083430B4313601368034099420FD0ED380EE002209D
:401A80000CE002200AE0022008E0022006E0022004E0022002E0012000E0002070BDC04614002F40FFF0FFFF002809D10B4B1A6810218A431A601B6819420BD001300CE026
:401AC000064B1A6810210A431A601B68194203D1012002E0002000E00020704714002F40002809D10B4B1A6801218A431A601B6819420BD001300CE0064B1A6801210A43B1
:401B00001A601B68194203D1012002E0002000E00020704714002F40054B18601B681B041B0C984201D0012000E000207047C04604002F4010B503785B01204A9446634408
:401B40001F4A41680A431A6003785B01634419681C4A11401C4A44682240914224D182681A6103785B0163441A6981688A421DD1C2685A6103785B0163445A69C1688A4276
:401B800016D1012252429A6103785B0163449A6901320FD10022DA6103785B016344DB69002B09D0012008E0012006E0012004E0012002E0012000E0002010BDA0002F40C0
:401BC000800080007F007F007FFF7FFF10B503781B01104A944663440F4A41680A431A6003781B01634419680C4A11400C4A4468224091420AD182685A6003781B01634491
:401C00005A6883689A4203D0012002E0012000E0002010BD20002F4008008000F7007F00F7FF7FFF70B500240AE063001B199800104B1818FFF7CAFF002805D10134E4B2E1
:401C4000072CF2D9002500E00125002D0BD00FE0230108486030C018FFF76CFF002806D10134E4B200E000240F2CF1D900E00125280070BDE43B0000002809D10C4B1968E0
:401C80000C4A0A401A601B689B040CD501300DE0074B1A68802189010A431A601B680B4203D1012002E0002000E000207047C04614002F40FFDFFFFF10B580221206344B42
:401CC0001A60344A136801218B431360C8231B0200E0013B002B03D02E4A1268D207F8D4002B4AD01D20FFF71DFA2B491D20FFF725FA03211D20FFF733FA1320FFF748FE0D
:401D000000281AD1FFF760FE002818D1FFF7B4FF002816D10023012201210C30FFF774FE002810D10130FFF7BFFE00280DD1FFF7D7FE00280BD001230AE0012308E0012368
:401D400006E0012304E0012302E0012300E00023002B14D1FFF766FF002812D10F48FFF7DBFE00280FD10B4B1A6807218A431A601B68194209D0013008E0012006E0012065
:401D800004E0012002E0012000E0002010BDC04600042F4010002F40C91D00000110000010B5084B1B78002B02D1FFF785FF00E00020002804D10122024B1A70FFF7C4FD8E
:401DC00010BDC046DF0100207047C046F8B54F464646C0B4040001200023984691E04C4B1B6832041A427AD12379002B01D1002701E08027BF036379002B07D12B01454ADF
:401E000094466344226852055A6009E080235B031F432B013F4A944663442268D2005A60A379072B03D81B041F43B94603E080231B031F43B946E379002B03D004234A462F
:401E40001A43914600232AE0032B13D92801324A94466044026894465907CA1AD1003831FF228A4067469743E268D25C8A403A43026012E02801274A9446604482689446A1
:401E80005907CA1AD1001831FF228A4067469743E268D25C8A403A4382600133DBB2A279934201D2072BCFD91D20FFF73BF92B01184A94466344194A4F4617431F60227A70
:401EC000002A04D0196803220A431A6003E0196801220A431A601D20FFF71AF900207600F6B2002807D00135EDB201E001260025072D00D873E7002806D043460133DBB2F6
:401F000098464346022BF1D90CBC90469946F8BD08002F4020002F402C002F400800800010B500F075F810BD10B500F01DF810BD10B5044A1368802109060B431360FFF76D
:401F4000EFFF10BD0000274010B5064B1B78002B04D1FFF7E9FF0122024B1A70FFF7E8FF10BDC046E0010020154A164B1A600023154A13601549164A1160164A16490A6086
:401F800007201649086016490B6006381549086015490A60154A13600421154A1160154A1360154A1360154A1360154A1360154A1360154A13601268144B1A807047C046BA
:401FC0000B000002000027404000274001000A00480027400700008000032740040327401003274044002740000227400402274050002740880E2740C80E2740480F274003
:40200000080F2740C80F2740880F2740E201002005490B68F0229343603A13430B60034B1A88034B1A60704700060240E2010020880F274070B50500002402E000F00AF904
:402040000134285D0028F9D170BDC046014B1878C0B2704763000F40034A117880235B420B43DBB21370704775000F40014B18707047C04686000F40014B1878C0B2704770
:4020800066000F4010B50100014800F0CFF810BD24000F4010B5024800F0D2F810BDC04644000F4010B50100014800F0BFF810BD04000F4010B501E0FFF7ECFFFFF7DCFF08
:4020C0000307F9D410BDC04610B50B4C2000FFF7D9FF2000FFF7E6FF00F077F8074A117810230B43DBB2137000F073F8FFF7E2FF0120FFF7BBFF10BD3F420F0096000F4022
:4021000010B5064B1B78002B04D1FFF7DDFF0122024B1A70FFF7A0FF10BDC046E4010020014B58647047C0460000002010B5040000F04BF8044A1168044B0B40A4031C4375
:40214000146000F046F810BD00E400E0FF3FFFFF0222014B1A60704700E100E00222014B1A60704780E100E010B50400FFF7F6FF2000FFF7D5FF0320FFF7D8FFFFF7E8FF41
:4021800010BDC04604490A68D2B210239A43000118401043086070470001044004490A68D2B220239A434001184010430860704700010440000000000230800803D0013870
:4021C000FDD1C046C046C0467047EFF3108072B6704780F31088704770B50400FFF7F5FF0500102C05D8104A136803218B43136016E0202C07D80C490B6803229343023AAA
:4022000013430B600CE0302C07D807490B6803229343013A13430B6002E00020FEF78CFF2800FFF7D6FF70BD30001040CBB203700B0ADBB24370090CC9B281707047C04657
:402240000378427812021A4383781B041A4310007047C046044B1B681F221340082BF9D0024B18607047C0460802274040022740002243088B4274D303098B425FD3030ADD
:402280008B4244D3030B8B4228D3030C8B420DD3FF22090212BA030C8B4202D31212090265D0030B8B4219D300E0090AC30B8B4201D3CB03C01A5241830B8B4201D38B037A
:4022C000C01A5241430B8B4201D34B03C01A5241030B8B4201D30B03C01A5241C30A8B4201D3CB02C01A5241830A8B4201D38B02C01A5241430A8B4201D34B02C01A524125
:40230000030A8B4201D30B02C01A5241CDD2C3098B4201D3CB01C01A524183098B4201D38B01C01A524143098B4201D34B01C01A524103098B4201D30B01C01A5241C30873
:402340008B4201D3CB00C01A524183088B4201D38B00C01A524143088B4201D34B00C01A5241411A00D20146524110467047FFE701B5002000F0F0F802BDC0460029F7D05F
:4023800076E7704703460B437FD4002243088B4274D303098B425FD3030A8B4244D3030B8B4228D3030C8B420DD3FF22090212BA030C8B4202D31212090265D0030B8B4228
:4023C00019D300E0090AC30B8B4201D3CB03C01A5241830B8B4201D38B03C01A5241430B8B4201D34B03C01A5241030B8B4201D30B03C01A5241C30A8B4201D3CB02C01A41
:402400005241830A8B4201D38B02C01A5241430A8B4201D34B02C01A5241030A8B4201D30B02C01A5241CDD2C3098B4201D3CB01C01A524183098B4201D38B01C01A5241A6
:4024400043098B4201D34B01C01A524103098B4201D30B01C01A5241C3088B4201D3CB00C01A524183088B4201D38B00C01A524143088B4201D34B00C01A5241411A00D2F7
:4024800001465241104670475DE0CA0F00D04942031000D34042534000229C4603098B422DD3030A8B4212D3FC22890112BA030A8B420CD3890192118B4208D389019211FE
:4024C0008B4204D389013AD0921100E08909C3098B4201D3CB01C01A524183098B4201D38B01C01A524143098B4201D34B01C01A524103098B4201D30B01C01A5241C3082C
:402500008B4201D3CB00C01A524183088B4201D38B00C01A5241D9D243088B4201D34B00C01A5241411A00D20146634652415B10104601D34042002B00D54942704763469D
:402540005B1000D3404201B5002000F005F802BD0029F8D016E770477047C046F0B55F4656464D464446F0B40D0399464E002B0B87B00700924680469B46760DCC0F002E54
:4025800069D06D4B9E4235D05B468022DD001204430F13432B439B46C3009846674B00279C460023664401934A4615035000D20F53462D0B400D914600D176E05E4A9042EC
:4025C0006CD080225B0F120413435C4AED0094461D4353460022DB00604449463618701C6140029017430F2F00D9AFE05448BF00C759BF465B461F4300D088E000239B46C5
:402600009846023308270193CEE74946022A6AD0032A00D109E2012A00D0BBE111400022002300259046CCB200212D030A0D12052D0B1543434A1B0515401D436D00E407C2
:402640006D0825434046290007B03CBC90469946A246AB46F0BD034352D05B46002B00D18AE1584600F06CFA03000B3B1C2B00DD7BE11D22D31A3A0001005D46DA40083952
:402680008D4013008F402B439B46B8462E4B00279C46002360444642019385E752462A432CD100250023022297E752462A4321D0002D00D154E1280000F042FA03000B3B9B
:4026C0001C2B00DD46E11D21CB1A51460200D9405346083A954093400D431B4A944660444042002279E7012400220C40124B0025904699E70025002301226EE703226CE75D
:4027000000239B4698460133042701934CE703230C27019348E700238025984600242D03054B81E75D464346019A6FE75D4643462100019A6AE7C046FF07000001FCFFFF66
:40274000443D0000FFFF0F80F30300004246120C91461A0C9446424617044A461B041B0C5A43604690464A4642431000039262461C003F0C7A437C4342440192220C9246E2
:40278000019A5244904506D98246802040028046C24450460390100C049048462404240C1204121905922A0C2D042D0C68432C00824648467C4350438146200C80465743B5
:4027C00057444744BA4503D9802040028046C144380C3F04B84648442404240C01900498A044404404905846000C814658460404200C8246070048465F434C464343604699
:4028000060436446834650464443380C8446E4186444A34203D980235B029C46E34448463F04230C3F0C2404E419574668436F4384464D46504655434243380C81466244BE
:402840004A445B44944503D9802040028446654403983F04834604983F0C8446E344C345804140428246100484460198674484466744A344BC46A345A4419946D4446442A5
:402880008742BF41D4458041E144A04699459B417F424042C8440743120CBA18A045A4415F423B0064422343D71843467D19DB0D6D021D435B465A02059B1A43531E9A416A
:4028C0005B46DB0D1A4343465B021343EA0107D501225C0813402343EA07029E13436D08574AB218002A4BDD580709D00F201840042805D0181D98429B415B42ED18030046
:40290000E80104D54F4A15408022D200B2184E48824200DDE7E60124DB08680718436D02530580462D0B5B0D0C407DE6802259461203114208D0154206D115432D039846E2
:402940002D0B4C46414B6FE65D4615432D032D0B3E4B69E603005546283B9D400023BCE6504600F0EDF82030A8E60300283B9F400023BB46984689E600F0E2F8203073E65C
:402980000124A61A382E07DD00220C4000230025904649E6029EA3E71F2E20DC20222C001800921BF040944093400443581E83411C43F540630709D00F232340042B05D0BF
:4029C00023001C1D9C4292415242AD182B021FD5012400220C4001230025904624E61F202C004042821AD440202E1CD04022961BB5402B43581E8341072023431840002503
:402A0000002809D00F2200251A401C00042AD8D1230068076D022D0B0124DB08034398460C40002300E60025E3E780220124120315432D0398462D0B0C40044BF4E5C04655
:402A4000FF030000FFFFFFFEFE070000FF0700000B0330B5134D1A0B4B005B0DC90F0024AB4211DD104CA34210DC8024640322430E4CE41A1F2C0CDD0D48C31ADA401300C4
:402A80005C42002900D11C00200030BD094BCC18FAE7E040084CA44663449A4013000343EEE7C046FE0300001D0400003304000013040000FFFFFF7FEDFBFFFF70B500280A
:402AC00030D0C317C4185C40C50F200000F038F8174B184A1B1AD21A1F2A18DD164AD21A9440002224035B05240B5B0D0021100024030A0D1205240B1443104A1B05144013
:402B00001C436400ED0764082C43210070BD210091400A000B21081AC4405B052403240B5B0DE3E70025002300240022DEE7C0461E0400003304000013040000FFFF0F8029
:402B40001C2101231B04984201D3000C10391B0A984201D3000A08391B09984201D30009043902A2105C40187047C04604030202010101010000000000000000014B18689C
:402B80007047C046540100200E4B70B500251E000D4CE41AA410A54204D0AB00F35898470135F8E701F00AF9084B00251E00084CE41AA410A54204D0AB00F358984701351C
:402BC000F8E770BDC83D0000C83D0000C83D0000D03D0000002310B59A4203D0CC5CC4540133F9E710BD03008218934202D019700133FAE7704700000EB410B59DB002A9DD
:402C0000029008610B48822488604861012040421FABC881084804CBA400006801938C8100F06EF80023029A13701DB010BC08BC03B01847FFFFFF7F54010020F0B58E68FA
:402C400085B007000C00039201939E4243D890238A89DB001A423ED003250969236801985B1A029363695D43EB0F5D19029B6D1001331B18AB4200D91D00530510D529006F
:402C8000380000F037FB061E14D0029A2169FFF7A1FFA289194B134080221343A38112E02A00380000F086FB061E0CD12169380000F0D4FA0C23402201203B60A3894042B7
:402CC0001343A38117E0029B2661F61826606561019EED1AA560019BB34200D21E0032000399206800F0A5FA0020A3689B1BA36023689E19266005B0F0BDC0467FFBFFFF48
:402D0000F0B59FB0029005938B890F0016001B0610D50B69002B0DD1402100F0EBFA38603861002804D10C23029A01381360D8E040237B61002306AD6B6120336B761033CE
:402D4000AB7634002378002B03D1A31B049312D003E0252BF9D00134F4E7A31B320039000298FFF76BFF431C00D1B4E06A69049B944663446B612378002B00D1ABE0012236
:402D8000002352426A6002A95432521801342B60EB60AB601370AB65534E21780522300000F03CFA002807D00123801B83402A68013413432B60EFE72B68DA0604D55322D7
:402DC000202102A8121811701A0704D553222B2102A81218117022782A2A03D0099B00200A210EE0059A111D12680591002A01DB099204E05242EA60022213432B60013415
:402E00000BE02278303A092A04D84B4301349B180120F6E7002800D0099323782E2B1ED163782A2B0AD1059B02341A1D1B680592002B01DA01235B42079310E000230A20D9
:402E40001A0001346B6021783039092904D84243013452180123F6E7002B00D00792234E21780322300000F0D9F9002806D04023801B83402A68013413432B602178062226
:402E80001B48661C297600F0C9F9002812D0194B002B06D10722059B073393430833059314E005AB00933A00134B2900029800E000BF07E005AB00933A000F4B290002980E
:402EC00000F08AF80390039B013304D06B69039A9B186B6135E7BB890B985B0601D5012040421FB0F0BDC046863D00008C3D0000903D0000000000003D2C0000F7B5170053
:402F000001938A680B6900900C00934200DA130022003B6043321278002A01D001333B6023689B0602D53B6802333B60062523681D401ED0230043331B785A1E934122683A
:402F400092061CD53020E1184331087021005A1C45310978A2184332023311700FE022000123193201990098089EB047431C0ED00135E3683A689B1A9D42F0DBDAE722002F
:402F8000019943320098089DA847431C02D10120404220E006232068E1683A6803400025042B03D18D1AEB43DB171D40A3682269934201DD9B1AED180027BD420AD02200B1
:402FC00001231A3201990098089EB047431CDED00137F2E70020FEBDF0B58BB006920A0043320793059004920A7E0C00109B6E2A00D1ABE011D8632A22D009D8002A00D166
:40300000B5E0582A00D0C5E045310A70814A4FE0642A1DD0692A1BD0BCE0732A00D1AAE009D86F2A29D0702A00D0B3E0202209680A43226037E0752A1FD0782A33D0A9E0C8
:403040000E001A684236111D196013683370A4E021681A68080606D4490604D5111D19600023D55E02E0111D19601568002D3BDA2D23049A6D42137036E021681A68080650
:4030800006D4490604D51568111D1960ADB202E0111D196015685F4B227E039308276F2A1DD00A271BE022007821453211705A4A19680392081D226818600D68100602D4CF
:4030C000500600D5ADB2D30702D520231A4322601027002D03D1202322689A4322602300002243331A7002E00A274A4B03936368A360002B09DB0422216891432160002D7E
:4031000005D1049E002B11D07BE0002D79D0049E28003900FFF732F9039B013E5B5C280033703900FFF7A4F8051EF1D1082F09D12368DB0706D563682269934202DC302352
:40314000013E3370049B9B1B23612BE009681A68080607D4490605D5111D19601368A28A1A8004E0111D1960136862691A600023049E236116E01A68111D1960166800214A
:403180006268300000F04AF8002801D0801B6060636803E0260042363270012323610023049A1370079B09AA00932100069B0598FFF7A4FE431C02D10120404227E023696E
:4031C000320006990598079DA847431CF4D0236800259B070FD4099BE068984217DA180015E022000123193206990598079EB047431CE1D00135E368099A9B1A9D42F0DBB6
:40320000E9E72600039B42361B7833708EE70BB0F0BDC046973D0000A83D0000C9B28218904204D003788B4202D00130F8E70020704710B5884202D98B18984201D3002316
:4032400005E09B1A013A08D3995C8154FAE7934203D0CC5CC4540133F9E710BD70B50500002944D00C1F2368002B00DAE418280000F0D8F81E4A13681100002B02D163606F
:40328000146031E0A3420DD92268A018834203D118685B688218226063600C6024E0A24203D813005A68002AF9D11E689819A0420BD12168711858181960824214D11068B8
:4032C0005268411819605A600EE0A04202D90C232B6009E021686018824203D1106852684118216062605C60280000F09CF870BDEC010020032370B5CD1C9D4308350600DA
:403300000C2D01D20C2501E0002D01DBA94202D90C23336048E0300000F084F8234B1C681A002100002913D00B685B1B0DD40B2B02D90B60CC181EE08C4202D163681360DA
:403340001AE04B6863600C0016E00C004968E9E7174C2368002B03D1300000F051F820602900300000F04CF8431C18D00323C41C9C43A0420DD12560300000F054F82000EE
:4033800007220B30231D9043C31A0ED05A42E2500BE0211A300000F033F8431CEBD10C233000336000F03FF8002070BDEC010020E8010020F8B506000C001500002904D133
:4033C0001100FFF797FF040018E0002A03D1FFF745FF2C0012E000F027F885420ED929003000FFF787FF071E07D021002A00FFF7F1FB21003000FFF731FF3C002000F8BD9B
:40340000002370B5064C050008002360FDF73EFD431C03D12368002B00D02B6070BDC046B0020020704770470B1F1A68101F002A04DA891804390B68D0180438704700006D
:40344000000000001E06000032060000580600006C06000084060000B2060000DC0600000A2043616E207278207472696767657265640A0050302072656369657665640ADE
:403480000000000050312072656369657665640A0A00000043414E5F537461727428293A202025750D0A000043414E206469702073657474696E673A20202578204D6573AC
:4034C000736167652049443A20256C640D0A000043616E2073686966743A20256420202050304D61696C626F783A2025642050314D61696C626F782025640D0A000000002A
:4035000050574D3A25640D0A00000000506572696F6420696E7465727570742074726967676572642025780D0A0000004C696D697420696E7465727570742074726967679C
:403540006572640D0A00000043414E5F53656E645F456E636F6465723A20627974655B30755D20257820627974655B31755D20257820627974655B32755D2025780A20519D
:4035800075616444656320436F756E742025640D0A00000054656C656D657274793A20627974655B30755D20257820627974655B31755D2025780D0A000000004D6F64656E
:4035C0006C3A20627974655B30755D20257820627974655B31755D2025780D0A000000004572726F723A20627974655B30755D20257820627974655B31755D20257820628E
:403600007974655B32755D2025780D0A000000006465677265653A202564207469636B733A2025640D0A0000703A2025642C20693A20256420642025642063757272656EB7
:40364000742025640D0A0000636F6D706C6574653A2025640D0A000050574D3A2025640D0A00000042313A2025642C2042323A20256420646F6E652025780D0A0000000042
:403680004D6F6465206973206E6F742073657420746F20302C206D6F64652069732025640D0A000042313A2025642C2042333A20256420646F6E652025780D0A0000000018
:4036C0004D6F6465206973206E6F742073657420746F20312C206D6F64652069732025640D0A00000A53656E64696E6720446174612E2E2E200D0A0000300F400008004077
:403700000F400008806F8403860D870F01010510070209180B040D160F08170119181B021D0E231E2A01331E360137013F40540F580459045B045C115D105F058201830FFF
:40374000859487608A048C208DFD8F029038913093C99408959E9610976098089A109D739E38A038A5CFA602A730AA20AE40B004B1FFB201B402B678BF01D804D904DC019F
:40378000DF010440068007040E050F90100814801618174018011C4C1D811E2522082312274029012E082F20300832803320348035013688380539403B103C083D403E01B4
:4037C0003F804808491059105A485B0261247A808E80C0D0C2F0C4F2CA41CCDECEDFD60FD806DE01E410031C052009010F0111201520179019201FC42303252027483301E7
:40380000350237FC3F044036410149FF4AFF4BFF4DA04F015018528059045A045B045C105D115F016040628064406540668068406A806C406D206E80801482288430860C8F
:4038400088288A148E029002980C9A309C3CA01DA801AC01B002B401B63CB820BE11C032C101C54EC6C0C732C83BC9FFCAFFCBFFCDAFCE07CF01D018D804DA04DB04DC015C
:40388000DD01DF01E040E280E440E540E680E840EA80EC40ED20EE80008002480320050106400A85100A1280180419401A411B502411251426802FA0354136183C013D20F0
:4038C0003E84401441804584484049044F20500B51205202588059105B0476808D108F049204964899019D04A004A180A218A408A520A680A760B210B704C00FC20BC40B4A
:40390000CAC0CCF0CEF0D05ED220D60EEC3000070304060F0D010E10100B11041204180C1A022102280C2A012C082E01301031023304340F35013F04405149FF4AFF4BFFD7
:403940004F0150185604580459045A045B045C215D035F016040624064406540668068806A806C806E808204850787B88DFF8E01900291CB92019334940395E2971D980354
:4039800099409D3F9F40A001A340A5D1A72EA802AE02B1FFB607BF01C043C9FFCAFFCBFFCD83CE03CF01D018D280D804D904DA04DB04DC01DD33DF01E040E240E440E540C6
:4039C000E680E880EA80EC80EE8000880280054007400A440E480FA010011208148216081A841B301D401F8022142380274028402FA0310234833501369C38823C083E085B
:403A00003F804202466048015A205B80634074017640844087409002920196889901A04CA180A29AA340A7A0B480C09DC27AC4D3CAC1CCF1CE59D0C8D208D60CD801030192
:403A40000F0137013F40404545EC46224720482F49FF4AFF4BFF4D834E034F0150185401560459045A045B045D335F016040624064406540668068806A806C806E80820275
:403A80008C01900293029D019E02A301A801AD01B001B102B501B602B802BE40BF10D40FD804D904DB04DC11DD10DF0101020202080109800A801008194321022210264039
:403AC00028012901318032023C023F8046404F8556225740580859405A215E805F0567808740928198089A409E22A009A180A202A502A840B008B280C009C209C402CA0963
:403B0000CC09CE90D080D210D6DFD880008004800D086B026F028D08C0C0C220DAC09F02A702B040B44008200D08842087029F02A702C260E410E6408702A702A908E21098
:403B4000E8800140041007208D408F20C007E202E608B410EA08010E1002120E04000F403B300F4032310F4059320F403B330F405E340F403A350F4037360F4030370F40EE
:403B800009400F4004410F4009420F4005430F4008450F4002460F4003600F40030405060708090A0B0C0E0F101112131415161718191B1C1D1E1F202122232526272829B4
:403BC0002A2B2E2F3031323334350000EEDBC9B9AA9B8E82766B60564D443B332C241D17100A040000000000080088000000000001000000080088000000000002000000E9
:403C0000080088000000000003000000080088000000000004000000080088000000000005000000080088000000000006000000080088000000000007000000080088000B
:403C4000000000000000000028000000F9FF1F000000008A0100000028000000F9FF1F000000208A0200000028000000F9FF1F000000408A0300000028000000F9FF1F0044
:403C80000000608A0400000028000000F9FF1F000000808A0500000028000000F9FF1F000000A08A0600000028000000F9FF1F000000C08A0700000028000000F9FF1F008A
:403CC0000000000A0800000028000000F9FF1F000000200A0900000028000000F9FF1F000000400A0A00000028000000F9FF1F000000600A0B00000028000000F9FF1F00BA
:403D00000000800A0C00000028000000F9FF1F000000A00A0D00000028000000F9FF1F000000C00A0E0000000000000000000000000000000F0000000000000000000000D1
:403D4000000000004C2700000C2600000C2600000A2600002427000024270000162700000A2600002427000016270000242700000A2600002C2700002C2700002C2700003D
:403D80002C2900004300232D302B2000686C4C006566674546470030313233343536373839414243444546003031323334353637383961626364656600000000F8B5C046C5
:403DC000F8BC08BC9E4670474D030000050F0000F8B5C046F8BC08BC9E46704725030000F03D0000C0000020980000006001000000000000010000008000000007000200CE
:403E000001000101B8020020010000000000204E409C000028000000005A6202F0000000040404000000000000000000000000000000000000000000000000000000000078
:403E400000000000843D0000000000000000000000000000000000000000000000000000000000000000000000000000000000000000000000000000000000000000000081
:403E800000000000F40000200000000000000000000000000000000000000000000000000000000000000000000000000000000000000000000000000000000000000000EE
:403EC00000000000000000000000000000000000000000000000000000000000000000000000000000000000000000000000000000000000000000000000000000000000C2
:403F00000000000000000000000000000000000000000000000000000000000000000000000000000000000000000000000000000000000000000000000000000000000081
:403F40000000000000000000000000000000000000000000000000000000000000000000000000000000000000000000000000000000000000000000000000000000000041
:403F80000000000000000000000000000000000000000000000000000000000000000000000000000000000000000000000000000000000000000000000000000000000001
:020000040003F7
:0200000490303A
:020000007C2D55
:0200000490402A
:4000000000000000000000000000000000000000000000000000000000000000000000000000000000000000000000000000000000000000000000000000000000000000C0
:400040000000000000000000000000000000000000000000000000000000000000000000000000000000000000000000000000000000000000000000000000000000000080
:0200000490501A
:0C0000000002101111A0000110248DCD91
:0200000490600A
:0100000001FE
:00000001FF