:400000000080002011000000350300003503000010B500F097F9C04670B5134C12232360182000F0BDFD114A114B1A60E0221201104B1A60104A114B1A6080221206104BD6
:400040001A6000250F4B1D6040220F4B1A600F49082000F0CDFC082000F0B4FC0C4B1D601123236070BDC046300010400600008004010B400003014040FF0080000001407B
:4000800008010B4000010B40080101401D0E00000C020B4010B572B600240FE019486200131959000B00411889881A5AC31858880004104300F038F90134E4B2012CEDD9B0
:4000C000EE221202104B1A60EE22104B1A6099231B040F4A13600F4A13600F4A117806230B43DBB21370D82212010C4B1A6003220B4B1A6021320B4B1A60FFF78DFF00F0DE
:4001000003F910BDFC120000000302400004024050500F4070500F4000700F4008030440000404400804044010B5064C2378002B07D1054B002B02D0044800E000BF0123A8
:40014000237010BD4801002000000000DC120000084B10B5002B03D00749084800E000BF07480368002B00D110BD064B002BFBD09847F9E7000000004C010020DC1200008F
:40018000C00000200000000070B564220121092000F048FAC0B2002811D100250024022C00D10125164961186422280000F0ECFAC0B20134E4B2002801D1022CEFD900289C
:4001C00001D0082812D1642000F08EFA00280FD10B4B1B78012B0DD1094B9B78172B0BD1074B5B78002B09D0FF3008E0FF2006E0FF2004E0FF2002E0FF2000E0002070BD0A
:40020000BC0100201D4B01221A7016321A71062833D880001A4B1B589F46184BFF225A70FE3A9A700022DA7027E0144B00225A70FF219970DA7020E0104B00225A709A7071
:40024000FF32DA7019E00D4B00225A7077329A70DA7012E0094B7F225A7000219970DA700BE0064B7F225A709A700022DA7004E0024B7F225A709A70DA707047B40100200B
:40028000E012000010B5FFF7BDFF64220021092000F0C8F900280DD100240E4B185D642100F04EFAC0B20134E4B2002803D1042CF3D900E00020002801D0082806D16420E6
:4002C00000F012FA002803D0FF2002E0FF2000E0002010BDB401002010B562B600F092F800242000FFF7CEFF0028FAD1FFF74CFF002804D10134E4B2062C00D90024FA20A2
:40030000400000F0ADFBECE70323044A1360044A13600022034B1A607047C0463000304030003140000E3F4010B50A00002100F0CDFF10BD10B500F09DFF03680C2B00D1B8
:40034000FEE7FEE770B50F4E0F4D13E029686B68AC68002202E001C901C30432A242FAD1E868002202E0002102C304328242FAD11035013E002EE9D100F082FFFFF7ACFF76
:40038000FEE7C046010000007813000010B50E4A136801218B43136000230AE0032B03D89A000A49505800E009489900094A885001332F2BF2D9FFF76DFE034A1168012387
:4003C0000B43136010BDC0460000104000000000350300000000002010B5092000F0F2FA10BDC04610B500F01DF810BD10B5044A1368802109060B431360FFF7EDFF10BDDF
:400400000000244010B5064B1B78002B04D1FFF7E9FF0122024B1A70FFF7E8FF10BDC0466401002010B50024184B1C60184A194B1A60194B194A1360194A1460194A1460B2
:40044000194A1360194B1C60092000F0C5FA0321092000F0DFFA1649092000F0C9FA154B1C60154B1C60154B1C60154B1C60154B1C60154B1C601022144B1A70144B1C805F
:40048000144B1C60144B1C6010BDC046000024407708008060002440070100800003244004032440100324400002244004022440E10E0000C80E2440880E2440480F24400D
:4004C000080F2440C80F2440880F2440BF010020CC010020C8010020D801002010B50E4A13685B005B08136000230C490B600C490B600C4804680C49214001600B490B609A
:400500000B490B6010210B4B19701368802109060B43136010BDC04600002440680024406C00244060002440FF5CFFFF880F2440C80F2440BF01002010B504000368002B9B
:4005400009D0012000F022FB2368013B2360002B03D0002003E0002001E08020000610BD10B5002839DBC023034208D00022284B1A601032274B1A70002310243DE0C30729
:400580000FD5244B1B781B072BD5234B1B685B0001D5002300E0012310211E4A117001242BE0C30520D4830722D4C30605D51022184B1A70002300241FE0164B1B781B0746
:4005C00019D5144B1B78DB0701D5252200E02422104B1A70002300240FE00123802424060BE00123012408E001238024640004E00023022401E000230024012B02D1FFF757
:400600006DFF02E0054A064B1A60200010BDC04668002440BF0100206000244017030000000F244070B582B004000D001600244B1B78102B40D1092000F0CEF9214B1B68C7
:40064000DB0734D4FA239B005E43019600221E4B1A601E4A1E4B1A601E4A1F4B1A606400FF231C40002D03D12422154B1A7004E02522134B1A7001231C43184B1C60022258
:40068000174B1A60124B1C680823FF3320001840144B1B68C02423401843040001A8FFF74BFF2043EED0FFF75BFF040000E00824092000F087F900E00424200002B070BD16
:4006C000BF01002064002440080F244017030000000F2440ED0F0000C00F24404002244068002440400F244010B582B0104B1B789B061AD5FA239B00584301900D4B1B68C2
:400700009B0601D5182200E010220B4B1A600B4B18681223FF331840040001A8FFF70CFF2043F4D0FFF71CFF00E0042002B010BDBF0100206400244068002440000F244041
:4007400010B582B00D4B1B789B0613D5FA239B00594301910A4B18600A4B18680823FF331840040001A8FFF7E7FE2043F4D0FFF7F7FE00E0042002B010BDC046BF010020CE
:4007800040022440000F2440F0B583B004000D00164B1B789B0626D5FA239B005A430192134B18680223FF3318400700114B1B6804261E4001A8FFF7BFFE38433300034374
:4007C000EED0002E05D00C4B1B682B700B4A094B1A60FFF7C5FE002806D1002C04D10422074B1A6000E0042003B0F0BDBF010020000F2440C00F244040032440ED0F000068
:4008000068002440024A1168024B0B401360704700002240FFFFFFBF034B18688023DB05184000D0012070470000224030B52D4B1A783F231340042B01D9012000E00020C6
:4008400000230AE0284A12683F210A402749C95C8A4201D1033303E001332D2BF2D9032323490A680124A2430A60224A126822490A6000280FD021490D681F4C65601F24A6
:40088000A2431F4C247822431A4C22601D4A1278D2B20A6005E01F218A4317390A4315490A60302B0BD1002803D0174B1B78DBB202E0164B1B78DBB2154A13600CE0182BB1
:4008C0000AD1002803D0134B1B78DBB202E0124B1B78DBB20E4A1360104A116802230B43136030BD00F3FF0F2CFF0B400813000050000C4034FF0B406C01002020FF0B4031
:40090000C0F1FF0FC1F1FF0FC3F1FF0F3FF3FF0F28FF0B40C2F1FF0F3EF3FF0F24002C4030B51A4B1A783F231340042B01D9012000E0002000230AE0154A12683F210A40E9
:400940001449C95C8A4201D1033303E001332D2BF2D9032310490A680224A2430A600F4C21681F2291430E4D2D682A400A432260002803D00A4A51680A4A11600A4A944664
:4009800063441B78DBB2094A136030BD00F3FF0F2CFF0B400813000024002C4034FF0B406C01002020FF0B404DF3FF0F28FF0B40034B1B680220184000D001207047C0466D
:4009C00024002C401F2318401E3B8340014A13607047C04600E100E01F2318401E3B8340014A13607047C04680E100E001BE704770B504000D001F2802D90020FFF7F6FF2A
:400A00001034A40080239B059C4664442068256070BDC04670B504000E00032902D90020FFF7E4FF1F2C02D90020FFF7DFFF03252540ED00063500F04CFAA408A400074BE3
:400A40009C46644421680323AB4099430B003100A9401943216000F040FA70BD00E400E010B5040006E0084B586800F029FA074B9C46644480231B029C42F4D8024B9868F1
:400A8000604300F01DFA10BDC40000200080FFFF30B583B000F06CF900285FD000F019FA04002F4A116801230B43136000230AE02C4A12683F210A402B49C95C8A4201D1DD
:400AC000033303E001332D2BF2D90323274A1268D20606D1254802681F218A4313390A430260234A1168234A0A40234959438020C00184466144C90B01394905490D0A4373
:400B0000A021490311430800192B02D81B4B1A430EE01B4A9A1812781A3B1349C9183023CB5CD318FF2B00D9FF239B0502001A430F4B1A60134D2B680193302000F070FBBB
:400B4000114A13688021C9050B4313601420FFF787FF019B2B60200000F0BFF903B030BD50000C402CFF0B400813000034FF0B400800224000F800C040420F000000D43FBF
:400B80004DF3FF0F300010400000224010B5034B1B7B584300F094F910BDC046C4000020F0B55F4656464D464446F0B483B0040000F08FF90190FFF72FFE002804D0FFF791
:400BC00021FE01239A4601E000239A46FFF7F0FE002808D0182C01D0302C07D1FFF7A0FE01239B4604E000239B4601E000239B46E61E2D2E74D8464B1B78DBB29C4208D841
:400C0000444B1B78DBB29946434B1B78DBB2984631E0424B1B78DBB29C4208D8404B1B78DBB299463F4B1B78DBB2984623E03E4B1B78DBB29C4208D83C4B1B78DBB299461C
:400C40003B4B1B78DBB2984615E03A4B1B78DBB29C4208D8384B1B78DBB29946374B1B78DBB2984607E0364B1B78DBB29946354B1B78DBB29846344B9F5D2F2F09D92A2CA0
:400C800007D91922314B1A60052000F019F9192503E02E4B1D683F231D40BD4206D92A4B9A5D2A4B1A60052000F00AF9254B9C4664442378DBB2264A1360264B4A461A604D
:400CC000254B42461A600520FFF760FFBD420AD21D4B9A5D1D4B1A60052000F0F1F802E00020FFF783FE5346012B01D1FFF7D0FE5B46012B01D1FFF799FD019800F0EDF881
:400D000003B03CBC90469946A246AB46F0BDC04640F3FF0F41F3FF0F42F3FF0F43F3FF0F44F3FF0F45F3FF0F46F3FF0F47F3FF0F48F3FF0F49F3FF0F4AF3FF0F4BF3FF0F79
:400D40004CF3FF0F4DF3FF0F081300002CFF0B4028FF0B401CFF0B4020FF0B40034B1868C0231B02184000D00120704700010B40034B1B68002B01DA012000E0002070473C
:400D80000000224010B500F0A4F8044A1368C02109020B43136000F0A0F810BD00010B4010B500F096F808490A68084B1A408024E40122430A600A6813408022120213438D
:400DC0000B6000F08AF810BD00010B40FF3FFFFF70B5050000F07DF80400FFF7BFFF002803D0FFF7DDFF012100E0002108482840084A1568084B2B401843106013680129D5
:400E000001D1FFF7BFFF200000F067F870BDC0460404040010020B40FBFBFBFF10B5244B1B685B0715D5234B5B685B070ED5224B596A042001401F4C62688A4362605A6A9B
:400E400082435A629B69002B00D098470420FFF7BFFF174B1B685B0518D5164B5B685B0510D5154B596A8022D2001140114842688A434260596A114A0A405A62DB69002BB3
:400E800000D098478020C000FFF7A2FF084B1B685B030CD5074B5B685B0304D5064B1B6A002B00D098478020C002FFF791FF10BD10020B40D80000208C010020FFFBFFFFCC
:400EC0000230800803D00138FDD1C046C046C0467047EFF3108072B6704780F31088704710B5AF4B1B68002B00D09847AD4B1B68DB0702D50022AC4B1A60AC4B1B789B0674
:400F000028D5AB4B1B68DB0507D5AA4A1188C0239B000B431380012300E00023A44A1268D20706D5A34A118890239B000B4313800123002B0FD09D4A1278D20701D501222A
:400F400000E002229B49088802430A800021974A117000E00023954A1278920600D417E1934A1268D20611D51022934B1A608F4B1B78DB0701D5012300E002238D4A11887A
:400F80000B4313801022894B1A7007E1874A1278120720D5864A126892070AD50222864B1A60844A118888239B000B431380012311E07E4A1278D20703D525217B4A11700C
:400FC00009E02421794A11707C4A1268002A02D014397B4A1160754A1278520700D4AEE0724A1278D20749D5764A1268120727D5754A1268754909681F240C40744909680B
:401000006418141B082C09D8002C16D1714A1168714B0B401360012308340EE008240CE06B4A11686D48006841186D480068C0B20870116801311160013C002CF0D119E0DF
:40104000604A1268520715D5614A116863480068411863480068C0B208701168013111601168594A1268914203D204215D4A116000E001235C495D4A116060E04C4A1268D4
:40108000920726D502224C4B1A6059490B681D321A40096880231B020B4000D001239B18544A1168CB1A13601268534B1A60414A118884239B000B431380504B1A68802180
:4010C00049020A431A6019684D4A0A401A60012335E04C4A1268D2061ED427E0454A1168364A126891421DD2344A1268013A414909688A4204D1402243490A6030490A601A
:401100003C4A11684148006841180978C9B240480160116801311160354A12681F210A40082ADBD11021384A116008E0354A1268520604D52F4B1A682F4B1A600123002B8F
:401140002CD0244A1168244B0B4013600023314A13601B4A1360304B1B789B070ED5134B1B78DB0701D5092300E00A23114A11880B43138060220D4B1A700FE0274B1B68E4
:401180009B0601D5182200E01022164B1A6005E0064B1B78DB0601D4FFF7A0F910BDC046680100208C0E2440880E2440BF0100200C0F2440CC010020000F2440DC01002073
:4011C000880F2440CC0F2440D401002008032440C801002060002440FFFEFFFFD00100204003244068002440ED0F0000C00F244008022440C0010020D80100200402244064
:40120000FFFFFEFF8C0F2440800F2440E001002040022440C80F2440C40100206400244070B50400FFF755FE0500102C05D8104A136803218B43136016E0202C07D80C49F2
:401240000B6803229343023A13430B600CE0302C07D807490B6803229343013A13430B6002E00020FFF7C2FB2800FFF736FE70BD30001040014B18687047C0464001002084
:401280000E4B70B500251E000D4CE41AA410A54204D0AB00F35898470135F8E700F05AF8084B00251E00084CE41AA410A54204D0AB00F35898470135F8E770BD601300009A
:4012C00060130000601300006813000003008218934202D019700133FAE77047000000001A0200002A020000380200004602000054020000620200007002000000300F407F
:40130000000800400F400008030405060708090A0B0C0E0F101112131415161718191B1C1D1E1F2021222325262728292A2B2E2F3031323334350000EEDBC9B9AA9B8E827E
:40134000766B60564D443B332C241D17100A044300000000F8B5C046F8BC08BC9E467047510100008D030000F8B5C046F8BC08BC9E4670472901000088130000C0000020DF
:4013800088000000A000000000000000010000000000E02EC05D00001800000000366E01F00000000404040000000000000000000000000000000000000000000000000020
:4013C00000000000000000004F130000000000000000000000000000000000000000000000000000000000000000000000000000000000000000000000000000000000008B
:401400000000000000000000E000002000000000000000000000000000000000000000000000000000000000000000000000000000000000000000000000000000000000AC
:40144000000000000000000000000000000000000000000000000000000000000000000000000000000000000000000000000000000000000000000000000000000000006C
:40148000000000000000000000000000000000000000000000000000000000000000000000000000000000000000000000000000000000000000000000000000000000002C
:4014C00000000000000000000000000000000000000000000000000000000000000000000000000000000000000000000000000000000000000000000000000000000000EC
:4015000000000000000000000000000000000000000000000000000000000000000000000000000000000000000000000000000000000000000000000000000000000000AB
:020000040003F7
:0200000490303A
:0200000020FFDF
:0200000490402A
:4000000000000000000000000000000000000000000000000000000000000000000000000000000000000000000000000000000000000000000000000000000000000000C0
:400040000000000000000000000000000000000000000000000000000000000000000000000000000000000000000000000000000000000000000000000000000000000080
:0200000490501A
:0C0000000002101311A000011019329F23
:0200000490600A
:0100000001FE
:00000001FF