:400000000080002011000000C1050000C105000010B500F0F5FAC04670B51222244B1A60302000F005FD234C8025ED0525600022214B1A60214B224A1A602249224A116028
:40004000224A1A602249234A1160234A1A6080214900224A1160224A1A60E021C900214A1160214A1A60E0214901204A1160204A1A60822212061F4B1A601F4A1F4B1A603B
:40008000C0221F4B1A607C3A1E4B1A60033A1E4B1A6001321D4B1A6001321D4B1A601D49082000F0EDFB082000F0D4FB256070BD300010400C020B4000030140000001403A
:4000C00040FF0080007F1A0600050140C0FF0080003F9C001003014044FF00800403014041FF00800803014042FF00800C03014043FF008008010B404902060000010B4013
:4001000058010140500101402C010140280101400C010140AD0C000070B572B60122484B1A7000240FE047486200131959000B00411889881A5AC31858880004104300F0B3
:40014000FDF90134E4B2012CEDD93E490C313E48703000F0D9F93D4A3D4B1A60C022D2043C4B1A6099223C4B1A60EE2212023B4B1A60E022D2023A4B1A600820394B186004
:4001800099231B04384A1360384A136080218905374A1160374A1360374A1360374A136080218904364A1160364A1360364A374B1A600121364B1960364B1960364C2378BC
:4001C0003C22934314221343DBB22370334A147816232343DBB213700223314A1360314C314A14604022314C2260314D314C2560314C22603224314A1460314C314A146057
:40020000314A1360D8221201304B1A601F22304B1A60304A304B1A601022304B1A60304B18608022D2002F4B1A602F4B196036222E4B1A60FFF7F0FE00F096F970BDC046D3
:400240001C700F4098270000982A0000AA00000800000240000102400002024000030240000402400007024000500F4010500F4018500F4020500F4040500F4050500F4041
:4002800058500F4070500F400404004458360F402000104000800F4001700F4000700F4000000440310004000800044000010440890D0000080104401801044000020440C1
:4002C00031200100080204401802044008030440000404409204000008040440180404400005044008050440000704400807044010B5064C2378002B07D1054B002B02D0E9
:40030000044800E000BF0123237010BD5801002000000000A0260000084B10B5002B03D00749084800E000BF07480368002B00D110BD064B002BFBD09847F9E70000000031
:400340005C010020A0260000C000002000000000802252010F4B1A600F4B1A680F4B1B881A4208D05B08DBB20C4A93700C4A116801230B431360084B1A68084B9B881A42E0
:4003800007D00222054B9A70064A116801230B431360704700002F4008002F40C4000020A0002F40C0002F4070B501F053FB040001F050FB0F2808D880000F4B1B589F468E
:4003C00016220E4B5A60062100E000210C4B1A888A401A809A888A409A809B79002B0AD0064B5B68074D22000749280001F034FD280001F023FB70BDA42600007401002027
:40040000C4000020EC010020E42600008002044B5B685B01184302231843024B18607047740100202002002070B501F0DFF8040000F084FE00F092FE00F01EFD00F0EAFCDF
:40044000074B9B79002B0AD001F082FA054D22000549280001F000FD280001F0EFFA70BDC4000020EC0100200C27000010B50C4C1223237001F0EEFA60700A4801F02CF983
:40048000094B9B79002B0AD0054B1A785B78074C0749200001F0E0FC200001F0CFFA10BD4002002020020020C4000020EC0100207427000010B5FFF777FF0F4C0823A371E8
:4004C0000120FFF7A3FF00236371E3710B4AE26023710B491D2000F0D3F962B6FFF7A4FF084B1B78002BFBD1FFF7C0FFFA20800000F0FEF9F4E7C046200200204002002037
:400500005103000074010020F0B50025002711E0BB00C658F3B2FF22964308E06A008A181478A419527822700135013BDBB2002BF4D101370D2FEBD9F0BDC04610B50A0036
:40054000002101F080FC10BD064B1B68002803D080221206134301E05B005B08014A13607047C04680033A4010B530230C4A13600C4A13602D3B0C4A13600C4A13608022E4
:4005800012060B4B1A60C0231B030A4A13600A4A13600022094B1A600120FFF7D5FF10BD0421024008210240300030403000314000003A4000033A4040033A40000E3F40C8
:4005C00010B501F00BFC03680C2B00D1FEE7FEE710B50300084A1068C318084A9A1A802A02DC054A136005E001F0F8FB0C2303600120404210BDC046D00000206002002001
:4006000070B50F4E0F4D13E029686B68AC68002202E001C901C30432A242FAD1E868002202E0002102C304328242FAD11035013E002EE9D101F0D8FBFFF73CFFFEE7C046AF
:4006400001000000882D000010B50E4A136801218B43136000230AE0032B03D89A000A49505800E009489900094A885001332F2BF2D9FFF751FD034A116801230B431360E1
:4006800010BDC0460000104000000000C105000000000020024A1168024B0B401360704700002240FFFFFFBF034B18688023DB05184000D0012070470000224030B52D4B7C
:4006C0001A783F231340042B01D9012000E0002000230AE0284A12683F210A402749C95C8A4201D1033303E001332D2BF2D9032323490A680124A2430A60224A126822497A
:400700000A6000280FD021490D681F4C65601F24A2431F4C247822431A4C22601D4A1278D2B20A6005E01F218A4317390A4315490A60302B0BD1002803D0174B1B78DBB2D3
:4007400002E0164B1B78DBB2154A13600CE0182B0AD1002803D0134B1B78DBB202E0124B1B78DBB20E4A1360104A116802230B43136030BD00F3FF0F2CFF0B40402B00000F
:4007800050000C4034FF0B408C01002020FF0B40C0F1FF0FC1F1FF0FC3F1FF0F3FF3FF0F28FF0B40C2F1FF0F3EF3FF0F24002C4030B51A4B1A783F231340042B01D90120CA
:4007C00000E0002000230AE0154A12683F210A401449C95C8A4201D1033303E001332D2BF2D9032310490A680224A2430A600F4C21681F2291430E4D2D682A400A43226051
:40080000002803D00A4A51680A4A11600A4A944663441B78DBB2094A136030BD00F3FF0F2CFF0B40402B000024002C4034FF0B408C01002020FF0B404DF3FF0F28FF0B407C
:40084000034B1B680220184000D001207047C04624002C401F2318401E3B8340014A13607047C04600E100E01F2318401E3B8340014A13607047C04680E100E001BE704715
:4008800070B504000D001F2802D90020FFF7F6FF1034A40080239B059C4664442068256070BDC04670B504000E00032902D90020FFF7E4FF1F2C02D90020FFF7DFFF032567
:4008C0002540ED00063501F0D4F8A408A400074B9C46644421680323AB4099430B003100A9401943216001F0C8F870BD00E400E010B5040006E0084B586801F0B1F8074BBA
:400900009C46644480231B029C42F4D8024B9868604301F0A5F810BDD40000200080FFFF30B583B000F06CF900285FD001F0A1F804002F4A116801230B43136000230AE0D0
:400940002C4A12683F210A402B49C95C8A4201D1033303E001332D2BF2D90323274A1268D20606D1254802681F218A4313390A430260234A1168234A0A4023495943802052
:40098000C00184466144C90B01394905490D0A43A021490311430800192B02D81B4B1A430EE01B4A9A1812781A3B1349C9183023CB5CD318FF2B00D9FF239B0502001A4314
:4009C0000F4B1A60134D2B680193302001F058F8114A13688021C9050B4313601420FFF787FF019B2B60200001F047F803B030BD50000C402CFF0B40402B000034FF0B4043
:400A00000800224000F800C040420F000000D43F4DF3FF0F300010400000224010B5034B1B7B584301F01CF810BDC046D4000020F0B55F4656464D464446F0B483B00400D2
:400A400001F017F80190FFF72FFE002804D0FFF721FE01239A4601E000239A46FFF7F0FE002808D0182C01D0302C07D1FFF7A0FE01239B4604E000239B4601E000239B4636
:400A8000E61E2D2E74D8464B1B78DBB29C4208D8444B1B78DBB29946434B1B78DBB2984631E0424B1B78DBB29C4208D8404B1B78DBB299463F4B1B78DBB2984623E03E4BE8
:400AC0001B78DBB29C4208D83C4B1B78DBB299463B4B1B78DBB2984615E03A4B1B78DBB29C4208D8384B1B78DBB29946374B1B78DBB2984607E0364B1B78DBB29946354BCD
:400B00001B78DBB29846344B9F5D2F2F09D92A2C07D91922314B1A60052000F0A1FF192503E02E4B1D683F231D40BD4206D92A4B9A5D2A4B1A60052000F092FF254B9C46D1
:400B400064442378DBB2264A1360264B4A461A60254B42461A600520FFF760FFBD420AD21D4B9A5D1D4B1A60052000F079FF02E00020FFF783FE5346012B01D1FFF7D0FEDE
:400B80005B46012B01D1FFF799FD019800F075FF03B03CBC90469946A246AB46F0BDC04640F3FF0F41F3FF0F42F3FF0F43F3FF0F44F3FF0F45F3FF0F46F3FF0F47F3FF0FFD
:400BC00048F3FF0F49F3FF0F4AF3FF0F4BF3FF0F4CF3FF0F4DF3FF0F402B00002CFF0B4028FF0B401CFF0B4020FF0B40034B1868C0231B02184000D00120704700010B40F3
:400C0000034B1B68002B01DA012000E0002070470000224010B500F02CFF044A1368C02109020B43136000F028FF10BD00010B4010B500F01EFF08490A68084B1A40802437
:400C4000E40122430A600A6813408022120213430B6000F012FF10BD00010B40FF3FFFFF70B5050000F005FF0400FFF7BFFF002803D0FFF7DDFF012100E0002108482840B0
:400C8000084A1568084B2B40184310601368012901D1FFF7BFFF200000F0EFFE70BDC0460404040010020B40FBFBFBFF10B5244B1B685B0715D5234B5B685B070ED5224B42
:400CC000596A042001401F4C62688A4362605A6A82435A629B69002B00D098470420FFF7BFFF174B1B685B0518D5164B5B685B0510D5154B596A8022D20011401148426887
:400D00008A434260596A114A0A405A62DB69002B00D098478020C000FFF7A2FF084B1B685B030CD5074B5B685B0304D5064B1B6A002B00D098478020C002FFF791FF10BD45
:400D400010020B40E8000020AC010020FFFBFFFF0004000C014B18607047C046080120400004000C014B18607047C046140120400004000C014B18607047C0460C0120404B
:400D800070B504000D0000F074FEAC40024B1C6000F073FE70BDC0460800204010B500F068FE064A116801230B43136000F065FE18210120FFF7E4FF10BDC0460000204068
:400DC000014B18607047C0463801204010B50E4C8023DB042360236823600020FFF7B8FF236823600C22094B1A600120FFF7E8FF3122074B1A60FA24A4002000FFF7B0FF2C
:400E00002000FFF7B5FF10BD00012040240120402801204010B5064B1B78002B04D1FFF7D5FF0122024B1A70FFF7B8FF10BDC046D4010020024B18780F2318407047C046A6
:400E400062000F40014B18707047C04682000F4010B50F20FFF7F6FFFFF7ECFF00F009FE044A117810230B43DBB2137000F005FE10BDC04692000F4010B500F075F88020D7
:400E8000000200F023F8054B1B78002B02D10122024B1A70FFF7DCFF10BDC046D5010020034A117880235B420B43DBB21370704774000F40014B18707047C04686000F405C
:400EC000014B1878C0B2704766000F40014B18807047C04608100F40014B188880B2704788100F40014B18807047C04648100F40014B18807047C04668100F4010B501E01E
:400F0000FFF7EAFFFFF7DCFF4306F9D410BDC04610B5134B1A7807218A431A701A7804398A431A70FFF7EAFF802424022000FFF7D9FF2000FFF7CAFF0020FFF7BBFFFFF782
:400F4000BFFF2000FFF7D4FF00F093FD054A117810230B43DBB2137000F08FFD10BDC04674000F4096000F4010B5064B1B78002B04D1FFF7CDFF0122024B1A70FFF790FF00
:400F800010BDC046D601002010B503211120FFF789FC42491120FFF773FC0322404B1A60404B1B68002B01DA3F4900E03F49404A13680B4313603F4A3F4B1A603F4A404B1C
:400FC0001A6000233F4A13603F4A40490A6040490A60404A116880204002014311603E490A6802430A603D4A13603D4A136001223C4B1A603C4A11683C4B0B40802189058F
:401000000B431360002445E03949A2005058DC239B0103400919097A0B4336498C4662441360C30707D52D490A680123A3401B041B0C13430B60A3002D4A9B589B0707D578
:4010400027490A680123A3401B041B0C13430B60A300274A9B589A0502D58020400001E080204001DB0504D463000021224A995203E063000021204A9952204B5843204BA1
:401080009C4660441F4900F0BDFD00B2A2001E4BD0500134012CB7D910BDC0467111000020003A4080033A40702010107020001000003A408C00008004003A400000FF0783
:4010C00018003A401C003A400200020010003A4014003A4000033A4040033A4028023A4038023A4018023A4030003A40FEFFFFDF882B000080003A404C02002010270000AF
:40110000E40C0000C81900005002002010B5094B1B68002B0CDB084B1B68002BFBDB054A1368802109060B4313600A20FFF776FC10BDC04600003A4008023A4010B5064B33
:401140001B78002B04D1FFF71FFF0122024B1A70FFF7DCFF10BDC046D7010020034A1368802149020B4313607047C04604003A40014B1A681A60704710023A40054B1A6825
:4011800001210A431A601B68194201D1012000E00020704704002F4010B50E4A0E4B1A60FFF7ECFF1D20FFF755FB0C4A116801230B431360F0231B0100E0013B002B03D0FA
:4011C000064A1268D207F8D5002B01D1012000E0002010BD0110000000002F4010002F4003B2002B0DDB094A1168094B0B400004034313601268074B1340984203D00120B8
:4012000002E0022000E000207047C04614002F40FFFF00800000FF7F002809D10C4B19680C4A0A401A601B68DB040CD501300DE0074B1A68802149010A431A601B680B42C3
:4012400003D1012002E0002000E000207047C04614002F40FFEFFFFF70B5841EE4B20D2C35D88C1EE4B2052C03D9002B31D1012931D1032A31D8904231D3914231D31C4DB6
:401280002C68240AE4B20F26B44320432E68194C3440000204432C602C686040F0242401204220D1002B00D002234901C9B29200D2B2114319430E4A1368EE2083430B43A3
:4012C00013601368034099420FD0ED380EE002200CE002200AE0022008E0022006E0022004E0022002E0012000E0002070BDC04614002F40FFF0FFFF002809D10B4B1A681C
:4013000010218A431A601B6819420BD001300CE0064B1A6810210A431A601B68194203D1012002E0002000E00020704714002F40002809D10B4B1A6801218A431A601B68BF
:4013400019420BD001300CE0064B1A6801210A431A601B68194203D1012002E0002000E00020704714002F40054B18601B681B041B0C984201D0012000E000207047C04635
:4013800004002F4010B503785B01204A944663441F4A41680A431A6003785B01634419681C4A11401C4A44682240914224D182681A6103785B0163441A6981688A421DD15F
:4013C000C2685A6103785B0163445A69C1688A4216D1012252429A6103785B0163449A6901320FD10022DA6103785B016344DB69002B09D0012008E0012006E0012004E06D
:40140000012002E0012000E0002010BDA0002F40800080007F007F007FFF7FFF10B503781B01104A944663440F4A41680A431A6003781B01634419680C4A11400C4A44684A
:40144000224091420AD182685A6003781B0163445A6883689A4203D0012002E0012000E0002010BD20002F4008008000F7007F00F7FF7FFF70B500240AE063001B199800CA
:40148000104B1818FFF7CAFF002805D10134E4B2072CF2D9002500E00125002D0BD00FE0230108486030C018FFF76CFF002806D10134E4B200E000240F2CF1D900E00125E3
:4014C000280070BD942B0000002809D10C4B19680C4A0A401A601B689B040CD501300DE0074B1A68802189010A431A601B680B4203D1012002E0002000E000207047C04679
:4015000014002F40FFDFFFFF10B580221206334B1A60334A136801218B431360C8231B0200E0013B002B03D02D4A1268D207F8D4002B49D01D20FFF797F92A491D20FFF715
:401540009FF903211D20FFF7ADF91320FFF748FE002819D1FFF760FE002817D1FFF7B4FF002815D10023012201210C30FFF774FE00280FD1FFF7C0FE00280DD1FFF7D8FEA0
:4015800000280BD001230AE0012308E0012306E0012304E0012302E0012300E00023002B14D1FFF767FF002812D10F48FFF7DCFE00280FD10A4B1A6807218A431A601B6860
:4015C000194209D0013008E0012006E0012004E0012002E0012000E0002010BD00042F4010002F40C51600000110000010B5084B1B78002B02D1FFF787FF00E00020002876
:4016000004D10122024B1A70FFF7C6FD10BDC046D801002070B580225201264B1A600125002443E0244B1B682B423BD06301234A944663441B689B0634D5AB042FD00D2C14
:4016400030D8A3001E4AD3589F4600F0FDF829E000F002F926E000F007F923E000F00CF920E000F011F91DE000F016F91AE000F01BF917E000F020F914E000F025F911E099
:4016800000F02AF90EE000F02FF90BE000F034F908E000F039F905E000F03EF902E0200000F0C4F86D00ADB20134E4B20F2CB9D970BDC04600002F4008002F40A0002F40B9
:4016C000F42C000010B5034B1B68DB0401D5FFF7A1FF10BD00002F40F8B54F464646C0B4040001200023984691E04C4B1B6832041A427AD12379002B01D1002701E0802795
:40170000BF036379002B07D12B01454A94466344226852055A6009E080235B031F432B013F4A944663442268D2005A60A379072B03D81B041F43B94603E080231B031F43EA
:40174000B946E379002B03D004234A461A43914600232AE0032B13D92801324A94466044026894465907CA1AD1003831FF228A4067469743E268D25C8A403A43026012E074
:401780002801274A94466044826894465907CA1AD1001831FF228A4067469743E268D25C8A403A4382600133DBB2A279934201D2072BCFD91D20FFF757F82B01184A944694
:4017C0006344194A4F4617431F60227A002A04D0196803220A431A6003E0196801220A431A601D20FFF736F800207600F6B2002807D00135EDB201E001260025072D00D870
:4018000073E7002806D043460133DBB298464346022BF1D90CBC90469946F8BD08002F4020002F402C002F40080080004001054B9C4660440368DB0703D50268012313432D
:4018400003607047A0002F40024A116801230B4313607047A0002F40024A116801230B4313607047C0002F40024A116801230B4313607047E0002F40024A116801230B4358
:401880001360704700012F40024A116801230B431360704720012F40024A116801230B431360704740012F40024A116801230B431360704760012F40024A116801230B4324
:4018C0001360704780012F40024A116801230B4313607047A0012F40024A116801230B4313607047C0012F40024A116801230B4313607047E0012F40024A116801230B43E4
:401900001360704700022F40024A116801230B431360704720022F40024A116801230B431360704740022F4010B500F075F810BD10B500F01DF810BD10B5044A1368802153
:4019400009060B431360FFF7EFFF10BD0000254010B5064B1B78002B04D1FFF7E9FF0122024B1A70FFF7E8FF10BDC046DA010020154A164B1A600023154A13601549164A68
:401980001160164A16490A6007201649086016490B6006381549086015490A60154A13600421154A1160154A1360154A1360154A1360154A1360154A1360154A13601268DC
:4019C000144B1A807047C0460B000002000025404000254001000A00480025400700008000032540040325401003254044002540000225400402254050002540880E254064
:401A0000C80E2540480F2540080F2540C80F2540880F2540DC01002005490B68F0229343603A13430B60034B1A88034B1A60704700020240DC010020880F254070B5050024
:401A4000002402E000F046F80134285D0028F9D170BDC046014B1878C0B2704763000F400230800803D00138FDD1C046C046C0467047EFF3108072B6704780F3108870472C
:401A800070B50400FFF7F5FF0500102C05D8104A136803218B43136016E0202C07D80C490B6803229343023A13430B600CE0302C07D807490B6803229343013A13430B60F9
:401AC00002E00020FEF7DAFE2800FFF7D6FF70BD30001040044B1B681F221340082BF9D0024B18607047C0460802254040022540002243088B4274D303098B425FD3030AE4
:401B00008B4244D3030B8B4228D3030C8B420DD3FF22090212BA030C8B4202D31212090265D0030B8B4219D300E0090AC30B8B4201D3CB03C01A5241830B8B4201D38B0301
:401B4000C01A5241430B8B4201D34B03C01A5241030B8B4201D30B03C01A5241C30A8B4201D3CB02C01A5241830A8B4201D38B02C01A5241430A8B4201D34B02C01A5241AC
:401B8000030A8B4201D30B02C01A5241CDD2C3098B4201D3CB01C01A524183098B4201D38B01C01A524143098B4201D34B01C01A524103098B4201D30B01C01A5241C308FB
:401BC0008B4201D3CB00C01A524183088B4201D38B00C01A524143088B4201D34B00C01A5241411A00D20146524110467047FFE701B5002000F0F0F802BDC0460029F7D0E7
:401C000076E7704703460B437FD4002243088B4274D303098B425FD3030A8B4244D3030B8B4228D3030C8B420DD3FF22090212BA030C8B4202D31212090265D0030B8B42AF
:401C400019D300E0090AC30B8B4201D3CB03C01A5241830B8B4201D38B03C01A5241430B8B4201D34B03C01A5241030B8B4201D30B03C01A5241C30A8B4201D3CB02C01AC8
:401C80005241830A8B4201D38B02C01A5241430A8B4201D34B02C01A5241030A8B4201D30B02C01A5241CDD2C3098B4201D3CB01C01A524183098B4201D38B01C01A52412E
:401CC00043098B4201D34B01C01A524103098B4201D30B01C01A5241C3088B4201D3CB00C01A524183088B4201D38B00C01A524143088B4201D34B00C01A5241411A00D27F
:401D000001465241104670475DE0CA0F00D04942031000D34042534000229C4603098B422DD3030A8B4212D3FC22890112BA030A8B420CD3890192118B4208D38901921185
:401D40008B4204D389013AD0921100E08909C3098B4201D3CB01C01A524183098B4201D38B01C01A524143098B4201D34B01C01A524103098B4201D30B01C01A5241C308B3
:401D80008B4201D3CB00C01A524183088B4201D38B00C01A5241D9D243088B4201D34B00C01A5241411A00D20146634652415B10104601D34042002B00D549427047634625
:401DC0005B1000D3404201B5002000F005F802BD0029F8D016E770477047C046014B18687047C046500100200E4B70B500251E000D4CE41AA410A54204D0AB00F3589847E9
:401E00000135F8E700F0AEFF084B00251E00084CE41AA410A54204D0AB00F35898470135F8E770BD702D0000702D0000702D0000782D0000002310B59A4203D0CC5CC4542F
:401E40000133F9E710BD03008218934202D019700133FAE7704700000EB410B59DB002A9029008610B48822488604861012040421FABC881084804CBA400006801938C8162
:401E800000F06EF80023029A13701DB010BC08BC03B01847FFFFFF7F50010020F0B58E6885B007000C00039201939E4243D890238A89DB001A423ED003250969236801985E
:401EC0005B1A029363695D43EB0F5D19029B6D1001331B18AB4200D91D00530510D52900380000F037FB061E14D0029A2169FFF7A1FFA289194B134080221343A38112E024
:401F00002A00380000F086FB061E0CD12169380000F0D4FA0C23402201203B60A38940421343A38117E0029B2661F61826606561019EED1AA560019BB34200D21E00320005
:401F40000399206800F0A5FA0020A3689B1BA36023689E19266005B0F0BDC0467FFBFFFFF0B59FB0029005938B890F0016001B0610D50B69002B0DD1402100F0EBFA38607A
:401F80003861002804D10C23029A01381360D8E040237B61002306AD6B6120336B761033AB7634002378002B03D1A31B049312D003E0252BF9D00134F4E7A31B32003900A9
:401FC0000298FFF76BFF431C00D1B4E06A69049B944663446B612378002B00D1ABE00122002352426A6002A95432521801342B60EB60AB601370AB65534E217805223000C9
:4020000000F03CFA002807D00123801B83402A68013413432B60EFE72B68DA0604D55322202102A8121811701A0704D553222B2102A81218117022782A2A03D0099B00208F
:402040000A210EE0059A111D12680591002A01DB099204E05242EA60022213432B6001340BE02278303A092A04D84B4301349B180120F6E7002800D0099323782E2B1ED1E4
:4020800063782A2B0AD1059B02341A1D1B680592002B01DA01235B42079310E000230A201A0001346B6021783039092904D84243013452180123F6E7002B00D00792234EFC
:4020C00021780322300000F0D9F9002806D04023801B83402A68013413432B60217806221B48661C297600F0C9F9002812D0194B002B06D10722059B0733934308330593B6
:4021000014E005AB00933A00134B2900029800E000BF07E005AB00933A000F4B2900029800F08AF80390039B013304D06B69039A9B186B6135E7BB890B985B0601D50120F7
:4021400040421FB0F0BDC0462E2D0000342D0000382D0000000000009D1E0000F7B5170001938A680B6900900C00934200DA130022003B6043321278002A01D001333B60DE
:4021800023689B0602D53B6802333B60062523681D401ED0230043331B785A1E9341226892061CD53020E1184331087021005A1C45310978A2184332023311700FE0220064
:4021C0000123193201990098089EB047431C0ED00135E3683A689B1A9D42F0DBDAE72200019943320098089DA847431C02D10120404220E006232068E1683A6803400025EB
:40220000042B03D18D1AEB43DB171D40A3682269934201DD9B1AED180027BD420AD0220001231A3201990098089EB047431CDED00137F2E70020FEBDF0B58BB006920A0098
:4022400043320793059004920A7E0C00109B6E2A00D1ABE011D8632A22D009D8002A00D1B5E0582A00D0C5E045310A70814A4FE0642A1DD0692A1BD0BCE0732A00D1AAE0AA
:4022800009D86F2A29D0702A00D0B3E0202209680A43226037E0752A1FD0782A33D0A9E00E001A684236111D196013683370A4E021681A68080606D4490604D5111D196046
:4022C0000023D55E02E0111D19601568002D3BDA2D23049A6D42137036E021681A68080606D4490604D51568111D1960ADB202E0111D196015685F4B227E039308276F2ABE
:402300001DD00A271BE022007821453211705A4A19680392081D226818600D68100602D4500600D5ADB2D30702D520231A4322601027002D03D1202322689A4322602300AB
:40234000002243331A7002E00A274A4B03936368A360002B09DB0422216891432160002D05D1049E002B11D07BE0002D79D0049E28003900FFF742FC039B013E5B5C2800A7
:4023800033703900FFF7B4FB051EF1D1082F09D12368DB0706D563682269934202DC3023013E3370049B9B1B23612BE009681A68080607D4490605D5111D19601368A28AE9
:4023C0001A8004E0111D1960136862691A600023049E236116E01A68111D1960166800216268300000F04AF8002801D0801B6060636803E0260042363270012323610023B8
:40240000049A1370079B09AA00932100069B0598FFF7A4FE431C02D10120404227E02369320006990598079DA847431CF4D0236800259B070FD4099BE068984217DA18000C
:4024400015E022000123193206990598079EB047431CE1D00135E368099A9B1A9D42F0DBE9E72600039B42361B7833708EE70BB0F0BDC0463F2D0000502D0000C9B2821848
:40248000904204D003788B4202D00130F8E70020704710B5884202D98B18984201D3002305E09B1A013A08D3995C8154FAE7934203D0CC5CC4540133F9E710BD70B5050049
:4024C000002944D00C1F2368002B00DAE418280000F0D8F81E4A13681100002B02D16360146031E0A3420DD92268A018834203D118685B688218226063600C6024E0A242AA
:4025000003D813005A68002AF9D11E689819A0420BD12168711858181960824214D110685268411819605A600EE0A04202D90C232B6009E021686018824203D11068526887
:402540004118216062605C60280000F09CF870BDE4010020032370B5CD1C9D43083506000C2D01D20C2501E0002D01DBA94202D90C23336048E0300000F084F8234B1C6869
:402580001A002100002913D00B685B1B0DD40B2B02D90B60CC181EE08C4202D1636813601AE04B6863600C0016E00C004968E9E7174C2368002B03D1300000F051F82060F8
:4025C0002900300000F04CF8431C18D00323C41C9C43A0420DD12560300000F054F8200007220B30231D9043C31A0ED05A42E2500BE0211A300000F033F8431CEBD10C2396
:402600003000336000F03FF8002070BDE4010020E0010020F8B506000C001500002904D11100FFF797FF040018E0002A03D1FFF745FF2C0012E000F027F885420ED92900B6
:402640003000FFF787FF071E07D021002A00FFF7F1FB21003000FFF731FF3C002000F8BD002370B5064C050008002360FDF7B0FF431C03D12368002B00D02B6070BDC046B9
:4026800058020020704770470B1F1A68101F002A04DA891804390B68D01804387047000000000000CA030000C0030000C0030000C0030000C0030000C0030000C0030000C4
:4026C000CA030000CA030000CA030000CA030000CA030000CA030000CA030000CA030000C003000043414E206469702073657474696E673A20202578204D65737361676566
:402700002049443A20256C780D0A000043414E5F537461727428293A202025750D0A000043414E5F53656E645F456E636F6465723A20627974655B30755D202578206279BA
:4027400074655B31755D2025780D0A0054656C656D657274793A20627974655B30755D20257820627974655B31755D2025780D0A000000004D6F64656C3A20627974655B0B
:4027800030755D20257820627974655B31755D2025780D0A0000000000300F40000800400F400008820F866F87030114030A04010804090A0B141118130619011A061D1E0A
:4027C0001E01230125062718290E2C012F013101320134023604371E3E443F01540F580459045B045C115D105F01810183028494866088308AC98CCF8E308F07930494739A
:4028000099019B029C9E9D079E60A0FDA202A308A507A904AE0FB0FFB10FB310BE01BF04D804D904DB04DC10DF01002001200321051007100A110B010C800D800F08114131
:402840001282154019011D101E22220A2440268029292C802D402E102F20328033213680371139403B013C203E0158825B285C405D095E208802C067C2C5C489CAF7CCBDBA
:40288000CEA9D6FF030105140708090C0C0611011403170719181C061D181F042005211C2508271031023207331C350138083F104024410549FF4AFF4BFF4DA04F01501817
:4028C0005280580459045A045B045C115D115F016040628064406540668068406A806C406D206E80830484018B089408980399019C039E0CA303B001B101B204B302B40802
:40290000B504B602B708B882BE11BF01C024C105C532C6C0C74EC83BC9FFCAFFCBFFCDAFCE07CF01D018D804D904DA04DC11DD01DF01E040E280E440E540E680E840EA80F6
:40294000EC40ED20EE80030105080A110E200F091101181019081A101C401D821E28200421202205279A29252B042E023285332035013711381239083F12404445224A02E3
:402980004E024F09561A70018B109101931096119D089F11A283A301A410A580A724AA08AF11B328B480C021C2E5C408CA83CC2FCEA7D0A5D218E020E80400040118020851
:4029C00003020804090E0A080C010D180E020F04100112021340140215101601170218081A041F202116230824042618271E28012A022F013010314032033301340C3520A7
:402A0000371E3A28540F580459045B045C115D105F05800B82048408860189028C0C8E02960FA101A807AC0CAE01B501B60FB702D604D804D904DB04DC31DF0101810320BA
:402A40000501074609080D0A0E441190172819801A011C201D0D1E041F2022502542272529022D012E402F20350437423B203D903E115AA05D205E0A5F80638066187D101E
:402A800083408D02910192109320960199209A189B8A9D049F01A205A410A720AD04AE01C0DDC274C463CAD1CCD0CEB4D6FCD861DE20E0406B10DA400380062062019F10C7
:402AC000C030D8400A200F408B409F10AA01AE20AF80C230E810EA20EC1083108E1092209F10E220020803400520078062018920C00FD802E204AA01B208B380B740EA089A
:402B0000EE05010A1002120A03000F4040320F402D330F4061340F403A350F4041360F403C370F4002400F4006410F400B420F4005430F4009450F4006460F4003600F4039
:402B4000030405060708090A0B0C0E0F101112131415161718191B1C1D1E1F2021222325262728292A2B2E2F3031323334350000EEDBC9B9AA9B8E82766B60564D443B332F
:402B80002C241D17100A04000000000000000000727300000000000008008800000000000100000008008800000000000200000008008800000000000300000000000000D8
:402BC000000000000400000000000000000000000500000000000000000000000600000000000000000000000700000000000000000000000000000028000000F9FF1F0080
:402C00000000008A0100000028000000F9FF1F000000208A0200000028000000F9FF1F000000408A0300000028000000F9FF1F000000608A0400000028000000F9FF1F00A6
:402C40000000808A0500000028000000F9FF1F000000A08A0600000028000000F9FF1F000000C08A0700000028000000F9FF1F000000000A0800000028000000F9FF1F00B6
:402C80000000200A0900000028000000F9FF1F000000400A0A00000028000000F9FF1F000000600A0B00000028000000F9FF1F000000800A0C00000028000000F9FF1F0086
:402CC0000000A00A0D00000028000000F9FF1F000000C00A0E0000000000000000000000000000000F0000000000000000000000000000004A1600005016000056160000C5
:402D00005C16000062160000681600006E160000741600007A16000080160000861600008C16000092160000981600004300232D302B2000686C4C00656667454647003001
:402D4000313233343536373839414243444546003031323334353637383961626364656600000000F8B5C046F8BC08BC9E4670471903000049060000F8B5C046F8BC08BC23
:402D80009E467047F1020000982D0000C00000209800000008010000000000008000FF00010001000700000060020020010000000000204E409C000028000000005A620204
:402DC000F00000000404040000000000000000000000000000000000000000000000000000000000000000002C2D000000000000000000000000000000000000000000007E
:402E000000000000000000000000000000000000000000000000000000000000000000000000000000000000F0000020000000000000000000000000000000000000000082
:402E40000000000000000000000000000000000000000000000000000000000000000000000000000000000000000000000000000000000000000000000000000000000052
:402E80000000000000000000000000000000000000000000000000000000000000000000000000000000000000000000000000000000000000000000000000000000000012
:402EC00000000000000000000000000000000000000000000000000000000000000000000000000000000000000000000000000000000000000000000000000000000000D2
:402F00000000000000000000000000000000000000000000000000000000000000000000000000000000000000000000000000000000000000000000000000000000000091
:020000040003F7
:0200000490303A
:02000000F3C546
:0200000490402A
:4000000000000000000000000000000000000000000000000000000000000000000000000000000000000000000000000000000000000000000000000000000000000000C0
:400040000000000000000000000000000000000000000000000000000000000000000000000000000000000000000000000000000000000000000000000000000000000080
:0200000490501A
:0C0000000002101111A00001101F056586
:0200000490600A
:0100000001FE
:00000001FF