:4000000000800020110000003D0800003D08000010B500F033FCC04670B51222244B1A60302000F043FE234C8025ED0525600022214B1A60214B224A1A6080225200214995
:400040000A60214919602148214908602149196021490A60214A1A60C0218900204A1160204A1A60E02149011F4A11601F4A1A60802212061E4B1A601E4A1F4B1A604222DE
:400080001E4B1A607E321E4B1A607F3A1D4B1A6002321D4B1A6001321C4B1A601C49082000F02CFD082000F013FD256070BDC046300010400C020B40000301400000014021
:4000C00040FF00800803014042FF0080007F1A0600050140C0FF00800403014041FF00800C03014043FF00801003014044FF008008010B404902060000010B405801014054
:4001000054010140500101402C0101400C010140290F000010B572B601223B4B1A7000240FE03A486200131959000B00411889881A5AC31858880004104300F079FB013473
:40014000E4B2012CEDD931490C3131480C3000F045FB304A304B1A609922304B1A60EE2212022F4B1A6008222E4B1A6099231B042D4A13602D4A13602D4A13602D4A136083
:400180002D4A13602D4A2E4B1A6003212D4B19602D4B19602D4803783C22934314221343DBB203702A4A107816230343DBB213700223284A13602848284A10600920284AB3
:4001C00010602930274A10602748284A1060284A1360D8221201274B1A604E22264B1A60264A274B1A60274B19601222264B1A60113A264B1A603532254B1A60FFF70CFFDD
:4002000000F006FB10BDC0461C700F40C8260000482B0000AA0000080000024000020240000302400007024010500F4020500F4040500F4050500F4070500F400404008421
:4002400058360F402000104000800F4001700F4000700F4000000440310004000800044008010440000204403120C10008020440180204400803044000040440900408009A
:40028000080404400006044008060440000704400807044010B5064C2378002B07D1054B002B02D0044800E000BF0123237010BD5801002000000000EC240000084B10B5A2
:4002C000002B03D00749084800E000BF07480368002B00D110BD064B002BFBD09847F9E7000000005C010020EC240000C00000200000000010B501F089FB084B1B78002B80
:4003000008D0074C02000749200001F0CBFC200001F05EFB0122014B5A7010BDC4000020EC0100200C25000010B580225201474B1A60474B1B78002B02D0464801F048FB2C
:40034000454B1B68424A52681A423BD0404B1B78002B02D0414801F03BFB3D4B1B895B013F4A944663449A68120E03D19A68120C37498A729A68120E022A0DD19968090C8C
:40038000384A51709968090A91709968D170D968090E1171002151719A68120E042A0DD19968090C304A51709968090A91709968D170D968090E11710021517119680122AF
:4003C0000A431A60244B1A68214B9B891A423BD01F4B1B78002B02D0244801F0F9FA244B1B885B011E4A944663449A68120E03D19A68120C16498A729A68120E022A0DD110
:400400009968090C174A51709968090A91709968D170D968090E1171002151719A68120E042A0DD19968090C0F4A51709968090A91709968D170D968090E117100215171FE
:40044000196801220A431A6010BDC04600002F40C40000202C25000008002F4040250000A0002F4084020020500200205025000074010020F0B583B001F0C2FA040001F013
:40048000BFFA062826D88000284B1B589F461022274B5A6000251EE01122254B5A60012519E01222224B5A60022514E01322204B5A6003250FE014221D4B5A6004250AE0BD
:4004C00015221B4B5A60052505E01622184B5A60062500E00025174B5A68AA405A609A89AA409A81AAB219895118198110480188521802801B78002B16D007000E4E4368A1
:4005000022000E49300001F0CDFB300001F060FA084B1B893A8800922A000949300001F0C1FB300001F054FA03B0F0BDF024000074010020C4000020EC010020602500004C
:40054000882500008002044B5B685B01184302231843024B18607047740100205802002070B501F0EBF8040000F0A0FE00F006FE00F08CFD074B1B78002B0AD001F0B2F9FA
:40058000054D22000549280001F08CFB280001F01FFA70BDC4000020EC010020B8250000F0B583B0144C1423237000F0BBFD607000F0B8FD80B2000AA0700023E370237137
:4005C0000E4801F0D1F80E4B1B78002B11D00A4B1D785E789F7800F0A5FD0A4C0190009733002A000849200001F05CFB200001F0EFF903B0F0BDC046780200205802002083
:40060000C4000020EC010020CC25000010B504000200FF32FF235B009A421AD800F040FE002C08DAC30706D4002000F03FFD604200F0DCFC0DE0002C08DD830706D4012078
:4006400000F034FD200000F0D1FC02E0002000F0CDFC10BD10B5094B1B78002B08D0084C1A220849200001F00BFB200001F0B0F9054B1868FFF7CAFF10BDC046C40000204D
:40068000EC010020642600007002002010B582B0444B04229A7100245C71DC71424ADA601C71002001F0A0F9FFF75AFF00F00CFE3E491D2000F022FA62B63D4800F024FD58
:4006C0003C4801F0CDF9FFF7D5FE0120FFF73AFF394B1C600020FFF799FF384B9B78002BFBD1364B1B7A012B3AD1354B5979002931D1344B9B7A002B20D1324B1B78002BB6
:400700000BD02F4B5A789B782F4C00912F49200001F0C8FA200001F05BF9294B01225A719B78DB0704D5264B5878FFF76FFF12E0234B58784042FFF769FF0CE0214B1B78F3
:40074000002B08D0204C17222149200001F098FA200001F03DF901231E4A5371184A5371174B5B791B4A527959424B4151424A411343124A1372134B5B78002BADD0114BF0
:400780001B78002B08D0104C14221349200001F077FA200001F01CF9FFF702FF0022094B5A709AE758020020780200202903000055060000F502000070020020740100209C
:4007C00084020020C4000020EC010020802600009C26000050020020B4260000F0B50025002711E0BB00C658F3B2FF22964308E06A008A181478A419527822700135013B49
:40080000DBB2002BF4D101370F2FEBD9F0BDC0460323044A1360044A13600022034B1A607047C0463000304030003140000E3F4010B50A00002101F02CFA10BD10B501F0A7
:40084000F3F903680C2B00D1FEE7FEE710B50300084A1068C318084A9A1A802A02DC054A136005E001F0E0F90C2303600120404210BDC046D40000209002002070B50F4EB3
:400880000F4D13E029686B68AC68002202E001C901C30432A242FAD1E868002202E0002102C304328242FAD11035013E002EE9D101F0C0F9FFF7EAFEFEE7C046010000001B
:4008C000982D000010B50E4A136801218B43136000230AE0032B03D89A000A49505800E009489900094A885001332F2BF2D9FFF711FC034A116801230B43136010BDC046BE
:4009000000001040000000003D08000000000020024A1168024B0B401360704700002240FFFFFFBF034B18688023DB05184000D0012070470000224030B52D4B1A783F2359
:400940001340042B01D9012000E0002000230AE0284A12683F210A402749C95C8A4201D1033303E001332D2BF2D9032323490A680124A2430A60224A126822490A60002859
:400980000FD021490D681F4C65601F24A2431F4C247822431A4C22601D4A1278D2B20A6005E01F218A4317390A4315490A60302B0BD1002803D0174B1B78DBB202E0164BA0
:4009C0001B78DBB2154A13600CE0182B0AD1002803D0134B1B78DBB202E0124B1B78DBB20E4A1360104A116802230B43136030BD00F3FF0F2CFF0B40942B000050000C40E0
:400A000034FF0B409001002020FF0B40C0F1FF0FC1F1FF0FC3F1FF0F3FF3FF0F28FF0B40C2F1FF0F3EF3FF0F24002C4030B51A4B1A783F231340042B01D9012000E00020DF
:400A400000230AE0154A12683F210A401449C95C8A4201D1033303E001332D2BF2D9032310490A680224A2430A600F4C21681F2291430E4D2D682A400A432260002803D0D3
:400A80000A4A51680A4A11600A4A944663441B78DBB2094A136030BD00F3FF0F2CFF0B40942B000024002C4034FF0B409001002020FF0B404DF3FF0F28FF0B40034B1B68CC
:400AC0000220184000D001207047C04624002C401F2318401E3B8340014A13607047C04600E100E01F2318401E3B8340014A13607047C04680E100E001BE704770B504003B
:400B00000D001F2802D90020FFF7F6FF1034A40080239B059C4664442068256070BDC04670B504000E00032902D90020FFF7E4FF1F2C02D90020FFF7DFFF03252540ED00BB
:400B4000063500F0A6FFA408A400074B9C46644421680323AB4099430B003100A9401943216000F09AFF70BD00E400E010B5040006E0084B586800F083FF074B9C46644477
:400B800080231B029C42F4D8024B9868604300F077FF10BDD80000200080FFFF30B583B000F06CF900285FD000F073FF04002F4A116801230B43136000230AE02C4A126834
:400BC0003F210A402B49C95C8A4201D1033303E001332D2BF2D90323274A1268D20606D1254802681F218A4313390A430260234A1168234A0A40234959438020C001844635
:400C00006144C90B01394905490D0A43A021490311430800192B02D81B4B1A430EE01B4A9A1812781A3B1349C9183023CB5CD318FF2B00D9FF239B0502001A430F4B1A6048
:400C4000134D2B680193302000F02AFF114A13688021C9050B4313601420FFF787FF019B2B60200000F019FF03B030BD50000C402CFF0B40942B000034FF0B400800224026
:400C800000F800C040420F000000D43F4DF3FF0F300010400000224010B5034B1B7B584300F0EEFE10BDC046D8000020F0B55F4656464D464446F0B483B0040000F0E9FE08
:400CC0000190FFF72FFE002804D0FFF721FE01239A4601E000239A46FFF7F0FE002808D0182C01D0302C07D1FFF7A0FE01239B4604E000239B4601E000239B46E61E2D2E55
:400D000074D8464B1B78DBB29C4208D8444B1B78DBB29946434B1B78DBB2984631E0424B1B78DBB29C4208D8404B1B78DBB299463F4B1B78DBB2984623E03E4B1B78DBB2A4
:400D40009C4208D83C4B1B78DBB299463B4B1B78DBB2984615E03A4B1B78DBB29C4208D8384B1B78DBB29946374B1B78DBB2984607E0364B1B78DBB29946354B1B78DBB24A
:400D80009846344B9F5D2F2F09D92A2C07D91922314B1A60052000F073FE192503E02E4B1D683F231D40BD4206D92A4B9A5D2A4B1A60052000F064FE254B9C46644423788A
:400DC000DBB2264A1360264B4A461A60254B42461A600520FFF760FFBD420AD21D4B9A5D1D4B1A60052000F04BFE02E00020FFF783FE5346012B01D1FFF7D0FE5B46012B01
:400E000001D1FFF799FD019800F047FE03B03CBC90469946A246AB46F0BDC04640F3FF0F41F3FF0F42F3FF0F43F3FF0F44F3FF0F45F3FF0F46F3FF0F47F3FF0F48F3FF0F2D
:400E400049F3FF0F4AF3FF0F4BF3FF0F4CF3FF0F4DF3FF0F942B00002CFF0B4028FF0B401CFF0B4020FF0B40034B1868C0231B02184000D00120704700010B40034B1B6894
:400E8000002B01DA012000E0002070470000224010B500F0FEFD044A1368C02109020B43136000F0FAFD10BD00010B4010B500F0F0FD08490A68084B1A408024E4012243CC
:400EC0000A600A6813408022120213430B6000F0E4FD10BD00010B40FF3FFFFF70B5050000F0D7FD0400FFF7BFFF002803D0FFF7DDFF012100E0002108482840084A156809
:400F0000084B2B40184310601368012901D1FFF7BFFF200000F0C1FD70BDC0460404040010020B40FBFBFBFF10B5244B1B685B0715D5234B5B685B070ED5224B596A0420D6
:400F400001401F4C62688A4362605A6A82435A629B69002B00D098470420FFF7BFFF174B1B685B0518D5164B5B685B0510D5154B596A8022D2001140114842688A4342607C
:400F8000596A114A0A405A62DB69002B00D098478020C000FFF7A2FF084B1B685B030CD5074B5B685B0304D5064B1B6A002B00D098478020C002FFF791FF10BD10020B40D5
:400FC000EC000020B0010020FFFBFFFF0004000C014B18607047C046080120400004000C014B18607047C046140120400004000C014B18607047C0460C01204070B50400F5
:401000000D0000F046FDAC40024B1C6000F045FD70BDC0460800204010B500F03AFD064A116801230B43136000F037FD18210120FFF7E4FF10BDC04600002040014B186006
:401040007047C0463801204010B50D4C8023DB042360236823600020FFF7B8FF236823600C22084B1A600120FFF7E8FF3122064B1A60FF20FFF7B2FF0020FFF7B7FF10BD98
:4010800000012040240120402801204010B5064B1B78002B04D1FFF7D7FF0122024B1A70FFF7BAFF10BDC046D801002004490A68D2B202239A434000184010430860704788
:4010C00000070440014B18647047C0460000002010B5040000F0DDFC044A1368C0218B43A4011C43146000F0D8FC10BD00E400E00122014B1A60704700E100E00122014B59
:401100001A60704780E100E010B50400FFF7F6FF2000FFF7D7FF0320FFF7DAFFFFF7E8FF10BDC04610B500F059F8024B9C46604400B210BD0080FFFF024B18780F231840BE
:401140007047C04667000F40014B18707047C04687000F4010B50F20FFF7F6FFFFF7ECFF00F097FC044A117810230B43DBB2137000F093FC10BDC04697000F4010B500F0FD
:401180007FF88020000200F023F8054B1B78002B02D10122024B1A70FFF7DCFF10BDC046D9010020034A117880235B420B43DBB21370704775000F40014B18707047C04612
:4011C00086000F40014B1878C0B2704766000F40014B18807047C04608100F40024B1B78024B188880B2704704000F4088100F40014B188880B2704788100F40014B1880C8
:401200007047C04648100F40014B18807047C04668100F4010B501E0FFF7EAFFFFF7D2FF4306F9D410BDC04610B5134B1A7807218A431A701A7804398A431A70FFF7EAFF74
:40124000802424022000FFF7D9FF2000FFF7C0FF0020FFF7B1FFFFF7B5FF2000FFF7D4FF00F017FC054A117810230B43DBB2137000F013FC10BDC04675000F4096000F40A1
:4012800010B5064B1B78002B04D1FFF7CDFF0122024B1A70FFF786FF10BDC046DA010020014B1878C0B2704764000F4010B500F0F0FB044A117810230B43DBB2137000F0D0
:4012C000ECFB10BD94000F40054B1A6801210A431A601B68194201D1012000E00020704704002F4010B50E4A0E4B1A60FFF7ECFF1D20FFF7EDFB0C4A116801230B43136001
:40130000F0231B0100E0013B002B03D0064A1268D207F8D5002B01D1012000E0002010BD0110000000002F4010002F4003B2002B0DDB094A1168094B0B400004034313601A
:401340001268074B1340984203D0012002E0022000E000207047C04614002F40FFFF00800000FF7F002809D10C4B19680C4A0A401A601B68DB040CD501300DE0074B1A6817
:40138000802149010A431A601B680B4203D1012002E0002000E000207047C04614002F40FFEFFFFF70B5841EE4B20D2C35D88C1EE4B2052C03D9002B31D1012931D1032A12
:4013C00031D8904231D3914231D31C4D2C68240AE4B20F26B44320432E68194C3440000204432C602C686040F0242401204220D1002B00D002234901C9B29200D2B2114394
:4014000019430E4A1368EE2083430B4313601368034099420FD0ED380EE002200CE002200AE0022008E0022006E0022004E0022002E0012000E0002070BDC04614002F4050
:40144000FFF0FFFF002809D10B4B1A6810218A431A601B6819420BD001300CE0064B1A6810210A431A601B68194203D1012002E0002000E00020704714002F40002809D17B
:401480000B4B1A6801218A431A601B6819420BD001300CE0064B1A6801210A431A601B68194203D1012002E0002000E00020704714002F40054B18601B681B041B0C9842DF
:4014C00001D0012000E000207047C04604002F4010B503785B01204A944663441F4A41680A431A6003785B01634419681C4A11401C4A44682240914224D182681A61037898
:401500005B0163441A6981688A421DD1C2685A6103785B0163445A69C1688A4216D1012252429A6103785B0163449A6901320FD10022DA6103785B016344DB69002B09D017
:40154000012008E0012006E0012004E0012002E0012000E0002010BDA0002F40800080007F007F007FFF7FFF10B503781B01104A944663440F4A41680A431A6003781B01C5
:40158000634419680C4A11400C4A4468224091420AD182685A6003781B0163445A6883689A4203D0012002E0012000E0002010BD20002F4008008000F7007F00F7FF7FFF1A
:4015C00070B500240AE063001B199800104B1818FFF7CAFF002805D10134E4B2072CF2D9002500E00125002D0BD00FE0230108486030C018FFF76CFF002806D10134E4B24F
:4016000000E000240F2CF1D900E00125280070BDDC2B0000002809D10C4B19680C4A0A401A601B689B040CD501300DE0074B1A68802189010A431A601B680B4203D101209F
:4016400002E0002000E000207047C04614002F40FFDFFFFF10B580221206344B1A60344A136801218B431360C8231B0200E0013B002B03D02E4A1268D207F8D4002B4AD07A
:401680001D20FFF72FFA2B491D20FFF737FA03211D20FFF745FA1320FFF748FE00281AD1FFF760FE002818D1FFF7B4FF002816D10023012201210C30FFF774FE002810D1AC
:4016C0000130FFF7BFFE00280DD1FFF7D7FE00280BD001230AE0012308E0012306E0012304E0012302E0012300E00023002B14D1FFF766FF002812D10F48FFF7DBFE002815
:401700000FD10B4B1A6807218A431A601B68194209D0013008E0012006E0012004E0012002E0012000E0002010BDC04600042F4010002F40651700000110000010B5084B18
:401740001B78002B02D1FFF785FF00E00020002804D10122024B1A70FFF7C4FD10BDC046DB0100207047C046F8B54F464646C0B4040001200023984691E04C4B1B683204FB
:401780001A427AD12379002B01D1002701E08027BF036379002B07D12B01454A94466344226852055A6009E080235B031F432B013F4A944663442268D2005A60A379072BDC
:4017C00003D81B041F43B94603E080231B031F43B946E379002B03D004234A461A43914600232AE0032B13D92801324A94466044026894465907CA1AD1003831FF228A402D
:4018000067469743E268D25C8A403A43026012E02801274A94466044826894465907CA1AD1001831FF228A4067469743E268D25C8A403A4382600133DBB2A279934201D23D
:40184000072BCFD91D20FFF74DF92B01184A94466344194A4F4617431F60227A002A04D0196803220A431A6003E0196801220A431A601D20FFF72CF900207600F6B2002822
:4018800007D00135EDB201E001260025072D00D873E7002806D043460133DBB298464346022BF1D90CBC90469946F8BD08002F4020002F402C002F400800800010B500F033
:4018C00075F810BD10B500F01DF810BD10B5044A1368802109060B431360FFF7EFFF10BD0000254010B5064B1B78002B04D1FFF7E9FF0122024B1A70FFF7E8FF10BDC046D1
:40190000DC010020154A164B1A600023154A13601549164A1160164A16490A6007201649086016490B6006381549086015490A60154A13600421154A1160154A1360154AA7
:401940001360154A1360154A1360154A1360154A13601268144B1A807047C0460B000002000025404000254001000A004800254007000080000325400403254010032540DA
:4019800044002540000225400402254050002540880E2540C80E2540480F2540080F2540C80F2540880F2540DE01002005490B68F0229343603A13430B60034B1A88034B10
:4019C0001A60704700020240DE010020880F254070B50500002402E000F08CF80134285D0028F9D170BDC04604490A687F231A40C301D8B2104308607047C046000204402D
:401A0000014B1878C0B2704763000F40014B1878C0B2704761000F40014B58647047C0460000002010B5040000F033F8044A1168044B0B40A4031C43146000F02EF810BDB3
:401A400000E400E0FF3FFFFF0222014B1A60704700E100E00222014B1A60704780E100E010B50400FFF7F6FF2000FFF7D5FF0320FFF7D8FFFFF7E8FF10BDC04600000000E4
:401A80000230800803D00138FDD1C046C046C0467047EFF3108072B6704780F31088704770B50400FFF7F5FF0500102C05D8104A136803218B43136016E0202C07D80C49D5
:401AC0000B6803229343023A13430B600CE0302C07D807490B6803229343013A13430B6002E00020FFF708F82800FFF7D6FF70BD30001040044B1B681F221340082BF9D0A0
:401B0000024B18607047C0460802254040022540002243088B4274D303098B425FD3030A8B4244D3030B8B4228D3030C8B420DD3FF22090212BA030C8B4202D31212090226
:401B400065D0030B8B4219D300E0090AC30B8B4201D3CB03C01A5241830B8B4201D38B03C01A5241430B8B4201D34B03C01A5241030B8B4201D30B03C01A5241C30A8B4234
:401B800001D3CB02C01A5241830A8B4201D38B02C01A5241430A8B4201D34B02C01A5241030A8B4201D30B02C01A5241CDD2C3098B4201D3CB01C01A524183098B4201D3AD
:401BC0008B01C01A524143098B4201D34B01C01A524103098B4201D30B01C01A5241C3088B4201D3CB00C01A524183088B4201D38B00C01A524143088B4201D34B00C01A47
:401C00005241411A00D20146524110467047FFE701B5002000F006F802BDC0460029F7D076E770477047C046014B18687047C046540100200E4B70B500251E000D4CE41AB7
:401C4000A410A54204D0AB00F35898470135F8E701F090F8084B00251E00084CE41AA410A54204D0AB00F35898470135F8E770BD802D0000802D0000802D0000882D000068
:401C8000002310B59A4203D0CC5CC4540133F9E710BD03008218934202D019700133FAE7704700000EB410B59DB002A9029008610B48822488604861012040421FABC88119
:401CC000084804CBA400006801938C8100F06EF80023029A13701DB010BC08BC03B01847FFFFFF7F54010020F0B58E6885B007000C00039201939E4243D890238A89DB0078
:401D00001A423ED003250969236801985B1A029363695D43EB0F5D19029B6D1001331B18AB4200D91D00530510D52900380000F037FB061E14D0029A2169FFF7A1FFA28982
:401D4000194B134080221343A38112E02A00380000F086FB061E0CD12169380000F0D4FA0C23402201203B60A38940421343A38117E0029B2661F61826606561019EED1ABA
:401D8000A560019BB34200D21E0032000399206800F0A5FA0020A3689B1BA36023689E19266005B0F0BDC0467FFBFFFFF0B59FB0029005938B890F0016001B0610D50B695B
:401DC000002B0DD1402100F0EBFA38603861002804D10C23029A01381360D8E040237B61002306AD6B6120336B761033AB7634002378002B03D1A31B049312D003E0252B96
:401E0000F9D00134F4E7A31B320039000298FFF76BFF431C00D1B4E06A69049B944663446B612378002B00D1ABE00122002352426A6002A95432521801342B60EB60AB60AC
:401E40001370AB65534E21780522300000F03CFA002807D00123801B83402A68013413432B60EFE72B68DA0604D55322202102A8121811701A0704D553222B2102A8121833
:401E8000117022782A2A03D0099B00200A210EE0059A111D12680591002A01DB099204E05242EA60022213432B6001340BE02278303A092A04D84B4301349B180120F6E717
:401EC000002800D0099323782E2B1ED163782A2B0AD1059B02341A1D1B680592002B01DA01235B42079310E000230A201A0001346B6021783039092904D84243013452184D
:401F00000123F6E7002B00D00792234E21780322300000F0D9F9002806D04023801B83402A68013413432B60217806221B48661C297600F0C9F9002812D0194B002B06D11D
:401F40000722059B073393430833059314E005AB00933A00134B2900029800E000BF07E005AB00933A000F4B2900029800F08AF80390039B013304D06B69039A9B186B6168
:401F800035E7BB890B985B0601D5012040421FB0F0BDC0463E2D0000442D0000482D000000000000E91C0000F7B5170001938A680B6900900C00934200DA130022003B6094
:401FC00043321278002A01D001333B6023689B0602D53B6802333B60062523681D401ED0230043331B785A1E9341226892061CD53020E1184331087021005A1C4531097853
:40200000A2184332023311700FE022000123193201990098089EB047431C0ED00135E3683A689B1A9D42F0DBDAE72200019943320098089DA847431C02D10120404220E0BA
:4020400006232068E1683A6803400025042B03D18D1AEB43DB171D40A3682269934201DD9B1AED180027BD420AD0220001231A3201990098089EB047431CDED00137F2E7B3
:402080000020FEBDF0B58BB006920A0043320793059004920A7E0C00109B6E2A00D1ABE011D8632A22D009D8002A00D1B5E0582A00D0C5E045310A70814A4FE0642A1DD021
:4020C000692A1BD0BCE0732A00D1AAE009D86F2A29D0702A00D0B3E0202209680A43226037E0752A1FD0782A33D0A9E00E001A684236111D196013683370A4E021681A68AD
:40210000080606D4490604D5111D19600023D55E02E0111D19601568002D3BDA2D23049A6D42137036E021681A68080606D4490604D51568111D1960ADB202E0111D1960ED
:4021400015685F4B227E039308276F2A1DD00A271BE022007821453211705A4A19680392081D226818600D68100602D4500600D5ADB2D30702D520231A4322601027002D6B
:4021800003D1202322689A4322602300002243331A7002E00A274A4B03936368A360002B09DB0422216891432160002D05D1049E002B11D07BE0002D79D0049E2800390036
:4021C000FFF72CFD039B013E5B5C280033703900FFF79EFC051EF1D1082F09D12368DB0706D563682269934202DC3023013E3370049B9B1B23612BE009681A68080607D45C
:40220000490605D5111D19601368A28A1A8004E0111D1960136862691A600023049E236116E01A68111D1960166800216268300000F04AF8002801D0801B6060636803E00D
:40224000260042363270012323610023049A1370079B09AA00932100069B0598FFF7A4FE431C02D10120404227E02369320006990598079DA847431CF4D0236800259B0775
:402280000FD4099BE068984217DA180015E022000123193206990598079EB047431CE1D00135E368099A9B1A9D42F0DBE9E72600039B42361B7833708EE70BB0F0BDC04656
:4022C0004F2D0000602D0000C9B28218904204D003788B4202D00130F8E70020704710B5884202D98B18984201D3002305E09B1A013A08D3995C8154FAE7934203D0CC5C10
:40230000C4540133F9E710BD70B50500002944D00C1F2368002B00DAE418280000F0D8F81E4A13681100002B02D16360146031E0A3420DD92268A018834203D118685B687B
:402340008218226063600C6024E0A24203D813005A68002AF9D11E689819A0420BD12168711858181960824214D110685268411819605A600EE0A04202D90C232B6009E0E1
:4023800021686018824203D1106852684118216062605C60280000F09CF870BDE4010020032370B5CD1C9D43083506000C2D01D20C2501E0002D01DBA94202D90C23336016
:4023C00048E0300000F084F8234B1C681A002100002913D00B685B1B0DD40B2B02D90B60CC181EE08C4202D1636813601AE04B6863600C0016E00C004968E9E7174C2368EC
:40240000002B03D1300000F051F820602900300000F04CF8431C18D00323C41C9C43A0420DD12560300000F054F8200007220B30231D9043C31A0ED05A42E2500BE0211A04
:40244000300000F033F8431CEBD10C233000336000F03FF8002070BDE4010020E0010020F8B506000C001500002904D11100FFF797FF040018E0002A03D1FFF745FF2C00BB
:4024800012E000F027F885420ED929003000FFF787FF071E07D021002A00FFF7F1FB21003000FFF731FF3C002000F8BD002370B5064C050008002360FEF7C8F9431C03D1D4
:4024C0002368002B00D02B6070BDC0468C020020704770470B1F1A68101F002A04DA891804390B68D018043870470000000000008E04000098040000A2040000AC040000E9
:40250000B6040000C0040000CA040000506572696F6420696E7465727570742074726967676572642025780D0A0000000A2043616E207278207472696767657265640A00D8
:4025400050302072656369657665640A0000000050312072656369657665640A0A00000043414E206469702073657474696E673A20202578204D6573736167652049443A3E
:4025800020256C780D0A000043616E2073686966743A20257820202050304D61696C626F783A2025782050314D61696C626F782025780D0A0000000043414E5F53746172E5
:4025C0007428293A202025750D0A000043414E5F53656E645F456E636F6465723A20627974655B30755D20257820627974655B31755D20257820627974655B32755D202582
:40260000780A205175616444656320436F756E742025640D0A00000054656C656D657274793A20627974655B30755D20257820627974655B31755D2025780D0A000000008F
:402640004D6F64656C3A20627974655B30755D20257820627974655B31755D2025780D0A000000004C696D697420696E7465727570742074726967676572640D0A00000012
:4026800042313A2025642C2042323A20256420646F6E652025780D0A000000004D6F6465206973206E6F742073657420746F20300D0A00000A53656E64696E6720446174B4
:4026C000612E2E2E200D0A0000300F40000800400F400008810D8403866F870F010203040E011504170219021B0421022305260230013306350136023B08405449FF4AFFC2
:402700004BFF4F0150185280580459045A045B045C115D335F016040624064406540668068806A806C806E808016810C82088301850788108A028C188D088E048F01910CFC
:40274000921E9302970F980E9E01A201AC18AD0BAE02AF04B001B10FB61EBE01C054C9FFCAFFCBFFCD83CE03CF01D018D401D604D804D904DA04DB04DC11DD33DF01E04039
:40278000E240E440E540E680E880EA80EC80EE8003020410054007800D210E02130816801740180119011D401E411F402010221823082602274029012D803218360A380165
:4027C0003C883E014280468048024A014C025D015E405F04644070028440C0D1C2D0C494CA11CCC6CED1D081D218D6D0D88000C50130023A030C051C08960A680CFE0D0CDD
:402800000E010F30100E112812F01314151416011728187F1CA31D3C1E5C27012B02313C32FF330237013E04405445EC4602480749FF4AFF4BFF4D834E034F015018580414
:4028400059045A045C105D035F016040624064406540668068806A806C806E80810283019D019E029F02A901AB02AD01AE01AF02B103B402B601BB02D804D904DB04DC11A6
:40288000DF010490058207400A020C080D200E210F40118019601A021F08208021012340248025C1279029602C082F20318035023608378039023C083E013F4046804C021E
:4028C0004D014F04568058A05904901092019380950397049B409D809E809F80A002A208A444A520A702C0D0C2F1C401CA6CCCD8CED1D080D210D60E05020C0815011801DB
:4029000024032C032E0C30043202340835023601370138883E504031410249FF4AFF4BFF4DA04F0150185604580459045A045B045C215D015F01604062806440654066807F
:4029400068406A806C406D206E80800C810184018C0A8D019601970198069C0C9D01A101A201AB02B201B40EB503B820BE04C035C102C50CC623C74EC83DC9FFCAFFCBFF34
:40298000CDAFCE07CF01D018D280D804D904DA04DB04DC11DD11DF01E040E280E440E540E680E840EA80EC40ED20EE8000400480075009200D200E21102011801640185101
:4029C0001A041B401C081D28225026102F4830043608374039083A203B103C803D02400D4108440845084F8454205540562857015AA06340764084048740908092019380D3
:402A00009B50A040A101A208A308A404A520A610A904AF22B020B480C0B1C2E2C415CAA0CC52CE92D06ED210D60CD801EE01000101FD020203020573060708100C010D943C
:402A40000E020F601407153017C918041D9E1E301F6021CF220423302407270F2A083010322033FF340F3E013F04540F580459045B045C015D105F058B069B019C01A50452
:402A8000A601A702A906B001B101B304B702BE01BF44D40FD804D904DB04DC10DD10DF010444052007400A020E080F2210201505171419021C041E401F2822412320271015
:402AC00029202B282D012F603020360C374038103CC83D063E015A815B245D025E445F10660867047D048101831090109204939494049A089B40A064A101A208A301AD0456
:402B0000C0F0C2E1C474CAC6CC54CED4D6FFD860DE406B026E208610DAC0E610038006209F02C0300B800F1087429F02AE20AF80C230E010E640E810EC10AF10E81001105D
:402B40000418C007A804B110B410EA09010E100A1206000004000F405A300F402F310F404A320F403B330F405A340F4041350F4039360F4039370F4005400F4004410F4063
:402B80000B420F4002430F4003450F4004460F4003600F40030405060708090A0B0C0E0F101112131415161718191B1C1D1E1F2021222325262728292A2B2E2F303132337C
:402BC00034350000EEDBC9B9AA9B8E82766B60564D443B332C241D17100A0400000000000800880000000000010000000800880000000000020000000800880000000000E1
:402C0000030000000000000000000000040000000000000000000000050000000000000000000000060000000000000000000000070000000000000000000000000000007B
:402C400028000000F9FF1F000000008A0100000028000000F9FF1F000000208A0200000028000000F9FF1F000000408A0300000028000000F9FF1F000000608A0400000066
:402C800028000000F9FF1F000000808A0500000028000000F9FF1F000000A08A0600000028000000F9FF1F000000C08A0700000028000000F9FF1F000000000A0800000076
:402CC00028000000F9FF1F000000200A0900000028000000F9FF1F000000400A0A00000028000000F9FF1F000000600A0B00000028000000F9FF1F000000800A0C00000046
:402D000028000000F9FF1F000000A00A0D00000028000000F9FF1F000000C00A0E0000000000000000000000000000000F0000000000000000000000000000004300232DE4
:402D4000302B2000686C4C006566674546470030313233343536373839414243444546003031323334353637383961626364656600000000F8B5C046F8BC08BC9E467047EA
:402D8000BD020000C5080000F8B5C046F8BC08BC9E46704795020000A82D0000C0000020980000003801000000000000010100008000000007000200010000009002002066
:402DC000010000000000204E409C000028000000005A6202F00000000404040000000000000000000000000000000000000000000000000000000000000000003C2D00003D
:402E0000000000000000000000000000000000000000000000000000000000000000000000000000000000000000000000000000000000000000000000000000F40000207E
:402E40000000000000000000000000000000000000000000000000000000000000000000000000000000000000000000000000000000000000000000000000000000000052
:402E80000000000000000000000000000000000000000000000000000000000000000000000000000000000000000000000000000000000000000000000000000000000012
:402EC00000000000000000000000000000000000000000000000000000000000000000000000000000000000000000000000000000000000000000000000000000000000D2
:402F00000000000000000000000000000000000000000000000000000000000000000000000000000000000000000000000000000000000000000000000000000000000091
:020000040003F7
:0200000490303A
:0200000059C8DD
:0200000490402A
:4000000000000000000000000000000000000000000000000000000000000000000000000000000000000000000000000000000000000000000000000000000000000000C0
:400040000000000000000000000000000000000000000000000000000000000000000000000000000000000000000000000000000000000000000000000000000000000080
:0200000490501A
:0C0000000002101111A00001101F6B681D
:0200000490600A
:0100000001FE
:00000001FF