:1000000002202B008F828E83E0540100000070F8E4
:100010002278FFE4F6D8FD022089EC4D6011E84912
:100020007017ED33EC3304600DE4FCFFFEFD22E9B4
:1000300033E8330470F80202E31202AE5804600998
:10004000E4CC248150062850090202ED2840030226
:1000500002EAC0E0EB4A7044B98006D0E0FB02023D
:10006000D9EF4E701CBD8008EBFFEAFEE9FD80EB86
:10007000E98DF0A4FEE5F0020103E9CDF9EAFEEB1B
:10008000FFEF89F0A4FCE5F0CE89F0A42EFFE43563
:10009000F0CD89F0A42DFEE435F08067EF4E7005B9
:1000A000BD80D780C3EF8BF0A4ACF0EE8BF0A42C16
:1000B000FCE435F0F8EF8AF0A42CE5F038FCE433EA
:1000C000CB8DF0A42CFCE5F03BF8EE8AF0A42CFCE0
:1000D000E5F038F8E433CF89F0A42CFCE5F038CF14
:1000E0003400CE89F0A42FFFE5F03EFEE433C98D45
:1000F000F0A42EFEE5F039CD8AF0A42FFFE5F03E06
:10010000FEE43DFD33D0E0FB50070BBB000F0202C5
:10011000EDEC2CFCEF33FFEE33FEED33FD0202C5B8
:100120000202EDEC5D046005E8590470030202E38D
:100130001202AE580460F6EC4860F2EC7004FDFE6A
:10014000FF22C860DB2481C85009C39860025006B2
:100150000202EA9850CAF582E9294B4A7005AB823F
:100160000202D975F0007C1A7880C3EF9BEE9AEDFD
:1001700099400DC3EF9BFFEE9AFEED99FDE842F02A
:10018000DC23ACF0D0E0FFD0E0FED0E0FDAB82207D
:10019000E7101BEB60BAEC2CFCEF33FFEE33FEED07
:1001A00033FD0202C5E803F830E705C0F075F00042
:1001B000EF2FFFEE33FEED33FD40B830E7C280AAEB
:1001C00074F8CC6480CCC86480C8F58204604FC3E6
:1001D000EB9FF5F0EA9E42F0E99D42F0E89C45F085
:1001E000603C501DE5825FFFE582D313CB5BCBF40F
:1001F0002B5582FB50280ABA002409B90020088038
:100200001DE5825BFBE582D313CF5FCFF4C3132FD1
:100210005582FF50090EBE00050DBD00010CC3EB59
:100220009FF5F0EA9E42F0E99D42F0E89C45F060BF
:1002300007CC4820E701B3EC2275F020800E75F062
:1002400010800575F0087D007E007F003392D53068
:10025000D5031207AAEC334010EF33FFEE33FEED67
:1002600033FDEC33FCD5F0ED22E5F0247EA2D5136E
:10027000CC92E7CDCEFF22EDD2E7CD33EC3392D551
:1002800024814006E4FFFEFDFC22FCE4CFCECDCC71
:1002900024E0501174FF80EDC3CC13CCCD13CDCE30
:1002A00013CECF13CF0470F030D5DE0207AAE9D207
:1002B000E7C933E833F892D5EDD2E7CD33EC33FC20
:1002C0005002B2D522EC30E7100FBF000C0EBE007A
:1002D000080DBD00040BEB6014A2D5EB13FCED92EE
:1002E000E7FD2274FFFCFDFEFF22E480F8A2D57436
:1002F000FF13FC7D80E480EFF920E73624F95003FA
:100300007907E4F42402FBE582158270021583DB91
:10031000F6E024FB501BE96014E4F0E582158270DE
:10032000021583E004F0B40A08E4F0D9EE7401F099
:100330000A22C2D522ED33EC3392D5FA602AB4FFFB
:1003400033EDC2E77BFF60067A03795AE4227A0331
:10035000796320D5047A03795E224E614E002B49E1
:100360004E46002D494E4600E47A08F0A3DAFC7BA5
:1003700000740722C083C082ECC0E0EDC0E0EEC094
:10038000E0EFC0E0EA75F010A4CAABF075F04DA440
:100390002BFBE435F0FCEA2410FAEB34C5FBEC341B
:1003A000D9FCEDC2E7FF75F056A4F42411C5F0F4B2
:1003B00034C58FF0A42AE5F03BE43CF020E71412AA
:1003C0000562D0E0FFD0E0FED0E0FDD0E0FC1201FD
:1003D000238014F404120562D0E0FFD0E0FED0E0E8
:1003E000FDD0E0FC12001AD082D083E0FAEDD2E713
:1003F000CD33EC332482FBE4C3CF33CFCE33CECD29
:1004000033CD33DBF37B0775F00A846004F0A31B64
:100410000AE5F0F0A38FF0740AA4FFACF08EF0743C
:100420000AA42CFEACF050010C8DF0740AA42CFD33
:10043000E435F0F0A3DBDE7407220202E3E8648017
:10044000F8E933E83360110460F0ED33EC33700900
:10045000E8FCE9FDEAFEEBFF220460DED3EB9FEA55
:100460009EE99DE8C2E78CF0C2F795F0400CE8CC1D
:10047000F8E9CDF9EACEFAEBCFFB1202AE85D0F067
:100480005804700320D5B3E80470075002B2D502B7
:1004900002ED92D5EC0460F7E4CCC0E0C398F860BC
:1004A0003B94186008400DD0E0FB0202C5E4FBFA63
:1004B000C9FC8028E830E406E4C9FBE4CAFCE83063
:1004C000E305E4C9CACBFCE854076010F8C3E9139C
:1004D000F9EA13FAEB13FBEC13FCD8F130F52FC358
:1004E000E49CFCEF9BFFEE9AFEED99FDD0E0FBEF64
:1004F0004E4D4C701222DB030202EAEC2CFCEF336F
:10050000FFEE33FEED33FDED30E7EB0202C5EF2BDE
:10051000FFEE3AFEED39FDD0E0FB50130BBB0003BC
:100520000202EDED13FDEE13FEEF13FFEC13FC02E0
:1005300002C53F8000004120000042C80000447A0C
:100540000000461C400047C35000497424004B186B
:1005500096804CBEBC205A0E1BCA6753C21C749DA9
:10056000C5AEFB60065407601C2323120590EB54B4
:1005700038600912057C12058B12001AECF8EDF9AF
:10058000EEFAEFCB22EB12058B80F1543803241CDA
:10059000900532FE93FC0EEE93FD0EEE930ECE937D
:1005A000FF22BB010689828A83E0225002E722BB38
:1005B000FE02E32289828A83E49322BB010CE58256
:1005C00029F582E5833AF583E0225006E92582F891
:1005D000E622BBFE06E92582F8E222E58229F582C1
:1005E000E5833AF583E49322BB010689828A83F08E
:1005F000225002F722BBFE01F322BC000BBE0029F1
:10060000EF8DF084FFADF022E4CCF875F008EF2F09
:10061000FFEE33FEEC33FCEE9DEC984005FCEE9DC6
:10062000FE0FD5F0E9E4CEFD22EDF8F5F0EE8420E2
:10063000D21CFEADF075F008EF2FFFED33FD400743
:10064000985006D5F0F222C398FD0FD5F0EA22C5E6
:10065000F0F8A3E028F0C5F0F8E5821582700215E5
:1006600083E038F022EF2BFFEE3AFEED39FDEC3857
:10067000FC22C3EF9BFFEE9AFEED99FDEC98FC2265
:10068000E88FF0A4CC8BF0A42CFCE98EF0A42CFC19
:100690008AF0EDA42CFCEA8EF0A4CDA8F08BF0A497
:1006A0002DCC3825F0FDE98FF0A42CCD35F0FCEBF6
:1006B0008EF0A4FEA9F0EB8FF0A4CFC5F02ECD39BB
:1006C000FEE43CFCEAA42DCE35F0FDE43CFC2275B2
:1006D000F008758200EF2FFFEE33FECD33CDCC3323
:1006E000CCC58233C5829BED9AEC99E58298400C8B
:1006F000F582EE9BFEED9AFDEC99FC0FD5F0D6E469
:10070000CEFBE4CDFAE4CCF9A88222B800C1B9004E
:1007100059BA002DEC8BF084CFCECDFCE5F0CBF9AF
:100720007818EF2FFFEE33FEED33FDEC33FCEB33A7
:10073000FB10D703994004EB99FB0FD8E5E4F9FAD5
:10074000227818EF2FFFEE33FEED33FDEC33FCC9BA
:1007500033C910D7059BE99A4007EC9BFCE99AF94D
:100760000FD8E0E4C9FAE4CCFB2275F010EF2FFFBC
:10077000EE33FEED33FDCC33CCC833C810D7079B26
:10078000EC9AE899400AED9BFDEC9AFCE899F80F89
:10079000D5F0DAE4CDFBE4CCFAE4C8F922EF4BFF64
:1007A000EE4AFEED49FDEC48FC22C3E49FFFE49EC7
:1007B000FEE49DFDE49CFC22EB9FF5F0EA9E42F0F6
:1007C000E99D42F0E89C45F022E8600FECC313FC81
:1007D000ED13FDEE13FEEF13FFD8F122E8600FEFEB
:1007E000C333FFEE33FEED33FDEC33FCD8F122BB17
:1007F000010789828A830208295005E9F802094520
:10080000BBFE05E9F802095189828A8302095DBBB2
:10081000010789828A830208615005E9F802099775
:10082000BBFE05E9F80209A322E0FCA3E0FDA3E07A
:10083000FEA3E0FF22E0F8A3E0F9A3E0FAA3E0FBC7
:1008400022BB010789828A830208355005E9F80234
:10085000096DBBFE05E9F802097A89828A830209DB
:1008600087ECF0A3EDF0A3EEF0A3EFF022A4258235
:10087000F582E5F03583F58322E0FBA3E0FAA3E0FF
:10088000F922F8E0FBA3A3E0F925F0F0E582158258
:1008900070021583E0FA38F022EBF0A3EAF0A3E946
:1008A000F022E493FB740193FA740293F922BB01E2
:1008B0000789828A830208795005E9F80209AFBBEB
:1008C000FE05E9F80209B889828A830208A2D0836A
:1008D000D082F8E4937012740193700DA3A393F87F
:1008E000740193F5828883E4737402936860EFA3C4
:1008F000A3A380DFE50E2582F582E50D3583F58320
:10090000B50D0485820E2210AF0685820EF50D22EC
:1009100085820EF50DD2AF22EC8EF0A4CCC5F0CCC2
:10092000CDF8EFA4CEC5F02DFDE43CFCE8A42EC824
:10093000C5F03DFDE43CFCEFA4FFE5F028FEE43DFE
:10094000FDE43CFC22E6FC08E6FD08E6FE08E6FFC6
:1009500022E2FC08E2FD08E2FE08E2FF22E493FC4A
:10096000740193FD740293FE740393FF22E6FB0867
:10097000E6F908E6FA08E6CBF822E2FB08E2F90815
:10098000E2FA08E2CBF822E493F8740193F97402D6
:1009900093FA740393FB22ECF608EDF608EEF608E2
:1009A000EFF622ECF208EDF208EEF208EFF222E6A2
:1009B000FB08E6FA08E6F922E2FB08E2FA08E2F9A7
:1009C00022E5082450F582E43400F583E00508228E
:1009D00090004D300703900050E475F0011208823A
:1009E0000205A22000E97F2ED2008018EF540F24C8
:1009F00090D43440D4FF30040BEF24BFB41A00501D
:100A0000032461FFE50960021509050CE50C70027D
:100A1000050B30070E90004DE475F001120882EFCF
:100A20000205E80230967403D2078003E4C207F59A
:100A30000890004D120899E4F509F50BF50CE5094D
:100A400060077F20120A0480F5750AFFC201C20008
:100A5000C202C203C205C206C2081209D0FF700D4D
:100A60003007057F00120A15AF0CAE0B22B4255FCC
:100A7000C2D5C2041209D0FF24D0B40A00501A759E
:100A8000F00A780930D50508B6FF0106C6A426F697
:100A900020D5047002D20380D924CFB41A00EF50BD
:100AA00004C2E5D204020D07D20180C6D20080C084
:100AB000D20280BCD2D580BAD20580B47F20120A7F
:100AC000042002077401B5090040F11209C1FF12A8
:100AD0000A04020A3ED208D20680951209C1FB120E
:100AE00009C1FA1209C1F94A4B700679057A0E7BE1
:100AF000FF20022EE509602A7E008E827583001297
:100B000005BB60060EEE650A70F0C2D5EBC0E0EAE8
:100B1000C0E0E9C0E0EE120D68D0E0F9D0E0FAD014
:100B2000E0FB1205A2FF60AAEBC0E0EAC0E0E9C06A
:100B3000E0120A04D0E02401F9D0E03400FAD0E059
:100B4000FBE50A0460DCD50AD98087D20280A212B4
:100B50000D4A60F7E50A7001041202F8A90A600D57
:100B6000E50A600914F50A120DF2EF60F3EA30E7C6
:100B700002F404C3995079EAF4250A0430E701E449
:100B800004F50A800D120D4A60C1EA050A250A1211
:100B900002F8EA90007CF030E701E4250A04D50A67
:100BA0000420050114120D68E4C0E0120DF290005B
:100BB0007CE0601320E70714F01209EC802204F0B7
:100BC000D0E014C0E07F001209ECE50A60071209CA
:100BD000E3150A800B3005031209E3D0E0020A3E58
:100BE000D0E00480C4120D4A609EE50A041202F8A7
:100BF00090007CEAF0E50A2005026001042404125A
:100C00000D6874FF04C0E0120DF21209ECE50A2031
:100C1000050260031209E3D0E0B50AE87F45120936
:100C2000F690007CE07F2B30E7047F2DF404C0E0D9
:100C3000120A04D0E075F00A84C0F01209EDD0E089
:100C40001209ED020A3E791080027908C206C20834
:100C50008008D2D5790A8004790AC2D5E50A0470E1
:100C600002F50AE4FAFDFEFF1209C1FC7B0820012F
:100C7000131209C1FD7B1030000A1209C1FE1209CE
:100C8000C1FF7B20EC3382D592D55013C3E43000F2
:100C9000069FFFE49EFEE42001039DFDE49CFCE42E
:100CA000CBF8C201EC700CCFCECDCCE824F8F870B4
:100CB000F38017C3EF33FFEE33FEED33FDEC33FC6F
:100CC000EB33FB994002FB0FD8E9EB300105F8D07C
:100CD000E0C448B201C0E00AEC4D4E4F78207B00E2
:100CE00070C2EAB50A0040BCC0E0120D6AD0F0D074
:100CF000E0200104C4C0E0C4B201C0F01209EDD08C
:100D0000F0D5F0EB020A3E1208CE0ADB530C46582F
:100D10000AAC4C0AA8420C4A4F0C52440C52490AE5
:100D2000C1430C58550B85460BE5450B4F470E2527
:100D3000500AB02D0AB42E0AD72B0AB8230AD520A0
:100D40000E0E2A0A704800000ACFE50AB4FF0375A8
:100D50000A061209C1FC1209C1FD1209C1FE1209DD
:100D6000C1FF900075020335790AA2D52003143023
:100D70000509B910020404B9080104A2D52006022D
:100D80005001042002689202B509005034C0E07F8F
:100D9000203003197F30A20272067205500F120D27
:100DA000C1C202C206C205C2087F30800F300503EF
:100DB000E9C0E0120A04300503D0E0F9D0E0B5093B
:100DC000CC3005177F30B9100C120A047F5830045C
:100DD000077F788003B90803120A043002057F2DCB
:100DE000020A047F202008F87F2B2006F3229202BB
:100DF00080CF7F00B40700500B2475F582E43400E7
:100E0000F583E0FF22286E756C6C2900D20112096F
:100E1000C13001F8C201780930D50108F6020A7024
:100E20002D504349581209C12403B405004001E480
:100E3000900E20931209F5743A1209F5D203750940
:100E400004020C4690005712089990005A7401F061
:100E50009000571208791205A2FF7E20EF8EF0A4B1
:100E6000FFAEF0EF24A0FFEE34A0FEAA06A9077B98
:100E700001C003C002C001900057120879E92401A3
:100E8000F9EA3400FA1207EFEF4480FFEE4400FE67
:100E9000ED4480FDEC4400FCD001D002D0031232BE
:100EA0006A9000571208791205A2FF7E20EF8EF09B
:100EB000A4FFAEF0EF24A0FFEE34A0FEAA06A9071F
:100EC0007B01123255EF547FFFEE5400FEED547F4C
:100ED000FDEC5400FCC004C005C006C007900057DC
:100EE000120879E92401F9EA3400FA1207EFEF5405
:100EF0007FFBEE54FFFAED547FF9EC54FFF8D00776
:100F0000D006D005D004C31207B860030210C49005
:100F100000571208791205A2FF7E20EF8EF0A4FF81
:100F2000AEF0EF24B0FFEE34A0FEAA06A9077B01C5
:100F3000C003C002C001900057120879E92405F9E6
:100F4000EA3400FA1207EFD001D002D00312326A5D
:100F50009000571208791205A2FF7E20EF8EF0A4B0
:100F6000FFAEF0EF24B0FFEE34A0FEAA06A9077B87
:100F700001123255900057120879E92405F9EA3434
:100F800000FA120841C31207B860030210C49000AF
:100F9000571208791205A2FF7E20EF8EF0A4FFAE53
:100FA000F0EF24B4FFEE34A0FEAA06A9077B01C02F
:100FB00003C002C001900057120879E92409F9EA38
:100FC0003400FA1207EFD001D002D00312326A9037
:100FD00000571208791205A2FF7E20EF8EF0A4FFC1
:100FE000AEF0EF24B4FFEE34A0FEAA06A9077B0101
:100FF000123255900057120879E92409F9EA3400B1
:10100000FA120841C31207B860030210C4900057D7
:101010001208791205A2FF7E20EF8EF0A4FFAEF039
:10102000EF24B8FFEE34A0FEAA06A9077B017FFFDC
:101030007EFF7DFF7CFF12326A9000571208791202
:1010400005A2FF7E20EF8EF0A4FFAEF0EF24B8FFE4
:10105000EE34A0FEAA06A9077B011232557BFF7A67
:10106000FF79FF78FFC31207B87059900057120834
:10107000791205A2FF7E20EF8EF0A4FFAEF0EF24E0
:10108000BCFFEE34A0FEAA06A9077B017F007E000C
:101090007D007C0012326A9000571208791205A276
:1010A000FF7E20EF8EF0A4FFAEF0EF24BCFFEE3405
:1010B000A0FEAA06A9077B01123255EF4E700590DB
:1010C000005AE4F090005AE0FF2290004DEFF090BB
:1010D000004EECF0A3EDF0900050EAF0A3EBF0909E
:1010E0000053E0FFEFD3940050030212C990005365
:1010F000E0FFEFD3940140030212C990004DE0FFDE
:10110000EF1208CE111701111704114407116F08CF
:10111000119A0A000011C5900052E0FFEFD3940F1E
:1011200040117B0C7A01791812330E900054EFF0C5
:101130000211CA7B0C7A01791C12330E900054EF15
:10114000F00211CA900052E0FFEFD3940F40107BE1
:101150000C7A01791912330E900054EFF0806B7BFA
:101160000C7A01791D12330E900054EFF0805B90E1
:101170000052E0FFEFD3940F40107B0C7A01791AF4
:1011800012330E900054EFF080407B0C7A01791EF0
:1011900012330E900054EFF08030900052E0FFEFD9
:1011A000D3940F40107B0C7A01791B12330E900000
:1011B00054EFF080157B0C7A01791F12330E9000EA
:1011C00054EFF08005900054E4F0900054E0FFEFFD
:1011D0003395E0FEFDFC7B207A0079007800120652
:1011E00080A804A905AA06AB0790004EE0FEA3E084
:1011F000FFE4FCFD12066590005512086190005551
:10120000120829AB07AA06A905A804A804A905AADB
:1012100006AB07900050E0FEA3E0FFE4FCFD1206E1
:101220008090005B1208617B007A807900780090E2
:10123000005B12082912070B900059EEF0A3EFF0A3
:10124000900052E0FFEFC3940E5047900059E0FE2B
:10125000A3E0FF900052E0FDC3740E9DFDEFA805D2
:10126000088005CEC313CE13D8F9FF900059EEF0D5
:10127000A3EFF0900052E0FFEF04FF900053E0FE78
:10128000EE75F003A42484F582E43400F583EFF0D6
:101290008016900053E0FFEF75F003A42484F582DC
:1012A000E43400F583740FF0900059E0FEA3E0FFF2
:1012B000900053E0FDED75F003A42482F582E43440
:1012C00000F583EEF0A3EFF0227F00123229221204
:1012D00031FF7D007F001226EA7BFF7A3079BD1254
:1012E00025F07D007F011226EA7BFF7A3079C1125A
:1012F00025F07D0A7F001226EA7BFF7A3079C4123E
:1013000025F01231491232141232EA122FA87C2D24
:101310007D657F101224EED2AF9044F474FDF07F0F
:1013200001122EFBEF700302140D12257090004382
:10133000EEF0A3EFF0900043E0FEA3E0FFC3EE6405
:101340008094805008900043E4F0A3E4F0900043C0
:10135000E0FEA3E0FFEE3395E0FDFC122D1F9000B0
:1013600045EEF0A3EFF0900045E0FEA3E0FFEEFFB6
:101370007E0090A03BEFF0900045E0FEA3E0FFEF81
:1013800054FFFF90A03AEFF090A039E4F090A0381D
:10139000E4F090A03FE4F090A03EE4F090A03DE4A3
:1013A000F090A03CE4F0122DEE7B017A007947C06A
:1013B00003C002C0017BFF7A3079C8900050120848
:1013C00099900045E0FEA3E0FF7C037DE81205FA5A
:1013D000900053EEF0A3EFF0900045E0FEA3E0FF95
:1013E0007C037DE81205FA900055ECF0A3EDF0D0F7
:1013F00001D002D003120A2690004CE4F07D047F55
:10140000001226EA7B017A0079471225F012276341
:10141000A804A905AA06AB079000A1E0FFE4FCFD23
:10142000FEC31207B8605D1227639000A1EFF07D44
:10143000037F011226EA9000A1E0FFEFB4011090B3
:10144000A02BE4F07BFF7A3079D01225F0800F904A
:10145000A02B7401F07BFF7A3079D91225F090A08F
:101460002AE4F090A029E4F090A028E4F090A02FC6
:10147000E4F090A02EE4F090A02DE4F090A02CE4F5
:10148000F0122DAA9000A2E0FFEF601C90A0ABE04C
:10149000FF1231667D0E7F001226EA90A0ABE0FFBE
:1014A000122F3A9000A2E4F07F647E007D007C0061
:1014B00012283202131F2290FFFB1208F47F947E41
:1014C000017D007C00850D83850E82A3120861904A
:1014D0005120E0FFEF5480FFEFF0905122E0FFEF4A
:1014E00054F0FF850D83850E82EFF0850D83850E08
:1014F00082E0FFEF440FFF905122EFF0905123E084
:10150000FFEF54F0FF850D83850E82EFF0850D838C
:10151000850E82E0FF905123EFF0905124E0FFEF21
:1015200054F0FF850D83850E82EFF0850D83850EC7
:1015300082E0FF905124EFF0905120E0FFEF54DF64
:10154000FFEFF0905120E0FFEF4440FFEFF07F000D
:101550007E0012303C905120E0FFEF4410FFEFF08E
:101560007F017E0012303C905121E0FF850D838584
:101570000E82EFF0905120E0FFEF54EFFFEFF07F8D
:10158000007E0012303C850D83850E82E0FFEF5413
:1015900008FFEFF0905120E0FFEF4410FFEFF07FE5
:1015A000017E0012303C905120E0FFEF54EFFFEF3E
:1015B000F0850D83850E82E0FFEF70077F0A7E00C5
:1015C00012303C850D83850E82A31208297BFF7A99
:1015D000FF79FF78FF120665850D83850E82A312C1
:1015E0000861850D83850E82E0FFEF6016850D830F
:1015F000850E82A3120829D3EF9400EE94004003D5
:1016000002154E905120E0FFEF54BFFFEFF09051D4
:1016100020E0FFEF5480FFEFF0905122E0FFEF5405
:10162000F0FFEFF0905123E0FFEF54F0FF850D83C2
:10163000850E82EFF0850D83850E82E0FFEF440F6B
:10164000FF905123EFF0905124E0FFEF54F0FF851D
:101650000D83850E82EFF0850D83850E82E0FFEF0E
:10166000440FFF905124EFF09000051208F4227B04
:10167000007A4679E812330EEF4405FD7B007A4686
:1016800079E812331A750A00E50AC39408503AAF94
:101690000AEF75F005A4247FF582E43434F583AFB6
:1016A00082AE838E088F09AE08AF098F828E8312B7
:1016B00008A2AE08AF098F828E83740393FC740472
:1016C00093FD1231B7050A80BF7B087A00790012BA
:1016D0003069905883740AF07B017A507903123391
:1016E0000EEF4402FD7B017A50790312331A7B011D
:1016F0007A50791312330EEF4402FD7B017A507950
:101700001312331A9043A0E0FFEF4440FF9043A030
:10171000EFF09043C2E0FFEF4410FF9043C2EFF0C0
:101720007B087A017930C003C002C0017B007A5186
:10173000790090004D120899D001D002D0037F0AA1
:101740007E00122F747B087A01793CC003C002C06E
:10175000017B007A51791290004D120899D001D086
:1017600002D0037F087E00122F747B087A0179442F
:10177000C003C002C0017B007A51792290004D1253
:101780000899D001D002D0037F087E00122F747B0D
:10179000087A01794CC003C002C0017B007A5179FC
:1017A0003290004D120899D001D002D0037F087EFC
:1017B00000122F749044F47401F0904322E0FFEF84
:1017C0004408FF904322EFF09046ECE0FFEFC39413
:1017D000055006904689743AF09048007431F01232
:1017E0001B4690480074B1F0122EB97B007A437901
:1017F000A0C003C002C0017B007A4379B090004DC5
:10180000120899D001D002D0037F0E7E00122F74EF
:101810009043B0E0FFEF54FDFFEFF02290004EEE5A
:10182000F0A3EFF0900050EDF0123330900052EF43
:10183000F0123326900053EEF0A3EFF0900053E047
:10184000FEA3E0FF90004EE0FCA3E0FDED6F700210
:10185000EC6E70030219B09043A2E0FFEF5401FF59
:10186000900051EFF0900052E0FFEF705E90005357
:10187000E0FEA3E0FFEF4E600C90004EE0FEA3E020
:10188000FFEF4E7046900053E0FEA3E0FFEF4E7076
:101890001D7B027A40798090004EE0FCA3E0FD12AF
:1018A00032D0904082E0FFEF54BFFFEFF022904033
:1018B00082E0FFEF4440FFEFF07B027A40798090B6
:1018C000004EE0FCA3E0FD1232D022900051E0FF78
:1018D000EF606C904001E4F09040107401F0904093
:1018E00014E4F0904008E0FFEF547FFFEFF09040E9
:1018F00082E0FFEF5408FF7E00EF4E600C90004E38
:10190000E0FEA3E0FFEF4E70367B027A4079029052
:101910000053E0FCA3E0FD1232D09040017407F0C8
:10192000904001E0FFEF5401FF7E00EF4E70F19018
:1019300043A2E0FFEF54FEFFEFF0904001E4F0908F
:1019400043A2E0FFEF5401FF7E00EF4E603A7B02BE
:101950007A40790290004EE0FCA3E0FD1232D09074
:101960000050E0FFEF60047F0280027F00EF44013F
:10197000FF904001EFF0904001E0FFEF5401FF7E47
:1019800000EF4E602B80EF227B027A40798090003E
:101990004EE0FCA3E0FD1232D09043A2C083C0828F
:1019A000E0FF900051E0FEEF4EFFD082D083EFF0D9
:1019B0002290004EEEF0A3EFF0900050EDF01233C5
:1019C00044900052EFF012333A900053EEF0A3EF40
:1019D000F0900053E0FEA3E0FF90004EE0FCA3E097
:1019E000FDED6F7002EC6E7003021B459043A1E0A9
:1019F000FFEF5401FF900051EFF0900052E0FFEF35
:101A0000705E900053E0FEA3E0FFEF4E600C90008C
:101A10004EE0FEA3E0FFEF4E7046900053E0FEA3C1
:101A2000E0FFEF4E701D7B027A41790090004EE09E
:101A3000FCA3E0FD1232D0904102E0FFEF54BFFF63
:101A4000EFF022904102E0FFEF4440FFEFF07B0215
:101A50007A41790090004EE0FCA3E0FD1232D022E2
:101A6000900051E0FFEF606C904001E4F090401472
:101A70007401F0904010E4F0904008E0FFEF547FD4
:101A8000FFEFF0904102E0FFEF5408FF7E00EF4EC1
:101A9000600C90004EE0FEA3E0FFEF4E70367B023C
:101AA0007A407902900053E0FCA3E0FD1232D0901E
:101AB00040017407F0904001E0FFEF5401FF7E0009
:101AC000EF4E70F19043A1E0FFEF54FEFFEFF09076
:101AD0004001E4F09043A1E0FFEF5401FF7E00EFEE
:101AE0004E603A7B027A40790290004EE0FCA3E01F
:101AF000FD1232D0900050E0FFEF60047F028002C0
:101B00007F00EF4401FF904001EFF0904001E0FFC3
:101B1000EF5401FF7E00EF4E602B80EF227B027AB4
:101B200041790090004EE0FCA3E0FD1232D09043DA
:101B3000A1C083C082E0FF900051E0FEEF4EFFD0D5
:101B400082D083EFF0227B007A4079807D007C0098
:101B50001232CE9040827450F07B007A4079847DBE
:101B6000017C001232CE9040867418F07B087A0116
:101B70007954C003C002C0017B007A417900900013
:101B80004D120899D001D002D0037F047E00122F9D
:101B9000749043007402F09040007408F09042008A
:101BA0007403F07B0C7A01790812330E9046A1EF92
:101BB000F07B007A4279227D087C001232CE7B00D5
:101BC0007A4279207D517C121232CE900047E4F0A7
:101BD0007F197E007D007C00900043120861900018
:101BE00043120829D3EF9400EE9400404E90004732
:101BF000E0FFEF64036044904225E0FFEF5401FFF3
:101C00007E00900047E0FEEE25E0FEEE4FFFEF5431
:101C100003FF900047EFF07FE07E017D007C001223
:101C200030009000431208297BFF7AFF79FF78FF8C
:101C300012066590004312086180A39000431208C9
:101C400029EF4E70057F0312327D7B007A407904C4
:101C50007D007C011232CE9040047407F090400663
:101C6000E4F09040087448F0904004E4F0904001A3
:101C70007402F090400B7404F09043A2E0FFEF4434
:101C800003FF9043A2EFF09043A1E0FFEF4401FF78
:101C90009043A1EFF09043A0E0FFEF4480FF90431A
:101CA000A0EFF02290005712089990005A7401F0AA
:101CB0009000571208791205A2FF7E10EF8EF0A453
:101CC000FFAEF0EF2420FFEE34A0FEAA06A9077BAA
:101CD00001C003C002C001900057120879E9240135
:101CE000F9EA3400FA1207EFEF4408FFEE4400FE71
:101CF000ED4480FDEC4400FCD001D002D003123250
:101D00006A9000571208791205A2FF7E10EF8EF03C
:101D1000A4FFAEF0EF2420FFEE34A0FEAA06A90730
:101D20007B01123255EF54F7FFEE5400FEED547F65
:101D3000FDEC5400FCC004C005C006C0079000576D
:101D4000120879E92401F9EA3400FA1207EFEF5496
:101D5000F7FBEE54FFFAED547FF9EC54FFF8D0078F
:101D6000D006D005D004C31207B86003021DF0905E
:101D700000571208791205A2FF7E10EF8EF0A4FF23
:101D8000AEF0EF2424FFEE34A0FEAA06A9077B01E3
:101D9000C003C002C001900057120879E92405F978
:101DA000EA3400FA1207EFD001D002D00312326AEF
:101DB0009000571208791205A2FF7E10EF8EF0A452
:101DC000FFAEF0EF2424FFEE34A0FEAA06A9077BA5
:101DD00001123255900057120879E92405F9EA34C6
:101DE00000FA120841C31207B8700590005AE4F0D7
:101DF00090005AE0FF22900055EFF0900056EDF071
:101E0000900057EBF09000597402F0900055E0FFFD
:101E1000EFC394025003021F25900055E0FFEFD35B
:101E2000940F4003021F25900056E0FFEFC3940279
:101E3000400B900056E0FFEFD394074018900058F5
:101E4000E0FFEF6003021F25900056E0FFEF640102
:101E50006003021F25900057E0FFEFD39403400377
:101E6000021F25900055E0FF900057E0FEEED39F43
:101E70004003021F25900056E0FF900057E0FEEE61
:101E8000D39F4003021F259000597401F090A015C4
:101E9000E0FF90005AEFF090005AE0FFEF54F0FF9F
:101EA00090005AEFF090005AE0FF900055E0FEEFEE
:101EB0004EFF90005AEFF090005AE0FF90A015EF0F
:101EC000F090005AE0FF90A015E0FEEE6F70569083
:101ED000005AE4F0900058E0FFEF600690005A745A
:101EE00002F090005AE0FF900057E0FEEE25E0255A
:101EF000E0FE900056E0FDEDC43354E0FDED4EFEF3
:101F0000EF4EFF90005AEFF090005AE0FF90A014BF
:101F1000EFF090005AE0FF90A014E0FEEEB5070548
:101F2000900059E4F0900059E0FF227F007E787D18
:101F3000007C0090004E1208619000527401F090F5
:101F400000537401F012323E900054EFF09043A61B
:101F5000E0FFEF4401FFEFF09043B6E0FFEF4401F4
:101F6000FFEFF0900054E0FF1231D090A010E0FF9E
:101F7000EF54FEFFEFF090004E120829EF4E602262
:101F800090A010E0FFEF30E01990004E1208297B7E
:101F9000FF7AFF79FF78FF12066590004E12086104
:101FA00080D490004E120829EF4E60799044CA7494
:101FB00001F07C307D3B7F101224EE7D077F1012F4
:101FC00028987F0B7E001228F7EF702E7F00122BCF
:101FD000A7EF7026900058E4F07B037D047F091280
:101FE0001DF6EF70157F00122BF4EF700D7F0012BD
:101FF0002C41EF7005900053E4F0900053E0FFEFA8
:10200000702312245FEF701D7F017E10122E76EF79
:10201000701390A010E4F090A010E0FFEF20E00516
:10202000900052E4F0900052E0FF22759300780097
:102030007583467582E8E04401F0009046ECE0F9D3
:102040009046FAE0FAB903225420B40012B8001AFC
:10205000EA901FFFF07401901FFEF09046F6F0909A
:102060001FFEE06005901FFFE0FA90480074C0F08A
:1020700075812190000078007920E4F0A3D8FCD984
:10208000FAEA900097F0020011750D1F750EFD120F
:102090002B5912166F0220D30212CFE493A3F8E457
:1020A00093A34003F68001F208DFF48029E493A3B0
:1020B000F85407240CC8C333C4540F4420C88340C9
:1020C00004F456800146F6DFE4800B010204081098
:1020D000204080902AB2E47E019360BCA3FF543F6D
:1020E00030E509541FFEE493A360010ECF54C025D0
:1020F000E060A840B8E493A3FAE493A3F8E493A3C0
:10210000C8C582C8CAC583CAF0A3C8C582C8CAC523
:1021100083CADFE9DEE780BE90004DEFF0900083D8
:10212000E4F090004DE0FFEF640160030221FB90BA
:102130004E007438F0904E027406F0904E0374080E
:10214000F0904E04E4F0904E05E4F0904E06741FBB
:10215000F0904E08E4F0904E09E4F0904E0AE4F05E
:10216000904E147401F09058847414F09058857453
:1021700006F09058867414F0905887E4F090588ACE
:102180007444F090588B7448F090588C7401F0901F
:10219000588E7401F090588F7411F0905890741903
:1021A000F09058917497F07F53122B0690589474C6
:1021B00058F0905895E4F090589A7405F090589B18
:1021C0007402F090589CE4F090589DE4F07F001267
:1021D00031827FD97E047D007C00900089120861E5
:1021E0007D017F127E0012181C7D017F4A7E001245
:1021F00019B17C337D5D7F1D1224EE2212323E9098
:10220000004EEFF090007DE0FF90004DEFF0904326
:10221000AAE0FFEF4401FFEFF09043AAE0FFEF4494
:1022200010FFEFF09043BAE0FFEF4401FFEFF090B2
:1022300043BAE0FFEF4410FFEFF09046F8E0FFEF05
:102240004402FFEFF09046F9E0FFEF4402FFEFF0A9
:10225000905891E0FFEF4403FFEFF07F037E001200
:10226000303C9046F8E0FFEF54FDFFEFF09046F968
:10227000E0FFEF54FDFFEFF0905877E0FFEF4406EA
:10228000FFEFF0905882747AF09043A1E0FFEF44A2
:1022900001FFEFF09043B1E0FFEF4401FFEFF0905A
:1022A00043A2E0FFEF4401FFEFF09043B2E0FFEF05
:1022B0004401FFEFF09044DB7420F09044C374209D
:1022C000F090004EE0FF1231D0227F007E097D00A9
:1022D0007C0090004E1208619000527401F012329E
:1022E0003E900053EFF09043A6E0FFEF4401FFEF74
:1022F000F09043B6E0FFEF4401FFEFF0900053E0B1
:10230000FF1231D07B027AA079007F017E107D0020
:102310007C0012326A1230E29044C27401F07B02F7
:102320007AA07910123255EF4401FFEE4400FEED21
:102330004400FDEC4400FC7B027AA0791012326A62
:1023400090004E120829EF4E60367B027AA0791079
:10235000123255EF5401FFEE5400FEED5400FDEC37
:102360005400FCEF4E701990004E1208297BFF7A42
:10237000FF79FF78FF12066590004E12086180C059
:1023800090004E120829EF4E6005900052E4F09044
:102390000052E0FF2290007D7401F0900088E4F08C
:1023A0007F101231077F101231287D077F1D122800
:1023B000989058967404F0905897E4F090589EE4E2
:1023C000F0905B07E0FFEF4418FFEFF0905893E4C4
:1023D000F0905B88E4F0905B89E4F0905880740A98
:1023E000F0905881E4F0905883E4F090588874128B
:1023F000F09058897413F090588DE4F0904E017469
:1024000014F0900052740CF09000537401F07B00B3
:102410007A807D007C907F021210CA90007DE0FFE0
:10242000EF75F003A42484F582E43400F583E0FF23
:10243000904E0EEFF090007DE0FFEF75F003A424C6
:1024400082F582E43400F583E0FCA3E0FD7B027AB0
:102450004E790C1232D090007DE0FF1221182290AC
:102460000055E4F0900056E4F0900056E0FFEFC312
:102470009408502E900056E0FF7E09EF8EF0A4FFE6
:10248000AEF074312FF974343EFA7BFF121CA4EFC6
:1024900060089000557401F08008900056E004F048
:1024A00080C7900055E0FFEF703E900056E4F0903A
:1024B0000056E0FFEFC39410502E900056E0FF7ED0
:1024C0000DEF8EF0A4FFAEF074612FF974333EFA75
:1024D0007BFF120E44EF60089000557401F08008F5
:1024E000900056E004F080C7900055E0FF22900075
:1024F00055EFF0900056ECF0A3EDF0900055E0FFA2
:10250000EFD3941F5003D38001C340057F001232E4
:1025100029900055E0FFEF541FFF7E00EF25E0FFFC
:10252000EE33FEEF2400FFEE3444FEAA06A9077B3B
:10253000011232C1900058EEF0A3EFF0900055E088
:10254000FF7E02EF8EF0A4FFAEF0EF2400FFEE342A
:1025500044FEAA06A9077B01900056E0FEA3E0FF17
:10256000AD07AC061232D0900058E0FEA3E0FF2287
:10257000904E14E0FFEF5403FF90004FEFF09000F7
:102580004FE0FFEFD394015032904E11E0FF7E00F8
:1025900090004DEEF0A3EFF090004DE0FEA3E0FFC1
:1025A000EF7F00FE904E10E0FD7C00EE4CFEEF4D04
:1025B000FF90004DEEF0A3EFF0801F7B027A4E7982
:1025C000101232C190004DEEF0A3EFF090004FE0FA
:1025D000FFEFB40305904E12E0FF900083E0FFEFA1
:1025E0006005900088E4F090004DE0FEA3E0FF223B
:1025F00090FFFD1208F412089990FFFE1208F4856E
:102600000D83850E827401F0850D83850E82A3A350
:102610001208791205A2FF850D83850E82A3EFF0C3
:10262000850D83850E82A3E0FFEF603D850D8385D8
:102630000E82A3E0FF1229AB850D83850E82A3A332
:10264000120879850D83850E82E0FFE92FF9E43ABF
:10265000FA1205A2FF850D83850E82A3EFF0850D8A
:1026600083850E82E004F080B79000051208F42202
:102670007F287E007D007C001228327F03122A5DB5
:102680007F057E007D007C001228327F03122A5DC8
:102690007F0F7E007D007C001228327F03122A5DAE
:1026A0007F017E007D007C001228327F02122A5DAD
:1026B0007F057E007D007C001228327F06122A04EE
:1026C0007F0E122A047F2C122A047F08122A047F0C
:1026D00001122A047F0C122A047F03122A047F05A8
:1026E0007E007D007C001228322290FFFF1208F449
:1026F000EDF090FFFF1208F4EFF0850D83850E8258
:10270000E0FFEF1208CE271600272801273A0227FC
:102710004C030000275C850D83850E82A3E0FFEF4C
:102720002480FF122A048034850D83850E82A3E065
:10273000FFEF24C0FF122A048022850D83850E82BC
:10274000A3E0FFEF2494FF122A048010850D8385F7
:102750000E82A3E0FFEF24D4FF122A04900002129D
:1027600008F4227F007E007D007C0090005112085A
:10277000617F007E007D007C0090004D1208611298
:1027800031E8EF703F7F017E007D007C001228322F
:1027900090004D1208297B017A007900780012061A
:1027A0006590004D12086190004D120829D3EF94F6
:1027B0000AEE940040C97F017E007D007C009000FD
:1027C000511208619000511208292290FFFF12084F
:1027D000F4EFF0905120E0FFEF4420FFEFF0905134
:1027E00020E0FFEF54BFFFEFF07F007E0012303C8F
:1027F000905120E0FFEF54F0FFEFF0905120C083A4
:10280000C082E0FF850D83850E82E0FEEE4410FE5F
:10281000EF4EFFD082D083EFF07F017E0012303C7C
:10282000905120E0FFEF54EFFFEFF090000112080D
:10283000F42290FFFC1208F4120861850D83850EC6
:1028400082120829D3EF9400EE9480402F900098D4
:10285000120829123000850D83850E82C083C08244
:10286000120829EF2400FFEE3480FEED34FFFDEC6A
:1028700034FFFCD082D08312086180BF90008E129A
:102880000829850D83850E821208351206801230C4
:10289000009000041208F422900055EFF0900056CA
:1028A000EDF0900056E0FFEFD394075003D3800182
:1028B000C340057F00123229900055E0FFEFD3940A
:1028C0001F5003D38001C340057F001232299000BE
:1028D00056E0FFEF5407FF7E00EF75F020A4FFAE37
:1028E000F0900055E0FEEE541FFE74802EF582E459
:1028F0003444F583EFF022900055EEF0A3EFF09012
:1029000000577402F0900055E0FEA3E0FFD3EF946F
:10291000FFEE947F50359000577401F07B027AA04F
:102920007916900055E0FCA3E0FD1232D07B027ACC
:10293000A079161232C1900055E0FCA3E0FDEFB57E
:102940000509EEB50405900057E4F0900057E0FF4C
:1029500022906472E0FFEF54C0FF90004DEFF090C2
:10296000004DE0FFEF4409FF906472EFF090649235
:10297000E0FFEF4401FFEFF07FFF12328F7FFF1285
:10298000329F7F0A1231667F001232AF12323E90C0
:10299000004EEFF0906492E0FFEF4410FFEFF090F4
:1029A000004EE0FF1231D01232DD2290FFFF1208FC
:1029B000F4EFF090FFFF1208F41214B7850D838531
:1029C0000E82A3E0FFEFC4540FFF850D83850E82B6
:1029D000EFF0850D83850E82E0FF1227CB850D83F6
:1029E000850E82A3E0FFEF540FFF850D83850E82D5
:1029F000EFF0850D83850E82E0FF1227CB90000259
:102A00001208F42290FFFF1208F4EFF090FFFF127B
:102A100008F41214B7850D83850E82A3E0FFEFC47E
:102A2000540FFF850D83850E82EFF0850D83850E93
:102A300082E0FF122A5D850D83850E82A3E0FFEF01
:102A4000540FFF850D83850E82EFF0850D83850E73
:102A500082E0FF122A5D9000021208F42290FFFF2C
:102A60001208F4EFF0905120E0FFEF549FFFEFF0D9
:102A7000905120E0FFEF54F0FFEFF0905120C08321
:102A8000C082E0FF850D83850E82E0FEEE4410FEDD
:102A9000EF4EFFD082D083EFF07F017E0012303CFA
:102AA000905120E0FFEF54EFFFEFF090000112088B
:102AB000F4224100A1014100A2004100A500410013
:102AC00088004100830041007E00410084004100F5
:102AD0007D014100A4004100A3004100A600440084
:102AE00093016E360044008E00005DC041009218D4
:102AF0004400982EE000004100A7FF43009C000026
:102B0000004100A8000090004EEFF012323E90000D
:102B10004FEFF09046F8E0FFEF4403FFEFF09046F0
:102B2000F9E0FFEF4403FFEFF090004EE0FF905814
:102B300092EFF07F037E0012303C9046F8E0FFEF0A
:102B400054FCFFEFF09046F9E0FFEF54FCFFEFF08C
:102B500090004FE0FF1231D022900043E4F090004B
:102B600043E0FFEFD3941F503D900043E0FF7E020F
:102B7000EF8EF0A4FFAEF0EF2400FFEE3444FEAA87
:102B800006A9077B01C003C002C0017BFF7A33792D
:102B90005AAC02AD01D001D002D0031232D0900065
:102BA00043E004F080B822900055EFF09000567496
:102BB00001F0900055E0FFEF701B90A015E0FFEFD3
:102BC00054EFFFEFF090A015E0FFEF20E42090001D
:102BD00056E4F0801990A015E0FFEF4410FFEFF0ED
:102BE00090A015E0FFEF30E405900056E4F090006F
:102BF00056E0FF22900055EFF09000567401F090DF
:102C00000055E0FFEF701B90A014E0FFEF54EFFFC2
:102C1000EFF090A014E0FFEF20E420900056E4F0E5
:102C2000801990A014E0FFEF4410FFEFF090A01483
:102C3000E0FFEF30E405900056E4F0900056E0FF2E
:102C400022900055EFF09000567401F0900055E08E
:102C5000FFEF701B90A014E0FFEF54FEFFEFF09029
:102C6000A014E0FFEF20E020900056E4F0801990DF
:102C7000A014E0FFEF4401FFEFF090A014E0FFEF9D
:102C800030E005900056E4F0900056E0FF229000FE
:102C900050EFF0900050E0FFEFC3940250399000E5
:102CA00050E0FFEF25E02479F582E43434F583E445
:102CB00093FE740193FF8F828E83C083C082E0FFF6
:102CC000900050E0FEEE90347D93FEEEF4FEEF5E59
:102CD000FFD082D083EFF02290004FEFF090004FB2
:102CE000E0FFEFC39402503690004FE0FFEF25E085
:102CF0002479F582E43434F583E493FE740193FF80
:102D00008F828E83C083C082E0FF90004FE0FEEE92
:102D100090347D93FEEF4EFFD082D083EFF022906F
:102D2000004D12086190004D12082990007F120892
:102D30003512067290004D1208617FE87E037D0017
:102D40007C0090004D120835120680900089120810
:102D500035122E32900051EEF0A3EFF0900051E0CA
:102D6000FEA3E0FF22C0E0C083C082C085C084C053
:102D700086758600C093759300C0D075D000C007DB
:102D800090A0017410F09000A27401F090A0A0E057
:102D9000FFEF4401FFEFF0D007D0D0D093D086D022
:102DA00084D085D082D083D0E03290004DE4F09082
:102DB000A020E0FFEF5401FF7E00EF4E600890007E
:102DC0004D7401F080227B027AA07920123255EFF7
:102DD0004401FFEE4400FEED4400FDEC4400FC7BAA
:102DE000027AA0792012326A90004DE0FF22900012
:102DF0004DE4F090A030E0FFEF5401FF7E00EF4E75
:102E0000600890004D7401F080227B027AA0793036
:102E1000123255EF4401FFEE4400FEED4400FDEC9C
:102E20004400FC7B027AA0793012326A90004DE0B7
:102E3000FF22C2D5E830E70FB2D5E4C39BFBE49A8A
:102E4000FAE499F9E498F8EC30E717B2D5122E6855
:102E500012070BE4C39BFBE49AFAE499F9E498F8AF
:102E6000800312070B30D50DE4C39FFFE49EFEE400
:102E70009DFDE49CFC22900055EEF0A3EFF0900045
:102E8000577401F07B027AA07904900055E0FCA30E
:102E9000E0FD1232D07B027AA079041232C1900098
:102EA00055E0FCA3E0FDEFB50509EEB50405900083
:102EB00057E4F0900057E0FF227B0C7A0179CF12A3
:102EC000330E900043EFF0900043E0FFEF5407FF14
:102ED00090586EEFF0900043E0FFEFC4540FFFEF07
:102EE000540FFF90586FEFF090510D7401F0905B0C
:102EF000007410F09058767466F02290004DEFF058
:102F0000900083E0FFEF600C900088E0FF90004E9F
:102F1000EFF0800E904E01E0FFEF5401FF90004E65
:102F2000EFF090004EE0FFEF6401600890004DE08C
:102F3000FFEF60CC90004EE0FF2290FFFF1208F4FC
:102F4000EFF0850D83850E82E0FFEFC4540FFFEF95
:102F50009034A793FF12319D850D83850E82E0FF8B
:102F6000EF540FFFEF9034A793FF12319D900001B3
:102F70001208F422758600EF4E6027EF60010E758F
:102F8000930090004DE0F595A3E0F585A3E0F5846E
:102F90008B938A838982E0A30586F0A31586DFF6EA
:102FA000DEF4E4F593F5952290004DE4F09000A551
:102FB000E0FFEF7008121F2B90004DEFF090004DD6
:102FC000E0FFEF700E9000A57401F01222CA90008D
:102FD0004DEFF090004DE0FF2290004FE4F09000A4
:102FE0004FE0FFEFC39402501090004FE0FF122C0F
:102FF0008E90004FE004F080E59000A774FFF0226F
:10300000EC4D4E700D78FCEF24E950032840FD2272
:1030100000007BF178DA0000EF28FF78FFEE38FE41
:10302000ED38FDEC38FC50E7EF2BFFEE38FEED38C5
:10303000FDEC38FC40F2220502030432EEFA900067
:1030400092E0F88FF0A4FFAEF0E88AF0A42EFEE53F
:10305000F03400FDEF24C9FF78FFEE38FEED38FDB7
:10306000E438FC500302300022ACEAADA08B938A16
:10307000838982E0F96017A3E0F5EAA3E0F5A0A355
:10308000E060F4FAA3E0F8A3E0F2DAF8D9E98DA061
:103090008CEAE4F59322EFB40A07740D1230A174A0
:1030A0000A309811A899B8130CC2983098FDA899C5
:1030B000C298B811F63099FDC299F599224144435E
:1030C0000053570050574D0025752E252E3375009F
:1030D00070726573736564200072656C65617365F9
:1030E00064009000547401F090A004E0FFEF4401EC
:1030F000FFEFF090A004E0FFEF30E005900054E413
:10310000F0900054E0FF2290004DEFF0904082C01C
:1031100083C082E0FF90004DE0FEEE54F8FEEF4EDB
:10312000FFD082D083EFF02290004DEFF09041026B
:10313000C083C082E0FF90004DE0FEEE54F8FEEF49
:103140004EFFD082D083EFF02290007EE0FFEF7040
:1031500011900084E0FFEF700312239590007E74BD
:1031600001F01221FC2290FFFF1208F4EFF0850D10
:1031700083850E82E0FF906422EFF0900001120838
:10318000F42290004EEFF0122FD990004EE0FF1283
:103190002CD890004EE0FF9000A7EFF02290FFFFA8
:1031A0001208F4EFF0850D83850E82E0FF1229AB43
:1031B0009000011208F422EC4D6011ED60010C8BBF
:1031C000938A838982E4F0A3DDFCDCFA7593002204
:1031D000EF54016004D2AF8002C2AFEF5402FF90FF
:1031E00044F4E054FD4FF022905101E0FFEF540809
:1031F000FF7E00EF7803CEC313CE13D8F9FF2290E1
:1032000000A3E0FFEF70091226709000A37401F094
:103210001232F6229000A6E0FFEF700912295190B9
:1032200000A67401F01233022290FFFF1208F4EF9F
:10323000F09046EA7401F09000011208F4229044E4
:10324000F4E0F84402F0E85402FF10AF01227401E8
:103250004FFF228B938A838982E0FFA3E0FEA3E0E5
:10326000FDA3E0FC759300228B938A838982EFF0A3
:10327000A3EEF0A3EDF0A3ECF075930022900048CC
:10328000EFF0900048E0FF900048EFF080FE2290C1
:10329000004FEFF090004FE0FF906402EFF02290BB
:1032A000004FEFF090004FE0FF906442EFF022906B
:1032B000004FEFF090004FE0FF906482EFF0228B20
:1032C000938A838982E0FFA3E0FE759300228B93AB
:1032D0008A838982EDF0A3ECF07593002212334EBD
:1032E000EF30E40512335480F422904E00E0FFEFFB
:1032F0004401FFEFF0227F0C122A049000A4740115
:10330000F022906472E0FFEF4480FFEFF0228B9395
:103310008A838982E0759300FF228B938A83898256
:10332000EDF0759300227B027A4079801232C1223F
:10333000904082E0FFEF5407FF227B027A41790040
:103340001232C122904102E0FFEF5407FF22906445
:1033500062E0FF22906452E0FF2280FE323232327D
:103360003200008000A8FFFFFFFF00000000010006
:10337000000000000000000000000002000000004B
:10338000000000000000000003000000000000003A
:103390000000000000040000000000000000000029
:1033A0000000050000000000000000000000000612
:1033B0000000000000000000000000000700000006
:1033C00000000000000000000008000000000000F5
:1033D00000000000000009000000000000000000E4
:1033E0000000000A000000000000000000000000D3
:1033F0000B0000000000000000000000000C0000B6
:10340000000000000000000000000D0000000000AF
:10341000000000000000000E00000000000000009E
:10342000000000000F00000000000000000000008D
:10343000000000080000002000000100180000004B
:103440000000100200000000000000000300000067
:103450000000000000040000000000000000050063
:103460000000000000000006000000000000000056
:103470000700000000000000005B03432440000040
:10348000514000300051C000100051F00010010008
:1034900000100001140008000140000A00014C0067
:1034A00002000150000020303132333435363738D5
:0734B0003941424344454647
:00000001FF
